:100000002BC1000046C10000B9C300000C94AA1423
:100010000C940F100C9402103CC100003AC1000077
:1000200038C1000036C1000034C1000087C20000A2
:1000300030C1000057C700001EC70000E0C6000026
:1000400028C1000026C1000024C100000C949016B5
:1000500020C100001EC100000C94681D690A440AFA
:100060007A0A780A7A0A7A0AE0097A0A7A0A7A0A0D
:100070007A0A7A0A5D0A7A0A7A0A7A0A7A0A0B0AEC
:10008000E009D5097A0AD2090B0A580B310B6E0B1D
:10009000990A6E0B6E0BAC0A220B6E0B6E0B6E0B7D
:1000A0006E0B4B0B6E0B6E0B6E0B6E0BD70AAC0A06
:1000B0009E0A6E0B920AD70A6E0B110B9C179F17A4
:1000C00003190319031903192F18E917591864188C
:1000D000C817D418D918D918F618A617B017B0171A
:1000E000C817C8170E1976187D1832193E19741AD8
:1000F000741A741A741A99199919991999199919DC
:10010000A41AAA1AAA1AF11A4A1958196A197819B6
:100110008719CE19DD19FD19398237822F812B01FC
:1001200003012C0104011C811A8118813A4F70656A
:100130006E4852323072666D2045302E3035204F79
:10014000637420203220323030392031383A313651
:100150003A3237205265763235305F4A440A002001
:10016000570020580020453A002049733A200020CB
:10017000423A2000424F4F540020533A2000204979
:100180003A200020563A2000443A2000AAAA2DD452
:100190000123456789ABCDEF1F1C1F1E1F1E1F1FAC
:1001A0001E1F1E1F00001F003B005A007800970012
:1001B000B500D400F300110130014E013F065B4F42
:1001C000666D7D077F6F777C395E797163547376D6
:1001D00030084001484109495054105C0033273829
:1001E000583E786E200116072016011620160216BA
:1001F00020160316201604162016051620160616BD
:10020000201607160B011F241616161620160C169C
:10021000200E1C1C000F0F20001D202000120E1DA0
:100220000B0A2626200E0220200E0320200E04207A
:100230000E0E121C28241F1B02031B19180001009C
:1002400002030405060708090A3935423E0C0D0E63
:100250000F1011121314150011241FBECFEFD4E09C
:10026000DEBFCDBF11E0A0E0B1E0ECEAFCE302C0EC
:1002700005900D92A831B107D9F713E0A8E1B1E0DC
:1002800001C01D92AA39B107E1F70E9494120C94A3
:10029000551EB6CE40911A0150911B014B305105AD
:1002A000ECF0809100018823C9F42091180130916D
:1002B0001901F90193E0EE0FFF1F9A95E1F7CA01CA
:1002C0006AE070E00E94C81D220F331FC9018E0F23
:1002D0009F1F0E94C81D862F90E008958FEF90E029
:1002E000089580911A0190911B01892B19F480E0E7
:1002F00090E0089590E080910001811191E081E00B
:100300009827892F90E00895482F882379F4109238
:100310006E0080916B008F7E80936B00739814BA8F
:100320002F9888E484BD10928D02089580918D02EB
:10033000841709F465C080918D02882389F010929A
:100340002101109220011092240110922301109299
:1003500026011092250182E08093010110928D0206
:1003600040938D02739A90916603809100018823D7
:1003700019F48091650302C080916403282F30E056
:10038000892F90E0BC01269FC001279F900D369FCA
:10039000900D112464E670E00E94B41D33E0660FF6
:1003A000771F3A95E1F770932A01609329018091B4
:1003B000290190912A01880F991F880F991F909306
:1003C0001F0180931E0181E085BB16BC80936E00E7
:1003D0008CB18093220180916B00806180936B00CF
:1003E0008091610387BD4F3F31F488E084BB2F9833
:1003F00089E684BD089580E184BB2F9A89E784BD96
:100400000895982F80910001882309F042C0943606
:1004100049F480911A0190911B01909328018093D7
:10042000270121C0992329F4109228011092270155
:100430001AC0892F90E020911A0130911B01359547
:10044000279535952795AC01429FC001439F900D9C
:10045000529F900D112469E170E00E94C81D7093B5
:1004600028016093270180918D02882391F42091C7
:10047000180130911901809127019091280182176C
:10048000930714F48FEF40CF2817390714F481E055
:100490003BCF089580911C0190911D0181529E4493
:1004A00008F04BC080910101882309F043C02091DE
:1004B0001C0130911D012C5F3F4F53E0369527956D
:1004C0005A95E1F780916603281B310980916703F3
:1004D00090E0AC01249FC001259F900D349F900DAA
:1004E000112464E670E00E94C81D80916803282FE3
:1004F00030E0261737074CF088279927821B930B8B
:100500009B01681779070CF49C0187B5A901480F76
:10051000511D8091610390E0841795074CF0809104
:100520006003282F30E0CA01421753070CF4C901B9
:1005300087BD089581508093010108951F920F9205
:100540000FB60F9211248F939F9380911E0190916B
:100550001F01892B99F08091200190912101019632
:10056000909321018093200180911E0190911F01A1
:10057000019790931F0180931E0114C08091200168
:100580009091210190931D0180931C0114BA2F9822
:1005900088E484BDF59A80916B008F7E80936B0018
:1005A00010926E009F918F910F900FBE0F901F9031
:1005B00018951F93CF93DF9310918D0280E0A4DEF6
:1005C00080911E0190911F01892B31F080910001D3
:1005D000882309F46DC025C0113009F040C0C091D6
:1005E0001801D091190180910001823079F5D093E2
:1005F0001B01C0931A018091690390916A03892BB2
:10060000C9F4C436D1056CF0D0936A03C093690372
:1006100086E10E94BF1687E10E94BF16109200017A
:1006200047C08FEF8093000180912E0188608093F6
:100630002E013EC08FEF68DEC85ED340D093280104
:10064000C093270183E08093000132C080911A019A
:1006500090911B01909319018093180129C01F3FAD
:1006600039F580910001833089F4109200012091C6
:1006700018013091190180911A0190911B01821B80
:10068000930B90931B0180931A010EC08091180167
:1006900090911901853691053CF0109300018091ED
:1006A0002E01886080932E0110921901109218017A
:1006B00080910001882379F480911A0190911B01A7
:1006C0008436910544F48FEF8093000180912E01D0
:1006D000886080932E01DF91CF911F9108951F9321
:1006E000182F8823B1F480E00FDE109219011092C8
:1006F000180110921B0110921A018EEF80930001D5
:1007000085E08093020180912E01877F80932E01E6
:1007100033C080910201882321F08150809302012F
:100720000FC080910001813059F482E08093000174
:1007300088EE93E0909328018093270181E0E4DD27
:10074000809100018E3FC1F4133069F48FEF9FEF69
:1007500090936A038093690386E10E94BF1687E144
:100760000E94BF1606C0123021F410926A03109244
:10077000690381E0809300011F9108951F920F92F9
:100780000FB60F9211241F932F933F934F935F93B4
:100790006F937F938F939F93AF93BF93EF93FF9349
:1007A0006CB1462F60FD0AC08091C10080698093C2
:1007B000C10080916B008E7F80936B0080916B00F5
:1007C00084FF7FC080912201862784FF7AC0209118
:1007D0002001309121018091230190912401281B57
:1007E000390B8091200190912101909324018093F5
:1007F000230144FD5BC08091630390E0880F991F43
:100800008217930708F05DC02091250130912601E1
:100810008091620390E0880F991F8217930708F078
:1008200050C0209118013091190180918D029927B3
:1008300087FD9095820F931F909319018093180163
:10084000809120019091210190931D0180931C01C2
:100850001092260110922501109221011092200180
:100860001092240110922301F49A209118013091E2
:10087000190180912701909128012817390769F4FF
:1008800014BA2F9888E484BDF59A80916B008F7E0E
:1008900080936B0010926E0014C08091290190919A
:1008A0002A0190931F0180931E010BC080912501A6
:1008B000909126018217930720F43093260120930C
:1008C00025016093220180916B0086FD43C044C0E6
:1008D00080916B008F7B80936B00789480912902CC
:1008E0008230C9F420912802E22FF0E0E254FD4F5B
:1008F000808190E02F5F20932802986B0E943C0E2D
:1009000090912802809108019817E0F083E080938D
:100910002902F79A21C08430A9F41091280280E0BE
:1009200090EB0E943C0EE12FF0E0E254FD4F8083FB
:100930001F5F10932802F79A103520F085E080930E
:1009400029020AC0F894000080916B0080648093B3
:100950006B0000006699BCCFFF91EF91BF91AF9102
:100960009F918F917F916F915F914F913F912F91C7
:100970001F910F900FBE0F901F90189590912B0113
:10098000980F90932B01993010F489E003C09E33A7
:1009900018F08DE380932B0110922D018AE0809353
:1009A00005010895982F8F3F49F480912B01809382
:1009B000330180912C01809334010AC08E3FA1F451
:1009C0008091330180932B018091340180932C011D
:1009D00020E080910401882309F421E020930401A0
:1009E0008AE08093050104C0809304011092050100
:1009F00080910401882349F09E3F39F080E00E94F5
:100A0000C91080932C0180932B0110922D01089521
:100A1000CF92DF92EF92FF920F931F93C62E8823FF
:100A200021F480912C018823E9F490E080912C013D
:100A3000811191E0892F0E94C910982F882391F08D
:100A400080932C0180910401882361F090932B0105
:100A50008091050187FF06C080910301981711F06E
:100A6000109205010091100310912D01112319F02E
:100A70008091780302C080917703282F30E0802F87
:100A800090E08096821B930B60E270E00E94C81D8C
:100A900060E177E240E050E0282F30E0F901EE0F0E
:100AA000FF1FEF5EFC4F0190F081E02D309741F089
:100AB000E617F7070CF4BF014E175F070CF4AF0100
:100AC000801729F02F5F3F4F822F8F71E5CFE09184
:100AD0003902F0913A029F01261B370B8091760371
:100AE00090E0821793072CF4112391F010922D01BE
:100AF0000DC0112369F44E1B5F0B8091750390E0CC
:100B0000841795072CF481E080932D011092050144
:100B10008091060190910701009729F00197909329
:100B20000701809306018091050118161CF481507D
:100B3000809305014091060150910701411551052F
:100B400029F080910501882309F02FC130912B01F4
:100B50003A3018F080912D0181113AE08091030123
:100B6000381739F0309303011092300110922F01A1
:100B700003C0452B09F014C180915C0325E0829FDE
:100B8000C001112490930701809306013D3318F0B2
:100B9000C0905F0305C182E3389F900111242E1B92
:100BA0003F0B48EF2033340714F420E338EF89017A
:100BB000215D374014F000ED17E0809131019091F4
:100BC0003201009709F443C08E1B9F0B71F498010A
:100BD00017FF04C022273327201B310B80915B03B2
:100BE00090E08217930754F032C01816190624F4C7
:100BF000101611061CF02BC017FF29C06091590375
:100C000070E080E092E30E94C81D601771075CF4F9
:100C100080912F0190913001860F971F90933001A2
:100C200080932F0114C088279927861B970B20914A
:100C30002F0130913001081719071CF4261B370BC0
:100C400002C0200F311F3093300120932F01F09309
:100C50003201E0933101D0905A03DD2019F460E0B5
:100C600072E306C06D2D70E080E092E30E94C81D23
:100C700080912F01909130016817790734F07095B9
:100C800061957F4F8617970724F470933001609326
:100C90002F01B80117FF04C066277727601B710B6F
:100CA000882777FD8095982F2091580330E040E009
:100CB00050E00E947C1D9B01AC016091590370E0E3
:100CC000762F662780E090E0620F731F841F951FC8
:100CD0009801442737FD4095542F0E947C1D672FB3
:100CE000782F892F992787FD9A9520915E0330E010
:100CF000322F222779010027F7FC0095102F4D2D68
:100D000050E020912F0130913001F9014E9F900168
:100D10004F9F300D5E9F300D1124442737FD4095C5
:100D2000542FE20EF31E041F151FE60EF71E081FB8
:100D3000191FF1E0EF16F4E6FF06F0E00F07F0E010
:100D40001F071CF080915F0304C017FF04C080914F
:100D50005D03682F24C08C2D992787FD9095982FCF
:100D60008827A701481B590BCA0181509F4F8F5FED
:100D7000914010F46C2D13C02F2D332727FD3A9589
:100D800080915F03682F70E06217730744F08091D1
:100D90005D03682F70E0261737070CF0622FC62E10
:100DA0008FEF809305018C2D15D220913702309161
:100DB000380221153105D1F08091740344E1849FFC
:100DC000C00111242817390720F480912E01806C6E
:100DD0000BC080917303849FC00111242817390729
:100DE00028F480912E01806480932E018C2D90E058
:100DF0001F910F91FF90EF90DF90CF9008951F9279
:100E00000F920FB60F9211248F93EF93FF93E1ECA3
:100E1000F0E08081877B8083FF91EF918F910F902D
:100E20000FBE0F901F90189582E08093C000109223
:100E3000C50083E38093C40086E08093C200EBE6A4
:100E4000F0E08081816080830895F8948091C100F2
:100E500085FD0FC08091C1008F7B8093C100809180
:100E6000C00080648093C0008091C100886280933C
:100E7000C100789408951F920F920FB60F9211241B
:100E80002F933F934F935F936F937F938F939F9392
:100E9000AF93BF93EF93FF9384D0882319F080938F
:100EA000C6000FC08091C1008F7D8093C1008091EA
:100EB000C00080648093C0008091C10080648093F2
:100EC000C100FF91EF91BF91AF919F918F917F9161
:100ED0006F915F914F913F912F910F900FBE0F90A7
:100EE0001F9018951F920F920FB60F9211242F93F7
:100EF0003F934F935F936F937F938F939F93AF93A2
:100F0000BF93EF93FF938091C6005ED0E1ECF0E0D9
:100F100080818F768083EBE6F0E080818160808342
:100F2000FF91EF91BF91AF919F918F917F916F91C1
:100F30005F914F913F912F910F900FBE0F901F9097
:100F400018958A3018F080E090E00895E82FF0E0DE
:100F5000EE0FFF1FE85EFE4FA591B491B7FF04C0EE
:100F6000BF778D919C9108958C9190E00895582FB2
:100F7000F89440913701E42FF0E09F012F5F3F4F3D
:100F80002F7730708091380190E02817390739F0B9
:100F9000E75CFE4F50834F5F4F7740933701789463
:100FA00008952091380180913701821711F480E073
:100FB00009C0E22FF0E0E75CFE4F80812F5F2F77C2
:100FC0002093380190E00895282F8823F9F08D3080
:100FD00009F42AE080913501E82FF0E0E754FE4F54
:100FE0002083982F9F5F9F719093350180913601E8
:100FF000981721F49F5F9F71909336012A3031F446
:10100000F69A8091D9018F5F8093D9010895F89461
:101010002091360180913501821779F0E22FF0E0BE
:10102000E754FE4FE0812F5F2F71209336018091AE
:10103000D90181508093D90103C01092D901E0E019
:1010400078948E2F90E008951F93182F843650F0D7
:1010500064E60E949B1D805D8ADF812F64E60E940A
:101060009B1D192F812F6AE00E949B1D805D7FDFF1
:10107000812F6AE00E949B1D892F805D78DF1F9180
:1010800008950F931F938C0164E670E00E94B41DD5
:10109000CB01DADFC80164E670E00E94B41DD4DF42
:1010A0001F910F9108951F93182F82958F708A308A
:1010B00010F0895A01C0805D5ADF812F8F708A300D
:1010C00010F0895A01C0805D52DF1F9108950F937F
:1010D0001F938C01812F9927E6DF802FE4DF1F917A
:1010E0000F910895CF93DF93EC0102C040DF21966A
:1010F000FE0184918823D1F7DF91CF9108950F935A
:101100001F93082F10E01EC082DF982F282F205336
:101110002A3038F08156863010F4275202C0892FC9
:1011200019C0E12FE69510FF06C0F0E0E652FE4F31
:101130008081280F05C0F0E0E652FE4F2295207F07
:1011400020831F5F101701F762DF8A3019F480E0F7
:1011500090E001C090E01F910F9108951F93162F0A
:1011600006DF8BE504DF812F9EDF8DE500DF8DE359
:10117000FEDE1F9108950F931F938C01812F9927F5
:10118000C8D2802FC6D21F910F9108950F931F933D
:10119000CF93DF93082F86E5EADEECE2F1E01491CD
:1011A000EF0109C0812FE3DE002311F0812FB1D2BE
:1011B0002196FE0114911123A9F7DF91CF911F9180
:1011C0000F9108959091370180913801981709F097
:1011D0003CCE08951F93182F88E891E083DF80911B
:1011E0000F01805360DF80E2C2DE80910B012CDFB3
:1011F0008EE2BDDE80910A0127DF8EE2B8DE8091AB
:10120000090122DF80E2B3DE80910C011DDF8AE359
:10121000AEDE80910D0118DF8AE3A9DE80910E0118
:1012200013DF80E2A4DE80910401882311F48DE4B1
:1012300009C090912C0180912B01981711F481E441
:1012400001C08DE294DE83E891E04CDF17FD02C01F
:10125000812F02C080912E02F7DE8EE791E042DFFF
:101260008091390290913A020CDF89E791E03ADFF0
:10127000909103019D3320F084E791E033DF05C0B6
:1012800082E3989FC0011124FCDE8FE691E02ADF03
:101290008091370290913802F4DE89E691E022DFF6
:1012A00080912F019091300112DF80912E018823CF
:1012B00031F085E691E016DF80912E01F4DE17FF14
:1012C00003C082E691E00EDF80912D01882319F0A2
:1012D0008FE591E007DF8AE04ADE74DF1E3F29F0E8
:1012E00081E08093E10184E414D220910D0180918A
:1012F0000401882311F490E00BC090912C0180919F
:101300002B01981719F090E880E002C090E880E483
:10131000822B892BFED190910E0180912D01882383
:1013200011F080E401C080E0892BF3D180912E017F
:10133000F0D180913A02EDD180913902EAD18091C9
:101340003802E7D180913702E4D180912B01E1D1BD
:1013500017FD02C0812F02C080912E02DAD11092B7
:10136000E1011F910895A0E0B0E0E9EBF9E00C94F1
:10137000231EEC01D62EFF24BDC0FE01EF0DF11D92
:10138000E080F3948E2D8068C4D18E2D90E0FC0116
:10139000E154F040E731F10508F0ACC0E25DFF4FE9
:1013A0000C944F1E81E0F2DEA5C08E010F0D111DC1
:1013B000F8018081AED1F8018081C3DDDCDE62C03E
:1013C000F3E5EF1689F4DE01AF0DB11DEC91E033CA
:1013D00058F42E2F30E02D5A3C4FFD018181F90148
:1013E00080838C910E94BF168E010F0D111DF80194
:1013F00080818FD1F80100810F3F11F483EE05C089
:10140000E02FF0E0ED5AFC4F808183D1F3E5EF1639
:10141000C9F5F39437C087E5E816C1F4FE01EF0D76
:10142000F11D21818081422F50E04F705070542F68
:1014300044279281490F511D682F6F7022952F709C
:1014400082958F700E94701210922C018E010F0DE8
:10145000111DF80180815DD1F8012081822F8295D4
:101460008F7090E033E0880F991F3A95E1F72F7065
:10147000820F911D0E9423177EDEF7E5EF1611F40F
:1014800082E0F80EF39436C0FE01EF0DF11D80816D
:10149000833181F48181843269F4F89488E190E0A9
:1014A00028E00FB6F894A895809360000FBE2093B3
:1014B0006000FFCFE2E0FE0E1DC090E0FE01EF0DE8
:1014C000F11D8081813009F491E0F394892F6ADA6B
:1014D0000FC0FE01EF0DF11D8081893058F08E3371
:1014E00048F48AE080930501808180932B01F39476
:1014F0008EEF70DEFD1408F440CFE7E0CDB7DEB725
:101500000C943F1E1F93EBC082DD182F90E0FC016E
:10151000E154F040E931F10508F0E0C0EB5BFF4F2A
:101520000C944F1E74DD8A3009F0D8C080E02EDEA6
:10153000D5C06DDD8A3009F0D1C081C082E0DFDD29
:10154000882309F0C9C06091DA0184E507DE809143
:10155000DA01F7DCBCDDC0C0173431F482E0CFDD46
:10156000882309F0B9C013C084E0C9DD882309F0DD
:10157000B1C09091DA01903350F4E92FF0E0ED5AC8
:10158000FC4F8091DB018083892F0E94BF16609100
:10159000DA01812FE3DDE091DA01EF3F11F483EE10
:1015A00004C0F0E0ED5AFC4F80817DDD93C0123520
:1015B00031F482E0A4DD882309F08EC01CC086E0EF
:1015C0009EDD882309F086C02091DB01422F50E088
:1015D0004F705070542F44278091DC01480F511DEB
:1015E0008091DA01682F6F7022952F7082958F702D
:1015F00077D710922C016091DA01812FAFDD209115
:10160000DA01822F82958F7090E073E0880F991F26
:101610007A95E1F72F70820F911D0E94231757DDF5
:1016200059C086E06CDD882309F056C08091DA014C
:1016300091D68091DB0191D68091DC0196D68FEF17
:10164000C9DD4CC086E05BDD882309F045C0809190
:10165000DA0153D48091DB0157D48091DC015BD453
:10166000EECF84E04CDD882309F036C08091DA01AA
:10167000833191F58091DB01843271F5F89488E132
:1016800090E028E00FB6F894A895809360000FBE14
:1016900020936000FFCF82E032DD8823E9F490E000
:1016A0008091DA01813009F491E0892F7BD90FC054
:1016B00082E025DD882381F49091DA01993060F091
:1016C0009E3350F48AE08093050190932B018FEFB5
:1016D00081DD02C0112311F08AE049DC73DD8091C5
:1016E000D901882309F010CF1F91089580E04EDDC5
:1016F0009BDB68CDAF81AA0FBFB7A7E00880BFBF53
:10170000001CBFB7008221963196A150B8F72897E8
:101710000895982F8091E101882369F48091080150
:101720008A34A8F4E82FF0E0E254FD4F90838F5FF5
:101730008093080108958091DD01863440F4E82FFC
:10174000F0E0EE51FE4F90838F5F8093DD010895AE
:101750008091DF0181508093DF0118167CF188238E
:1017600011F0823EE4F41092DF0180916B008F7BD8
:1017700080936B0081E89AEC7FD283E89AEC7CD26C
:1017800088ED92E879D21092280284E080932902B1
:1017900080916B00806480936B000C94BE038C3F3F
:1017A0006CF480916B008F7B80936B0080E092E8FB
:1017B00063D280912E01806180932E010895A8E06C
:1017C000B0E0E5EEFBE00C941E1E7C01062F6623C4
:1017D00069F110E09CE9892E92E0992E89E0A82E0B
:1017E00081E0B82E6E010894C11CD11CA401B50182
:1017F000C60105D3809110018F5F80931001E12F06
:10180000F0E0D701AE0FBF1FE770F070EC0DFD1DCB
:101810008C91908189278C931F5F101738F4812F4A
:1018200090E087709070892B51F7E0CFECE028961C
:101830000C943A1E1F93182F80916B008F7B80931E
:101840006B0088E192E818D244E050E06CE871E067
:101850008EEB92E00E946A1D80917A038093C3020E
:10186000112369F04091DD014A5F40930801465021
:1018700050E062EE71E084EC92E00E94731D609192
:1018800008016093C202665084EC92E098DF609198
:101890000801655020E049E051E083EC92E01DD260
:1018A000809110018F5F80931001809108018A5F01
:1018B000809308011092280282E08093290288E335
:1018C00092E8DAD1139880916B00806480936B006A
:1018D0000E94BE031F9108951F93809128028823C0
:1018E00009F412C1482F50E06091BE02262F30E06B
:1018F0002F7730704217530734F4203531051CF42C
:10190000803508F401C180916B008F7B80936B0060
:101910002417350724F4862F8F778093280230917F
:101920002802363008F4DEC067FF72C06F7765505A
:1019300021E040E050E08FEB92E0CFD1882309F422
:10194000D1C01092290280E092E896D180912A02BB
:101950008B7F80932A0280912B028B7F80932B02B6
:101960008091BE028B3849F48091C3028093BD02FE
:101970008091C4028093BC0211C08D3861F48FEF56
:101980008093BD0244E050E063EC72E080E992E0B5
:101990000E94731D03C083E08093E0018AE080937E
:1019A000DF0180912E018F7E80932E0182E0809353
:1019B000B2008091BF02CED48091C00282958F7018
:1019C000CCD48091C002880F880F880F88719091C5
:1019D000C102929596959770890FC7D48091C102E4
:1019E0008F718BD28091C20286958ED28091C20275
:1019F00080FF02C08EE101C080E08DD2F89480911A
:101A00002B028E7F80932B027894109228027CC048
:101A1000832F90E0019643E0959587954A95E1F7ED
:101A200020911001280F20931001355021E049E04A
:101A300051E0632F8FEB92E050D1182F6091280274
:101A4000862F90E0019623E0959587952A95E1F7FA
:101A500020911001281B20931001665080EC92E029
:101A6000AEDE809110018F5F809310011123D1F1C0
:101A70008091BF028823B1F51092DD0180912A0286
:101A80008B7F80932A0280912B028B7F80932B0285
:101A9000209128022730F0F086E080930801922FF1
:101AA00095503FE4E32FF0E0E254FD4FA92FB0E062
:101AB000A254BD4F8C91808331509150913091F759
:101AC000622F665084E193E0821B91094CDC80E038
:101AD000B1DE1AC0109228021092290280E092E82A
:101AE000CBD012C01092280284E08093290281E8B2
:101AF0009AECC2D083E89AECBFD080916B008064EE
:101B000080936B000E94BE031F9108950F931F9353
:101B1000CF93DF9348E050E06BE773E08CEA92E00C
:101B20000E94731D48E050E060E971E084EB92E0B0
:101B30000E946A1D20E030E0F901EC56FD4F822F33
:101B4000805480832F5F3F4F28313105A9F74CEA3D
:101B500052E064E972E0CB0152D14CEA52E06CE908
:101B600072E0CB014CD14CEA52E064EA72E0CB0166
:101B700046D1ECEAF2E0119282E0E43BF807D9F7B3
:101B80008F0108501040AF0140525040B801C801C9
:101B900036D1E801FE01AEDDE4EBF2E0ABDDDF9132
:101BA000CF911F910F9108958091DE01823059F1FC
:101BB000833021F08130A9F53DDE33C080916B0088
:101BC0008F7B80936B001092BD021092BC0281E863
:101BD0009AEC52D083E89AEC4FD088ED92E84CD042
:101BE000139880916B00806480936B000E94BE0309
:101BF00084E08093290282E08093DE016091B2004C
:101C00006A5FC4D10EC080912902823051F0809168
:101C10006B008F7B80936B001092290280E092E82A
:101C20002BD01092DE0108950F931F930BE610E066
:101C3000F80180818F7B8083109229021092280204
:101C400081E89AEC19D083E89AEC16D088ED92E8F6
:101C500013D084E080932902F8018081806480831E
:101C60000E94BE0382E08093DE016091B2006C5E50
:101C70008DD11F910F9108959C01139840E137FF7A
:101C800002C0889A01C08898899A880F991F66991E
:101C900081608998415019F0220F331FF0CF139AB9
:101CA0001398089580E090E0E7DF87EE90E8E4DFA6
:101CB00085E896EAE1DF80E196ECDEDF83EA94E9ED
:101CC000DBDF8BEE92ECD8DF81E89AECD5DF87EA98
:101CD00094ECD2DF80E398E9CFCFA8E0B0E0E3E76F
:101CE000FEE00C94181E6C01F62EBA01E22E8E0155
:101CF0000F5F1F4F452B41F4F801CE010996119259
:101D0000E817F90759F0FBCF48E050E0C8010E94FE
:101D1000731D44E952E0B801C80171D080E044EB82
:101D2000842E42E0942E5E010894A11CB11C39E07F
:101D3000232E312C2C0E3D1E20EE422E2FEF522E44
:101D4000480C591C32C0182F185F1F1540F01F1582
:101D500029F49CEA692E92E0792E01C03401A50194
:101D60009301982F9F1528F4F601E90FF11DE081EA
:101D700005C09F1511F4E0E801C0E0E01F1518F060
:101D8000D9018C91E827DA018C918E27FA01819391
:101D9000AF012F5F3F4FE215F30511F09F5FE2CFD8
:101DA000A201B501C5012BD0812F8F1560F28E01E4
:101DB0000F5F1F4F8F2D90E0EE20A1F0F601E80F8E
:101DC000F91FD8019E012B5F3F4F90818C9198178E
:101DD00019F080E090E00FC031961196A217B3077A
:101DE000A1F707C044E050E0B8018C0D9D1D0E9492
:101DF000731D81E090E0E2E128960C94341E2F924E
:101E00003F924F925F926F927F928F929F92EF924A
:101E1000FF920F931F93CF93DB01FA012D903D901A
:101E20004D905D906D907D908D909D90DC0160E275
:101E3000062E22273327A901E89473018401C4E008
:101E4000EE0CFF1C001F111FCA95D1F7B301C4018E
:101E5000C5E09695879577956795CA95D1F7E6265B
:101E6000F72608271927E60CF71C081D191D2EF464
:101E7000C32FC695CC70E89405C0C22FC370CC0F99
:101E8000CC0F6894EC0FF11D608171818281938188
:101E9000EC1BF040620F731F841F951FE626F72688
:101EA00008271927E20CF31C041D151D130124013A
:101EB000370148014EF4C9EB2C0FC9E73C1FC7E3BB
:101EC0004C1FCEE95C1FB9CF0A9409F0B6CF2D9212
:101ED0003D924D925D926D927D928D929D92CF91A9
:101EE0001F910F91FF90EF909F908F907F906F9038
:101EF0005F904F903F902F900895885E68E10E9418
:101F00009B1D90930C010895845C6CE30E949B1DC3
:101F100090930D010895845C6CE30E949B1D909347
:101F20000E01089580910A01E82FF0E0E956FE4F76
:101F30002491823051F48091090190E08370907077
:101F4000892B19F48DE190E00895822F90E0089597
:101F500080910F018730B1F480910A01833039F408
:101F600020E030E080910B01893170F008C08A30A8
:101F700049F420E030E080910B01883128F021E025
:101F800030E002C020E030E0C9010895E82FF89465
:101F9000F0E081E090E00E2E02C0880F991F0A94B5
:101FA000E2F720912A02282B20932A02E55DFD4FBB
:101FB00060835091B200622F21FF0DC040912C022E
:101FC000842F90E0851B91098F3F910521F0242FEC
:101FD000251BE42F01C02FEF62FF0BC040912D02A3
:101FE000842F90E0851B910930E0821793070CF451
:101FF000E42FE093B3007894809170008260809326
:10200000700008950F930FB70F93F19A00912B0270
:10201000016000932B020F910FBF0F9118951F9233
:102020000F920FB60F9211242F933F934F935F930C
:102030006F937F938F939F93EF93FF935091B20091
:102040005150F19A90912A0291FF0AC080912C027E
:10205000581731F481E0809311019D7F90932A02FB
:1020600090912B02E0912A02E2FF06C080912D029E
:10207000581711F49460EB7F90932B02E0932A029F
:102080006E2FE1FF0DC040912C02842F90E0851B44
:1020900091098F3F910521F0242F251BF42F01C0BA
:1020A0002FEF62FF0BC040912D02842F90E0851B23
:1020B000910930E0821793070CF4F42FF093B300EA
:1020C000EE2329F4809170008D7F80937000FF9142
:1020D000EF919F918F917F916F915F914F913F9180
:1020E0002F910F900FBE0F901F901895A0E0B0E0B9
:1020F000ECE7F0E10C94191EF82E5B01882319F02F
:1021000048E0342E02C032E0332E55245A9466241F
:10211000CF2CDD24860123E0000F111F2A95E1F763
:10212000702E98E0492E400E88249924C0E0D0E01B
:1021300011C090E088D69F7025E0803A920748F45D
:102140008815990530F0A816B90618F05E2C500EC7
:102150004C012196EC2E8C2F870D841550F357FEE1
:1021600011C0FF2041F0C601059667E070E00E94B3
:10217000C81DF82EF394639480EAA82E85E0B82E4B
:10218000631431F6852D90E0E1E1CDB7DEB70C9414
:10219000351EFF920F931F93CF93DF93F82E9091EC
:1021A0000C018CE3989FE001112480910D01C80F70
:1021B000D11D80917203813011F000E002C00091C6
:1021C0000F01BE01802F92DF182F992787FD909570
:1021D0003AD6FC0117FD16C0FF2049F09F708C17FE
:1021E0009D0781F4159515951595101759F4EF2F46
:1021F000FF27E295EF70E370F070EC5AFC4F80819E
:1022000090E002C080E090E0E5E0CDB7DEB70C944E
:10221000411EA0E0B0E0EFE0F1E10C94221EC82ED8
:10222000C0EAD5E077E1D72EEE24FF248701BE0176
:102230008C2D5CDF87FF03C080E090E004C099270D
:1022400087FD909500D69C01207030739F708C178D
:102250009D0718F0CFEFDFEF02C0EC0121978CE370
:102260004D2D4802C001112414C050E22030350722
:1022700040F041E050E060E070E0E42AF52A062BEF
:10228000172B1D1424F4EE0CFF1C001F111FDA94F1
:10229000CC97C817D9074CF31C161D0644F2C80189
:1022A000B701E8E0CDB7DEB70C943E1EB2DF609315
:1022B000830370938403809385039093860308952A
:1022C0000F931F93CF93DF9380910A01E82FF0E0E3
:1022D000EE0FFF1FEE55FE4FC591D49190910B016B
:1022E000C90FD11D833040F08091090190E08370C7
:1022F0009070892B09F42196E0910901F0E08F019B
:1023000001501040C80164E070E00E94C81D9B01AC
:102310002E0F3F1FC80164E670E00E94C81D261BF7
:10232000370B2B5F3F4FC9018C0F9D1F67E070E09B
:102330000E94B41D282F2F5F20930F0180917203FC
:10234000813009F020E0822FB1DFDF91CF911F9122
:102350000F91089580930901B3CF855F6CE00E94CF
:102360009B1D9F5F90930A01ABCF1F93182FDADD5F
:10237000682F8150810F0E949B1D9F5F90930B01DE
:102380009FDF1F910895809170008E7F8093700071
:1023900088E08093B6001092B2008091B000856012
:1023A0008093B0002091B6008091B60090E08470D8
:1023B000907030E021703070822B932B892B91F735
:1023C0008FEF87BB8091700081608093700078CF21
:1023D0001F931092100180910E018F5F80930E0168
:1023E0008C3318F480E090E062C010920E0180916E
:1023F0000D018F5F80930D018C3308F456C010924D
:102400000D0180910C018F5F80930C01883160F188
:1024100010920C0187DD90910B019F5F90930B014F
:10242000891798F491E090930B0180910A018F5FD6
:1024300080930A018D3038F090930A018091090150
:102440008F5F8093090110920E0380910F0167E066
:102450000E949B1D9F5F90930F01809172038130BA
:1024600009F090E0892F22DF10910A01133051F416
:1024700080910C018230C9F46BDD8823B1F0109398
:102480000C0113C01A3089F480910C01833069F477
:1024900080910E03882349F45BDD882331F082E0CC
:1024A00080930C0181E080930E0381E090E01F9106
:1024B00008950F931F938A0190E023E0880F991FDE
:1024C0002A95E1F7860F911DBED49C01232F332757
:1024D00022952F70F80120839F701F910F9108950E
:1024E000362F8830F0F46830E0F42430D0F495E0F2
:1024F0004C3D590710F04FEF5FE0622F70E0762FF0
:1025000066277295707F642B752B90E043E0880FEF
:10251000991F4A95E1F7830F911DBBD481E090E0AC
:10252000089580E090E0089590E89093610081E044
:102530008093610090BF8FEF80937E008DE0809349
:10254000640088E183BB9EE095B981ED84B99DB9B3
:1025500083E48EB98BE080BB80EF81BB88E082B9D9
:1025600081B98EE280936C0080EC8DBB0CDF83B16F
:1025700020E090E0809590958E7090700E9709F411
:1025800021E0822F2CD4C2DA81E00E946F030E94E6
:102590006E1B88DB80E092E86FDB83B180958076EC
:1025A00080930F031EBA789483E090E0BBD3833E00
:1025B00039F063E083E10E941D1C0E941E1DFFCFC5
:1025C00095D883E89AEC58DB80EE90EC55DB88EDEB
:1025D00092E852DB80916B00806480936B000E94D4
:1025E000BE0384E080932902F8948EB3882329F5F2
:1025F00084B590E087709070892B21F48091C100A0
:10260000887111F081E007C080913602882311F0B3
:1026100083E001C087E083BF80913602882339F0D0
:102620001092360280917A00806480937A007894C8
:102630008895000086E083BF01C07894F79B0CC0AA
:10264000F79880912902833011F4EEDACDCF8450CF
:10265000823050F641D9C8CFF39B04C0F3980E9452
:102660001E1DC2CFF29B03C0F2988ED2BDCFF69B47
:1026700004C0F6980E94820AB7CFF59B04C0F59873
:102680000E94D902B1CFF49B07C0F4983CD10E94BC
:102690006F030E944A02A8CFF09B02C0F09871D14C
:1026A000F19BB5C0F19880912B0280FFA6C0F894F1
:1026B0008E7F80932B0278948BDE182F60912E02F0
:1026C0000E94080580932E021123D9F080912E01DB
:1026D000807C09F0B9C080910F01863009F0B4C048
:1026E00080910C018A3009F0AFC080910D018823E0
:1026F00009F0AAC01092300110922F010E946F03BE
:10270000A3C020917A032223D1F18091DF0182308E
:10271000B4F190910E01921721F48091DD0188238C
:1027200041F59F3148F090FF03C08091BD0202C087
:102730008091BC028217E9F08091BD028F3FF9F4CD
:10274000892F6EE10E949B1D9217C9F4809190021F
:1027500090919102A0919202B091930204C0B6951B
:10276000A795979587952A95D2F781709070892BB8
:1027700031F081E08093DE016CE082E007DC809143
:102780007A038823C1F08091DF018230A4F0809128
:102790000E018B3311F08D3171F48091E0018823AB
:1027A00021F081508093E00106C083E08093DE0138
:1027B0006DEF82E0EBDBA7D00E946F0380912E02C9
:1027C0000E94010244D080918D02882321F08091E3
:1027D0007903882309F0C7D18091140187FD03C0D4
:1027E00081508093140180E09AD38091E400886046
:1027F0008093E40081E080938A0280912B0282FF23
:1028000006C0F8948B7F80932B027894CDD9809169
:102810002F0290913002892B29F480911401882392
:1028200009F0E2CE80E0FCD4182F882311F081E07B
:10283000F7D4812F74D38091E40088608093E40002
:1028400081E080938A02D0CE0E94A80B5ACF90914B
:1028500033029923A1F4809135028F5F8093350272
:10286000882321F48FEF809335020895843109F095
:1028700049C080912F0290913002906235C08091C2
:1028800034028F5F80933402882321F48FEF80938A
:10289000340208958430B1F59830D1F0993028F49D
:1028A000923079F0943071F505C09A30C1F09E30C5
:1028B00049F51FC080912F02909130028062916093
:1028C00013C080912F0290913002806492600CC0FE
:1028D00080912F02909130028068946005C08091B1
:1028E0002F029091300298609093300280932F02D3
:1028F000089580912F029091300290619093300260
:1029000080932F0208952098289A0000000083B138
:102910002898209A8095877020912E0180FF0AC008
:10292000246020932E011092300110922F0180E03C
:1029300090E008952B7F20932E0181FF03C082E059
:1029400090E0089582FF03C083E090E0089581E065
:1029500090E008951F920F920FB60F9211248F935B
:1029600026982E9AF09A000083B180958E768093F7
:1029700031022E98269A8F910F900FBE0F901F90C4
:1029800018951F9320913102207680910F038227A2
:1029900085FF17C0222311F0203631F480912F02D9
:1029A00090913002826005C080912F029091300298
:1029B00081609093300280932F0210923502209311
:1029C0000F03109131021E7020913302121709F487
:1029D0005EC0112321F1222311F58091110188237A
:1029E000F1F0143031F480912F0290913002846024
:1029F0000FC0123031F480912F0290913002886024
:102A000007C0183061F480912F02909130028061EC
:102A10009093300280932F0281E080933202809164
:102A20003202882319F1243041F41123F9F0809106
:102A30002F0290913002806213C0223041F41123A2
:102A4000A9F080912F0290913002806409C0283053
:102A500069F4112359F080912F029091300280681F
:102A60009093300280932F021092320280911101D4
:102A7000882339F0109211016091B2006E5C81E000
:102A800085DA1093330210923402109235021F91AE
:102A90000895A0E0B0E0EFE4F5E10C94221E6B0194
:102AA000E82EFF24E701CC0FDD1FCC0FDD1FC35C38
:102AB000DD4F88819981AA81BB819B01442737FD25
:102AC0004095542F280F391F4A1F5B1F28833983D5
:102AD0004A835B83809112018F3070F180914502AF
:102AE000F70174E0EE0FFF1F7A95E1F7EE19FF0989
:102AF000E80FF11DEE0FFF1FE95BFD4F8081918113
:102B0000AA2797FDA095BA2F281B390B4A0B5B0B00
:102B1000CA01B901288339834A835B838701000F87
:102B2000111F095C1D4F2FE030E040E050E00E9493
:102B3000FD1DF8013183208380914502F70194E067
:102B4000EE0FFF1F9A95E1F7EE19FF09E80FF11D4F
:102B5000EE0FFF1FE95BFD4FD182C082E8E0CDB7E9
:102B6000DEB70C943E1E91E0909346028CE0809379
:102B700064008CE880937A0010927B008EE580934D
:102B80007C00909336020895CF92DF92EF92FF92ED
:102B90000F931F93809146028F5F8093460283308C
:102BA00081F0843020F4823009F0AAC006C084305D
:102BB000F1F0853009F0A4C023C08DE880937A003D
:102BC00012C0209178003091790040E050E060E040
:102BD00070E381E190E0EFD7B90180E05ADF8B9A92
:102BE00082E480937C0081E0809336028FC08091E4
:102BF00078009091790090933C0280933B02F3CF50
:102C0000609178007091790020913B0230913C02F4
:102C1000C9010196861797072CF0215030406217A2
:102C2000730744F470933C0260933B0284E080930A
:102C300046026CC080916B03482F50E040505F4FBC
:102C4000A1E0B0E02A2FFD01E559FC4F8081FA0197
:102C5000E80FF11D6E177F0734F0AF012F5F11965B
:102C6000A630B10579F730E0F901E559FC4FE08075
:102C70008CE09EEF289F6001299FD00C389FD00CDC
:102C8000112480EA9FE0C80ED91E641B750B8827AB
:102C900077FD8095982F2CE03EEF4FEF5FEF2CD71C
:102CA000FF2400E010E0A8019701A7D7C20ED31EB1
:102CB000B60181E0EEDE8091450290E001966FE082
:102CC00070E066D780934502882399F480911003C1
:102CD00090E0FC01EE0FFF1FEF5EFC4F20913902E8
:102CE00030913A023183208301968F7190708093E6
:102CF0001003809112018F3018F48F5F80931201BE
:102D00008B988DE080937A008093640080913602E6
:102D100090E01F910F91FF90EF90DF90CF9008957A
:102D2000F29A1895F999FECF92BD81BDF89A80B5B7
:102D300090E00895F999FECF90E0880F991F880FD1
:102D4000991F860F911D80549F4F92BD81BDF89AA7
:102D500080B590E008959C0180E0203C380728F081
:102D6000C90183709070892B49F4F999FECF32BD67
:102D700021BD60BDF894FA9AF99A78940895EF927B
:102D8000FF920F931F93CF93DF93082F803318F593
:102D9000E82EFF24E701CD5ADC4F188160E0CADF3E
:102DA0001817C9F0188162E0802FC4DF181730F0BF
:102DB000188163E0802FBEDF811720F461E0802F4F
:102DC000B9DF8883EE0CFF1CEE0CFF1C6881C70185
:102DD00080549F4FC0DFE6E0CDB7DEB751C7EF921A
:102DE000FF920F931F93CF93DF93082F43E5E42EB9
:102DF00043E0F42EC0E0D0E0002391F460E08C2F9B
:102E000099DF182FF701808362E08C2F93DF18176A
:102E100038F0F701108163E08C2F8CDF811728F4E4
:102E200061E08C2F87DFF70180838C2FA8DF21964C
:102E3000C033D10521F00894E11CF11CDDCFE6E0A0
:102E4000CDB7DEB71DC7EF92FF920F931F939C0182
:102E50008091130190E02817390789F08901000F4C
:102E6000111F0C5F1F4FC80101965CDFE82EC801DF
:102E700059DFFF243E2D2227280F311D04C0209149
:102E8000510330915203C9011F910F91FF90EF90B0
:102E900008950F931F93CF93DF93EB01880F991F32
:102EA0008038910550F48C010C5F1F4FC80153DF2F
:102EB0006D2F7727C80101964EDFDF91CF911F91CB
:102EC0000F9108950F931F93082F162F811160E023
:102ED0008CE236D4802F8150823010F4612F01C0F3
:102EE00060E085E42DD4023008F410E0612F8DE21B
:102EF00027D41F910F9108951F93182F80E0D4D3EA
:102F000063E0812F1DD41F91089583D960938303BB
:102F100070938403809385039093860308951F9391
:102F2000182F80918703E82FF0E0E731F10508F0D2
:102F300075C1E25AFF4FB3C683E0B6D36FC18BE3CE
:102F4000DBDF63E085E090EE67D568C180E0ACD35D
:102F50008091090190E061E08053984FD4D45EC124
:102F60008BE3CADF80918703803111F441E001C017
:102F700043E060E080910A017FD480918703813132
:102F800011F441E001C043E062E080910B011FC0F9
:102F9000112341F080E088D363E08BE3D1D363E079
:102FA00083E2CED380918703823111F441E001C0E6
:102FB00043E062E080910C015FD48091870383310C
:102FC00011F441E001C043E060E080910D0154D470
:102FD00025C1809100011816D4F48BE08DDF43E009
:102FE00063E08AE0FCD38091690390916A038F5F6C
:102FF0009F4F21F443E062E08DE0F1D38091000126
:103000006AE0A5D543E060E0892FE9D330C0112301
:1030100011F08BE071DF80912E018823C9F087FFCA
:1030200002C061E00DC082FF03C063E080E10EC01A
:1030300083FF03C063E081E109C086FF03C063E052
:103040008FE004C084FF13C063E082E1F6D30FC0B9
:1030500080912D01882319F063E08EE0F7CF1123D2
:1030600011F08BE049DF63E080912B011FD4809148
:103070000401882341F090912C0180912B01981735
:1030800011F463E001C060E088E15AD3809104014B
:10309000882311F060E001C063E082E351D36091C6
:1030A00083037091840380918503909186032DD3CF
:1030B000B5C0112311F08BE31FDF63E0809139026B
:1030C00090913A0263D4AAC0112311F080E0ECD2AF
:1030D0000E944A01853638F40E944A0143E060E0CC
:1030E00090E02FD49BC063E08AE005C08AE104DF52
:1030F00061E080918502A1D391C080E0D5D263E0E8
:103100008BE31ED363E083E21BD363E08AE118D331
:1031100080918502982F990F990F990F209189021C
:10312000920F909313012091880230E0322F2227D2
:103130003295307F4091860250918702240F351FCF
:10314000309352032093510364D8DFD28FEF8093E2
:10315000130180918602909187026CE370E004D5A0
:10316000CB0161E035D3809186029091870225E002
:10317000803A920790F46CE370E0F6D4CB0141E022
:1031800062E07AD380918602909187026CE370E0CE
:10319000EBD441E060E070D303C061E089E04DD33F
:1031A00061E08091880239C080E07ED263E088E0EF
:1031B000A2CF83E079D2809187038C3011F441E073
:1031C00001C043E062E08091150111D48091870332
:1031D0008D3011F441E001C043E0E0911501F0E0D1
:1031E000ED5AFC4F60E0808102D418C083E05CD2CD
:1031F000809183020E94A10763E00ED461E0809178
:103200008302E6D20BC08BE377DE61E0809185021A
:103210004DD38091870363E0825054DE1F9108955F
:10322000EF92FF920F931F93CF93DF9320912F0282
:103230003091300220FF02C011E005C021FF02C022
:103240001FEF01C010E0C12FDD27C7FDD095909181
:103250008703E92FF0E0E731F10508F075C1EB587D
:10326000FF4F1DC5882319F082E0809314018091DF
:103270001401882309F0CCC181E0BAC1882319F078
:1032800082E08093140180911401882309F0C0C169
:103290008FE0AEC1112321F080910901810F5AD82E
:1032A00080912F029091300282FFB2C180E10DC067
:1032B000112321F080910A01810F4FD880912F02B4
:1032C0009091300282FFA4C181E180938703109224
:1032D0002C01A0C1112321F080910B01810F45D851
:1032E00080912F029091300282FF92C182E1EDCF56
:1032F000112329F080910C01810F0E947D0F809194
:103300002F029091300282FF83C183E1DECF11232F
:1033100041F080910D01810F0E94840F80E00E9496
:103320008B0F80912F029091300282FF71C187E054
:10333000CCCF23FF08C0892F8F5F809387038B300A
:1033400008F468C150C180918402882351F0277F1E
:103350003770232B09F45CC185E0809314018BE066
:1033600047C1112359F09650923040F4812F0E94AA
:10337000BE0486E08093870301E001C000E08091F5
:103380002F029091300284FF02C08FEF03C087FFAD
:1033900042C18EEF0E94D20486E02AC1882351F0F8
:1033A00080917203813011F080E002C080910F01A2
:1033B0008093850285E180938703112359F08091E2
:1033C000850290E008968C0F9D1F68E070E0E0D3C6
:1033D0008093850222FFB5C086E180938703109217
:1033E00089021092720380918502882319F081E08E
:1033F000809372038FE1C3DC6AC08823A1F048E8A0
:1034000052E0609189028091850253D8909387029F
:1034100080938602815A954030F080EA95E090933F
:10342000870280938602112309F180918602909190
:1034300087026AE070E098D3CB018F569F4F212F0F
:10344000332727FD3095820F931F61E970E08CD3FD
:103450009C0153E0220F331F5A95E1F7880F991F03
:10346000280F391F309387022093860280912F0204
:103470009091300283FF09C08091880290E0059608
:103480008370907080938802C3C082FF2AC04091ED
:103490008602509187022091880260918902809172
:1034A00085021ED8809189028F5F809389028830BF
:1034B00060F080918502882329F067E03CD39F5F0C
:1034C0009093850285E18093870310922C0180916F
:1034D0007203813011F080E002C080910F0115DD90
:1034E00099C084FF95C07FC0882339F0E92FF0E0B0
:1034F000EE5AFC4F808180938502112389F08091E0
:103500008502810F809385028E3318F08DE38093BE
:10351000850280918502893018F489E080938502C4
:1035200022FF0FC0E92FF0E0EE5AFC4F8091850298
:10353000808380918703815022DC809187038F5F95
:10354000C4CE24FF65C04FC080911401882309F0C8
:103550005FC049C024FD47C023FF02C08EE048C0C1
:1035600022FF0BC09D3029F48091150108DC8CE00E
:1035700001C08DE0809387034BC09C3061F4809143
:103580001501C80FD11DCE01C09660E370E0ECD2EA
:10359000809315013DC062E080911501CBDB182FAF
:1035A000E82EFF2463E080911501C4DB682F70E0F2
:1035B0006F5F7F4F6E197F0920911501E22FF0E0B8
:1035C000ED5AFC4F8081C80FD11DCE19DF09CE0105
:1035D000860F971FDDD2180F10832223C9F47ED0E7
:1035E00017C024FF02C087E003C023FF04C08CE0A3
:1035F000809387030FC08091830290E00A968C0F1E
:103600009D1F6AE070E0C4D280938302112311F4FD
:1036100000E001C001E080912F02909130022091E2
:10362000840293FF0DC085E08093140180E0222383
:1036300009F481E080938402882391F08BE015C027
:103640002223B9F494FF02C08CE00FC092FF02C0A5
:103650008FE00BC090FF02C084E107C095FF02C05D
:1036600087E003C091FF05C082E08093870301E0FB
:1036700002C0002379F010911501103358F460E076
:10368000812F58DBE12FF0E0ED5AFC4F808380E37F
:10369000809315011092300210922F02802F90E03B
:1036A000E6E0CDB7DEB7ECC2833011F42FEF01C0F6
:1036B00020E080E090E0FC01E857FC4F2083019679
:1036C00082319105C1F791E0909316018091E40059
:1036D00088608093E40090938A02089580E0E4DF9C
:1036E000809153038093E70085EA8093E50086E0AC
:1036F0008093E600E4EEF0E080EC808380818860D7
:10370000808381E0809316010895EF92FF920F93DA
:10371000CF93DF937B01082FCFE3D2E0FE018491AA
:1037200066270695F794E79408F463E009D021969C
:10373000C735A1F7DF91CF910F91FF90EF900895DA
:10374000782F769576957695877021E030E001C0E8
:10375000220F8A95EAF7462FE72FF0E060FF05C0B9
:10376000E857FC4F8081822B06C0E857FC4F9081C0
:10377000822F809589238083E72FF0E041FF05C0E9
:10378000E857FC4F8185282B05C0E857FC4F818501
:103790002095282321876150623068F080911601BE
:1037A0008130A9F020E030E0F901E857FC4F90812A
:1037B0008185981721F082E08093160108952F5F8C
:1037C0003F4F2930310581F781E08093160108953C
:1037D000EFE3F2E0E80FF11DE4918E2FB1CFEF920D
:1037E000FF920F931F93CF93DF93E42E643008F57D
:1037F0008832F8F4E62FF0E0EC5CFD4FF490E82F0F
:10380000F0E0E454FE4F0491C8E3D2E011E0FE0181
:103810009491812F802311F06E2D01C060E0892FDB
:103820008F0D8EDF2196F2E0CF33DF0711F0110FFD
:10383000EECFE6E0CDB7DEB723C20F931F93CF9351
:10384000DF93062FC82FD0E0CC0FDD1FCC0FDD1F7C
:10385000CC51DE4F13E0FE018491402F612FBFDF7A
:10386000115021961F3FB9F760E08BE369DFDF91CC
:10387000CF911F910F910895FF920F931F93082FDF
:10388000162FF42E633070F4843660F46AE053D15E
:10389000612F892FA4DF1F5F802F6AE04CD14F2D4D
:1038A000612F9DDF1F910F91FF9008950F931F933C
:1038B000082F162F893011F48CE007C08D3311F4D6
:1038C0008DE003C08E3318F08BE0B7DF19C0462FB0
:1038D00062E08695D1DF00FF02C085E001C080E094
:1038E000412F61E07CDF043120F4412F63E080E26E
:1038F00076DF412F60E08CE072DF612F8BE320DF09
:103900001F910F9108951F93CF93DF93162FEC0112
:1039100087E2C031D80710F0CFE0D7E2CE0164E6ED
:1039200070E022D1CB01412F62E0A6DFCE0164E638
:1039300070E01AD1412F60E09FDFDF91CF911F919E
:1039400008950F931F93CF93DF93162F042F6230A8
:10395000C0F4EC0183E0C83ED80710F0C7EED3E016
:10396000212F2E5FCE0164E670E0FED0CB01402F08
:10397000622F35DFCE0164E670E0F6D0402F612F74
:103980007BDFDF91CF911F910F9108950F931F93CC
:10399000CF93DF93162FEC018CEFC931D80714F4C5
:1039A000C9E1DCEF00E0D7FF04C001E0D095C1958C
:1039B000DF4FCE016AE070E0EBD0CB01412F61E038
:1039C000C0DF002321F0412F63E086E106C0C85E1E
:1039D000D34024F4412F63E080E201DF412F60E017
:1039E0008CE0FDDEDF91CF911F910F910895FF9242
:1039F0000F931F93F82E162F042F633048F48F7007
:103A0000EEDE1F5F402F612F8F2D82958F70E7DED6
:103A10001F910F91FF900895FF920F931F938C01B8
:103A2000F62E812F9927462F62E0E1DF4F2D60E0CF
:103A3000802FDDDF1F910F91FF90089580918B0201
:103A40008F5F80938B028D3058F080918C028F5F56
:103A5000817080938C0210928B0281E080938A02A5
:103A600080918A02882351F110928A0280918C02FF
:103A700090E0FC0123E0EE0FFF1F2A95E1F7E80F2D
:103A8000F91FE857FC4F80818093EC00818180937F
:103A9000ED0082818093EE0083818093F100848128
:103AA0008093F20085818093F30086818093F600F5
:103AB00087818093F70080858093F80080911601BC
:103AC000813029F48091E400877F8093E400089599
:103AD000F39A1895FB01DC0102C005900D9241504C
:103AE0005040D8F70895FB01DC0102C001900D920F
:103AF00041505040D8F70895629FD001739FF00164
:103B0000829FE00DF11D649FE00DF11D929FF00D6D
:103B1000839FF00D749FF00D659FF00D9927729FA4
:103B2000B00DE11DF91F639FB00DE11DF91FBD012F
:103B3000CF0111240895991B79E004C0991F9617AD
:103B400008F0961B881F7A95C9F78095089587FB22
:103B5000082E062687FD819567FD6195ECDF0EF442
:103B6000919507FC81950895AA1BBB1B51E107C0E5
:103B7000AA1FBB1FA617B70710F0A61BB70B881FFD
:103B8000991F5A95A9F780959095BC01CD0108958C
:103B900097FB092E07260AD077FD04D0E5DF06D073
:103BA00000201AF4709561957F4F0895F6F790956F
:103BB00081959F4F0895A1E21A2EAA1BBB1BFD0100
:103BC0000DC0AA1FBB1FEE1FFF1FA217B307E407FC
:103BD000F50720F0A21BB30BE40BF50B661F771F54
:103BE000881F991F1A9469F7609570958095909534
:103BF0009B01AC01BD01CF01089597FB092E05265D
:103C00000ED057FD04D0D7DF0AD0001C38F45095F1
:103C10004095309521953F4F4F4F5F4F0895F6F7F0
:103C200090958095709561957F4F8F4F9F4F089528
:103C30002F923F924F925F926F927F928F929F92BC
:103C4000AF92BF92CF92DF92EF92FF920F931F93AA
:103C5000CF93DF93CDB7DEB7CA1BDB0B0FB6F8945B
:103C6000DEBF0FBECDBF09942A88398848885F849B
:103C70006E847D848C849B84AA84B984C884DF800C
:103C8000EE80FD800C811B81AA81B981CE0FD11DF0
:103C90000FB6F894DEBF0FBECDBFED010895EE0F55
:0C3CA000FF1F0590F491E02D0994FFCF68
:103CAC00FE0205FF0110100006080C010C000000BC
:083CBC00000101FF02300100CC
:00000001FF
