:1000000036C1000050C100000C94E30B0C943D0E6F
:10001000D0C60000C1C6000046C1000044C10000B7
:1000200042C1000040C100003EC100000C9498098C
:100030003AC100000C947E130C9447130C940B13DC
:1000400032C1000030C100002EC10000FBC300001F
:100050002AC1000028C1000018C600001D0F210F92
:10006000AC10AC10AC10AC10BF0F740FED0FF90F4B
:100070004E0F77107D107D109D10290F350F350F15
:100080004E0F4E0FB8100B101310DD10E910261292
:100090002612261226124711471147114711471100
:1000A00056125C125C12A612F510041117112611DB
:1000B00035117A118911AA11F416CF1605170317F5
:1000C00005170517661605170517051705170517F0
:1000D000E81605170517051705179316661658161F
:1000E000051755169316EA17C3170018241700189A
:1000F00000183717B1170018001800180018DD177E
:100100000018001800180018621737172917001870
:100110001D17621700189D173F065B4F666D7D0720
:100120007F6F777C395E7971635473763008400154
:10013000484109495054105C00332738583E786EC6
:100140002001160720160116201602162016031687
:100150002016041620160516201606162016071659
:100160000B011F241616161620160C16200E1C1C2A
:10017000000F0F20001D202000120E1D0B0A262646
:10018000200E0220200E0320200E04200E0E121C32
:1001900028241F1B02031B19180001000203040579
:1001A000060708090A3935423E0C0D0E0F101112D0
:1001B0001314151F1C1F1E1F1E1F1F1E1F1E1F0096
:1001C000001F003B005A0078009700B500D400F3F0
:1001D00000110130014E012E2E2E002045525200FA
:1001E00020504B54003A4F70656E48523230726660
:1001F0006D2045302E303420417072202033203263
:100200003030392032313A33343A32392024526591
:10021000763A2032333020240A002057002058003C
:1002200020453A002049733A200020423A200042FB
:100230004F4F540020533A200020493A20002056C6
:100240003A2000443A20001C811A813A8236021179
:1002500001370212016F816D816B81000000000087
:1002600000AAAA2DD40123456789ABCDEF00112444
:100270001FBECFEFD4E0DEBFCDBF11E0A0E0B1E004
:10028000E0EDFEE302C005900D92A831B107D9F769
:1002900013E0A8E1B1E001C01D92A839B107E1F770
:1002A00003D00C94671FACCE90E89093610081E07E
:1002B0008093610090BF8FEF80937E008DE08093EC
:1002C000640088E183BB9EE095B981ED84B99DB956
:1002D00083E48EB98BE080BB80EF81BB88E082B97C
:1002E00081B98EE280936C0080EC8DBB16D783B110
:1002F00020E090E0809590958E7090700E9709F4B4
:1003000021E0822F0E944A0D0E94C21B81E00E94C0
:100310003A0BB9D20E947E1A80E092E80E94681AD5
:1003200083B180958076809312031EBA789483E01F
:1003300090E00E94EC0C833E29F063E083E153D30C
:100340005AD4FFCF0E94081883E89AEC0E94681ADA
:1003500080EE90EC0E94681A88ED92E80E94681A7C
:1003600080916B00806480936B000E94E30B84E0BB
:1003700080934102F8948EB3882329F584B590E0E8
:1003800087709070892B21F48091C100887111F0E1
:1003900081E007C080911901882311F083E001C03A
:1003A00087E083BF80911901882339F010921901E9
:1003B00080917A00806480937A0078948895000018
:1003C00086E083BF01C07894F79B0EC0F7988091B8
:1003D0004102833019F40E94D21DCCCF8450823068
:1003E00048F60E94681CC6CFF39B03C0F39803D461
:1003F000C1CFF29B03C0F29868D1BCCFF69B04C07A
:10040000F6980E940D17B6CFF59B04C0F5980E9490
:10041000A60AB0CFF49B08C0F4980E941A0E0E945E
:100420003A0B0E94870BA6CFF09B03C0F0980E9466
:10043000540EF19BABC0F1988091680180FF9BC086
:10044000F8948E7F8093680178948CD6182F6091F1
:1004500018010E947418809318011123B1F0809143
:100460000801863009F0B2C0809105018A3009F098
:10047000ADC080910601882309F0A8C010923B020C
:1004800010923A020E943A0BA1C020910903222344
:10049000D1F1809144028230B4F19091070192171A
:1004A00021F480914202882341F59F3148F090FF6A
:1004B00003C08091970302C0809196038217E9F0F0
:1004C000809197038F3FF9F4892F6EE10E94AD1E52
:1004D0009217C9F480916A0390916B03A0916C0309
:1004E000B0916D0304C0B695A795979587952A9509
:1004F000D2F781709070892B31F081E080934302B4
:100500006CE082E00DD480910903882381F0809112
:100510004402823064F0809107018B3311F08D31F9
:1005200031F483E08093430263EF82E0F9D30E94C9
:100530001A0E0E943A0B80911801BFD70E94BE0D7F
:100540008091DF02882321F080910803882309F03D
:10055000ABD080910F0187FD03C0815080930F01C4
:1005600080E00E940F0F8091E40088608093E40097
:1005700081E0809364018091680182FF07C0F89454
:100580008B7F8093680178940E94981D80917E01F2
:1005900090917F01892B29F480910F01882309F024
:1005A000E9CE80E00E94BA10182F882319F081E06C
:1005B0000E94BA10812F0E940F0F8091E400886082
:1005C0008093E40081E080936401D4CE0E94521BAA
:1005D0005CCF0F931F93CF93DF938B01C82FD0E095
:1005E000BE01660F771F660F771F625E7E4FFB01AD
:1005F00080819181A281B3819801442737FD409584
:10060000542F280F391F4A1F5B1F208331834283D9
:100610005383809100018F30F8F080912601FE0114
:10062000B4E0EE0FFF1FBA95E1F7EC1BFD0BE80FEE
:10063000F11DEE0FFF1FE85DFE4F80819181AA271B
:1006400097FDA095BA2F281B390B4A0B5B0BFB01BA
:10065000208331834283538380912601FE0124E06D
:10066000EE0FFF1F2A95E1F7EC1BFD0BE80FF11DC4
:10067000EE0FFF1FE85DFE4F11830083CC0FDD1FDF
:10068000C65EDE4FFB0160817181828193812FE024
:1006900030E040E050E00E940F1F39832883DF9153
:1006A000CF911F910F91089591E0909327018CE0D5
:1006B000809364008CE880937A0010927B008EE532
:1006C00080937C00909319010895CF92DF92EF926E
:1006D000FF920F931F93809127018F5F80932701D3
:1006E000833081F0843020F4823009F09BC006C052
:1006F000843009F1853009F095C021C08DE88093E0
:100700007A0019C0809178002091790030E0322F72
:10071000222790E0282B392B40E050E060E070E386
:1007200081E190E00E94ED1EB90180E052DF8B9ADA
:1007300082E480937C0081E08093190179C08091EC
:1007400078002091790030E0722F662790E0682BC6
:10075000792B8091FA02482F50E040505F4FA1E082
:10076000B0E02A2FFD01E650FD4F8081FA01E80F2D
:10077000F11D6E177F0734F0AF012F5F1196A63081
:10078000B10579F730E0F901E650FD4FE0808CE0EB
:100790009EEF289F6001299FD00C389FD00C112418
:1007A00080EA9FE0C80ED91E641B750B882777FD71
:1007B0008095982F2CE03EEF4FEF5FEF0E948E1E4A
:1007C000FF2400E010E0A80197010E940F1FC20E55
:1007D000D31EB60181E0FDDE8091260190E00196F6
:1007E0006FE070E00E94DA1E80932601882399F45E
:1007F00080918B0290E0FC01EE0FFF1FE457FD4F4C
:1008000020911C0130911D013183208301968F714D
:10081000907080938B02809100018F3018F48F5F6D
:10082000809300018B988DE080937A008093640020
:100830008091190190E01F910F91FF90EF90DF9050
:10084000CF9008950F9300E0F29A009319010F9151
:100850001895833011F42FEF01C020E080E090E084
:10086000FC01E453FD4F2083019682319105C1F7CD
:1008700091E0909301018091E40088608093E4000E
:1008800090936401089580E0E4DF8091E202809318
:10089000E70085EA8093E50086E08093E600E4EED9
:1008A000F0E080EC808380818860808381E08093A9
:1008B00001010895EF92FF920F93CF93DF937B0195
:1008C000082FCBE9D1E0FE01849166270695F794C5
:1008D000E79408F463E009D02196C33BA1F7DF91C8
:1008E000CF910F91FF90EF900895782F76957695A0
:1008F0007695877021E030E001C0220F8A95EAF7F3
:10090000462FE72FF0E060FF05C0E453FD4F8081E4
:10091000822B06C0E453FD4F9081822F809589235E
:100920008083E72FF0E041FF05C0E453FD4F818550
:10093000282B05C0E453FD4F81852095282321876E
:100940006150623068F0809101018130A9F020E0AF
:1009500030E0F901E453FD4F90818185981721F033
:1009600082E08093010108952F5F3F4F29303105C8
:1009700081F781E0809301010895EBE9F1E0E80F50
:10098000F11DE4918E2FB1CFEF92FF920F931F9341
:10099000CF93DF93E42E643008F58832F8F4E62F25
:1009A000F0E0E057FE4FF490E82FF0E0E85EFE4FF5
:1009B0000491C4E9D1E011E0FE019491812F8023DC
:1009C00011F06E2D01C060E0892F8F0D8EDF219612
:1009D000F1E0CB39DF0711F0110FEECFE6E0CDB734
:1009E000DEB70C94521F0F931F93CF93DF93062F04
:1009F000C82FD0E0CC0FDD1FCC0FDD1FC05CDE4F59
:100A000013E0FE018491402F612FBEDF115021962B
:100A10001F3FB9F760E08BE368DFDF91CF911F9153
:100A20000F910895FF920F931F93082F162FF42E06
:100A3000633080F4843670F46AE00E94AD1E612F4A
:100A4000892FA2DF1F5F802F6AE00E94AD1E4F2D0D
:100A5000612F9ADF1F910F91FF9008950F931F93BD
:100A6000082F162F893011F48CE007C08D3311F454
:100A70008DE003C08E3318F08BE0B5DF19C0462F30
:100A800062E08695CFDF00FF02C085E001C080E014
:100A9000412F61E079DF043120F4412F63E080E2EF
:100AA00073DF412F60E08CE06FDF612F8BE31DDF90
:100AB0001F910F9108951F93CF93DF93162FEC0191
:100AC00087E2C031D80710F0CFE0D7E2CE0164E66C
:100AD00070E00E94C61ECB01412F62E0A3DFCE0171
:100AE00064E670E00E94C61E412F60E09BDFDF914C
:100AF000CF911F9108950F931F93CF93DF93162FDC
:100B0000042F6230D0F4EC0183E0C83ED80710F027
:100B1000C7EED3E0212F2E5FCE0164E670E00E9485
:100B2000C61ECB01402F622F2FDFCE0164E670E09E
:100B30000E94C61E402F612F75DFDF91CF911F915C
:100B40000F9108950F931F93CF93DF93162FEC010E
:100B50008CEFC931D80714F4C9E1DCEF00E0D7FF0E
:100B600004C001E0D095C195DF4FCE016AE070E08E
:100B70000E94DA1ECB01412F61E0BDDF002321F08E
:100B8000412F63E086E106C0C85ED34024F4412FC4
:100B900063E080E2F9DE412F60E08CE0F5DEDF917A
:100BA000CF911F910F910895FF920F931F93F82EED
:100BB000162F042F633048F48F70E6DE1F5F402F3E
:100BC000612F8F2D82958F70DFDE1F910F91FF9027
:100BD0000895FF920F931F938C01F62E812F992772
:100BE000462F62E0E1DF4F2D60E0802FDDDF1F91B7
:100BF0000F91FF900895809165018F5F809365014B
:100C00008D3058F0809166018F5F8170809366010E
:100C10001092650181E080936401809164018823D2
:100C200051F1109264018091660190E0FC0123E093
:100C3000EE0FFF1F2A95E1F7E80FF91FE453FD4F70
:100C400080818093EC0081818093ED00828180938C
:100C5000EE0083818093F10084818093F20085818E
:100C60008093F30086818093F60087818093F7005C
:100C700080858093F80080910101813029F4809172
:100C8000E400877F8093E4000895F39A1895885EC6
:100C900068E10E94AD1E909305010895845C6CE3A9
:100CA0000E94AD1E909306010895845C6CE30E943F
:100CB000AD1E90930701089580910301E82FF0E0A5
:100CC000EE54FE4F2491823051F48091020190E065
:100CD00083709070892B19F48DE190E00895822F34
:100CE00090E00895809108018730B1F4809103016C
:100CF000833039F420E030E080910401893170F0D4
:100D000008C08A3049F420E030E080910401883145
:100D100028F021E030E002C020E030E0C901089571
:100D2000E82FF894F0E081E090E00E2E02C0880FEA
:100D3000991F0A94E2F720916701282B20936701FD
:100D4000E859FE4F60835091B200622F21FF0DC021
:100D500040916901842F90E0851B91098F3F910597
:100D600021F0242F251BE42F01C02FEF62FF0BC0C1
:100D700040916A01842F90E0851B910930E0821731
:100D800093070CF4E42FE093B30078948091700003
:100D900082608093700008950F930FB70F93F19ABC
:100DA000009168010160009368010F910FBF0F91DE
:100DB00018951F920F920FB60F9211242F933F9305
:100DC0004F935F936F937F938F939F93EF93FF93D3
:100DD0005091B2005150F19A9091670191FF0AC071
:100DE00080916901581731F481E080930E019D7F55
:100DF0009093670190916801E0916701E2FF06C05E
:100E000080916A01581711F49460EB7F9093680108
:100E1000E09367016E2FE1FF0DC040916901842FBF
:100E200090E0851B91098F3F910521F0242F251B10
:100E3000F42F01C02FEF62FF0BC040916A01842F95
:100E400090E0851B910930E0821793070CF4F42F92
:100E5000F093B300EE2329F4809170008D7F80938E
:100E60007000FF91EF919F918F917F916F915F91B2
:100E70004F913F912F910F900FBE0F901F9018959B
:100E8000A0E0B0E0E6E4F7E00C942B1FF82E5B0145
:100E9000882319F048E0342E02C032E0332E552466
:100EA0005A946624CF2CDD24860123E0000F111F05
:100EB0002A95E1F7702E98E0492E400E8824992457
:100EC000C0E0D0E011C090E01AD69F7025E0803AD3
:100ED000920748F48815990530F0A816B90618F05D
:100EE0005E2C500E4C012196EC2E8C2F870D841514
:100EF00050F357FE11C0FF2041F0C601059667E090
:100F000070E00E94DA1EF82EF394639480EAA82E13
:100F100085E0B82E631431F6852D90E0E1E1CDB780
:100F2000DEB70C94471FFF920F931F93CF93DF936D
:100F3000F82E909105018CE3989FE0011124809197
:100F40000601C80FD11D80910103813011F000E02E
:100F500002C000910801BE01802F92DF182F99274F
:100F600087FD9095CCD5FC0117FD16C0FF2049F0F8
:100F70009F708C179D0781F4159515951595101781
:100F800059F4EF2FFF27E295EF70E370F070ED5109
:100F9000FD4F808190E002C080E090E0E5E0CDB7B9
:100FA000DEB70C94531FA0E0B0E0E9EDF7E00C943D
:100FB000341FC82EC0EAD5E077E1D72EEE24FF24F7
:100FC0008701BE018C2D5CDF87FF03C080E090E0CD
:100FD00004C0992787FD909592D59C0120703073AD
:100FE0009F708C179D0718F0CFEFDFEF02C0EC0168
:100FF00021978CE34D2D4802C001112414C050E20A
:101000002030350740F041E050E060E070E0E42A35
:10101000F52A062B172B1D1424F4EE0CFF1C001FC1
:10102000111FDA94CC97C817D9074CF31C161D066C
:1010300044F2C801B701E8E0CDB7DEB70C94501F09
:10104000B2DF60931303709314038093150390939E
:10105000160308950F931F93CF93DF93809103019D
:10106000E82FF0E0EE0FFF1FE354FE4FC591D4913F
:1010700090910401C90FD11D833040F0809102018D
:1010800090E083709070892B09F42196E091020121
:10109000F0E08F0101501040C80164E070E00E9450
:1010A000DA1E9B012E0F3F1FC80164E670E00E940C
:1010B000DA1E261B370B2B5F3F4FC9018C0F9D1F7C
:1010C00067E070E00E94C61E282F2F5F2093080162
:1010D00080910103813009F020E0822FB1DFDF91A0
:1010E000CF911F910F91089580930201B3CF855F37
:1010F0006CE00E94AD1E9F5F90930301ABCF1F93E6
:10110000182FDADD682F8150810F0E94AD1E9F5F7E
:10111000909304019FDF1F910895809170008E7F4E
:101120008093700088E08093B6001092B2008091A6
:10113000B00085608093B0002091B6008091B60029
:1011400090E08470907030E021703070822B932B8F
:10115000892B91F78FEF87BB80917000816080931E
:10116000700078CF1F9310920901809107018F5F63
:10117000809307018C3318F480E090E062C01092F5
:101180000701809106018F5F809306018C3308F47C
:1011900056C010920601809105018F5F8093050172
:1011A000883160F11092050187DD909104019F5F05
:1011B00090930401891798F491E090930401809131
:1011C00003018F5F809303018D3038F0909303010A
:1011D000809102018F5F809302011092DE02809164
:1011E000080167E00E94AD1E9F5F90930801809107
:1011F0000103813009F090E0892F22DF1091030173
:10120000133051F4809105018230C9F46BDD8823DD
:10121000B1F01093050113C01A3089F480910501D3
:10122000833069F48091DE02882349F45BDD8823F2
:1012300031F082E08093050181E08093DE0281E05D
:1012400090E01F9108950F931F938A0190E023E08F
:10125000880F991F2A95E1F7860F911D50D49C01A4
:10126000232F332722952F70F80120839F701F9121
:101270000F910895362F8830F0F46830E0F4243070
:10128000D0F495E04C3D590710F04FEF5FE0622F2E
:1012900070E0762F66277295707F642B752B90E037
:1012A00043E0880F991F4A95E1F7830F911D4DD4B4
:1012B00081E090E0089580E090E0089540916D0114
:1012C00050916E014B305105ECF080910A0188235A
:1012D000C9F420916B0130916C01F90193E0EE0F9C
:1012E000FF1F9A95E1F7CA016AE070E00E94DA1EDA
:1012F000220F331FC9018E0F9F1F0E94DA1E862FF7
:1013000090E008958FEF90E0089580916D019091A5
:101310006E01892B19F480E090E0089590E08091AF
:101320000A01811191E081E09827892F90E00895CA
:101330001F920F920FB60F9211248F939F9380915B
:10134000710190917201892B99F0809173019091B4
:1013500074010196909374018093730180917101DF
:10136000909172010197909372018093710114C062
:1013700080917301909174019093700180936F013B
:1013800014BA2F9888E484BDF59A80916B008F7E03
:1013900080936B0010926E009F918F910F900FBE03
:1013A0000F901F901895482F8823B1F410926E006B
:1013B00080916B008F7E80936B00649B02C089E5F7
:1013C00001C089E70E94AD13739814BA2F9888E47E
:1013D00084BD1092DF0208958091DF02841709F422
:1013E0006BC08091DF02882389F010927401109203
:1013F0007301109277011092760110927901109288
:10140000780182E080930B011092DF024093DF02AB
:10141000739A9091F50280910A01882319F48091C2
:10142000F40202C08091F302282F30E0892F90E06F
:10143000BC01269FC001279F900D369F900D11245F
:1014400064E670E00E94C61E33E0660F771F3A958F
:10145000E1F770937D0160937C0180917C01909114
:101460007D01880F991F880F991F909372018093B7
:10147000710181E085BB16BC80936E008CB18093B6
:10148000750180916B00806180936B008091F00208
:1014900087BD4F3F29F488E084BB2F9889E604C0BC
:1014A00080E184BB2F9A89E784BD649B02C088E5F4
:1014B00001C088E70C94AD130895982F80910A011C
:1014C000882309F042C0943649F480916D019091CF
:1014D0006E0190937B0180937A0121C0992329F4B6
:1014E00010927B0110927A011AC0892F90E020910E
:1014F0006D0130916E013595279535952795AC0195
:10150000429FC001439F900D529F900D112469E1AD
:1015100070E00E94DA1E70937B0160937A018091E3
:10152000DF02882391F420916B0130916C0180914E
:101530007A0190917B018217930714F48FEF33CFD8
:101540002817390714F481E02ECF08951F93CF9305
:10155000DF931091DF0280E026DF8091710190918E
:101560007201892B31F080910A01882309F46BC044
:1015700023C0113009F03EC0C0916B01D0916C01C5
:1015800080910A01823069F5D0936E01C0936D019C
:101590008091F8029091F902892BB9F4C436D105F3
:1015A0005CF0D093F902C093F80286E142D287E161
:1015B00040D210920A0147C08FEF80930A018091B8
:1015C00039028860809339023EC08FEFECDEC85E3E
:1015D000D340D0937B01C0937A0183E080930A01CA
:1015E00032C080916D0190916E0190936C01809357
:1015F0006B0129C01F3F39F580910A01833089F4BE
:1016000010920A0120916B0130916C0180916D0163
:1016100090916E01821B930B90936E0180936D01EC
:101620000EC080916B0190916C01853691053CF064
:1016300010930A01809139028860809339021092D8
:101640006C0110926B0180910A01882379F48091DA
:101650006D0190916E018436910544F48FEF809373
:101660000A0180913902886080933902DF91CF911D
:101670001F9108951F93182F8823B1F480E093DE03
:1016800010926C0110926B0110926E0110926D011C
:101690008EEF80930A0185E080930C0180913902DE
:1016A000877F8093390231C080910C01882321F01B
:1016B000815080930C010FC080910A01813059F450
:1016C00082E080930A0188EE93E090937B018093FF
:1016D0007A0181E068DE80910A018E3FB1F4133017
:1016E00059F48FEF9FEF9093F9028093F80286E10F
:1016F000A0D187E19ED106C0123021F41092F902E8
:101700001092F80281E080930A011F910895809160
:101710006F019091700181529E4408F04BC08091FE
:101720000B01882309F043C020916F0130917001B3
:101730002C5F3F4F53E0369527955A95E1F78091FE
:10174000F502281B31098091F60290E0AC01249F3C
:10175000C001259F900D349F900D112464E670E028
:101760000E94DA1E8091F702282F30E026173707F3
:101770004CF088279927821B930B9B0168177907E8
:101780000CF49C0187B5A901480F511D8091F0020E
:1017900090E0841795074CF08091EF02282F30E0FD
:1017A000CA01421753070CF4C90187BD03C0815019
:1017B00080930B0147B560916F017091700180912A
:1017C000DF020C9412151F920F920FB60F92112484
:1017D0001F932F933F934F935F936F937F938F93B9
:1017E0009F93AF93BF93EF93FF931CB1412F10FDD5
:1017F0000AC08091C10080698093C10080916B0014
:101800008E7F80936B0080916B0084FF82C08091FB
:101810007501812784FF7DC020917301309174018F
:101820008091760190917701281B390B809173018B
:1018300090917401909377018093760144FD5EC08E
:101840008091F20290E0880F991F8217930708F0A9
:1018500060C020917801309179018091F10290E08F
:10186000880F991F8217930708F045C020916B01DC
:1018700030916C018091DF02992787FD9095820F4E
:10188000931F90936C0180936B01809173019091F1
:1018900074019093700180936F01109279011092FE
:1018A00078011092740110927301109277011092D6
:1018B0007601F49A20916B0130916C0180917A014C
:1018C00090917B012817390769F414BA2F9888E49E
:1018D00084BDF59A80916B008F7E80936B0010928F
:1018E0006E0017C080917C0190917D0190937201F0
:1018F000809371010EC08EE730D70BC080917801C4
:10190000909179018217930720F430937901209305
:1019100078011093750180916B0086FD49C04AC023
:1019200080916B008F7B80936B0078948091410253
:101930008230C9F420914002E22FF0E0E65EFC4FD5
:10194000808190E02F5F20934002986B0E94681A7C
:101950009091400280911601981710F183E08093D6
:101960004102F79A27C08430A1F41091400280E030
:1019700090EB0E94681AE12FF0E0E65EFC4F808356
:101980001F5F10934002103550F085E080934102B4
:1019900006C0853029F480E090EB0E94681AF79A1F
:1019A000F894000080916B00806480936B000000CD
:1019B0006699B6CFFF91EF91BF91AF919F918F91B3
:1019C0007F916F915F914F913F912F911F910F9058
:1019D0000FBE0F901F901895F999FECF92BD81BD53
:1019E000F89A80B590E00895F999FECF90E0880FBD
:1019F000991F880F991F860F911D80549F4F92BD8C
:101A000081BDF89A80B590E008959C0180E0203C6B
:101A1000380728F0C90183709070892B49F4F9992F
:101A2000FECF32BD21BD60BDF894FA9AF99A789440
:101A30000895EF92FF920F931F93CF93DF93082F98
:101A4000803318F5E82EFF24E701CE51DD4F1881D1
:101A500060E0CADF1817C9F0188162E0802FC4DF88
:101A6000181730F0188163E0802FBEDF811720F453
:101A700061E0802FB9DF8883EE0CFF1CEE0CFF1CA9
:101A80006881C70180549F4FC0DFE6E0CDB7DEB765
:101A90000C94521FEF92FF920F931F93CF93DF93FB
:101AA000082F42EEE42E42E0F42EC0E0D0E0002306
:101AB00091F460E08C2F98DF182FF701808362E0AB
:101AC0008C2F92DF181738F0F701108163E08C2F0C
:101AD0008BDF811728F461E08C2F86DFF70180838C
:101AE0008C2FA7DF2196C033D10521F00894E11C8B
:101AF000F11CDDCFE6E0CDB7DEB70C94521FEF92BC
:101B0000FF920F931F939C0180910D0190E0281785
:101B1000390789F08901000F111F0C5F1F4FC801A1
:101B200001965ADFE82EC80157DFFF243E2D2227F9
:101B3000280F311D04C02091E0023091E102C9015B
:101B40001F910F91FF90EF9008950F931F93CF93E4
:101B5000DF93EB01880F991F8038910550F48C01B9
:101B60000C5F1F4FC80151DF6D2F7727C801019609
:101B70004CDFDF91CF911F910F91089590918201D9
:101B80009923A1F4809184018F5F8093840188233D
:101B900021F48FEF809384010895843109F049C0C6
:101BA00080917E0190917F01906235C08091830188
:101BB0008F5F80938301882321F48FEF80938301CB
:101BC00008958430B1F59830D1F0993028F49230EE
:101BD00079F0943071F505C09A30C1F09E3049F526
:101BE0001FC080917E0190917F018062916013C03F
:101BF00080917E0190917F01806492600CC0809101
:101C00007E0190917F018068946005C080917E0183
:101C100090917F01986090937F0180937E01089559
:101C200080917E0190917F01906190937F018093DC
:101C30007E0108952098289A0000000083B128981A
:101C4000209A809587702091390280FF06C0246019
:101C50002093390280E090E008952B7F2093390291
:101C600081FF03C082E090E0089582FF03C083E01B
:101C700090E0089581E090E008951F920F920FB6D2
:101C80000F9211248F9326982E9AF09A000083B118
:101C900080958E76809380012E98269A8F910F9052
:101CA0000FBE0F901F9018951F93209180012076F2
:101CB00080911203822785FF17C0222311F020365E
:101CC00031F480917E0190917F01826005C0809106
:101CD0007E0190917F01816090937F0180937E01CE
:101CE0001092840120931203109180011E702091A4
:101CF0008201121709F45FC0112321F1222311F58B
:101D000080910E018823F1F0143031F480917E012E
:101D100090917F0184600FC0123031F480917E0178
:101D200090917F01886007C0183061F480917E0136
:101D300090917F01806190937F0180937E0181E08B
:101D40008093810180918101882319F1243041F42D
:101D50001123F9F080917E0190917F01806213C080
:101D6000223041F41123A9F080917E0190917F01EE
:101D7000806409C0283069F4112359F080917E01F4
:101D800090917F01806890937F0180937E011092F3
:101D9000810180910E01882341F010920E01609123
:101DA000B2006E5C81E00E94900610938201109256
:101DB0008301109284011F9108950F931F93082FA0
:101DC000162F811160E08CE20E947504802F8150F3
:101DD000823010F4612F01C060E085E40E94750438
:101DE000023008F410E0612F8DE20E9475041F910B
:101DF0000F9108951F93182F80E00E94290463E03B
:101E0000812F0E9475041F910895CDD8609313030C
:101E100070931403809315039093160308951F93F2
:101E2000182F80911703E82FF0E0E731F10508F053
:101E30009FC1E25DFF4F0C94611F83E00E94290463
:101E400097C18BE3D7DF63E084E090EE0E94E90561
:101E50008FC180E00E9429048091020190E061E03E
:101E60008053984F0E945B0583C18BE3C3DF809151
:101E70001703803111F441E001C043E060E080913C
:101E800003010E94120580911703813111F441E092
:101E900001C043E062E08091040123C0112359F0A6
:101EA00080E00E94290463E08BE30E94750463E0F4
:101EB00083E20E94750480911703823111F441E09E
:101EC00001C043E062E0809105010E94120580910B
:101ED0001703833111F441E001C043E060E08091D9
:101EE00006010E94120544C180910A011816F4F4FB
:101EF0008BE080DF43E063E08AE00E94C4048091CD
:101F0000F8029091F9028F5F9F4F29F443E062E05D
:101F10008DE00E94C40480910A016AE00E94B91E0B
:101F200043E060E0892F0E94C40432C0112311F005
:101F30008BE060DF809139028823D1F087FF02C0F7
:101F400061E00DC082FF03C063E080E10EC083FF4B
:101F500003C063E081E109C086FF03C063E08FE056
:101F600004C084FF15C063E082E10E94F30410C046
:101F700080913802882319F063E08EE0F6CF1123B8
:101F800011F08BE037DF63E0809136020E942E056E
:101F900080911201882341F090913702809136029E
:101FA000981711F463E001C060E088E10E947504B5
:101FB00080911201882311F060E001C063E082E3A8
:101FC0000E947504609113037091140380911503AE
:101FD000909116030E945A04CBC0112311F08BE399
:101FE00009DF63E080911C0190911D010E94A20510
:101FF000BFC0112319F080E00E9429045FD9853603
:1020000038F45CD943E060E090E00E947B05B0C00A
:1020100063E08AE005C08AE1EDDE61E0809187013E
:102020000E94F304A5C080E00E94290463E08BE3D2
:102030000E94750463E083E20E94750463E08AE114
:102040000E94750480918701982F990F990F990F1D
:1020500020918B01920F90930D0120918A0130E025
:10206000322F22273295307F40918801509189018B
:10207000240F351F3093E1022093E0020E94D30722
:102080000E945A048FEF80930D01809188019091F6
:1020900089016CE370E00E94C61ECB0161E00E94E2
:1020A000BD04809188019091890125E0803A9207D2
:1020B000B0F46CE370E00E94C61ECB0141E062E028
:1020C0000E94120580918801909189016CE370E073
:1020D0000E94C61E41E060E00E94120504C061E05B
:1020E00089E00E94F30461E080918A0140C080E0B1
:1020F0000E94290463E088E093CF83E00E942904D2
:10210000809117038C3011F441E001C043E062E09C
:10211000809110010E94D405809117038D3011F435
:1021200041E001C043E0E0911001F0E0EE51FD4FCD
:1021300060E080810E94D4051BC083E00E942904D6
:102140008091850169D763E00E94E90561E0809193
:1021500085010E94BD040CC08BE34CDE61E08091E0
:1021600087010E942E058091170363E0825025DECF
:102170001F910895EF92FF920F931F93CF93DF93D8
:1021800020917E0130917F0120FF02C011E005C047
:1021900021FF02C01FEF01C010E0C12FDD27C7FDE6
:1021A000D09590911703E92FF0E0E731F10508F0A1
:1021B0007DC1EB5BFF4F0C94611F882319F082E017
:1021C00080930F0180910F01882309F0D7C181E02E
:1021D000C4C1882319F082E080930F0180910F0120
:1021E000882309F0CBC18FE0B8C1112329F0809179
:1021F0000201810F0E94740880917E0190917F01FD
:1022000082FFBCC180E10EC0112329F0809103013F
:10221000810F0E94770880917E0190917F0182FF5B
:10222000ADC181E18093170310923702A9C1112338
:1022300029F080910401810F0E947F0880917E0126
:1022400090917F0182FF9AC182E1ECCF112329F0A6
:1022500080910501810F0E94470680917E01909137
:102260007F0182FF8BC183E1DDCF112341F080919B
:102270000601810F0E944E0680E00E945506809163
:102280007E0190917F0182FF79C187E0CBCF23FF50
:1022900008C0892F8F5F809317038B3008F470C1BB
:1022A00057C180918601882351F0277F3770232BF7
:1022B00009F464C185E080930F018BE04EC11123C6
:1022C00051F09650923038F4812FC4D686E0809336
:1022D000170301E001C000E080917E0190917F0131
:1022E00084FF02C08FEF03C087FF4BC18EEFC6D6BD
:1022F00086E033C1882351F080910103813011F0D1
:1023000080E002C0809108018093870185E180937D
:102310001703112361F08091870190E008968C0FDC
:102320009D1F68E070E00E94DA1E8093870122FF03
:10233000BAC086E18093170310928B0110920103BB
:1023400080918701882319F081E0809301038FE158
:1023500070DB6FC08823A9F04AE851E060918B01DF
:10236000809187010E9423099093890180938801BD
:10237000815A954030F080EA95E0909389018093EE
:102380008801112319F180918801909189016AE0F7
:1023900070E00E94C61ECB018F569F4F212F33271E
:1023A00027FD3095820F931F61E970E00E94C61EE1
:1023B0009C0153E0220F331F5A95E1F7880F991FB4
:1023C000280F391F309389012093880180917E0165
:1023D00090917F0183FF09C080918A0190E005966A
:1023E0008370907080938A01C9C082FF2CC0409195
:1023F00088015091890120918A0160918B0180911F
:1024000087010E943A0980918B018F5F80938B0135
:10241000883068F080918701882331F067E00E945E
:10242000AD1E9F5F9093870185E180931703109203
:10243000370280910103813011F080E002C0809169
:102440000801E3DC9DC084FF99C082C0882339F075
:10245000E92FF0E0EF51FD4F808180938701112338
:1024600089F080918701810F809387018E3318F066
:102470008DE38093870180918701893018F489E08A
:102480008093870122FF0FC0E92FF0E0EF51FD4F4D
:10249000809187018083809117038150CADA8091EF
:1024A00017038F5FBFCE24FF69C052C080910F0118
:1024B000882309F063C04CC024FD4AC023FF02C03A
:1024C0008EE04BC022FF0BC09D3029F4809110019B
:1024D000B0DA8CE001C08DE0809317034FC09C30D0
:1024E00069F480911001C80FD11DCE01C09660E340
:1024F00070E00E94C61E8093100140C062E080918F
:10250000100172DA182FE82EFF2463E08091100189
:102510006BDA682F70E06F5F7F4F6E197F09209133
:102520001001E22FF0E0EE51FD4F8081C80FD11D68
:10253000CE19DF09CE01860F971F0E94DA1E180FF1
:1025400010832223D9F40E94430418C024FF02C040
:1025500087E003C023FF04C08CE08093170310C002
:102560008091850190E00D968C0F9D1F6DE070E0CD
:102570000E94DA1E80938501112311F400E001C04E
:1025800001E080917E0190917F012091860193FF6F
:102590000DC085E080930F0180E0222309F481E0E3
:1025A00080938601882391F08BE015C02223B9F433
:1025B00094FF02C08CE00FC092FF02C08FE00BC0FE
:1025C00090FF02C084E107C095FF02C087E003C00E
:1025D00091FF05C082E08093170301E002C0002351
:1025E00079F010911001103358F460E0812FFCD97C
:1025F000E12FF0E0EE51FD4F808380E380931001E6
:1026000010927F0110927E01802F90E0E6E0CDB71E
:10261000DEB70C94521F1F920F920FB60F92112427
:102620008F93EF93FF93E1ECF0E08081877B8083D1
:10263000FF91EF918F910F900FBE0F901F90189503
:1026400082E08093C0001092C50083E38093C400B1
:1026500086E08093C200EBE6F0E0808181608083B9
:102660000895F8948091C10085FD0FC08091C1004C
:102670008F7B8093C1008091C00080648093C000F4
:102680008091C10088628093C100789408951F9260
:102690000F920FB60F9211242F933F934F935F9396
:1026A0006F937F938F939F93AF93BF93EF93FF931A
:1026B0006ED0882319F08093C6000FC08091C100AE
:1026C0008F7D8093C1008091C00080648093C000A2
:1026D0008091C10080648093C100FF91EF91BF9110
:1026E000AF919F918F917F916F915F914F913F91AA
:1026F0002F910F900FBE0F901F9018951F920F9261
:102700000FB60F9211242F933F934F935F936F93C4
:102710007F938F939F93AF93BF93EF93FF9380919A
:10272000C60048D0E1ECF0E080818F768083EBE654
:10273000F0E0808181608083FF91EF91BF91AF9144
:102740009F918F917F916F915F914F913F912F91C9
:102750000F900FBE0F901F901895582FF89440912E
:102760008C01E42FF0E09F012F5F3F4F2F773070F7
:1027700080918D0190E02817390739F0EE56FE4F11
:1027800050834F5F4F7740938C0178940895209148
:102790008D0180918C01821711F480E009C0E22F35
:1027A000F0E0EE56FE4F80812F5F2F7720938D0152
:1027B00090E00895282F8823F9F08D3009F42AE05D
:1027C00080919001E82FF0E0EE5EFD4F2083982F7E
:1027D0009F5F9F719093900180919101981721F4D0
:1027E0009F5F9F71909391012A3031F4F69A809106
:1027F00032028F5F809332020895F8942091910104
:1028000080919001821779F0E22FF0E0EE5EFD4FAB
:10281000E0812F5F2F7120939101809132028150CE
:102820008093320203C010923202E0E078948E2F3F
:1028300090E008951F93182F843650F064E60E94AC
:10284000AD1E805D8ADF812F64E60E94AD1E192FC8
:10285000812F6AE00E94AD1E805D7FDF812F6AE0DC
:102860000E94AD1E892F805D78DF1F9108950F9320
:102870001F938C0164E670E00E94C61ECB01DADF74
:10288000C80164E670E00E94C61ED4DF1F910F915C
:1028900008951F93182F82958F708A3010F0895AEF
:1028A00001C0805D5ADF812F8F708A3010F0895A05
:1028B00001C0805D52DF1F9108950F931F938C011B
:1028C000812F9927E6DF802FE4DF1F910F91089574
:1028D000CF93DF93EC0102C040DF2196FE0184918B
:1028E0008823D1F7DF91CF9108950F931F93082F7D
:1028F00010E01EC082DF982F282F20532A3038F096
:102900008156863010F4275202C0892F19C0E12F5A
:10291000E69510FF06C0F0E0ED5CFD4F8081280FCA
:1029200005C0F0E0ED5CFD4F2295207F20831F5F06
:10293000101701F762DF8A3019F480E090E001C0DF
:1029400090E01F910F9108951F93162F06DF8BE5DE
:1029500004DF812F9EDF8DE500DF8DE3FEDE1F911A
:10296000089590918C0180918D01981709F079CE8E
:1029700008951F93182F80910701F1998F5F5ADFF7
:102980008EE2EBDE8091B20084DF8DE2E6DE812F05
:10299000E4DE8AE0E2DEE5DF1F9108950F931F93E6
:1029A000CF93DF93EC01162F042F80910701F1994B
:1029B0008F5F40DF8EE2D1DE8091B2006ADF0023BC
:1029C00039F0163028F080EE91E082DF145003C019
:1029D0008BED91E07DDF80918E0190918F010196CA
:1029E00090938F0180938E01019767DF8AE3B5DEB4
:1029F0001B3018F01AE001E006C000E004C080E2DD
:102A0000ACDE899146DF1150D0F7002319F087ED35
:102A100091E05EDF8AE0A1DEA4DFDF91CF911F911C
:102A20000F9108951F93CF93DF93EB01142F181686
:102A300014F48BE203C0882311F08DE28EDE80E275
:102A40008CDECE013ADF80E288DE812F22DF8AE051
:102A500084DE87DFDF91CF911F910895FF920F935E
:102A60001F93F82E8B01672F772700D6602F8F2DAD
:102A7000FDD51F910F91FF9008950F931F93082F7D
:102A800083E492E025DF80910801805302DF80E239
:102A900064DE80910401CEDE8EE25FDE8091030170
:102AA000C9DE8EE25ADE80910201C4DE80E255DE8C
:102AB00080910501BFDE8AE350DE80910601BADE17
:102AC0008AE34BDE80910701B5DE80E246DE80912D
:102AD0001201882311F48DE409C09091370280918E
:102AE0003602981711F481E401C08DE236DE8EE3E0
:102AF00092E0EEDE07FD02C0802F02C08091180137
:102B000099DE89E392E0E4DE80911C0190911D0141
:102B1000AEDE84E392E0DCDE909111019D3320F083
:102B20008FE292E0D5DE05C082E3989FC0011124B8
:102B30009EDE8AE292E0CCDE80911A0190911B0128
:102B400096DE84E292E0C4DE80913A0290913B02EC
:102B5000B4DE80913902882331F080E292E0B8DE61
:102B60008091390296DE07FF03C08DE192E0B0DE6E
:102B700080913802882319F08AE192E0A9DE8AE088
:102B8000ECDDEFDE10E00E3F11F411E003C064E471
:102B900080E06CD52091060180911201882339F0E4
:102BA0009091370280913602981719F080E860E022
:102BB00002C080E860E4622B682B812F57D590918A
:102BC000070180913802882311F060E401C060E0C1
:102BD000692B812F4BD560913902812F47D56091A8
:102BE0001C0170911D01672F770F770B812F3ED548
:102BF00060911C01812F3AD560911A0170911B01DF
:102C0000672F770F770B812F31D560911A01812FB4
:102C10002DD560913602812F29D507FD02C0602F86
:102C200002C060911801812F21D51F910F91089545
:102C30000F931F93CF93DF93082F86E58EDDE5EE8C
:102C4000F1E01491EF010AC0812F87DD002319F014
:102C5000612F802F0BD52196FE0114911123A1F72E
:102C6000DF91CF911F910F910895A0E0B0E0EBE3C9
:102C7000F6E10C94351FEC01D62EFF24C6C0FE01F0
:102C8000EF0DF11DE080F3946E2D606881E0EED4CD
:102C90008E2D90E0FC01E154F040E731F10508F0A1
:102CA000B4C0E45AFF4F0C94611F81E0C1DFADC096
:102CB0008E010F0D111DF801608181E0D7D4F8015C
:102CC0008081AAD1BC0181E0C9DE67C0F3E5EF16BF
:102CD00089F4DE01AF0DB11DEC91E03358F42E2FD5
:102CE00030E02E513D4FFD018181F90180838C91AF
:102CF0000E94190D8E010F0D111DF801608181E0F8
:102D0000B5D4F80100810F3F11F463EE05C0E02F48
:102D1000F0E0EE51FD4F608181E0A8D4F3E5EF16BD
:102D2000E1F5F3943AC087E5E816C1F4FE01EF0D32
:102D3000F11D21818081422F50E04F705070542F3F
:102D400044279281490F511D682F6F7022952F7073
:102D500082958F700E943A09109237028E010F0DF2
:102D6000111DF801608181E081D4F8012081822F5A
:102D700082958F7090E043E0880F991F4A95E1F7A4
:102D80002F70820F911D0E947F0DBC0181E066DED5
:102D9000F7E5EF1611F482E0F80EF39436C0FE0169
:102DA000EF0DF11D8081833181F48181843269F4DA
:102DB000F89488E190E028E00FB6F894A895809305
:102DC00060000FBE20936000FFCFE2E0FE0E1DC04A
:102DD00090E0FE01EF0DF11D8081813009F491E05A
:102DE000F394892F4BD10FC0FE01EF0DF11D8081AF
:102DF000893058F08E3348F48AE080931301808143
:102E000080933602F3948EEF38DEFD1408F437CF4A
:102E1000E7E0CDB7DEB70C94511F1F93F2C0EDDC95
:102E2000182F90E0FC01E154F040E931F10508F081
:102E3000E7C0ED58FF4F0C94611FDFDC8A3009F0CA
:102E4000DFC080E0F5DEDCC0D8DC8A3009F0D8C015
:102E500085C082E04ADD882309F0D0C0609133024A
:102E600084E572DD80913302D7D027DDC7C01734E7
:102E700031F482E03ADD882309F0C0C013C084E059
:102E800034DD882309F0B8C090913302903350F4B8
:102E9000E92FF0E0EE51FD4F809134028083892FBD
:102EA0000E94190D60913302812F4EDDE0913302B3
:102EB000EF3F11F483EE04C0F0E0EE51FD4F80814E
:102EC000E8DC9AC0123531F482E00FDD882309F086
:102ED00095C01DC086E009DD882309F08DC02091D2
:102EE0003402422F50E04F705070542F442780918D
:102EF0003502480F511D80913302682F6F70229563
:102F00002F7082958F700E943A091092370260915B
:102F10003302812F19DD20913302822F82958F7029
:102F200090E073E0880F991F7A95E1F72F70820F78
:102F3000911D0E947F0DC1DC5FC086E0D6DC882336
:102F400009F05CC0809133020E94740880913402C1
:102F50000E947708809135020E947F088FEF8DDDF7
:102F60004FC086E0C2DC882309F048C0809133025C
:102F70000E944706809134020E944E0680913502DD
:102F80000E945506EBCF84E0B0DC882309F036C000
:102F900080913302833191F580913402843271F54E
:102FA000F89488E190E028E00FB6F894A895809313
:102FB00060000FBE20936000FFCF82E096DC882384
:102FC000E9F490E080913302813009F491E0892F97
:102FD00055D00FC082E089DC882381F490913302C0
:102FE000993060F09E3350F48AE0809313019093FF
:102FF00036028FEF42DD02C0112311F08AE0ADDB13
:10300000B0DC80913202882309F009CF1F91089526
:1030100080E00EDE15DBA5CC823128F08731B9F4D3
:103020008FEF90E008958D3090F4E82FF0E0EE0FF0
:10303000FF1FE95BFD4F85919491FC01FF7797FF9E
:1030400003C0808191810895808190E0089580E09F
:1030500090E0089590913602980F9093360299303F
:1030600010F489E003C09E3318F08DE3809336029C
:10307000109238028AE0809313010895982F8F3FB1
:1030800049F48091360280933E028091370280930A
:103090003F020AC08E3FA1F480913E028093360227
:1030A00080913F028093370220E0809112018823B3
:1030B00009F421E0209312018AE08093130104C0F7
:1030C000809312011092130180911201882349F01C
:1030D0009E3F39F080E00E949307809337028093EF
:1030E0003602109238020895CF92DF92EF92FF924B
:1030F0000F931F93C62E882321F4809137028823D3
:10310000E9F490E080913702811191E0892F0E94CB
:103110009307982F882391F08093370280911201B2
:10312000882361F0909336028091130187FF06C0D7
:1031300080911101981711F01092130100918B02E8
:1031400010913802112319F08091070302C0809179
:103150000603282F30E0802F90E08096821B930B8F
:1031600060E270E027D660E177E240E050E0282F8F
:1031700030E0F901EE0FFF1FE457FD4F0190F081A1
:10318000E02D309741F0E617F7070CF4BF014E171A
:103190005F070CF4AF01801729F02F5F3F4F822F9C
:1031A0008F71E5CFE0911C01F0911D019F01261B5D
:1031B000370B8091050390E0821793072CF41123BD
:1031C00091F0109238020DC0112369F44E1B5F0B71
:1031D0008091040390E0841795072CF481E080939C
:1031E00038021092130180911401909115010097FB
:1031F00029F0019790931501809314018091130198
:1032000018161CF4815080931301409114015091C1
:1032100015014115510529F080911301882309F00A
:103220002BC1309136023A3018F08091380281116A
:103230003AE080911101381739F030931101109262
:103240003B0210923A0203C0452B09F010C1809155
:10325000EB0225E0829FC001112490931501809319
:1032600014013D3318F0C090EE0201C182E3389F93
:10327000900111242E1B3F0B48EF2033340714F428
:1032800020E338EF8901215D374014F000ED17E0AD
:1032900080913C0290913D02009709F442C08E1B40
:1032A0009F0B71F4980117FF04C022273327201BBE
:1032B000310B8091EA0290E08217930754F031C0FD
:1032C0001816190624F4101611061CF02AC017FF50
:1032D00028C06091E80270E080E092E36BD560174F
:1032E00071075CF480913A0290913B02860F971F20
:1032F00090933B0280933A0214C088279927861B3B
:10330000970B20913A0230913B02081719071CF4E1
:10331000261B370B02C0200F311F30933B02209336
:103320003A02F0933D02E0933C02D090E902DD20A6
:1033300019F460E072E305C06D2D70E080E092E367
:1033400039D580913A0290913B026817790734F0A1
:10335000709561957F4F8617970724F470933B0211
:1033600060933A02B80117FF04C066277727601BF5
:10337000710B882777FD8095982F2091E70230E028
:1033800040E050E0CBD49B01AC016091E80270E0DA
:10339000762F662780E090E0620F731F841F951FD1
:1033A0009801442737FD4095542FB8D4672F782FC4
:1033B000892F992787FD9A952091ED0230E0322FD1
:1033C000222779010027F7FC0095102F4D2D50E0A2
:1033D00020913A0230913B02F9014E9F90014F9F9C
:1033E000300D5E9F300D1124442737FD4095542F3A
:1033F000E20EF31E041F151FE60EF71E081F191F0D
:10340000F1E0EF16F4E6FF06F0E00F07F0E01F072B
:103410001CF08091EE0204C017FF04C08091EC0202
:10342000682F24C08C2D992787FD9095982F882789
:10343000A701481B590BCA0181509F4F8F5F9140D4
:1034400010F46C2D13C02F2D332727FD3A95809152
:10345000EE02682F70E06217730744F08091EC026F
:10346000682F70E0261737070CF0622FC62E8FEFFB
:10347000809313018C2D01DB40911A0150911B01A7
:103480008091030324E1829FC0011124481759074A
:1034900030F480913902806C8093390210C08091A1
:1034A0000203829FC0011124209139024817590755
:1034B00018F420642F7701C02F73209339028C2DCC
:1034C00090E01F910F91FF90EF90DF90CF900895C3
:1034D0009C01139840E137FF02C0889A01C0889888
:1034E000899A880F991F669981608998415019F0CF
:1034F000220F331FF0CF139A1398089580E090E0C5
:10350000E7DF87EE90E8E4DF85E896EAE1DF87E829
:1035100096ECDEDF83EC94E9DBDF8BEE92ECD8DF18
:1035200081E89AECD5DF87EA94ECD2DF80E298E973
:10353000CFCFA8E0B0E0EEE9FAE18CC46C01F62E42
:10354000BA01E22E8E010F5F1F4F452B41F4F801A7
:10355000CE0109961192E817F90751F0FBCF48E028
:1035600050E0C801D2D34EE653E0B801C80146D3BB
:1035700080E04EE8842E43E0942E5E010894A11C66
:10358000B11C39E0232E312C2C0E3D1E20EE422E94
:103590002FEF522E480C591C32C0182F185F1F15E0
:1035A00040F01F1529F496E8692E93E0792E01C0AA
:1035B0003401A5019301982F9F1528F4F601E90F16
:1035C000F11DE08105C09F1511F4E0E801C0E0E0C5
:1035D0001F1518F0D9018C91E827DA018C918E27FC
:1035E000FA018193AF012F5F3F4FE215F30511F010
:1035F0009F5FE2CFA201B501C50100D3812F8F15D6
:1036000060F28E010F5F1F4F8F2D90E0EE20A1F032
:10361000F601E80FF91FD8019E012B5F3F4F908103
:103620008C91981719F080E090E00EC031961196B9
:10363000A217B307A1F706C044E050E0B8018C0D13
:103640009D1D63D381E090E0E2E128961FC4AF8125
:10365000AA0FBFB7A7E00880BFBF001CBFB700829A
:1036600021963196A150B8F728970895882369F0DC
:10367000809116018A34A8F4E82FF0E0E65EFC4F52
:1036800060838F5F80931601089580914202863493
:1036900040F4E82FF0E0EB5BFD4F60838F5F809399
:1036A000420208958091440281508093440218168A
:1036B0007CF1882311F0823EE4F410924402809160
:1036C0006B008F7B80936B0081E89AEC01DF83E8CD
:1036D0009AECFEDE88ED92E8FBDE1092400284E078
:1036E0008093410280916B00806480936B000C9406
:1036F000E30B8C3F6CF480916B008F7B80936B00AD
:1037000080E092E8E5DE80913902806180933902A1
:103710000895A8E0B0E0EEE8FBE1A2C37C01062F2B
:10372000662369F110E096E7892E93E0992E82E0F6
:10373000A82E81E0B82E6E010894C11CD11CA401F2
:10374000B501C6015BD2809109018F5F80930901A9
:10375000E12FF0E0D701AE0FBF1FE770F070EC0D66
:10376000FD1D8C91908189278C931F5F101738F471
:10377000812F90E087709070892B51F7E0CFECE0BB
:1037800028968AC30F931F93CF93DF9348E050E0AE
:103790006AE073E086E893E0B8D248E050E065E67E
:1037A00072E08EE893E0A8D220E030E0F901E2591F
:1037B000FC4F822F805480832F5F3F4F283131058B
:1037C000A9F746E853E06EE673E0CB0117D246E86E
:1037D00053E066E773E0CB0111D246E853E06EE7B1
:1037E00073E0CB010BD2E6E8F3E0119283E0EE3810
:1037F000F807D9F78F0108501040AF0140525040F0
:10380000B801C801FBD1E801FE0121DFEEE8F3E0D9
:103810001EDFDF91CF911F910F9108951F93182FF5
:1038200088E192E855DE44E050E061E672E08AE12A
:1038300093E062D28091090380931F03112361F00A
:10384000409142024A5F40931601465050E065E4C1
:1038500072E080E293E059D26091160160931E03FA
:10386000665080E293E055DF60911601655020E0DC
:1038700042E051E08FE193E05CDE809109018F5FCF
:1038800080930901809116018C5FE82FF0E0E65EDD
:10389000FC4F9AEA90838F5FE82FF0E0E65EFC4FE2
:1038A00090838F5F809316011092400282E0809394
:1038B000410288E392E80CDE139880916B008064EB
:1038C00080936B000E94E30B83E753D81F91089508
:1038D0001F9380914002882309F428C1482F50E0AB
:1038E00060911A03262F30E02F773070421753076C
:1038F00034F4203531051CF4803508F417C180916B
:103900006B008F7B80936B002417350724F4862F80
:103910008F778093400230914002363008F4F4C033
:1039200067FF81C06F77655021E040E050E08BE198
:1039300093E0FFDD182F60914002482F8AE193E069
:103940002DD8112309F4E0C01092410280E092E8E2
:10395000BFDD809167018B7F809367018091680153
:103960008B7F8093680180911A038B3849F4809192
:103970001F0380939703809120038093960313C0C5
:103980008D3869F48FEF809397038093960344E01A
:1039900050E06FE173E08AE693E0B7D104C0109283
:1039A0009703109296038AE0809344028091390233
:1039B0008F7E8093390288E08093B20080911B0350
:1039C0000E94740880911C0382958F700E94770872
:1039D00080911C03880F880F880F887190911D03B8
:1039E000929596959770890F0E947F0880911D038C
:1039F0008F710E94470680911E0386950E944E0695
:103A000080911E0380FF02C08EE101C080E00E9411
:103A10005506F894809168018E7F809368017894B0
:103A20001092400283C0832F90E0019643E0959569
:103A300087954A95E1F720910901280F2093090104
:103A4000355021E042E051E0632F8BE193E071DDDE
:103A5000182F60914002862F90E0019623E0959503
:103A600087952A95E1F720910901281B20930901E8
:103A700066508CE193E04DDE809109018F5F809369
:103A8000090160914002412F8AE193E00E94CE1427
:103A900080911B031123C1F18823B1F510924202DA
:103AA000809167018B7F80936701809168018B7F94
:103AB00080936801209140022730F0F086E08093E7
:103AC0001601922F95503FE4E32FF0E0E65EFC4FA5
:103AD000A92FB0E0A65EBC4F8C91808331509150ED
:103AE000913091F7622F665080E793E0821B910935
:103AF000BCD880E093DE1AC01092400210924102BE
:103B000080E092E8E5DC12C01092400284E08093ED
:103B1000410281E89AECDCDC83E89AECD9DC809104
:103B20006B00806480936B000E94E30B1F910895EB
:103B300084E70E94B91480914302823039F18330C6
:103B400021F0813061F56ADE2AC01092970310924D
:103B5000960381E89AECBCDC83E89AECB9DC88ED4A
:103B600092E8B6DC139880916B00806480936B00C0
:103B70000E94E30B84E08093410282E08093430241
:103B80006091B2006A5D0E94900609C08091410276
:103B9000823029F01092410280E092E899DC109284
:103BA000430208950F931F93109241021092400216
:103BB0000BE610E0F80180818F7B808381E89AEC2E
:103BC00087DC83E89AEC84DC88ED92E881DC84E091
:103BD00080934102F8018081806480830E94E30B1E
:103BE00082E0809343026091B200675E0E9490067B
:103BF00082E70E94B9141F910F9108952F923F926E
:103C00004F925F926F927F928F929F92EF92FF926C
:103C10000F931F93CF93DB01FA012D903D904D90B0
:103C20005D906D907D908D909D90DC0160E2062E00
:103C300022273327A901E89473018401C4E0EE0C24
:103C4000FF1C001F111FCA95D1F7B301C401C5E0C5
:103C50009695879577956795CA95D1F7E626F726C5
:103C600008271927E60CF71C081D191D2EF4C32F71
:103C7000C695CC70E89405C0C22FC370CC0FCC0F92
:103C80006894EC0FF11D6081718182819381EC1B3E
:103C9000F040620F731F841F951FE626F726082742
:103CA0001927E20CF31C041D151D13012401370113
:103CB00048014EF4C9EB2C0FC9E73C1FC7E34C1F6A
:103CC000CEE95C1FB9CF0A9409F0B6CF2D923D9290
:103CD0004D925D926D927D928D929D92CF911F91AA
:103CE0000F91FF90EF909F908F907F906F905F90DB
:103CF0004F903F902F900895FB01DC0102C005908A
:103D00000D9241505040D8F70895FB01DC0102C0EC
:103D100001900D9241505040D8F70895629FD00114
:103D2000739FF001829FE00DF11D649FE00DF11D76
:103D3000929FF00D839FF00D749FF00D659FF00D25
:103D40009927729FB00DE11DF91F639FB00DE11D12
:103D5000F91FBD01CF0111240895991B79E004C01A
:103D6000991F961708F0961B881F7A95C9F78095BA
:103D7000089587FB082E062687FD819567FD6195CE
:103D8000ECDF0EF4919507FC81950895AA1BBB1BEF
:103D900051E107C0AA1FBB1FA617B70710F0A61B4B
:103DA000B70B881F991F5A95A9F780959095BC016C
:103DB000CD01089597FB092E07260AD077FD04D080
:103DC000E5DF06D000201AF4709561957F4F0895C5
:103DD000F6F7909581959F4F0895A1E21A2EAA1BA0
:103DE000BB1BFD010DC0AA1FBB1FEE1FFF1FA217AB
:103DF000B307E407F50720F0A21BB30BE40BF50BA8
:103E0000661F771F881F991F1A9469F76095709530
:103E1000809590959B01AC01BD01CF01089597FB62
:103E2000092E05260ED057FD04D0D7DF0AD0001C7E
:103E300038F450954095309521953F4F4F4F5F4F47
:103E40000895F6F790958095709561957F4F8F4F07
:103E50009F4F08952F923F924F925F926F927F9261
:103E60008F929F92AF92BF92CF92DF92EF92FF928A
:103E70000F931F93CF93DF93CDB7DEB7CA1BDB0B36
:103E80000FB6F894DEBF0FBECDBF09942A883988DB
:103E900048885F846E847D848C849B84AA84B984E2
:103EA000C884DF80EE80FD800C811B81AA81B981EE
:103EB000CE0FD11D0FB6F894DEBF0FBECDBFED0102
:103EC0000895EE0FFF1F0590F491E02D0994FFCFA8
:103ED0000101080C010C00000000FE0205FF0102B8
:083EE00030FF01101000060084
:00000001FF
