:1000000036C1000051C10000C4C300000C942D157E
:100010000C9492100C94851047C1000045C100005B
:1000200043C1000041C100003FC1000092C2000076
:100030003BC1000068C700002FC70000F1C60000E8
:1000400033C1000031C100002FC100000C94131710
:100050002BC1000029C100000C94EB1DDB0AB60A7D
:10006000EC0AEA0AEC0AEC0A520AEC0AEC0AEC0A7C
:10007000EC0AEC0ACF0AEC0AEC0AEC0AEC0A7D0A5C
:10008000520A470AEC0A440A7D0ACA0BA30BE00B8A
:100090000B0BE00BE00B1E0B940BE00BE00BE00BEB
:1000A000E00BBD0BE00BE00BE00BE00B490B1E0B74
:1000B000100BE00B040B490BE00B830B1F182218ED
:1000C0008619861986198619B2186C18DC18E71873
:1000D0004B1857195C195C197919291833183318FA
:1000E0004B184B189119F9180019B519C119F71ABD
:1000F000F71AF71AF71A1C1A1C1A1C1A1C1A1C1ABF
:10010000271B2D1B2D1B741BCD19DB19ED19FB199A
:100110000A1A511A601A801A3C823A822F812B01E6
:1001200003012C0104011C811A81188100000000C8
:1001300000002E2E2E00204552520020504B54001D
:100140003A4F70656E4852323072666D2045302EDF
:100150003035204F63742020312032303039203246
:10016000313A33303A323120245265763A203233F4
:100170003720240A0020570020580020453A00204C
:1001800049733A200020423A2000424F4F54002049
:10019000533A200020493A200020563A2000443AA1
:1001A0002000AAAA2DD40123456789ABCDEF1F1CDF
:1001B0001F1E1F1E1F1F1E1F1E1F00001F003B00B3
:1001C0005A0078009700B500D400F3001101300107
:1001D0004E013F065B4F666D7D077F6F777C395E12
:1001E000797163547376300840014841094950548D
:1001F000105C00332738583E786E20011607201611
:1002000001162016021620160316201604162016B4
:10021000051620160616201607160B011F241616A3
:10022000161620160C16200E1C1C000F0F20001D89
:10023000202000120E1D0B0A2626200E0220200E62
:100240000320200E04200E0E121C28241F1B020364
:100250001B191800010002030405060708090A39E2
:1002600035423E0C0D0E0F101112131415001124FF
:100270001FBECFEFD4E0DEBFCDBF11E0A0E0B1E004
:10028000E2EBFDE302C005900D92A831B107D9F76A
:1002900013E0A8E1B1E001C01D92AD39B107E1F76B
:1002A0000E9417130C94D81EABCE40911A015091A6
:1002B0001B014B305105ECF0809100018823C9F4FB
:1002C0002091180130911901F90193E0EE0FFF1F01
:1002D0009A95E1F7CA016AE070E00E944B1E220F76
:1002E000331FC9018E0F9F1F0E944B1E862F90E067
:1002F00008958FEF90E0089580911A0190911B016D
:10030000892B19F480E090E0089590E0809100013D
:10031000811191E081E09827892F90E00895482F7E
:10032000882379F410926E0080916B008F7E809309
:100330006B00739814BA2F9888E484BD10929002D1
:10034000089580919002841709F465C0809190020D
:10035000882389F01092210110922001109224012B
:1003600010922301109226011092250182E08093C1
:1003700001011092900240939002739A9091690348
:1003800080910001882319F48091680302C0809154
:100390006703282F30E0892F90E0BC01269FC00121
:1003A000279F900D369F900D112464E670E00E9407
:1003B000371E33E0660F771F3A95E1F770932A01F5
:1003C000609329018091290190912A01880F991F3A
:1003D000880F991F90931F0180931E0181E085BBB8
:1003E00016BC80936E008CB18093220180916B00CB
:1003F000806180936B008091640387BD4F3F31F42F
:1004000088E084BB2F9889E684BD089580E184BB91
:100410002F9A89E784BD0895982F80910001882341
:1004200009F042C0943649F480911A0190911B0161
:10043000909328018093270121C0992329F41092D9
:100440002801109227011AC0892F90E020911A01EB
:1004500030911B013595279535952795AC01429F25
:10046000C001439F900D529F900D112469E170E0EF
:100470000E944B1E70932801609327018091900287
:10048000882391F42091180130911901809127015E
:10049000909128018217930714F48FEF40CF28170B
:1004A000390714F481E03BCF089580911C019091AD
:1004B0001D0181529E4408F04BC0809101018823A8
:1004C00009F043C020911C0130911D012C5F3F4F6A
:1004D00053E0369527955A95E1F780916903281BDB
:1004E000310980916A0390E0AC01249FC001259FEF
:1004F000900D349F900D112464E670E00E944B1E15
:1005000080916B03282F30E0261737074CF088279F
:100510009927821B930B9B01681779070CF49C01A8
:1005200087B5A901480F511D8091640390E084179D
:1005300095074CF080916303282F30E0CA014217E1
:1005400053070CF4C90187BD0895815080930101C0
:1005500008951F920F920FB60F9211248F939F93BD
:1005600080911E0190911F01892B99F080912001AB
:100570009091210101969093210180932001809117
:100580001E0190911F01019790931F0180931E01FE
:1005900014C0809120019091210190931D018093BE
:1005A0001C0114BA2F9888E484BDF59A80916B00E1
:1005B0008F7E80936B0010926E009F918F910F90B1
:1005C0000FBE0F901F9018951F93CF93DF9310913C
:1005D000900280E0A4DE80911E0190911F01892B82
:1005E00031F080910001882309F46DC025C01130DD
:1005F00009F040C0C0911801D0911901809100010B
:10060000823079F5D0931B01C0931A0180916C035D
:1006100090916D03892BC9F4C436D1056CF0D09349
:100620006D03C0936C0386E10E94421787E10E942C
:1006300042171092000147C08FEF80930001809114
:100640002E01886080932E013EC08FEF68DEC85E69
:10065000D340D0932801C093270183E08093000109
:1006600032C080911A0190911B01909319018093DF
:10067000180129C01F3F39F580910001833089F4AA
:1006800010920001209118013091190180911A01F6
:1006900090911B01821B930B90931B0180931A0175
:1006A0000EC08091180190911901853691053CF09A
:1006B0001093000180912E01886080932E0110928A
:1006C00019011092180180910001882379F480911A
:1006D0001A0190911B018436910544F48FEF8093A9
:1006E000000180912E01886080932E01DF91CF91CF
:1006F0001F9108951F93182F8823B1F480E00FDE17
:10070000109219011092180110921B0110921A01F7
:100710008EEF8093000185E08093020180912E018D
:10072000877F80932E0133C080910201882321F0BE
:100730008150809302010FC080910001813059F4F3
:1007400082E08093000188EE93E0909328018093EB
:10075000270181E0E4DD809100018E3FC1F4133078
:1007600069F48FEF9FEF90936D0380936C0386E1A4
:100770000E94421787E10E94421706C0123021F4FE
:1007800010926D0310926C0381E0809300011F9121
:1007900008951F920F920FB60F9211241F932F935B
:1007A0003F934F935F936F937F938F939F93AF93F9
:1007B000BF93EF93FF936CB1462F60FD0AC0809109
:1007C000C10080698093C10080916B008E7F80930F
:1007D0006B0080916B0084FF7FC08091220186278F
:1007E00084FF7AC020912001309121018091230162
:1007F00090912401281B390B8091200190912101B7
:10080000909324018093230144FD5BC08091660393
:1008100090E0880F991F8217930708F05DC0209120
:100820002501309126018091650390E0880F991F82
:100830008217930708F050C02091180130911901D8
:1008400080919002992787FD9095820F931F909336
:1008500019018093180180912001909121019093BA
:100860001D0180931C011092260110922501109207
:100870002101109220011092240110922301F49A78
:100880002091180130911901809127019091280140
:100890002817390769F414BA2F9888E484BDF59AAB
:1008A00080916B008F7E80936B0010926E0014C05D
:1008B0008091290190912A0190931F0180931E013C
:1008C0000BC080912501909126018217930720F497
:1008D00030932601209325016093220180916B00C3
:1008E00086FD49C04AC080916B008F7B80936B006E
:1008F000789480912C028230C9F420912B02E22F4F
:10090000F0E0EF53FD4F808190E02F5F20932B02AA
:10091000986B0E94BF0E90912B028091080198174E
:1009200010F183E080932C02F79A27C08430A1F461
:1009300010912B0280E090EB0E94BF0EE12FF0E0BF
:10094000EF53FD4F80831F5F10932B02103550F043
:1009500085E080932C0206C0853029F480E090EB7E
:100960000E94BF0EF79AF894000080916B0080649B
:1009700080936B0000006699B6CFFF91EF91BF9115
:10098000AF919F918F917F916F915F914F913F9127
:100990002F911F910F900FBE0F901F90189590915F
:1009A0002B01980F90932B01993010F489E003C02C
:1009B0009E3318F08DE380932B0110922D018AE075
:1009C000809305010895982F8F3F49F480912B0162
:1009D0008093330180912C01809334010AC08E3FB3
:1009E000A1F48091330180932B0180913401809395
:1009F0002C0120E080910401882309F421E0209358
:100A000004018AE08093050104C0809304011092E0
:100A1000050180910401882349F09E3F39F080E070
:100A20000E944C1180932C0180932B0110922D0178
:100A30000895CF92DF92EF92FF920F931F93C62EED
:100A4000882321F480912C018823E9F490E080919F
:100A50002C01811191E0892F0E944C11982F88233D
:100A600091F080932C0180910401882361F0909390
:100A70002B018091050187FF06C080910301981723
:100A800011F0109205010091130310912D01112313
:100A900019F080917B0302C080917A03282F30E007
:100AA000802F90E08096821B930B60E270E00E94A2
:100AB0004B1E60E177E240E050E0282F30E0F90182
:100AC000EE0FFF1FEC5EFC4F0190F081E02D3097A0
:100AD00041F0E617F7070CF4BF014E175F070CF45F
:100AE000AF01801729F02F5F3F4F822F8F71E5CF25
:100AF000E0913C02F0913D029F01261B370B809153
:100B0000790390E0821793072CF4112391F010924F
:100B10002D010DC0112369F44E1B5F0B80917803EA
:100B200090E0841795072CF481E080932D011092BA
:100B300005018091060190910701009729F0019726
:100B400090930701809306018091050118161CF40B
:100B50008150809305014091060150910701411594
:100B6000510529F080910501882309F02FC13091AA
:100B70002B013A3018F080912D0181113AE08091DB
:100B80000301381739F030930301109230011092AD
:100B90002F0103C0452B09F014C180915F0325E0AC
:100BA000829FC001112490930701809306013D3379
:100BB00018F0C090620305C182E3389F90011124B0
:100BC0002E1B3F0B48EF2033340714F420E338EF9B
:100BD0008901215D374014F000ED17E0809131016B
:100BE00090913201009709F443C08E1B9F0B71F462
:100BF000980117FF04C022273327201B310B809157
:100C00005E0390E08217930754F032C0181619065D
:100C100024F4101611061CF02BC017FF29C0609198
:100C20005C0370E080E092E30E944B1E6017710746
:100C30005CF480912F0190913001860F971F909363
:100C4000300180932F0114C088279927861B970BAA
:100C500020912F0130913001081719071CF4261B31
:100C6000370B02C0200F311F3093300120932F012A
:100C7000F0933201E0933101D0905D03DD2019F44F
:100C800060E072E306C06D2D70E080E092E30E94A8
:100C90004B1E80912F01909130016817790734F035
:100CA000709561957F4F8617970724F470933001F4
:100CB00060932F01B80117FF04C066277727601BD8
:100CC000710B882777FD8095982F20915B0330E08A
:100CD00040E050E00E94FF1D9B01AC0160915C036D
:100CE00070E0762F662780E090E0620F731F841F0C
:100CF000951F9801442737FD4095542F0E94FF1DF2
:100D0000672F782F892F992787FD9A952091610366
:100D100030E0322F222779010027F7FC0095102FB1
:100D20004D2D50E020912F0130913001F9014E9F5F
:100D300090014F9F300D5E9F300D1124442737FDE9
:100D40004095542FE20EF31E041F151FE60EF71EEA
:100D5000081F191FF1E0EF16F4E6FF06F0E00F0799
:100D6000F0E01F071CF08091620304C017FF04C06D
:100D700080916003682F24C08C2D992787FD909562
:100D8000982F8827A701481B590BCA0181509F4FF4
:100D90008F5F914010F46C2D13C02F2D332727FD4A
:100DA0003A9580916203682F70E06217730744F0F0
:100DB00080916003682F70E0261737070CF0622FD0
:100DC000C62E8FEF809305018C2D5AD220913A02C6
:100DD00030913B0221153105D1F08091770344E138
:100DE000849FC00111242817390720F480912E0117
:100DF000806C0BC080917603849FC001112428175A
:100E0000390728F480912E01806480932E018C2D67
:100E100090E01F910F91FF90EF90DF90CF90089599
:100E20001F920F920FB60F9211248F93EF93FF939F
:100E3000E1ECF0E08081877B8083FF91EF918F91DF
:100E40000F900FBE0F901F90189582E08093C00006
:100E50001092C50083E38093C40086E08093C200B3
:100E6000EBE6F0E08081816080830895F8948091C2
:100E7000C10085FD0FC08091C1008F7B8093C100B0
:100E80008091C00080648093C0008091C10088621E
:100E90008093C100789408951F920F920FB60F921D
:100EA00011242F933F934F935F936F937F938F936F
:100EB0009F93AF93BF93EF93FF938CD0882319F048
:100EC0008093C6000FC08091C1008F7D8093C100C8
:100ED0008091C00080648093C0008091C1008064D4
:100EE0008093C100FF91EF91BF91AF919F918F913E
:100EF0007F916F915F914F913F912F910F900FBE16
:100F00000F901F9018951F920F920FB60F921124F9
:100F10002F933F934F935F936F937F938F939F9301
:100F2000AF93BF93EF93FF938091C60066D0E1EC3F
:100F3000F0E080818F768083EBE6F0E08081816055
:100F40008083FF91EF91BF91AF919F918F917F919E
:100F50006F915F914F913F912F910F900FBE0F9026
:100F60001F901895823128F08731B9F48FEF90E007
:100F700008958D3090F4E82FF0E0EE0FFF1FE85E4B
:100F8000FE4F85919491FC01FF7797FF03C080810C
:100F900091810895808190E0089580E090E0089527
:100FA000582FF89440913501E42FF0E09F012F5F16
:100FB0003F4F2F7730708091360190E02817390726
:100FC00039F0E55CFE4F50834F5F4F77409335011A
:100FD000789408952091360180913501821711F49B
:100FE00080E009C0E22FF0E0E55CFE4F80812F5FDA
:100FF0002F772093360190E00895282F8823F9F069
:101000008D3009F42AE080913901E82FF0E0E554B1
:10101000FE4F2083982F9F5F9F719093390180919D
:101020003A01981721F49F5F9F7190933A012A30FB
:1010300031F4F69A8091DB018F5F8093DB01089594
:10104000F89420913A0180913901821779F0E22FCA
:10105000F0E0E554FE4FE0812F5F2F7120933A01BD
:101060008091DB0181508093DB0103C01092DB0192
:10107000E0E078948E2F90E008951F93182F843627
:1010800050F064E60E941E1E805D8ADF812F64E6B8
:101090000E941E1E192F812F6AE00E941E1E805D75
:1010A0007FDF812F6AE00E941E1E892F805D78DF1E
:1010B0001F9108950F931F938C0164E670E00E94C6
:1010C000371ECB01DADFC80164E670E00E94371EEC
:1010D000D4DF1F910F9108951F93182F82958F7061
:1010E0008A3010F0895A01C0805D5ADF812F8F70DD
:1010F0008A3010F0895A01C0805D52DF1F91089537
:101100000F931F938C01812F9927E6DF802FE4DF57
:101110001F910F910895CF93DF93EC0102C040DF40
:101120002196FE0184918823D1F7DF91CF91089514
:101130000F931F93082F10E01EC082DF982F282FD7
:1011400020532A3038F08156863010F4275202C0DE
:10115000892F19C0E12FE69510FF06C0F0E0E45298
:10116000FE4F8081280F05C0F0E0E452FE4F22952B
:10117000207F20831F5F101701F762DF8A3019F488
:1011800080E090E001C090E01F910F9108951F93BF
:10119000162F06DF8BE504DF812F9EDF8DE500DF54
:1011A0008DE3FEDE1F910895909135018091360107
:1011B000981709F05BCE08951F93182F80910E01A8
:1011C000F1998F5F5ADF8EE2EBDE8091B20084DF0F
:1011D0008DE2E6DE812FE4DE8AE0E2DEE5DF1F91CC
:1011E00008950F931F93CF93DF93EC01162F042FD5
:1011F00080910E01F1998F5F40DF8EE2D1DE809108
:10120000B2006ADF002339F0163028F08BE391E05A
:1012100082DF145003C086E391E07DDF80913701C7
:10122000909138010196909338018093370101978E
:1012300067DF8AE3B5DE1B3018F01AE001E006C074
:1012400000E004C080E2ACDE899146DF1150D0F7A7
:10125000002319F082E391E05EDF8AE0A1DEA4DFE3
:10126000DF91CF911F910F9108950F931F938C01E0
:10127000812F9927C0D2802FBED21F910F91089540
:101280001F93182F8EE991E046DF80910F01805364
:1012900023DF80E285DE80910B01EFDE8EE280DECF
:1012A00080910A01EADE8EE27BDE80910901E5DEB3
:1012B00080E276DE80910C01E0DE8AE371DE8091CF
:1012C0000D01DBDE8AE36CDE80910E01D6DE80E26A
:1012D00067DE80910401882311F48DE409C09091A8
:1012E0002C0180912B01981711F481E401C08DE24B
:1012F00057DE89E991E00FDF17FD02C0812F02C0A0
:1013000080913102BADE84E991E005DF80913C02F0
:1013100090913D02CFDE8FE891E0FDDE90910301D8
:101320009D3320F08AE891E0F6DE05C082E3989FC5
:10133000C0011124BFDE85E891E0EDDE80913A0224
:1013400090913B02B7DE8FE791E0E5DE80912F01BF
:1013500090913001D5DE80912E01882331F08BE70A
:1013600091E0D9DE80912E01B7DE17FF03C088E738
:1013700091E0D1DE80912D01882319F085E791E07D
:10138000CADE8AE00DDE10DF1E3F29F081E0809387
:10139000E30184E430D220910D018091040188237F
:1013A00011F490E00BC090912C0180912B019817C3
:1013B00019F090E880E002C090E880E4822B892B4D
:1013C0001AD290910E0180912D01882311F080E4B2
:1013D00001C080E0892B0FD280912E010CD2809128
:1013E0003D0209D280913C0206D280913B0203D299
:1013F00080913A0200D280912B01FDD117FD02C0ED
:10140000812F02C080913102F6D11092E3011F9129
:1014100008950F931F93CF93DF93082F86E5C0DDC8
:10142000E0E4F1E01491EF0109C0812FB9DD002360
:1014300011F0812FE0D12196FE0114911123A9F71B
:10144000DF91CF911F910F910895A0E0B0E0EBE202
:10145000FAE00C94A61EEC01D62EFF24BDC0FE01BE
:10146000EF0DF11DE080F3948E2D8068C4D18E2D98
:1014700090E0FC01E154F040E731F10508F0ACC028
:10148000E25DFF4F0C94D21E81E0C3DFA5C08E0148
:101490000F0D111DF8018081AED1F801808162DD50
:1014A000E4DE62C0F3E5EF1689F4DE01AF0DB11D95
:1014B000EC91E03358F42E2F30E02A5A3C4FFD01D6
:1014C0008181F90180838C910E9442178E010F0D5A
:1014D000111DF80180818FD1F80100810F3F11F4B7
:1014E00083EE05C0E02FF0E0EA5AFC4F808183D103
:1014F000F3E5EF16C9F5F39437C087E5E816C1F4B4
:10150000FE01EF0DF11D21818081422F50E04F70CF
:101510005070542F44279281490F511D682F6F70CE
:1015200022952F7082958F700E94F31210922C01D9
:101530008E010F0D111DF80180815DD1F801208110
:10154000822F82958F7090E033E0880F991F3A9533
:10155000E1F72F70820F911D0E94A61786DEF7E536
:10156000EF1611F482E0F80EF39436C0FE01EF0D91
:10157000F11D8081833181F48181843269F4F89492
:1015800088E190E028E00FB6F894A8958093600079
:101590000FBE20936000FFCFE2E0FE0E1DC090E082
:1015A000FE01EF0DF11D8081813009F491E0F3948B
:1015B000892F09DA0FC0FE01EF0DF11D80818930FE
:1015C00058F08E3348F48AE080930501808180933F
:1015D0002B01F3948EEF54DEFD1408F440CFE7E0C6
:1015E000CDB7DEB70C94C21E1F93EBC029DD182FB8
:1015F00090E0FC01E154F040E931F10508F0E0C071
:10160000EB5BFF4F0C94D21E1BDD8A3009F0D8C073
:1016100080E0FFDED5C014DD8A3009F0D1C081C082
:1016200082E086DD882309F0C9C06091DC0184E591
:10163000AEDD8091DC0196DC63DDC0C0173431F48F
:1016400082E076DD882309F0B9C013C084E070DD44
:10165000882309F0B1C09091DC01903350F4E92F58
:10166000F0E0EA5AFC4F8091DD018083892F0E94CF
:1016700042176091DC01812F8ADDE091DC01EF3FB0
:1016800011F483EE04C0F0E0EA5AFC4F808124DDBF
:1016900093C0123531F482E04BDD882309F08EC00F
:1016A0001CC086E045DD882309F086C02091DD015D
:1016B000422F50E04F705070542F44278091DE012C
:1016C000480F511D8091DC01682F6F7022952F709B
:1016D00082958F7088D710922C016091DC01812F48
:1016E00056DD2091DC01822F82958F7090E073E0AF
:1016F000880F991F7A95E1F72F70820F911D0E9434
:10170000A617FEDC59C086E013DD882309F056C019
:101710008091DC01A2D68091DD01A2D68091DE010C
:10172000A7D68FEFADDD4CC086E002DD882309F03F
:1017300045C08091DC0164D48091DD0168D4809142
:10174000DE016CD4EECF84E0F3DC882309F036C0F0
:101750008091DC01833191F58091DD01843271F556
:10176000F89488E190E028E00FB6F894A89580936B
:1017700060000FBE20936000FFCF82E0D9DC882399
:10178000E9F490E08091DC01813009F491E0892F47
:101790001AD90FC082E0CCDC882381F49091DC015F
:1017A000993060F09E3350F48AE080930501909365
:1017B0002B018FEF65DD02C0112311F08AE0F0DB11
:1017C000F3DC8091DB01882309F010CF1F9108958D
:1017D00080E01FDE3ADBE8CCAF81AA0FBFB7A7E0FD
:1017E0000880BFBF001CBFB7008221963196A15070
:1017F000B8F728970895982F8091E301882369F41A
:10180000809108018A34A8F4E82FF0E0EF53FD4FEF
:1018100090838F5F8093080108958091DF01863463
:1018200040F4E82FF0E0EB51FE4F90838F5F809300
:10183000DF0108958091E10181508093E101181644
:101840007CF1882311F0823EE4F41092E101809152
:101850006B008F7B80936B0081E89AEC90D283E8D9
:101860009AEC8DD288ED92E88AD210922B0284E015
:1018700080932C0280916B00806480936B000C94A9
:10188000C9038C3F6CF480916B008F7B80936B005D
:1018900080E092E874D280912E01806180932E01C5
:1018A0000895A8E0B0E0E7E5FCE00C94A11E7C01FF
:1018B000062F662369F110E09FE9892E92E0992EA8
:1018C00089E0A82E81E0B82E6E010894C11CD11CBD
:1018D000A401B501C60116D3809110018F5F8093DA
:1018E0001001E12FF0E0D701AE0FBF1FE770F070DD
:1018F000EC0DFD1D8C91908189278C931F5F101733
:1019000038F4812F90E087709070892B51F7E0CFE9
:10191000ECE028960C94BD1E1F93182F83E54CDC39
:1019200088E192E82CD244E050E062EA71E081EC78
:1019300092E00E94ED1D80917D038093C6021123E9
:1019400069F04091DF014A5F40930801465050E042
:1019500065EE71E087EC92E00E94F61D609108014F
:101960006093C502665087EC92E09BDF60910801AE
:10197000655020E049E051E086EC92E031D2809160
:1019800010018F5F80931001809108018A5F80931E
:10199000080110922B0282E080932C0288E392E8E7
:1019A000EED1139880916B00806480936B000E944D
:1019B000C90383E701DC1F9108951F938091E4011F
:1019C000882329F482E5F8DB81E08093E4018091AB
:1019D0002B02882309F421C1482F50E06091C102F5
:1019E000262F30E02F7730704217530734F420351C
:1019F00031051CF4803508F410C11092E401809187
:101A00006B008F7B80936B002417350724F4862F9F
:101A10008F7780932B0230912B02363008F4EBC085
:101A200067FF79C06F77655021E040E050E082ECBD
:101A300092E0D6D1182F60912B02482F81EC92E0D2
:101A4000D0DB112309F4D7C010922C0280E092E879
:101A500096D180912D028B7F80932D0280912E0252
:101A60008B7F80932E028091C1028B3849F4809144
:101A7000C6028093C0028091C7028093BF0211C04A
:101A80008D3861F48FEF8093C00244E050E066EC43
:101A900072E083E992E00E94F61D03C083E0809328
:101AA000E2018AE08093E10180912E018F7E809394
:101AB0002E0182E08093B2008091C202CED4809148
:101AC000C30282958F70CCD48091C302880F880F97
:101AD000880F88719091C402929596959770890F9E
:101AE000C7D48091C4028F718BD28091C502869534
:101AF0008ED28091C50280FF02C08EE101C080E0DD
:101B00008DD2F89480912E028E7F80932E0278944D
:101B100010922B0282C0832F90E0019643E09595AE
:101B200087954A95E1F720911001280F2093100125
:101B3000355021E049E051E0632F82EC92E050D132
:101B4000182F60912B02862F90E0019623E0959547
:101B500087952A95E1F720911001281B2093100109
:101B6000665083EC92E09DDE809110018F5F809340
:101B7000100160912B02412F81EC92E032DB1123A6
:101B8000D1F18091C2028823B1F51092DF018091DA
:101B90002D028B7F80932D0280912E028B7F80936C
:101BA0002E0220912B022730F0F086E0809308016E
:101BB000922F95503FE4E32FF0E0EF53FD4FA92F14
:101BC000B0E0AF53BD4F8C91808331509150913034
:101BD00091F7622F665087E193E0821B910935DC13
:101BE00080E09ADE1AC010922B0210922C0280E044
:101BF00092E8C5D012C010922B0284E080932C0290
:101C000081E89AECBCD083E89AECB9D080916B0063
:101C1000806480936B000E94C9031F9108950F9305
:101C20001F93CF93DF9348E050E06EE773E08FEAB5
:101C300092E00E94F61D48E050E066EA71E087EB12
:101C400092E00E94ED1D20E030E0F901E956FD4FE1
:101C5000822F805480832F5F3F4F28313105A9F7B1
:101C60004FEA52E067E972E0CB014CD14FEA52E013
:101C70006FE972E0CB0146D14FEA52E067EA72E0C9
:101C8000CB0140D1EFEAF2E0119282E0E73BF807A6
:101C9000D9F78F0108501040AF0140525040B801B1
:101CA000C80130D1E801FE0197DDE7EBF2E094DDF9
:101CB000DF91CF911F910F91089584E77DDA809194
:101CC000E001823031F1833021F0813059F524DE9A
:101CD00029C01092C0021092BF0281E89AEC4FD046
:101CE00083E89AEC4CD088ED92E849D01398809123
:101CF0006B00806480936B000E94C90384E0809332
:101D00002C0282E08093E0016091B2006A5FC1D151
:101D100009C080912C02823029F010922C0280E0C0
:101D200092E82DD01092E00108950F931F93109226
:101D30002C0210922B020BE610E0F80180818F7BC1
:101D4000808381E89AEC1BD083E89AEC18D088ED68
:101D500092E815D084E080932C02F80180818064A1
:101D600080830E94C90382E08093E0016091B20009
:101D70006C5E8FD182E720DA1F910F9108959C014C
:101D8000139840E137FF02C0889A01C08898899A69
:101D9000880F991F669981608998415019F0220F28
:101DA000331FF0CF139A1398089580E090E0E7DF97
:101DB00087EE90E8E4DF85E896EAE1DF80E196ECE3
:101DC000DEDF83EA94E9DBDF8BEE92ECD8DF81E89B
:101DD0009AECD5DF87EA94ECD2DF80E398E9CFCFA5
:101DE000A8E0B0E0E6EFFEE00C949B1E6C01F62E3E
:101DF000BA01E22E8E010F5F1F4F452B41F4F8010F
:101E0000CE0109961192E817F90759F0FBCF48E087
:101E100050E0C8010E94F61D47E952E0B801C80130
:101E200071D080E047EB842E42E0942E5E0108944E
:101E3000A11CB11C39E0232E312C2C0E3D1E20EEAE
:101E4000422E2FEF522E480C591C32C0182F185F0B
:101E50001F1540F01F1529F49FEA692E92E0792E94
:101E600001C03401A5019301982F9F1528F4F601B4
:101E7000E90FF11DE08105C09F1511F4E0E801C0F4
:101E8000E0E01F1518F0D9018C91E827DA018C9158
:101E90008E27FA018193AF012F5F3F4FE215F305C3
:101EA00011F09F5FE2CFA201B501C5012BD0812FB8
:101EB0008F1560F28E010F5F1F4F8F2D90E0EE2087
:101EC000A1F0F601E80FF91FD8019E012B5F3F4FEB
:101ED00090818C91981719F080E090E00FC03196B6
:101EE0001196A217B307A1F707C044E050E0B8016C
:101EF0008C0D9D1D0E94F61D81E090E0E2E1289688
:101F00000C94B71E2F923F924F925F926F927F92E6
:101F10008F929F92EF92FF920F931F93CF93DB01CB
:101F2000FA012D903D904D905D906D907D908D903B
:101F30009D90DC0160E2062E22273327A901E89458
:101F400073018401C4E0EE0CFF1C001F111FCA9531
:101F5000D1F7B301C401C5E096958795779567954C
:101F6000CA95D1F7E626F72608271927E60CF71CAD
:101F7000081D191D2EF4C32FC695CC70E89405C01A
:101F8000C22FC370CC0FCC0F6894EC0FF11D608191
:101F9000718182819381EC1BF040620F731F841F5B
:101FA000951FE626F72608271927E20CF31C041DC7
:101FB000151D13012401370148014EF4C9EB2C0F04
:101FC000C9E73C1FC7E34C1FCEE95C1FB9CF0A9499
:101FD00009F0B6CF2D923D924D925D926D927D9219
:101FE0008D929D92CF911F910F91FF90EF909F90B6
:101FF0008F907F906F905F904F903F902F900895BB
:10200000885E68E10E941E1E90930C010895845C16
:102010006CE30E941E1E90930D010895845C6CE396
:102020000E941E1E90930E01089580910A01E82FD0
:10203000F0E0E355FE4F2491823051F48091090184
:1020400090E083709070892B19F48DE190E00895F1
:10205000822F90E0089580910F018730B1F4809134
:102060000A01833039F420E030E080910B0189319E
:1020700070F008C08A3049F420E030E080910B0114
:10208000883128F021E030E002C020E030E0C901D2
:102090000895E82FF894F0E081E090E00E2E02C061
:1020A000880F991F0A94E2F720912D02282B209384
:1020B0002D02E25DFD4F60835091B200622F21FF3F
:1020C0000DC040912F02842F90E0851B91098F3F16
:1020D000910521F0242F251BE42F01C02FEF62FF73
:1020E0000BC040913002842F90E0851B910930E0B5
:1020F000821793070CF4E42FE093B3007894809157
:10210000700082608093700008950F930FB70F9353
:10211000F19A00912E02016000932E020F910FBFE1
:102120000F9118951F920F920FB60F9211242F93B3
:102130003F934F935F936F937F938F939F93EF930F
:10214000FF935091B2005150F19A90912D0291FF5E
:102150000AC080912F02581731F481E08093110159
:102160009D7F90932D0290912E02E0912D02E2FF2F
:1021700006C080913002581711F49460EB7F909361
:102180002E02E0932D026E2FE1FF0DC040912F0231
:10219000842F90E0851B91098F3F910521F0242F1A
:1021A000251BF42F01C02FEF62FF0BC040913002BE
:1021B000842F90E0851B910930E0821793070CF47F
:1021C000F42FF093B300EE2329F4809170008D7FFB
:1021D00080937000FF91EF919F918F917F916F910C
:1021E0005F914F913F912F910F900FBE0F901F90D5
:1021F0001895A0E0B0E0EFEFF0E10C949C1EF82EF3
:102200005B01882319F048E0342E02C032E0332EFF
:1022100055245A946624CF2CDD24860123E0000F38
:10222000111F2A95E1F7702E98E0492E400E882460
:102230009924C0E0D0E011C090E088D69F7025E0DE
:10224000803A920748F48815990530F0A816B90627
:1022500018F05E2C500E4C012196EC2E8C2F870D21
:10226000841550F357FE11C0FF2041F0C6010596BA
:1022700067E070E00E944B1EF82EF394639480EAAE
:10228000A82E85E0B82E631431F6852D90E0E1E1AB
:10229000CDB7DEB70C94B81EFF920F931F93CF9368
:1022A000DF93F82E90910C018CE3989FE0011124AC
:1022B00080910D01C80FD11D80917503813011F0FF
:1022C00000E002C000910F01BE01802F92DF182FA5
:1022D000992787FD90953AD6FC0117FD16C0FF207F
:1022E00049F09F708C179D0781F4159515951595EC
:1022F000101759F4EF2FFF27E295EF70E370F0709D
:10230000E95AFC4F808190E002C080E090E0E5E077
:10231000CDB7DEB70C94C41EA0E0B0E0E2E9F1E175
:102320000C94A51EC82EC0EAD5E077E1D72EEE2486
:10233000FF248701BE018C2D5CDF87FF03C080E096
:1023400090E004C0992787FD909500D69C012070ED
:1023500030739F708C179D0718F0CFEFDFEF02C02E
:10236000EC0121978CE34D2D4802C001112414C0CB
:1023700050E22030350740F041E050E060E070E08E
:10238000E42AF52A062B172B1D1424F4EE0CFF1C4F
:10239000001F111FDA94CC97C817D9074CF31C16ED
:1023A0001D0644F2C801B701E8E0CDB7DEB70C94D2
:1023B000C11EB2DF60938603709387038093880306
:1023C0009093890308950F931F93CF93DF93809188
:1023D0000A01E82FF0E0EE0FFF1FE854FE4FC59111
:1023E000D49190910B01C90FD11D833040F08091A1
:1023F000090190E083709070892B09F42196E09197
:102400000901F0E08F0101501040C80164E070E064
:102410000E944B1E9B012E0F3F1FC80164E670E017
:102420000E944B1E261B370B2B5F3F4FC9018C0FA1
:102430009D1F67E070E00E94371E282F2F5F2093BA
:102440000F0180917503813009F020E0822FB1DF08
:10245000DF91CF911F910F91089580930901B3CF20
:10246000855F6CE00E941E1E9F5F90930A01ABCFB8
:102470001F93182FDADD682F8150810F0E941E1ED6
:102480009F5F90930B019FDF1F91089580917000D3
:102490008E7F8093700088E08093B6001092B20027
:1024A0008091B00085608093B0002091B60080914B
:1024B000B60090E08470907030E021703070822B14
:1024C000932B892B91F78FEF87BB809170008160F0
:1024D0008093700078CF1F931092100180910E01AD
:1024E0008F5F80930E018C3318F480E090E062C01F
:1024F00010920E0180910D018F5F80930D018C333E
:1025000008F456C010920D0180910C018F5F8093EA
:102510000C01883160F110920C0187DD90910B0164
:102520009F5F90930B01891798F491E090930B01B2
:1025300080910A018F5F80930A018D3038F090936B
:102540000A01809109018F5F8093090110921103A4
:1025500080910F0167E00E941E1E9F5F90930F0104
:1025600080917503813009F090E0892F22DF10916E
:102570000A01133051F480910C018230C9F46BDDF3
:102580008823B1F010930C0113C01A3089F48091A4
:102590000C01833069F480911103882349F45BDDD9
:1025A000882331F082E080930C0181E08093110355
:1025B00081E090E01F9108950F931F938A0190E0AE
:1025C00023E0880F991F2A95E1F7860F911DBED44D
:1025D0009C01232F332722952F70F80120839F70B1
:1025E0001F910F910895362F8830F0F46830E0F491
:1025F0002430D0F495E04C3D590710F04FEF5FE0E8
:10260000622F70E0762F66277295707F642B752B92
:1026100090E043E0880F991F4A95E1F7830F911DE1
:10262000BBD481E090E0089580E090E0089590E8C8
:102630009093610081E08093610090BF8FEF809361
:102640007E008DE08093640088E183BB9EE095B9B5
:1026500081ED84B99DB983E48EB98BE080BB80EFB6
:1026600081BB88E082B981B98EE280936C0080ECF6
:102670008DBB0CDF83B120E090E0809590958E704B
:1026800090700E9709F421E0822F2CD4C8DA81E0F3
:102690000E947A030E94F11B88DB80E092E86FDBE6
:1026A00083B180958076809312031EBA789483E07C
:1026B00090E0BBD3833E39F063E083E10E94A01C2D
:1026C0000E94A11DFFCF84D883E89AEC58DB80EEEE
:1026D00090EC55DB88ED92E852DB80916B008064D2
:1026E00080936B000E94C90384E080932C02F894CD
:1026F0008EB3882329F584B590E087709070892B7C
:1027000021F48091C100887111F081E007C08091AF
:102710003902882311F083E001C087E083BF8091F4
:102720003902882339F01092390280917A0080644E
:1027300080937A0078948895000086E083BF01C07A
:102740007894F79B0CC0F79880912C02833011F499
:10275000ECDACDCF8450823050F62FD9C8CFF39B1E
:1027600004C0F3980E94A11DC2CFF29B03C0F2984F
:102770008ED2BDCFF69B04C0F6980E94F40AB7CF64
:10278000F59B04C0F5980E94E402B1CFF49B07C00A
:10279000F4983CD10E947A030E945502A8CFF09B86
:1027A00002C0F09871D1F19BB5C0F19880912E02D2
:1027B00080FFA6C0F8948E7F80932E0278948BDEE3
:1027C000182F609131020E94190580933102112364
:1027D000D9F080912E01807C09F0B9C080910F0161
:1027E000863009F0B4C080910C018A3009F0AFC086
:1027F00080910D01882309F0AAC010923001109237
:102800002F010E947A03A3C020917D032223D1F1DE
:102810008091E1018230B4F190910E01921721F480
:102820008091DF01882341F59F3148F090FF03C07C
:102830008091C00202C08091BF028217E9F08091AE
:10284000C0028F3FF9F4892F6EE10E941E1E92177D
:10285000C9F48091930290919402A0919502B09155
:10286000960204C0B695A795979587952A95D2F7B5
:1028700081709070892B31F081E08093E0016CE0F1
:1028800082E007DC80917D038823C1F08091E10123
:102890008230A4F080910E018B3311F08D3171F4F0
:1028A0008091E201882321F081508093E20106C0EB
:1028B00083E08093E0016DEF82E0EBDBA7D00E9424
:1028C0007A03809131020E940C0244D080919002E0
:1028D000882321F080917C03882309F0C7D180915F
:1028E000140187FD03C081508093140180E09AD3C6
:1028F0008091E40088608093E40081E080938D0201
:1029000080912E0282FF06C0F8948B7F80932E0266
:102910007894D3D98091320290913302892B29F493
:1029200080911401882309F0E2CE80E0FCD4182FB6
:10293000882311F081E0F7D4812F74D38091E400D3
:1029400088608093E40081E080938D02D0CE0E9465
:102950001A0C5ACF909136029923A1F48091380233
:102960008F5F80933802882321F48FEF80933802A1
:102970000895843109F049C0809132029091330268
:10298000906235C0809137028F5F80933702882331
:1029900021F48FEF8093370208958430B1F5983099
:1029A000D1F0993028F4923079F0943071F505C067
:1029B0009A30C1F09E3049F51FC08091320290914B
:1029C00033028062916013C0809132029091330291
:1029D000806492600CC080913202909133028068D2
:1029E000946005C080913202909133029860909378
:1029F0003302809332020895809132029091330223
:102A00009061909333028093320208952098289A1F
:102A10000000000083B12898209A8095877020914B
:102A20002E0180FF0AC0246020932E0110923001F5
:102A300010922F0180E090E008952B7F20932E01CB
:102A400081FF03C082E090E0089582FF03C083E02D
:102A500090E0089581E090E008951F920F920FB6E4
:102A60000F9211248F9326982E9AF09A000083B12A
:102A700080958E76809334022E98269A8F910F90AF
:102A80000FBE0F901F9018951F932091340220764F
:102A900080911203822785FF17C0222311F0203670
:102AA00031F48091320290913302826005C08091AE
:102AB000320290913302816090933302809332020C
:102AC0001092380220931203109134021E7020914C
:102AD0003602121709F45EC0112321F1222311F5E9
:102AE000809111018823F1F0143031F48091320289
:102AF0009091330284600FC0123031F48091320221
:102B000090913302886007C0183061F480913202DE
:102B1000909133028061909333028093320281E07E
:102B20008093350280913502882319F1243041F4D5
:102B30001123F9F08091320290913302806213C028
:102B4000223041F41123A9F0809132029091330296
:102B5000806409C0283069F4112359F08091320251
:102B600090913302806890933302809332021092E6
:102B7000350280911101882339F010921101609182
:102B8000B2006E5C81E085DA109336021092370253
:102B9000109238021F910895A0E0B0E0E2EDF5E157
:102BA0000C94A51E6B01E82EFF24E701CC0FDD1F5E
:102BB000CC0FDD1FC05CDD4F88819981AA81BB816C
:102BC0009B01442737FD4095542F280F391F4A1F7A
:102BD0005B1F288339834A835B83809112018F3086
:102BE00070F180914802F70174E0EE0FFF1F7A95B3
:102BF000E1F7EE19FF09E80FF11DEE0FFF1FE65B8D
:102C0000FD4F80819181AA2797FDA095BA2F281B9F
:102C1000390B4A0B5B0BCA01B901288339834A83FC
:102C20005B838701000F111F065C1D4F2FE030E012
:102C300040E050E00E94801EF801318320838091A3
:102C40004802F70194E0EE0FFF1F9A95E1F7EE19A5
:102C5000FF09E80FF11DEE0FFF1FE65BFD4FD1826C
:102C6000C082E8E0CDB7DEB70C94C11E91E090932E
:102C700049028CE0809364008CE880937A00109283
:102C80007B008EE580937C00909339020895CF926B
:102C9000DF92EF92FF920F931F93809149028F5F13
:102CA00080934902833081F0843020F4823009F02F
:102CB000AAC006C08430F1F0853009F0A4C023C05A
:102CC0008DE880937A0012C02091780030917900CD
:102CD00040E050E060E070E381E190E0EFD7B901BF
:102CE00080E05ADF8B9A82E480937C0081E08093BD
:102CF00039028FC0809178009091790090933F02C3
:102D000080933E02F3CF609178007091790020911A
:102D10003E0230913F02C9010196861797072CF0B9
:102D2000215030406217730744F470933F02609360
:102D30003E0284E0809349026CC080916E03482F6C
:102D400050E040505F4FA1E0B0E02A2FFD01E25972
:102D5000FC4F8081FA01E80FF11D6E177F0734F0F8
:102D6000AF012F5F1196A630B10579F730E0F90178
:102D7000E259FC4FE0808CE09EEF289F6001299F84
:102D8000D00C389FD00C112480EA9FE0C80ED91EC9
:102D9000641B750B882777FD8095982F2CE03EEFFC
:102DA0004FEF5FEF2CD7FF2400E010E0A801970160
:102DB000A7D7C20ED31EB60181E0EEDE8091480295
:102DC00090E001966FE070E066D780934802882318
:102DD00099F48091130390E0FC01EE0FFF1FEC5E6D
:102DE000FC4F20913C0230913D02318320830196BB
:102DF0008F71907080931303809112018F3018F4BB
:102E00008F5F809312018B988DE080937A0080937E
:102E100064008091390290E01F910F91FF90EF9034
:102E2000DF90CF900895F29A1895F999FECF92BD50
:102E300081BDF89A80B590E00895F999FECF90E0B1
:102E4000880F991F880F991F860F911D80549F4FDF
:102E500092BD81BDF89A80B590E008959C0180E014
:102E6000203C380728F0C90183709070892B49F401
:102E7000F999FECF32BD21BD60BDF894FA9AF99A56
:102E800078940895EF92FF920F931F93CF93DF935F
:102E9000082F803318F5E82EFF24E701CA5ADC4FCB
:102EA000188160E0CADF1817C9F0188162E0802F2E
:102EB000C4DF181730F0188163E0802FBEDF811760
:102EC00020F461E0802FB9DF8883EE0CFF1CEE0C4C
:102ED000FF1C6881C70180549F4FC0DFE6E0CDB77B
:102EE000DEB751C7EF92FF920F931F93CF93DF93FB
:102EF000082F46E5E42E43E0F42EC0E0D0E00023A6
:102F000091F460E08C2F99DF182FF701808362E045
:102F10008C2F93DF181738F0F701108163E08C2FA6
:102F20008CDF811728F461E08C2F87DFF701808325
:102F30008C2FA8DF2196C033D10521F00894E11C25
:102F4000F11CDDCFE6E0CDB7DEB71DC7EF92FF92F3
:102F50000F931F939C018091130190E0281739076C
:102F600089F08901000F111F0C5F1F4FC8010196E6
:102F70005CDFE82EC80159DFFF243E2D2227280FF1
:102F8000311D04C02091540330915503C9011F9194
:102F90000F91FF90EF9008950F931F93CF93DF93BE
:102FA000EB01880F991F8038910550F48C010C5F5C
:102FB0001F4FC80153DF6D2F7727C80101964EDFE1
:102FC000DF91CF911F910F9108950F931F93082FB9
:102FD000162F811160E08CE236D4802F8150823030
:102FE00010F4612F01C060E085E42DD4023008F4B4
:102FF00010E0612F8DE227D41F910F9108951F9348
:10300000182F80E0D4D363E0812F1DD41F91089541
:1030100083D960938603709387038093880390938A
:10302000890308951F93182F80918A03E82FF0E0F9
:10303000E731F10508F075C1E25AFF4FB3C683E0EE
:10304000B6D36FC18BE3DBDF63E085E090EE67D53D
:1030500068C180E0ACD38091090190E061E08053C9
:10306000984FD4D45EC18BE3CADF80918A0380314C
:1030700011F441E001C043E060E080910A017FD497
:1030800080918A03813111F441E001C043E062E0A4
:1030900080910B011FC0112341F080E088D363E0D1
:1030A0008BE3D1D363E083E2CED380918A03823174
:1030B00011F441E001C043E062E080910C015FD473
:1030C00080918A03833111F441E001C043E060E064
:1030D00080910D0154D425C1809100011816D4F4BB
:1030E0008BE08DDF43E063E08AE0FCD380916C03EA
:1030F00090916D038F5F9F4F21F443E062E08DE07C
:10310000F1D3809100016AE0A5D543E060E0892F0A
:10311000E9D330C0112311F08BE071DF80912E01D3
:103120008823C9F087FF02C061E00DC082FF03C0A1
:1031300063E080E10EC083FF03C063E081E109C06A
:1031400086FF03C063E08FE004C084FF13C063E028
:1031500082E1F6D30FC080912D01882319F063E03E
:103160008EE0F7CF112311F08BE049DF63E080910F
:103170002B011FD480910401882341F090912C01F0
:1031800080912B01981711F463E001C060E088E1A1
:103190005AD380910401882311F060E001C063E0FC
:1031A00082E351D3609186037091870380918803F5
:1031B000909189032DD3B5C0112311F08BE31FDF4C
:1031C00063E080913C0290913D0263D4AAC0112338
:1031D00011F080E0ECD20E945501853638F40E944F
:1031E000550143E060E090E02FD49BC063E08AE0AB
:1031F00005C08AE104DF61E080918802A1D391C01B
:1032000080E0D5D263E08BE31ED363E083E21BD37F
:1032100063E08AE118D380918802982F990F990F63
:10322000990F20918C02920F9093130120918B02A1
:1032300030E0322F22273295307F40918902509121
:103240008A02240F351F309355032093540364D80A
:10325000DFD28FEF809313018091890290918A02CF
:103260006CE370E004D5CB0161E035D38091890235
:1032700090918A0225E0803A920790F46CE370E026
:10328000F6D4CB0141E062E07AD38091890290913B
:103290008A026CE370E0EBD441E060E070D303C0DD
:1032A00061E089E04DD361E080918B0239C080E01C
:1032B0007ED263E088E0A2CF83E079D280918A0356
:1032C0008C3011F441E001C043E062E080911501CF
:1032D00011D480918A038D3011F441E001C043E0A4
:1032E000E0911501F0E0EA5AFC4F60E0808102D4E1
:1032F00018C083E05CD2809186020E94B20763E02E
:103300000ED461E080918602E6D20BC08BE377DEBB
:1033100061E0809188024DD380918A0363E08250FE
:1033200054DE1F910895EF92FF920F931F93CF9356
:10333000DF93209132023091330220FF02C011E06E
:1033400005C021FF02C01FEF01C010E0C12FDD2723
:10335000C7FDD09590918A03E92FF0E0E731F105A0
:1033600008F075C1EB58FF4F1DC5882319F082E0A6
:103370008093140180911401882309F0CCC181E06D
:10338000BAC1882319F082E080931401809114015E
:10339000882309F0C0C18FE0AEC1112321F08091D4
:1033A0000901810F5AD8809132029091330282FF35
:1033B000B2C180E10DC0112321F080910A01810F7B
:1033C0004FD8809132029091330282FFA4C181E1F3
:1033D00080938A0310922C01A0C1112321F08091C7
:1033E0000B01810F45D8809132029091330282FF08
:1033F00092C182E1EDCF112329F080910C01810F60
:103400000E940010809132029091330282FF83C1AA
:1034100083E1DECF112341F080910D01810F0E94E5
:10342000071080E00E940E108091320290913302CA
:1034300082FF71C187E0CCCF23FF08C0892F8F5F47
:1034400080938A038B3008F468C150C18091870251
:10345000882351F0277F3770232B09F45CC185E066
:10346000809314018BE047C1112359F0965092309C
:1034700040F4812F0E94CF0486E080938A0301E00C
:1034800001C000E0809132029091330284FF02C0BB
:103490008FEF03C087FF42C18EEF0E94E30486E0F6
:1034A0002AC1882351F080917503813011F080E0AA
:1034B00002C080910F018093880285E180938A0386
:1034C000112359F08091880290E008968C0F9D1F7F
:1034D00068E070E0E0D38093880222FFB5C086E107
:1034E00080938A0310928C02109275038091880257
:1034F000882319F081E0809375038FE1C3DC6AC0F3
:103500008823A1F04BE852E060918C028091880200
:1035100053D890938A0280938902815A954030F063
:1035200080EA95E090938A0280938902112309F141
:103530008091890290918A026AE070E098D3CB0171
:103540008F569F4F212F332727FD3095820F931FD2
:1035500061E970E08CD39C0153E0220F331F5A9530
:10356000E1F7880F991F280F391F30938A022093A3
:103570008902809132029091330283FF09C08091C9
:103580008B0290E005968370907080938B02C3C08D
:1035900082FF2AC04091890250918A0220918B02B9
:1035A00060918C02809188021ED880918C028F5F7E
:1035B00080938C02883060F080918802882329F003
:1035C00067E03CD39F5F9093880285E180938A03F4
:1035D00010922C0180917503813011F080E002C0BF
:1035E00080910F0115DD99C084FF95C07FC08823AD
:1035F00039F0E92FF0E0EB5AFC4F8081809388028C
:10360000112389F080918802810F809388028E3384
:1036100018F08DE38093880280918802893018F435
:1036200089E08093880222FF0FC0E92FF0E0EB5A77
:10363000FC4F80918802808380918A03815022DC34
:1036400080918A038F5FC4CE24FF65C04FC08091F4
:103650001401882309F05FC049C024FD47C023FF3F
:1036600002C08EE048C022FF0BC09D3029F480913B
:10367000150108DC8CE001C08DE080938A034BC00B
:103680009C3061F480911501C80FD11DCE01C09608
:1036900060E370E0ECD2809315013DC062E0809160
:1036A0001501CBDB182FE82EFF2463E08091150174
:1036B000C4DB682F70E06F5F7F4F6E197F09209128
:1036C0001501E22FF0E0EA5AFC4F8081C80FD11DAE
:1036D000CE19DF09CE01860F971FDDD2180F108398
:1036E0002223C9F47ED017C024FF02C087E003C0A4
:1036F00023FF04C08CE080938A030FC08091860270
:1037000090E00D968C0F9D1F6DE070E0C4D2809309
:103710008602112311F400E001C001E08091320221
:10372000909133022091870293FF0DC085E0809332
:10373000140180E0222309F481E08093870288232A
:1037400091F08BE015C02223B9F494FF02C08CE005
:103750000FC092FF02C08FE00BC090FF02C084E157
:1037600007C095FF02C087E003C091FF05C082E05B
:1037700080938A0301E002C0002379F010911501C3
:10378000103358F460E0812F58DBE12FF0E0EA5A63
:10379000FC4F808380E380931501109233021092D6
:1037A0003202802F90E0E6E0CDB7DEB7ECC2833086
:1037B00011F42FEF01C020E080E090E0FC01E5571C
:1037C000FC4F2083019682319105C1F791E09093DF
:1037D00016018091E40088608093E40090938D024C
:1037E000089580E0E4DF809156038093E70085EA46
:1037F0008093E50086E08093E600E4EEF0E080EC64
:10380000808380818860808381E0809316010895A1
:10381000EF92FF920F93CF93DF937B01082FC5E5C3
:10382000D2E0FE01849166270695F794E79408F4A8
:1038300063E009D02196CD36A1F7DF91CF910F91AA
:10384000FF90EF900895782F76957695769587700E
:1038500021E030E001C0220F8A95EAF7462FE72FDA
:10386000F0E060FF05C0E557FC4F8081822B06C069
:10387000E557FC4F9081822F809589238083E72F25
:10388000F0E041FF05C0E557FC4F8185282B05C0BE
:10389000E557FC4F818520952823218761506230B0
:1038A00068F0809116018130A9F020E030E0F90144
:1038B000E557FC4F90818185981721F082E0809335
:1038C000160108952F5F3F4F2930310581F781E0C0
:1038D000809316010895E5E5F2E0E80FF11DE4910B
:1038E0008E2FB1CFEF92FF920F931F93CF93DF9361
:1038F000E42E643008F58832F8F4E62FF0E0E65B59
:10390000FD4FF490E82FF0E0EE52FE4F0491CEE42C
:10391000D2E011E0FE019491812F802311F06E2DF1
:1039200001C060E0892F8F0D8EDF2196F2E0C53552
:10393000DF0711F0110FEECFE6E0CDB7DEB723C2FF
:103940000F931F93CF93DF93062FC82FD0E0CC0F98
:10395000DD1FCC0FDD1FC650DE4F13E0FE0184914A
:10396000402F612FBFDF115021961F3FB9F760E054
:103970008BE369DFDF91CF911F910F910895FF9243
:103980000F931F93082F162FF42E633070F4843694
:1039900060F46AE053D1612F892FA4DF1F5F802F6D
:1039A0006AE04CD14F2D612F9DDF1F910F91FF9049
:1039B00008950F931F93082F162F893011F48CE070
:1039C00007C08D3311F48DE003C08E3318F08BE007
:1039D000B7DF19C0462F62E08695D1DF00FF02C035
:1039E00085E001C080E0412F61E07CDF043120F4FC
:1039F000412F63E080E276DF412F60E08CE072DFF0
:103A0000612F8BE320DF1F910F9108951F93CF93B8
:103A1000DF93162FEC0187E2C031D80710F0CFE01A
:103A2000D7E2CE0164E670E022D1CB01412F62E003
:103A3000A6DFCE0164E670E01AD1412F60E09FDF7F
:103A4000DF91CF911F9108950F931F93CF93DF9331
:103A5000162F042F6230C0F4EC0183E0C83ED80773
:103A600010F0C7EED3E0212F2E5FCE0164E670E0A8
:103A7000FED0CB01402F622F35DFCE0164E670E02F
:103A8000F6D0402F612F7BDFDF91CF911F910F91F7
:103A900008950F931F93CF93DF93162FEC018CEFB4
:103AA000C931D80714F4C9E1DCEF00E0D7FF04C046
:103AB00001E0D095C195DF4FCE016AE070E0EBD018
:103AC000CB01412F61E0C0DF002321F0412F63E0F3
:103AD00086E106C0C85ED34024F4412F63E080E253
:103AE00001DF412F60E08CE0FDDEDF91CF911F917F
:103AF0000F910895FF920F931F93F82E162F042F06
:103B0000633048F48F70EEDE1F5F402F612F8F2DE2
:103B100082958F70E7DE1F910F91FF900895FF92BD
:103B20000F931F938C01F62E812F9927462F62E069
:103B3000E1DF4F2D60E0802FDDDF1F910F91FF90BF
:103B4000089580918E028F5F80938E028D3058F0A1
:103B500080918F028F5F817080938F0210928E020E
:103B600081E080938D0280918D02882351F1109223
:103B70008D0280918F0290E0FC0123E0EE0FFF1F89
:103B80002A95E1F7E80FF91FE557FC4F80818093F4
:103B9000EC0081818093ED0082818093EE0083812F
:103BA0008093F10084818093F20085818093F300FB
:103BB00086818093F60087818093F70080858093CB
:103BC000F80080911601813029F48091E400877F0C
:103BD0008093E4000895F39A1895FB01DC0102C07C
:103BE00005900D9241505040D8F70895FB01DC013B
:103BF00002C001900D9241505040D8F70895629F45
:103C0000D001739FF001829FE00DF11D649FE00DD4
:103C1000F11D929FF00D839FF00D749FF00D659F35
:103C2000F00D9927729FB00DE11DF91F639FB00D34
:103C3000E11DF91FBD01CF0111240895991B79E001
:103C400004C0991F961708F0961B881F7A95C9F72C
:103C50008095089587FB082E062687FD819567FDD0
:103C60006195ECDF0EF4919507FC81950895AA1BF0
:103C7000BB1B51E107C0AA1FBB1FA617B70710F057
:103C8000A61BB70B881F991F5A95A9F78095909589
:103C9000BC01CD01089597FB092E07260AD077FDB8
:103CA00004D0E5DF06D000201AF4709561957F4FAF
:103CB0000895F6F7909581959F4F0895A1E21A2EE9
:103CC000AA1BBB1BFD010DC0AA1FBB1FEE1FFF1FC0
:103CD000A217B307E407F50720F0A21BB30BE40B10
:103CE000F50B661F771F881F991F1A9469F7609557
:103CF0007095809590959B01AC01BD01CF01089511
:103D000097FB092E05260ED057FD04D0D7DF0AD029
:103D1000001C38F450954095309521953F4F4F4FFA
:103D20005F4F0895F6F790958095709561957F4F58
:103D30008F4F9F4F08952F923F924F925F926F92B5
:103D40007F928F929F92AF92BF92CF92DF92EF922B
:103D5000FF920F931F93CF93DF93CDB7DEB7CA1BAC
:103D6000DB0B0FB6F894DEBF0FBECDBF09942A88D7
:103D7000398848885F846E847D848C849B84AA847F
:103D8000B984C884DF80EE80FD800C811B81AA810C
:103D9000B981CE0FD11D0FB6F894DEBF0FBECDBFD7
:103DA000ED010895EE0FFF1F0590F491E02D0994A9
:023DB000FFCF43
:103DB200FE0205FF0110100006080C010C000000B5
:083DC200000101FF02300100C5
:00000001FF
