:1000000036C1000050C100000C94F50B0C944F0E4B
:10001000E2C60000D3C6000046C1000044C1000093
:1000200042C1000040C100003EC100000C94AA097A
:100030003AC100000C9492130C945B130C941F13A0
:1000400032C1000030C100002EC100000DC400000C
:100050002AC1000028C100002AC600002F0F330F5C
:10006000C010C010C010C010D30F860F01100D10AB
:10007000600F8B1091109110B1103B0F470F470F7D
:10008000600F600FCC101F102710F110FD103A12F6
:100090003A123A123A125B115B115B115B115B1160
:1000A0006A1270127012BA12091118112B113A113A
:1000B00049118E119D11BE110F17EA1620171E1738
:1000C0002017201781162017201720172017201718
:1000D00003172017201720172017AE168116731646
:1000E00020177016AE160518DE171B183F171B18C1
:1000F0001B185217CC171B181B181B181B18F817A6
:100100001B181B181B181B187D17521744171B1898
:1001100038177D171B18B8173F065B4F666D7D07B4
:100120007F6F777C395E7971635473763008400154
:10013000484109495054105C00332738583E786EC6
:100140002001160720160116201602162016031687
:100150002016041620160516201606162016071659
:100160000B011F241616161620160C16200E1C1C2A
:10017000000F0F20001D202000120E1D0B0A262646
:10018000200E0220200E0320200E04200E0E121C32
:1001900028241F1B02031B19180001000203040579
:1001A000060708090A3935423E0C0D0E0F101112D0
:1001B0001314151F1C1F1E1F1E1F1F1E1F1E1F0096
:1001C000001F003B005A0078009700B500D400F3F0
:1001D00000110130014E012E2E2E002045525200FA
:1001E00020504B54003A4F70656E48523230726660
:1001F0006D2045302E3033204D6172203236203252
:100200003030392030393A33313A30362024526593
:10021000763A2032313720240A0020570020580037
:1002200020453A002049733A200020423A200042FB
:100230004F4F540020533A200020493A20002056C6
:100240003A2000443A20001C811A81F382EF021107
:1002500001F00212012782258223820000000000A3
:1002600000AAAA2DD40123456789ABCDEF00112444
:100270001FBECFEFD4E0DEBFCDBF11E0A0E0B1E004
:10028000E4EEFEE302C005900D92A831B107D9F764
:1002900014E0A8E1B1E001C01D92AC30B107E1F774
:1002A00003D00C94711FACCE90E89093610081E074
:1002B0008093610090BF8FEF80937E008DE08093EC
:1002C000640088E183BB9EE095B981ED84B99DB956
:1002D00083E48EB98BE080BB80EF81BB88E082B97C
:1002E00081B98EE280936C0080EC8DBB28D783B1FE
:1002F00020E090E0809590958E7090700E9709F4B4
:1003000021E0822F0E945C0D0E94D61B81E00E949A
:100310004C0BCBD20E94921A80E092E80E947C1A89
:1003200083B180958076809387031EBA789483E0AA
:1003300090E00E94FE0C813E29F063E083E165D3EA
:100340006CD4FFCF0E94231883E89AEC0E947C1A99
:1003500080EE90EC0E947C1A88ED92E80E947C1A54
:1003600080916B00806480936B000E94F50B84E0A9
:100370008093FA02F8948EB3882329F584B590E02F
:1003800087709070892B21F48091C100887111F0E1
:1003900081E007C080911901882311F083E001C03A
:1003A00087E083BF80911901882339F010921901E9
:1003B00080917A00806480937A0078948895000018
:1003C00086E083BF01C07894F79B0EC0F7988091B8
:1003D000FA02833019F40E94DC1DCCCF84508230A5
:1003E00048F60E947C1CC6CFF39B03C0F39815D43B
:1003F000C1CFF29B03C0F2988FD1BCCFF69B04C053
:10040000F6980E942817B6CFF59B04C0F5980E9475
:10041000B80AB0CFF49B08C0F4980E942C0E0E943A
:100420004C0B0E94990BA6CFF09B03C0F0980E9442
:10043000660EF19B9EC0F1988091200280FF8EC0D5
:10044000F8948E7F8093200278949ED6182F609126
:1004500018010E948F18809318011123B1F0809128
:100460000801863009F0A5C0809105018A3009F0A5
:10047000A0C080910601882309F09BC01092F4026D
:100480001092F3020E944C0B94C020917E03222311
:10049000A9F18091FD0282308CF1909107019217B1
:1004A00021F48091FB02882319F59F3120F080917F
:1004B000DF038217E9F08091DF038F3FF9F4892F82
:1004C0006EE10E94B71E9217C9F48091E0039091EB
:1004D000E103A091E203B091E30304C0B695A795B0
:1004E000979587952A95D2F781709070892B31F076
:1004F00081E08093FC026CE082E024D480917E0352
:10050000882381F08091FD02823064F080910701A0
:100510008B3311F08D3131F483E08093FC0263EF73
:1005200082E010D40E942C0E0E944C0B8091180186
:10053000D6D70E94D00DDFD080910F0187FD03C078
:10054000815080930F0180E00E94210F8091E40090
:1005500088608093E40081E080931C0280912002F7
:1005600082FF07C0F8948B7F8093200278940E94CA
:10057000A41D8091370290913802892B29F4809133
:100580000F01882309F0F6CE80E00E94CE10182FCC
:10059000882319F081E00E94CE10812F0E94210F44
:1005A0008091E40088608093E40081E080931C02E5
:1005B000E1CE0E94661B69CFA0E0B0E0E2EEF2E07F
:1005C0000C943A1F4B01C82EDD245601AA0CBB1C0B
:1005D000AA0CBB1C22E231E0A20EB31EF501808101
:1005E0009181A281B3817B010027F7FC0095102F38
:1005F000E80EF91E0A1F1B1FE082F182028313839B
:10060000409100014F30F0F180912A01C82FD0E0D5
:10061000CE018D966CE370E00E94E41E2CE330E086
:10062000B901C69E9001C79E300DD69E300D112493
:10063000F901E80FF91FEE0FFF1FE45DFE4F808107
:100640009181AA2797FDA095BA2FE81AF90A0A0BFB
:100650001B0BF501E082F182028313834C3390F08F
:10066000F601EE0FFF1FE25EFE4FC20FD31FCC0F4D
:10067000DD1FC45DDE4F888199819401281B390BF1
:100680003183208320912A018CE390E0C89EF00101
:10069000C99EF00DD89EF00D1124E20FF11DEE0F52
:1006A000FF1FE45DFE4F91828082F601EE0FFF1F77
:1006B000EE0FFF1FEE5DFE4F60817181828193819D
:1006C0004F3028F02FE030E040E050E004C0242F0D
:1006D00030E040E050E0CC0CDD1CEAE1F1E0CE0E71
:1006E000DF1E0E94191FF60131832083ECE0CDB795
:1006F000DEB70C94561F91E090932B018CE0809311
:1007000064008CE880937A0010927B008EE58093E1
:100710007C00909319010895CF92DF92EF92FF929F
:100720000F931F9380912B018F5F80932B01833058
:1007300081F0843020F4823009F086C006C0843015
:1007400009F1853009F080C021C08DE880937A00DE
:1007500019C0809178002091790030E0322F222753
:1007600090E0282B392B40E050E060E070E381E11D
:1007700090E00E94F71EB90180E01EDF8B9A82E4B0
:1007800080937C0081E08093190164C0809178009F
:100790002091790030E0722F662790E0682B792B4A
:1007A00080917103482F50E040505F4FA1E0B0E0CE
:1007B0002A2FFD01EF58FC4F8081FA01E80FF11D4F
:1007C0006E177F0734F0AF012F5F1196A630B10589
:1007D00079F730E0F901EF58FC4FE0808CE09EEFB4
:1007E000289F6001299FD00C389FD00C112480EAEB
:1007F0009FE0C80ED91E641B750B882777FD809576
:10080000982F2CE03EEF4FEF5FEF0E94981EFF24E1
:1008100000E010E0A80197010E94191FC20ED31E2C
:10082000B60181E0C9DE80912A0190E001966CE377
:1008300070E00E94E41E80932A01809100018C33B5
:1008400018F48F5F809300018B988DE080937A007D
:10085000809364008091190190E01F910F91FF90A7
:10086000EF90DF90CF9008950F9300E0F29A0093FD
:1008700019010F911895833011F42FEF01C020E07A
:1008800080E090E0FC01EC5BFC4F2083019682311C
:100890009105C1F791E0909301018091E400886097
:1008A0008093E40090931C02089580E0E4DF80913F
:1008B00059038093E70085EA8093E50086E0809302
:1008C000E600E4EEF0E080EC808380818860808345
:1008D00081E0809301010895EF92FF920F93CF93EF
:1008E000DF937B01082FCBE9D1E0FE0184916627DD
:1008F0000695F794E79408F463E009D02196C33B8A
:10090000A1F7DF91CF910F91FF90EF900895782F8D
:10091000769576957695877021E030E001C0220FBC
:100920008A95EAF7462FE72FF0E060FF05C0EC5B01
:10093000FC4F8081822B06C0EC5BFC4F9081822FA4
:10094000809589238083E72FF0E041FF05C0EC5BB1
:10095000FC4F8185282B05C0EC5BFC4F81852095E1
:10096000282321876150623068F080910101813035
:10097000A9F020E030E0F901EC5BFC4F908181852B
:10098000981721F082E08093010108952F5F3F4F77
:100990002930310581F781E0809301010895EBE969
:1009A000F1E0E80FF11DE4918E2FB1CFEF92FF92AD
:1009B0000F931F93CF93DF93E42E643008F58832B2
:1009C000F8F4E62FF0E0E057FE4FF490E82FF0E067
:1009D000E85EFE4F0491C4E9D1E011E0FE0194917C
:1009E000812F802311F06E2D01C060E0892F8F0DC3
:1009F0008EDF2196F1E0CB39DF0711F0110FEECF3A
:100A0000E6E0CDB7DEB70C945C1F0F931F93CF9336
:100A1000DF93062FC82FD0E0CC0FDD1FCC0FDD1FDA
:100A2000C05CDE4F13E0FE018491402F612FBEDFDA
:100A3000115021961F3FB9F760E08BE368DFDF912B
:100A4000CF911F910F910895FF920F931F93082F3D
:100A5000162FF42E633080F4843670F46AE00E941E
:100A6000B71E612F892FA2DF1F5F802F6AE00E94CF
:100A7000B71E4F2D612F9ADF1F910F91FF900895A0
:100A80000F931F93082F162F893011F48CE007C0A5
:100A90008D3311F48DE003C08E3318F08BE0B5DF99
:100AA00019C0462F62E08695CFDF00FF02C085E0C7
:100AB00001C080E0412F61E079DF043120F4412F53
:100AC00063E080E273DF412F60E08CE06FDF612F35
:100AD0008BE31DDF1F910F9108951F93CF93DF9339
:100AE000162FEC0187E2C031D80710F0CFE0D7E233
:100AF000CE0164E670E00E94D01ECB01412F62E07F
:100B0000A3DFCE0164E670E00E94D01E412F60E0BA
:100B10009BDFDF91CF911F9108950F931F93CF9388
:100B2000DF93162F042F6230D0F4EC0183E0C83E2F
:100B3000D80710F0C7EED3E0212F2E5FCE0164E678
:100B400070E00E94D01ECB01402F622F2FDFCE011C
:100B500064E670E00E94D01E402F612F75DFDF91A8
:100B6000CF911F910F9108950F931F93CF93DF9310
:100B7000162FEC018CEFC931D80714F4C9E1DCEF72
:100B800000E0D7FF04C001E0D095C195DF4FCE0152
:100B90006AE070E00E94E41ECB01412F61E0BDDFFE
:100BA000002321F0412F63E086E106C0C85ED340F8
:100BB00024F4412F63E080E2F9DE412F60E08CE015
:100BC000F5DEDF91CF911F910F910895FF920F9362
:100BD0001F93F82E162F042F633048F48F70E6DE33
:100BE0001F5F402F612F8F2D82958F70DFDE1F9149
:100BF0000F91FF900895FF920F931F938C01F62E93
:100C0000812F9927462F62E0E1DF4F2D60E0802F92
:100C1000DDDF1F910F91FF90089580911D028F5F7E
:100C200080931D028D3058F080911E028F5F81707D
:100C300080931E0210921D0281E080931C0280911D
:100C40001C02882351F110921C0280911E0290E038
:100C5000FC0123E0EE0FFF1F2A95E1F7E80FF91FD3
:100C6000EC5BFC4F80818093EC0081818093ED00F0
:100C700082818093EE0083818093F1008481809350
:100C8000F20085818093F30086818093F60087814E
:100C90008093F70080858093F80080910101813076
:100CA00029F48091E400877F8093E4000895F39A0B
:100CB0001895885E68E10E94B71E9093050108951B
:100CC000845C6CE30E94B71E909306010895845CD7
:100CD0006CE30E94B71E9093070108958091030171
:100CE000E82FF0E0EE54FE4F2491823051F48091D1
:100CF000020190E083709070892B19F48DE190E0EF
:100D00000895822F90E00895809108018730B1F412
:100D100080910301833039F420E030E080910401B8
:100D2000893170F008C08A3049F420E030E08091C9
:100D30000401883128F021E030E002C020E030E0FA
:100D4000C9010895E82FF894F0E081E090E00E2EBC
:100D500002C0880F991F0A94E2F720911F02282BE6
:100D600020931F02E05EFD4F60835091B200622F1E
:100D700021FF0DC040912102842F90E0851B910935
:100D80008F3F910521F0242F251BE42F01C02FEF69
:100D900062FF0BC040912202842F90E0851B9109D5
:100DA00030E0821793070CF4E42FE093B3007894BB
:100DB0008091700082608093700008950F930FB748
:100DC0000F93F19A009120020160009320020F918D
:100DD0000FBF0F9118951F920F920FB60F9211240B
:100DE0002F933F934F935F936F937F938F939F9333
:100DF000EF93FF935091B2005150F19A90911F02DE
:100E000091FF0AC080912102581731F481E080934C
:100E10000E019D7F90931F0290912002E0911F028E
:100E2000E2FF06C080912202581711F49460EB7F14
:100E300090932002E0931F026E2FE1FF0DC04091BE
:100E40002102842F90E0851B91098F3F910521F0AD
:100E5000242F251BF42F01C02FEF62FF0BC0409100
:100E60002202842F90E0851B910930E082179307BE
:100E70000CF4F42FF093B300EE2329F4809170006A
:100E80008D7F80937000FF91EF919F918F917F9163
:100E90006F915F914F913F912F910F900FBE0F90E7
:100EA0001F901895A0E0B0E0E8E5F7E00C94351F3E
:100EB000F82E5B01882319F048E0342E02C032E09E
:100EC000332E55245A946624CF2CDD24860123E04A
:100ED000000F111F2A95E1F7702E98E0492E400E61
:100EE00088249924C0E0D0E011C090E01AD69F7009
:100EF00025E0803A920748F48815990530F0A81645
:100F0000B90618F05E2C500E4C012196EC2E8C2F59
:100F1000870D841550F357FE11C0FF2041F0C60124
:100F2000059667E070E00E94E41EF82EF394639447
:100F300080EAA82E85E0B82E631431F6852D90E066
:100F4000E1E1CDB7DEB70C94511FFF920F931F93D1
:100F5000CF93DF93F82E909105018CE3989FE001E9
:100F6000112480910601C80FD11D80917803813032
:100F700011F000E002C000910801BE01802F92DF55
:100F8000182F992787FD9095CCD5FC0117FD16C029
:100F9000FF2049F09F708C179D0781F415951595DA
:100FA0001595101759F4EF2FFF27E295EF70E370B6
:100FB000F070E65AFC4F808190E002C080E090E043
:100FC000E5E0CDB7DEB70C945D1FA0E0B0E0EBEE3E
:100FD000F7E00C943E1FC82EC0EAD5E077E1D72E8B
:100FE000EE24FF248701BE018C2D5CDF87FF03C048
:100FF00080E090E004C0992787FD909592D59C01F0
:10100000207030739F708C179D0718F0CFEFDFEFC3
:1010100002C0EC0121978CE34D2D4802C001112440
:1010200014C050E22030350740F041E050E060E06D
:1010300070E0E42AF52A062B172B1D1424F4EE0C7D
:10104000FF1C001F111FDA94CC97C817D9074CF367
:101050001C161D0644F2C801B701E8E0CDB7DEB7A3
:101060000C945A1FB2DF60938803709389038093B6
:101070008A0390938B0308950F931F93CF93DF936D
:1010800080910301E82FF0E0EE0FFF1FE354FE4FC5
:10109000C591D49190910401C90FD11D833040F0C6
:1010A0008091020190E083709070892B09F4219661
:1010B000E0910201F0E08F0101501040C80164E0AE
:1010C00070E00E94E41E9B012E0F3F1FC80164E6E2
:1010D00070E00E94E41E261B370B2B5F3F4FC901B7
:1010E0008C0F9D1F67E070E00E94D01E282F2F5F9D
:1010F0002093080180917803813009F020E0822F4D
:10110000B1DFDF91CF911F910F910895809302017C
:10111000B3CF855F6CE00E94B71E9F5F9093030181
:10112000ABCF1F93182FDADD682F8150810F0E94FB
:10113000B71E9F5F909304019FDF1F9108958091D8
:1011400070008E7F8093700088E08093B6001092CC
:10115000B2008091B00085608093B0002091B6000D
:101160008091B60090E08470907030E02170307013
:10117000822B932B892B91F78FEF87BB8091700087
:1011800081608093700078CF1F9310920901809145
:1011900007018F5F809307018C3318F480E090E0A3
:1011A00062C010920701809106018F5F8093060153
:1011B0008C3308F456C010920601809105018F5FB0
:1011C00080930501883160F11092050187DD9091CF
:1011D00004019F5F90930401891798F491E0909324
:1011E0000401809103018F5F809303018D3038F0FB
:1011F00090930301809102018F5F8093020110920E
:1012000056038091080167E00E94B71E9F5F90938C
:10121000080180917803813009F090E0892F22DF66
:1012200010910301133051F4809105018230C9F40B
:101230006BDD8823B1F01093050113C01A3089F4D7
:1012400080910501833069F480915603882349F425
:101250005BDD882331F082E08093050181E080939B
:10126000560381E090E01F9108950F931F938A0128
:1012700090E023E0880F991F2A95E1F7860F911DD2
:1012800050D49C01232F332722952F70F8012083FF
:101290009F701F910F910895362F8830F0F46830B9
:1012A000E0F42430D0F495E04C3D590710F04FEFB6
:1012B0005FE0622F70E0762F66277295707F642B57
:1012C000752B90E043E0880F991F4A95E1F7830F53
:1012D000911D4DD481E090E0089580E090E0089564
:1012E00040912502509126024B305105ECF080913F
:1012F0000A018823C9F42091230230912402F901C4
:1013000093E0EE0FFF1F9A95E1F7CA016AE070E0E3
:101310000E94E41E220F331FC9018E0F9F1F0E94DF
:10132000E41E862F90E008958FEF90E0089580915D
:10133000250290912602892B19F480E090E008950F
:1013400090E080910A01811191E081E09827892F36
:1013500090E008951F920F920FB60F9211248F9371
:101360009F938091290290912A02892B99F0809174
:101370002B0290912C02019690932C0280932B02C9
:101380008091290290912A02019790932A028093DA
:10139000290214C080912B0290912C029093280274
:1013A0008093270214BA2F9888E484BDF59A80911F
:1013B0006B008F7E80936B0010926E009F918F91D7
:1013C0000F900FBE0F901F901895482F8823B1F4EF
:1013D00010926E0080916B008F7E80936B00649BF7
:1013E00002C089E501C089E70E94C113739814BA4D
:1013F0002F9888E484BD10923402089580913402BD
:10140000841709F46BC080913402882389F010920C
:101410002C0210922B0210922F0210922E02109288
:1014200031021092300282E080930B01109234025C
:1014300040933402739A90916C0380910A0188233F
:1014400019F480916B0302C080916A03282F30E069
:10145000892F90E0BC01269FC001279F900D369FE9
:10146000900D112464E670E00E94D01E33E0660FF8
:10147000771F3A95E1F770933602609335028091B9
:10148000350290913602880F991F880F991F90930B
:101490002A028093290281E085BB16BC80936E00EE
:1014A0008CB180932D0280916B00806180936B00E2
:1014B0008091670387BD4F3F29F488E084BB2F9854
:1014C00089E604C080E184BB2F9A89E784BD649BD0
:1014D00002C088E501C088E70C94C1130895982FD5
:1014E00080910A01882309F042C0943649F4809122
:1014F000250290912602909333028093320221C0FC
:10150000992329F410923302109232021AC0892FC3
:1015100090E020912502309126023595279535954A
:101520002795AC01429FC001439F900D529F900DA3
:10153000112469E170E00E94E41E7093330260930D
:10154000320280913402882391F420912302309159
:10155000240280913202909133028217930714F48F
:101560008FEF33CF2817390714F481E02ECF089579
:101570001F93CF93DF931091340280E026DF809198
:10158000290290912A02892B31F080910A01882347
:1015900009F46BC023C0113009F03EC0C091230292
:1015A000D091240280910A01823069F5D0932602FD
:1015B000C093250280916F0390917003892BB9F439
:1015C000C436D1055CF0D0937003C0936F0386E1FD
:1015D00042D287E140D210920A0147C08FEF809338
:1015E0000A018091F20288608093F2023EC08FEF80
:1015F000ECDEC85ED340D0933302C093320283E066
:1016000080930A0132C08091250290912602909326
:1016100024028093230229C01F3F39F580910A01DB
:10162000833089F410920A01209123023091240220
:101630008091250290912602821B930B90932602A3
:10164000809325020EC0809123029091240285365A
:1016500091053CF010930A018091F202886080931A
:10166000F202109224021092230280910A01882330
:1016700079F480912502909126028436910544F4F4
:101680008FEF80930A018091F20288608093F202CA
:10169000DF91CF911F9108951F93182F8823B1F4E4
:1016A00080E093DE10922402109223021092260210
:1016B000109225028EEF80930A0185E080930C0141
:1016C0008091F202877F8093F20231C080910C01F9
:1016D000882321F0815080930C010FC080910A0172
:1016E000813059F482E080930A0188EE93E0909370
:1016F00033028093320281E068DE80910A018E3FDE
:10170000B1F4133059F48FEF9FEF909370038093EF
:101710006F0386E1A0D187E19ED106C0123021F48B
:101720001092700310926F0381E080930A011F9161
:101730000895809127029091280281529E4408F0DA
:101740004BC080910B01882309F043C020912702F0
:10175000309128022C5F3F4F53E0369527955A95DC
:10176000E1F780916C03281B310980916D0390E0B3
:10177000AC01249FC001259F900D349F900D112432
:1017800064E670E00E94E41E80916E03282F30E032
:10179000261737074CF088279927821B930B9B014C
:1017A000681779070CF49C0187B5A901480F511DF2
:1017B0008091670390E0841795074CF08091660351
:1017C000282F30E0CA01421753070CF4C90187BD26
:1017D00003C0815080930B0147B56091270270913F
:1017E0002802809134020C9426151F920F920FB696
:1017F0000F9211241F932F933F934F935F936F93F7
:101800007F938F939F93AF93BF93EF93FF931CB1FD
:10181000412F10FD0AC08091C10080698093C100F2
:1018200080916B008E7F80936B0080916B0084FFB2
:1018300082C080912D02812784FF7DC020912B02E0
:1018400030912C0280912E0290912F02281B390B8F
:1018500080912B0290912C0290932F0280932E0264
:1018600044FD5EC08091690390E0880F991F821744
:10187000930708F060C020913002309131028091CE
:10188000680390E0880F991F8217930708F045C0FE
:10189000209123023091240280913402992787FD00
:1018A0009095820F931F909324028093230280913E
:1018B0002B0290912C029093280280932702109281
:1018C00031021092300210922C0210922B021092D0
:1018D0002F0210922E02F49A2091230230912402BA
:1018E00080913202909133022817390769F414BAB3
:1018F0002F9888E484BDF59A80916B008F7E809349
:101900006B0010926E0017C08091350290913602E4
:1019100090932A02809329020EC08EE732D70BC023
:1019200080913002909131028217930720F4309316
:1019300031022093300210932D0280916B0086FDBE
:1019400049C04AC080916B008F7B80936B00789474
:101950008091FA028230C9F42091F902E22FF0E07E
:10196000E157FC4F808190E02F5F2093F902986B44
:101970000E947C1A9091F90280911601981710F13B
:1019800083E08093FA02F79A27C08430A1F4109183
:10199000F90280E090EB0E947C1AE12FF0E0E15721
:1019A000FC4F80831F5F1093F902103550F085E0E3
:1019B0008093FA0206C0853029F480E090EB0E9403
:1019C0007C1AF79AF894000080916B0080648093F1
:1019D0006B0000006699B6CFFF91EF91BF91AF9178
:1019E0009F918F917F916F915F914F913F912F9137
:1019F0001F910F900FBE0F901F901895F999FECF71
:101A000092BD81BDF89A80B590E00895F999FECF16
:101A100090E0880F991F880F991F860F911D8054A1
:101A20009F4F92BD81BDF89A80B590E008959C01CA
:101A300080E0203C380728F0C90183709070892B22
:101A400049F4F999FECF32BD21BD60BDF894FA9AF0
:101A5000F99A78940895EF92FF920F931F93CF9382
:101A6000DF93082F8E3218F5E82EFF24E701C75ABE
:101A7000DC4F188160E0CADF1817C9F0188162E0F6
:101A8000802FC4DF181730F0188163E0802FBEDF8D
:101A9000811720F461E0802FB9DF8883EE0CFF1CF2
:101AA000EE0CFF1C6881C70180549F4FC0DFE6E049
:101AB000CDB7DEB70C945C1FEF92FF920F931F938C
:101AC000CF93DF93082F49E5E42E43E0F42EC0E0E6
:101AD000D0E0002391F460E08C2F98DF182FF701FD
:101AE000808362E08C2F92DF181738F0F7011081A5
:101AF00063E08C2F8BDF811728F461E08C2F86DF69
:101B0000F70180838C2FA7DF2196CE32D10521F0FB
:101B10000894E11CF11CDDCFE6E0CDB7DEB70C94F4
:101B20005C1FEF92FF920F931F939C0180910D0118
:101B300090E02817390789F08901000F111F0C5F09
:101B40001F4FC80101965ADFE82EC80157DFFF2456
:101B50003E2D2227280F311D04C0209157033091BC
:101B60005803C9011F910F91FF90EF9008950F93B3
:101B70001F93CF93DF93EB01880F991F8038910556
:101B800050F48C010C5F1F4FC80151DF6D2F772778
:101B9000C80101964CDFDF91CF911F910F910895FD
:101BA00090913B029923A1F480913D028F5F809335
:101BB0003D02882321F48FEF80933D020895843104
:101BC00009F049C08091370290913802906235C087
:101BD00080913C028F5F80933C02882321F48FEF39
:101BE00080933C0208958430B1F59830D1F099305B
:101BF00028F4923079F0943071F505C09A30C1F034
:101C00009E3049F51FC08091370290913802806262
:101C1000916013C080913702909138028064926085
:101C20000CC080913702909138028068946005C0A2
:101C30008091370290913802986090933802809397
:101C40003702089580913702909138029061909305
:101C500038028093370208952098289A00000000E7
:101C600083B12898209A809587702091F20280FF96
:101C700006C024602093F20280E090E008952B7F5C
:101C80002093F20281FF03C082E090E0089582FF7A
:101C900003C083E090E0089581E090E008951F92F2
:101CA0000F920FB60F9211248F9326982E9AF09AC6
:101CB000000083B180958E76809339022E98269A03
:101CC0008F910F900FBE0F901F9018951F9320912A
:101CD0003902207680918703822785FF17C022234F
:101CE00011F0203631F480913702909138028260F1
:101CF00005C080913702909138028160909338023C
:101D00008093370210923D0220938703109139028D
:101D10001E7020913B02121709F45FC0112321F1BC
:101D2000222311F580910E018823F1F0143031F453
:101D3000809137029091380284600FC0123031F4E4
:101D40008091370290913802886007C0183061F4A2
:101D5000809137029091380280619093380280938D
:101D6000370281E080933A0280913A02882319F188
:101D7000243041F41123F9F0809137029091380218
:101D8000806213C0223041F41123A9F08091370200
:101D900090913802806409C0283069F4112359F009
:101DA0008091370290913802806890933802809336
:101DB000370210923A0280910E01882341F010926E
:101DC0000E016091B2006E5C81E00E94A206109349
:101DD0003B0210923C0210923D021F9108950F9316
:101DE0001F93082F162F811160E08CE20E94870458
:101DF000802F8150823010F4612F01C060E085E4B3
:101E00000E948704023008F410E0612F8DE20E94E6
:101E100087041F910F9108951F93182F80E00E944F
:101E20003B0463E0812F0E9487041F910895CDD861
:101E3000609388037093890380938A0390938B0344
:101E400008951F93182F80918C03E82FF0E0E7315D
:101E5000F10508F0A1C1E25DFF4F0C946B1F83E018
:101E60000E943B0499C18BE3D7DF63E083E090EEEF
:101E70000E94FB0591C180E00E943B048091020119
:101E800090E061E08053984F0E946D0585C18BE31F
:101E9000C3DF80918C03803111F441E001C043E045
:101EA00060E0809103010E94240580918C038131C0
:101EB00011F441E001C043E062E08091040123C0DD
:101EC000112359F080E00E943B0463E08BE30E9401
:101ED000870463E083E20E94870480918C0382314F
:101EE00011F441E001C043E062E0809105010E94ED
:101EF000240580918C03833111F441E001C043E05B
:101F000060E0809106010E94240546C180910A018B
:101F10001816F4F48BE080DF43E063E08AE00E946F
:101F2000D60480916F03909170038F5F9F4F29F4C7
:101F300043E062E08DE00E94D60480910A016AE0ED
:101F40000E94C31E43E060E0892F0E94D60434C083
:101F5000112311F08BE060DF8091F2028823D1F031
:101F600087FF02C061E00DC082FF03C063E080E133
:101F70000EC083FF03C063E081E109C086FF03C098
:101F800063E08FE004C084FF17C063E082E10E9439
:101F9000050512C09091F10280917C03981718F00A
:101FA00063E08EE0F4CF112311F08BE035DF63E0C6
:101FB0008091EF020E94400580911201882341F038
:101FC0009091F0028091EF02981711F463E001C044
:101FD00060E088E10E94870480911201882311F05B
:101FE00060E001C063E082E30E948704609188039F
:101FF0007091890380918A0390918B030E946C04F5
:10200000CBC0112311F08BE307DF63E080911C014B
:1020100090911D010E94B405BFC0112319F080E00A
:102020000E943B045DD9853638F45AD943E060E01C
:1020300090E00E948D05B0C063E08AE005C08AE1AF
:10204000EBDE61E0809140020E940505A5C080E0C2
:102050000E943B0463E08BE30E94870463E083E219
:102060000E94870463E08AE10E9487048091400215
:10207000982F990F990F990F20914402920F9093E6
:102080000D012091430230E0322F22273295307F1C
:102090004091410250914202240F351F3093580362
:1020A000209357030E94E5070E946C048FEF8093F2
:1020B0000D0180914102909142026CE370E00E9418
:1020C000D01ECB0161E00E94CF048091410290912B
:1020D000420225E0803A9207B0F46CE370E00E947F
:1020E000D01ECB0141E062E00E94240580914102B4
:1020F000909142026CE370E00E94D01E41E060E0EB
:102100000E94240504C061E089E00E94050561E0A9
:102110008091430240C080E00E943B0463E088E07D
:1021200093CF83E00E943B0480918C038C3011F4A8
:1021300041E001C043E062E0809110010E94E605A9
:1021400080918C038D3011F441E001C043E0E091B7
:102150001001F0E0E75AFC4F60E080810E94E60544
:102160001BC083E00E943B0480913E0270D763E075
:102170000E94FB0561E080913E020E94CF040CC0EA
:102180008BE34ADE61E0809140020E94400580912D
:102190008C0363E0825023DE1F910895EF92FF923B
:1021A0000F931F93CF93DF93209137023091380222
:1021B00020FF02C011E005C021FF02C01FEF01C0D7
:1021C00010E0C12FDD27C7FDD09590918C03E92F3A
:1021D000F0E0E731F10508F07DC1EB5BFF4F0C94B7
:1021E0006B1F882319F082E080930F0180910F010B
:1021F000882309F0D7C181E0C4C1882319F082E0A7
:1022000080930F0180910F01882309F0CBC18FE0EB
:10221000B8C1112329F080910201810F0E94860824
:10222000809137029091380282FFBCC180E10EC0DC
:10223000112329F080910301810F0E948908809168
:1022400037029091380282FFADC181E180938C0307
:102250001092F002A9C1112329F080910401810F8D
:102260000E949108809137029091380282FF9AC1B2
:1022700082E1ECCF112329F080910501810F0E94AA
:102280005906809137029091380282FF8BC183E119
:10229000DDCF112341F080910601810F0E9460067D
:1022A00080E00E946706809137029091380282FF99
:1022B00079C187E0CBCF23FF08C0892F8F5F809340
:1022C0008C038B3008F470C157C180913F02882382
:1022D00051F0277F3770232B09F464C185E0809388
:1022E0000F018BE04EC1112351F09650923038F41B
:1022F000812FCBD686E080938C0301E001C000E003
:10230000809137029091380284FF02C08FEF03C0A2
:1023100087FF4BC18EEFCDD686E033C1882351F0C5
:1023200080917803813011F080E002C08091080133
:102330008093400285E180938C03112361F08091AA
:10234000400290E008968C0F9D1F68E070E00E94AC
:10235000E41E8093400222FFBAC086E180938C0382
:10236000109244021092780380914002882319F061
:1023700081E0809378038FE16EDB6FC08823A9F042
:1023800043E452E060914402809140020E9435098A
:102390009093420280934102815A954030F080EA46
:1023A00095E09093420280934102112319F18091AC
:1023B0004102909142026AE070E00E94D01ECB017F
:1023C0008F569F4F212F332727FD3095820F931F64
:1023D00061E970E00E94D01E9C0153E0220F331F80
:1023E0005A95E1F7880F991F280F391F3093420241
:1023F00020934102809137029091380283FF09C0F7
:102400008091430290E00596837090708093430220
:10241000C9C082FF2CC040914102509142022091DC
:10242000430260914402809140020E944C098091D5
:1024300044028F5F80934402883068F080914002AC
:10244000882331F067E00E94B71E9F5F909340029F
:1024500085E180938C031092F002809178038130A3
:1024600011F080E002C080910801E1DC9DC084FF92
:1024700099C082C0882339F0E92FF0E0E85AFC4F78
:10248000808180934002112389F080914002810F66
:10249000809340028E3318F08DE380934002809148
:1024A0004002893018F489E08093400222FF0FC077
:1024B000E92FF0E0E85AFC4F809140028083809140
:1024C0008C038150C8DA80918C038F5FBFCE24FFCC
:1024D00069C052C080910F01882309F063C04CC0CD
:1024E00024FD4AC023FF02C08EE04BC022FF0BC078
:1024F0009D3029F480911001AEDA8CE001C08DE0AE
:1025000080938C034FC09C3069F480911001C80FF8
:10251000D11DCE018E966EE270E00E94D01E809397
:10252000100140C062E08091100170DA182FE82E8F
:10253000FF2463E08091100169DA682F70E06F5F1B
:102540007F4F6E197F0920911001E22FF0E0E75ACA
:10255000FC4F8081C80FD11DCE19DF09CE01860F37
:10256000971F0E94E41E180F10832223D9F40E94A3
:10257000550418C024FF02C087E003C023FF04C035
:102580008CE080938C0310C080913E0290E00D9609
:102590008C0F9D1F6DE070E00E94E41E80933E0250
:1025A000112311F400E001C001E080913702909105
:1025B000380220913F0293FF0DC085E080930F0108
:1025C00080E0222309F481E080933F02882391F088
:1025D0008BE015C02223B9F494FF02C08CE00FC039
:1025E00092FF02C08FE00BC090FF02C084E107C0E1
:1025F00095FF02C087E003C091FF05C082E0809391
:102600008C0301E002C0002379F0109110011E320A
:1026100058F460E0812FFAD9E12FF0E0E75AFC4F3F
:1026200080838EE28093100110923802109237025C
:10263000802F90E0E6E0CDB7DEB70C945C1F1F92D0
:102640000F920FB60F9211248F93EF93FF93E1EC4B
:10265000F0E08081877B8083FF91EF918F910F90D5
:102660000FBE0F901F90189582E08093C0001092CB
:10267000C50083E38093C40086E08093C200EBE64C
:10268000F0E08081816080830895F8948091C1009A
:1026900085FD0FC08091C1008F7B8093C100809128
:1026A000C00080648093C0008091C10088628093E4
:1026B000C100789408951F920F920FB60F921124C3
:1026C0002F933F934F935F936F937F938F939F933A
:1026D000AF93BF93EF93FF936ED0882319F080934D
:1026E000C6000FC08091C1008F7D8093C100809192
:1026F000C00080648093C0008091C100806480939A
:10270000C100FF91EF91BF91AF919F918F917F9108
:102710006F915F914F913F912F910F900FBE0F904E
:102720001F9018951F920F920FB60F9211242F939E
:102730003F934F935F936F937F938F939F93AF9349
:10274000BF93EF93FF938091C60048D0E1ECF0E097
:1027500080818F768083EBE6F0E0808181608083EA
:10276000FF91EF91BF91AF919F918F917F916F9169
:102770005F914F913F912F910F900FBE0F901F903F
:102780001895582FF89440914502E42FF0E09F01EE
:102790002F5F3F4F2F7730708091460290E02817CF
:1027A000390739F0E55BFD4F50834F5F4F7740931A
:1027B000450278940895209146028091450282173F
:1027C00011F480E009C0E22FF0E0E55BFD4F80816D
:1027D0002F5F2F772093460290E00895282F8823BB
:1027E000F9F08D3009F42AE080914902E82FF0E0F9
:1027F000E553FD4F2083982F9F5F9F71909349026F
:1028000080914A02981721F49F5F9F7190934A022A
:102810002A3031F4F69A8091EB028F5F8093EB02BD
:102820000895F89420914A0280914902821779F024
:10283000E22FF0E0E553FD4FE0812F5F2F712093F1
:102840004A028091EB0281508093EB0203C0109208
:10285000EB02E0E078948E2F90E008951F93182FFC
:10286000843650F064E60E94B71E805D8ADF812FB7
:1028700064E60E94B71E192F812F6AE00E94B71EDE
:10288000805D7FDF812F6AE00E94B71E892F805D07
:1028900078DF1F9108950F931F938C0164E670E019
:1028A0000E94D01ECB01DADFC80164E670E00E940E
:1028B000D01ED4DF1F910F9108951F93182F82957A
:1028C0008F708A3010F0895A01C0805D5ADF812FE5
:1028D0008F708A3010F0895A01C0805D52DF1F91DD
:1028E00008950F931F938C01812F9927E6DF802F86
:1028F000E4DF1F910F910895CF93DF93EC0102C0A5
:1029000040DF2196FE0184918823D1F7DF91CF919A
:1029100008950F931F93082F10E01EC082DF982F99
:10292000282F20532A3038F08156863010F4275251
:1029300002C0892F19C0E12FE69510FF06C0F0E014
:10294000E451FD4F8081280F05C0F0E0E451FD4FB8
:102950002295207F20831F5F101701F762DF8A30E6
:1029600019F480E090E001C090E01F910F9108956C
:102970001F93162F06DF8BE504DF812F9EDF8DE589
:1029800000DF8DE3FEDE1F91089590914502809156
:102990004602981709F079CE08951F93182F809159
:1029A0000701F1998F5F5ADF8EE2EBDE8091B20072
:1029B00084DF8DE2E6DE812FE4DE8AE0E2DEE5DF21
:1029C0001F9108950F931F93CF93DF93EC01162F60
:1029D000042F80910701F1998F5F40DF8EE2D1DEF5
:1029E0008091B2006ADF002339F0163028F080EEC3
:1029F00091E082DF145003C08BED91E07DDF809188
:102A000047029091480201969093480280934702B2
:102A1000019767DF8AE3B5DE1B3018F01AE001E0AA
:102A200006C000E004C080E2ACDE899146DF1150B0
:102A3000D0F7002319F087ED91E05EDF8AE0A1DE98
:102A4000A4DFDF91CF911F910F9108951F93CF9332
:102A5000DF93EB01142F181614F48BE203C08823C4
:102A600011F08DE28EDE80E28CDECE013ADF80E274
:102A700088DE812F22DF8AE084DE87DFDF91CF913D
:102A80001F910895FF920F931F93F82E8B01672FCC
:102A9000772700D6602F8F2DFDD51F910F91FF90C6
:102AA00008950F931F93082F83E492E025DF809110
:102AB0000801805302DF80E264DE80910401CEDEF3
:102AC0008EE25FDE80910301C9DE8EE25ADE8091E4
:102AD0000201C4DE80E255DE80910501BFDE8AE39B
:102AE00050DE80910601BADE8AE34BDE8091070159
:102AF000B5DE80E246DE80911201882311F48DE478
:102B000009C09091F0028091EF02981711F481E4CE
:102B100001C08DE236DE8EE392E0EEDE07FD02C0FC
:102B2000802F02C08091180199DE89E392E0E4DEF3
:102B300080911C0190911D01AEDE84E392E0DCDE09
:102B4000909111019D3320F08FE292E0D5DE05C017
:102B500082E3989FC00111249EDE8AE292E0CCDEDF
:102B600080911A0190911B0196DE84E292E0C4DE0E
:102B70008091F3029091F402B4DE8091F2028823F6
:102B800031F080E292E0B8DE8091F20296DE07FF3B
:102B900003C08DE192E0B0DE9091F10280917C0360
:102BA000981718F08AE192E0A7DE8AE0EADDEDDE10
:102BB00010E00E3F11F411E003C064E480E06AD538
:102BC0002091060180911201882339F09091F00242
:102BD0008091EF02981719F080E860E002C080E869
:102BE00060E4622B682B812F55D5209107019091CD
:102BF000F10280917C03981710F080E401C080E01E
:102C0000602F6078622B682B812F44D56091F2028F
:102C1000812F40D560911C0170911D01672F770FA6
:102C2000770B812F37D560911C01812F33D56091AF
:102C30001A0170911B01672F770F770B812F2AD50F
:102C400060911A01812F26D56091EF02812F22D544
:102C500007FD02C0602F02C060911801812F1AD5B4
:102C60001F910F9108950F931F93CF93DF93082F18
:102C700086E587DDE5EEF1E01491EF010AC0812FD2
:102C800080DD002319F0612F802F04D52196FE01ED
:102C900014911123A1F7DF91CF911F910F91089506
:102CA000A0E0B0E0E6E5F6E10C943F1FEC01D62E83
:102CB000FF24C6C0FE01EF0DF11DE080F3946E2DE0
:102CC000606881E0E7D48E2D90E0FC01E154F04093
:102CD000E731F10508F0B4C0E45AFF4F0C946B1FC4
:102CE00081E0C1DFADC08E010F0D111DF8016081C3
:102CF00081E0D0D4F8018081AAD1BC0181E0C2DE9C
:102D000067C0F3E5EF1689F4DE01AF0DB11DEC915C
:102D1000EE3258F42E2F30E0275A3C4FFD018181CE
:102D2000F90180838C910E942B0D8E010F0D111DD6
:102D3000F801608181E0AED4F80100810F3F11F409
:102D400061EE05C0E02FF0E0E75AFC4F608181E0C2
:102D5000A1D4F3E5EF16E1F5F3943AC087E5E81660
:102D6000C1F4FE01EF0DF11D21818081422F50E061
:102D70004F705070542F44279281490F511D682F76
:102D80006F7022952F7082958F700E944C0910925F
:102D9000F0028E010F0D111DF801608181E07AD4DF
:102DA000F8012081822F82958F7090E043E0880F98
:102DB000991F4A95E1F72F70820F911D0E94910D86
:102DC000BC0181E05FDEF7E5EF1611F482E0F80E5A
:102DD000F39436C0FE01EF0DF11D8081833181F443
:102DE0008181843269F4F89488E190E028E00FB69C
:102DF000F894A895809360000FBE20936000FFCFE9
:102E0000E2E0FE0E1DC090E0FE01EF0DF11D80819D
:102E1000813009F491E0F394892F4BD10FC0FE016A
:102E2000EF0DF11D8081893058F08E3348F48AE02F
:102E30008093130180818093EF02F3948EEF31DE53
:102E4000FD1408F437CFE7E0CDB7DEB70C945B1F75
:102E50001F93F2C0E6DC182F90E0FC01E154F04033
:102E6000E931F10508F0E7C0ED58FF4F0C946B1FF6
:102E7000D8DC8A3009F0DFC080E0F5DEDCC0D1DCD0
:102E80008A3009F0D8C085C082E043DD882309F08C
:102E9000D0C06091EC0284E56BDD8091EC02D7D06C
:102EA00020DDC7C0173431F482E033DD882309F018
:102EB000C0C013C084E02DDD882309F0B8C0909114
:102EC000EC029E3250F4E92FF0E0E75AFC4F80917B
:102ED000ED028083892F0E942B0D6091EC02812FDF
:102EE00047DDE091EC02EF3F11F481EE04C0F0E029
:102EF000E75AFC4F8081E1DC9AC0123531F482E060
:102F000008DD882309F095C01DC086E002DD882316
:102F100009F08DC02091ED02422F50E04F705070AB
:102F2000542F44278091EE02480F511D8091EC02EE
:102F3000682F6F7022952F7082958F700E944C09B8
:102F40001092F0026091EC02812F12DD2091EC02D0
:102F5000822F82958F7090E073E0880F991F7A9589
:102F6000E1F72F70820F911D0E94910DBADC5FC0B6
:102F700086E0CFDC882309F05CC08091EC020E94DF
:102F800086088091ED020E9489088091EE020E94DD
:102F900091088FEF86DD4FC086E0BBDC882309F007
:102FA00048C08091EC020E9459068091ED020E9477
:102FB00060068091EE020E946706EBCF84E0A9DCF8
:102FC000882309F036C08091EC02833191F580911D
:102FD000ED02843271F5F89488E190E028E00FB6B4
:102FE000F894A895809360000FBE20936000FFCFF7
:102FF00082E08FDC8823E9F490E08091EC0281305C
:1030000009F491E0892F55D00FC082E082DC88233B
:1030100081F49091EC02993060F09E3350F48AE094
:10302000809313019093EF028FEF3BDD02C01123D9
:1030300011F08AE0A6DBA9DC8091EB02882309F07D
:1030400009CF1F91089580E00EDE0EDB9ECC823109
:1030500028F08731B9F48FEF90E008958D3090F427
:10306000E82FF0E0EE0FFF1FE95BFD4F8591949193
:10307000FC01FF7797FF03C08081918108958081D3
:1030800090E0089580E090E008959091EF02980F0D
:103090009093EF02993010F489E003C09E3318F04A
:1030A0008DE38093EF021092F1028AE08093130186
:1030B0000895982F8F3F49F48091EF028093F70293
:1030C0008091F0028093F8020AC08E3FA1F48091B3
:1030D000F7028093EF028091F8028093F00220E0E3
:1030E00080911201882309F421E0209312018AE0E3
:1030F0008093130104C080931201109213018091F8
:103100001201882349F09E3F39F080E00E94A50714
:103110008093F0028093EF021092F1020895CF9213
:10312000DF92EF92FF920F931F93C62E882321F414
:103130008091F0028823E9F490E08091F0028111FF
:1031400091E0892F0E94A507982F882391F0809302
:10315000F00280911201882361F09093EF02809138
:10316000130187FF06C080911101981711F010928A
:1031700013014091F10260917C034617E0F4209125
:10318000200130912101309521953F4F80917B03A3
:1031900090E0821793078CF5842F8F5F8093F10264
:1031A000861780F11092130188E097E090938E03C8
:1031B00080938D0327C080918D0390918E0300979B
:1031C00009F1019790938E0380938D0380912001E4
:1031D0009091210197FD14C0892BA1F0242F2F5F1E
:1031E0002093F10230E080917D03860F912D911D97
:1031F000281739073CF0109213011092F10202C017
:103200006093F1028091140190911501009729F0CB
:103210000197909315018093140180911301181662
:103220001CF48150809313014091140150911501B9
:103230004115510529F080911301882309F030C10F
:103240003091EF023A3020F08091F102861708F0B9
:103250003AE080911101381739F030931101109242
:10326000F4021092F30203C0452B09F014C18091BF
:10327000620325E0829FC001112490931501809381
:1032800014013D3318F0C090650305C1E0911C01A5
:10329000F0911D0182E3389F900111242E1B3F0BFA
:1032A00048EF2033340714F420E338EF8901215D1F
:1032B000374014F000ED17E08091F5029091F6028E
:1032C000009709F442C08E1B9F0B71F4980117FF01
:1032D00004C022273327201B310B8091610390E02B
:1032E0008217930754F031C01816190624F41016EB
:1032F00011061CF02AC017FF28C060915F0370E020
:1033000080E092E361D5601771075CF48091F3026D
:103310009091F402860F971F9093F4028093F3022A
:1033200014C088279927861B970B2091F3023091B0
:10333000F402081719071CF4261B370B02C0200FD4
:10334000311F3093F4022093F302F093F602E093DE
:10335000F502D0906003DD2019F460E072E305C04F
:103360006D2D70E080E092E32FD58091F302909173
:10337000F4026817790734F0709561957F4F8617CE
:10338000970724F47093F4026093F302B80117FFD7
:1033900004C066277727601B710B882777FD80950F
:1033A000982F20915E0330E040E050E0C1D49B01B3
:1033B000AC0160915F0370E0762F662780E090E0BB
:1033C000620F731F841F951F9801442737FD409596
:1033D000542FAED4672F782F892F992787FD9A9580
:1033E0002091640330E0322F222779010027F7FC77
:1033F0000095102F4D2D50E02091F3023091F402F2
:10340000F9014E9F90014F9F300D5E9F300D1124AA
:10341000442737FD4095542FE20EF31E041F151F5D
:10342000E60EF71E081F191FF1E0EF16F4E6FF067F
:10343000F0E00F07F0E01F071CF08091650304C067
:1034400017FF04C080916303682F24C08C2D992737
:1034500087FD9095982F8827A701481B590BCA0113
:1034600081509F4F8F5F914010F46C2D13C02F2D12
:10347000332727FD3A9580916503682F70E0621726
:10348000730744F080916303682F70E026173707B5
:103490000CF0622FC62E8FEF809313018C2D01DB71
:1034A00040911A0150911B0180917A0324E1829F7F
:1034B000C00111244817590730F48091F202806C42
:1034C0008093F20210C080917903829FC001112481
:1034D0002091F2024817590718F420642F7701C091
:1034E0002F732093F2028C2D90E01F910F91FF908B
:1034F000EF90DF90CF9008959C01139840E137FF43
:1035000002C0889A01C08898899A880F991F669985
:1035100081608998415019F0220F331FF0CF139A20
:103520001398089580E090E0E7DF87EE90E8E4DF0D
:1035300085E896EAE1DF87E896ECDEDF83EC94E944
:10354000DBDF8BEE92ECD8DF81E89AECD5DF87EAFF
:1035500094ECD2DF80E298E9CFCFA8E0B0E0E2EBD4
:10356000FAE182C46C01F62EBA01E22E8E010F5FE1
:103570001F4F452B41F4F801CE0109961192E8172F
:10358000F90751F0FBCF48E050E0C801C8D344EE42
:1035900053E0B801C8013CD380E044E0842E44E00D
:1035A000942E5E010894A11CB11C39E0232E312C0D
:1035B0002C0E3D1E20EE422E2FEF522E480C591C91
:1035C00032C0182F185F1F1540F01F1529F49CEF0B
:1035D000692E93E0792E01C03401A5019301982F43
:1035E0009F1528F4F601E90FF11DE08105C09F1534
:1035F00011F4E0E801C0E0E01F1518F0D9018C914A
:10360000E827DA018C918E27FA018193AF012F5FB1
:103610003F4FE215F30511F09F5FE2CFA201B50124
:10362000C501F6D2812F8F1560F28E010F5F1F4FFB
:103630008F2D90E0EE20A1F0F601E80FF91FD801E0
:103640009E012B5F3F4F90818C91981719F080E07D
:1036500090E00EC031961196A217B307A1F706C0ED
:1036600044E050E0B8018C0D9D1D59D381E090E0FD
:10367000E2E1289615C4AF81AA0FBFB7A7E0088082
:10368000BFBF001CBFB7008221963196A150B8F78A
:1036900028970895882369F0809116018A34A8F448
:1036A000E82FF0E0E157FC4F60838F5F80931601B5
:1036B00008958091FB02863440F4E82FF0E0E25058
:1036C000FD4F60838F5F8093FB0208958091FD0220
:1036D00081508093FD0218167CF1882311F0823E00
:1036E000E4F41092FD0280916B008F7B80936B005D
:1036F00081E89AEC01DF83E89AECFEDE88ED92E83F
:10370000FBDE1092F90284E08093FA0280916B0054
:10371000806480936B000C94F50B8C3F6CF480916B
:103720006B008F7B80936B0080E092E8E5DE8091F8
:10373000F20280618093F2020895A8E0B0E0E2EA2C
:10374000FBE198C37C01062F662369F110E09CEE33
:10375000892E93E0992E82E0A82E81E0B82E6E018A
:103760000894C11CD11CA401B501C60151D280919D
:1037700009018F5F80930901E12FF0E0D701AE0FBF
:10378000BF1FE770F070EC0DFD1D8C9190818927B3
:103790008C931F5F101738F4812F90E08770907022
:1037A000892B51F7E0CFECE0289680C30F931F934D
:1037B000CF93DF9348E050E06FE773E08CEF93E046
:1037C000AED248E050E065E672E084E094E09ED23C
:1037D00020E030E0F901EC51FC4F822F80548083CF
:1037E0002F5F3F4F28313105A9F74CEF53E064EECE
:1037F00073E0CB010DD24CEF53E06CEE73E0CB01E4
:1038000007D24CEF53E064EF73E0CB0101D2ECEF51
:10381000F3E0119284E0E430F807D9F78F01085003
:103820001040AF0140525040B801C801F1D1E80149
:10383000FE0121DFE4E0F4E01EDFDF91CF911F9174
:103840000F9108951F93182F88E192E855DE44E008
:1038500050E061E672E08FE893E058D280917E03F9
:1038600080939403112361F04091FB024A5F4093DF
:103870001601465050E06EEF72E085E993E04FD2BA
:103880006091160160939303665085E993E055DFDC
:1038900060911601655020E042E051E084E993E038
:1038A0005CDE809109018F5F809309018091160190
:1038B0008C5FE82FF0E0E157FC4F9AEA90838F5F2E
:1038C000E82FF0E0E157FC4F90838F5F8093160163
:1038D0001092F90282E08093FA0288E392E80CDE0B
:1038E000139880916B00806480936B000E94F50BAD
:1038F00083E753D81F9108951F938091F90288237D
:1039000009F420C1482F50E060918F03262F30E04A
:103910002F7730704217530734F4203531051CF4EB
:10392000803508F40FC180916B008F7B80936B0012
:103930002417350724F4862F8F778093F90230916E
:10394000F902363008F4ECC067FF79C06F77655034
:1039500021E040E050E080E993E0FFDD182F609126
:10396000F902482F8FE893E02DD8112309F4D8C02D
:103970001092FA0280E092E8BFDD80911F028B7FF7
:1039800080931F02809120028B7F80932002809180
:103990008F038A3829F4809194038093DF030FC04A
:1039A0008D3859F48FEF8093DF0344E050E064E9F1
:1039B00073E080EE93E0B3D102C01092DF038AE09F
:1039C0008093FD028091F2028F7E8093F20288E064
:1039D0008093B200809190030E94860880919103A9
:1039E00082958F700E94890880919103880F880FBB
:1039F000880F887190919203929596959770890F90
:103A00000E949108809192038F710E9459068091C3
:103A1000930386950E9460068091930380FF02C005
:103A20008EE101C080E00E946706F8948091200238
:103A30008E7F8093200278941092F90283C0832FA6
:103A400090E0019643E0959587954A95E1F720919E
:103A50000901280F20930901355021E042E051E08F
:103A6000632F80E993E079DD182F6091F902862FAA
:103A700090E0019623E0959587952A95E1F72091AE
:103A80000901281B20930901665081E993E055DE66
:103A9000809109018F5F809309016091F902412FA4
:103AA0008FE893E00E94E214809190031123C1F10A
:103AB0008823B1F51092FB0280911F028B7F8093C7
:103AC0001F02809120028B7F809320022091F902B7
:103AD0002730F0F086E080931601922F95503FE456
:103AE000E32FF0E0E157FC4FA92FB0E0A157BC4F06
:103AF0008C91808331509150913091F7622F6650B4
:103B000085EE93E0821B9109CBD880E09BDE1AC042
:103B10001092F9021092FA0280E092E8EDDC12C0F5
:103B20001092F90284E08093FA0281E89AECE4DCD6
:103B300083E89AECE1DC80916B00806480936B00F9
:103B40000E94F50B1F91089584E70E94CD14809187
:103B5000FC02823029F1833021F0813051F572DE90
:103B600028C01092DF0381E89AECC6DC83E89AEC67
:103B7000C3DC88ED92E8C0DC139880916B00806410
:103B800080936B000E94F50B84E08093FA0282E040
:103B90008093FC026091B2006A5D0E94A20609C097
:103BA0008091FA02823029F01092FA0280E092E8C5
:103BB000A3DC1092FC0208950F931F931092FA0257
:103BC0001092F9020BE610E0F80180818F7B808370
:103BD00081E89AEC91DC83E89AEC8EDC88ED92E83F
:103BE0008BDC84E08093FA02F8018081806480831A
:103BF0000E94F50B82E08093FC026091B200675E48
:103C00000E94A20682E70E94CD141F910F91089591
:103C10002F923F924F925F926F927F928F929F92DC
:103C2000EF92FF920F931F93CF93DB01FA012D9038
:103C30003D904D905D906D907D908D909D90DC01BC
:103C400060E2062E22273327A901E894730184013C
:103C5000C4E0EE0CFF1C001F111FCA95D1F7B30181
:103C6000C401C5E09695879577956795CA95D1F774
:103C7000E626F72608271927E60CF71C081D191D4C
:103C80002EF4C32FC695CC70E89405C0C22FC37024
:103C9000CC0FCC0F6894EC0FF11D60817181828193
:103CA0009381EC1BF040620F731F841F951FE62663
:103CB000F72608271927E20CF31C041D151D130114
:103CC0002401370148014EF4C9EB2C0FC9E73C1F12
:103CD000C7E34C1FCEE95C1FB9CF0A9409F0B6CFF9
:103CE0002D923D924D925D926D927D928D929D921C
:103CF000CF911F910F91FF90EF909F908F907F90A9
:103D00006F905F904F903F902F900895FB01DC01E2
:103D100002C005900D9241505040D8F70895FB0124
:103D2000DC0102C001900D9241505040D8F7089537
:103D3000629FD001739FF001829FE00DF11D649F8F
:103D4000E00DF11D929FF00D839FF00D749FF00D1B
:103D5000659FF00D9927729FB00DE11DF91F639FBC
:103D6000B00DE11DF91FBD01CF0111240895991B6C
:103D700079E004C0991F961708F0961B881F7A9562
:103D8000C9F78095089587FB082E062687FD819543
:103D900067FD6195ECDF0EF4919507FC8195089520
:103DA000AA1BBB1B51E107C0AA1FBB1FA617B70761
:103DB00010F0A61BB70B881F991F5A95A9F780957D
:103DC0009095BC01CD01089597FB092E07260AD0D6
:103DD00077FD04D0E5DF06D000201AF470956195D8
:103DE0007F4F0895F6F7909581959F4F0895A1E232
:103DF0001A2EAA1BBB1BFD010DC0AA1FBB1FEE1F65
:103E0000FF1FA217B307E407F50720F0A21BB30BAF
:103E1000E40BF50B661F771F881F991F1A9469F72B
:103E200060957095809590959B01AC01BD01CF0187
:103E3000089597FB092E05260ED057FD04D0D7DF35
:103E40000AD0001C38F450954095309521953F4F8D
:103E50004F4F5F4F0895F6F7909580957095619557
:103E60007F4F8F4F9F4F08952F923F924F925F92B7
:103E70006F927F928F929F92AF92BF92CF92DF927A
:103E8000EF92FF920F931F93CF93DF93CDB7DEB7DF
:103E9000CA1BDB0B0FB6F894DEBF0FBECDBF099473
:103EA0002A88398848885F846E847D848C849B84CA
:103EB000AA84B984C884DF80EE80FD800C811B81D8
:103EC000AA81B981CE0FD11D0FB6F894DEBF0FBE07
:103ED000CDBFED010895EE0FFF1F0590F491E02D89
:043EE0000994FFCF73
:103EE4000101080C010C00000000FE0205FF0102A4
:083EF4002EFF01101000060072
:00000001FF
