:100000000C94B8000C94D5000C94D5000C94D50039
:100010000C94D5000C94D5000C9439090C94D5009F
:100020000C94D5000C94D5000C94D5000C948F0240
:100030000C9464020C9441020C94D5000C94D500ED
:100040000C94D5000C94D5000C94D7000C94D500DA
:100050000C94D500420532053205420532053205C1
:10006000CB0532053205320532053205320532053F
:10007000320532053205B105CB05B105320535052E
:10008000B10558075A075607560756075607580727
:100090005607560756075607560758075607560776
:1000A0005607560758075A07580756075607540762
:1000B0005254433F0A007D0A002058002057002078
:1000C00045002042002053002049002056002073A4
:1000D00000206D007B0A002E2E2E0020455252007B
:1000E00020504B54004F4B004F4B004F4B004F4B99
:1000F000004F4B00563A204F70656E485232302008
:100100006D61737465722053572076657273696FE1
:100110006E20302E3031206275696C64204D617222
:1001200020333020323030392032323A30373A31D1
:1001300035205265763233304A440A00443A200072
:100140001F1C1F1E1F1E1F1F1E1F1E1F00001F0023
:100150003B005A0078009700B500D400F30011016D
:1001600030014E01AAAA2DD40123456789ABCDEFFA
:1001700011241FBECFE5D4E0DEBFCDBF10E0A0E666
:10018000B0E0EAE5FCE102C005900D92AA36B107A5
:10019000D9F713E0AAE6B0E001C01D92A93CB1076F
:1001A000E1F70E944A010C942C0E0C9400001F925F
:1001B0000F920FB60F9211241F932F933F934F93DB
:1001C0005F936F937F938F939F93AF93BF93EF93BF
:1001D000FF934CC08BB78F7D8BBF78948091950136
:1001E0008230E9F420919401E22FF0E0EE5BFC4FC5
:1001F000808190E02F5F20939401986B0E94AB0761
:100200009091940180916000981750F183E0809361
:1002100095018091410380688093410329C0843017
:10022000A1F41091940180E090EB0E94AB07E12FC4
:10023000F0E0EE5BFC4F80831F5F1093940110355C
:1002400050F085E08093950106C0853049F480E048
:1002500090EB0E94AB07809141038068809341033B
:10026000F89400008BB780628BBF0000B699B2CFC4
:10027000FF91EF91BF91AF919F918F917F916F917E
:100280005F914F913F912F911F910F900FBE0F9053
:100290001F90189580E888B98EE088BB80EB87BBFB
:1002A00082E481BB8FEF82BB8BBB88BB0E940709B6
:1002B0000E94C10788E092E80E94AB0780E00E949C
:1002C000840A0E947B0C83E89AEC0E94AB0780EEC4
:1002D00090EC0E94AB0788ED92E80E94AB0784E0A7
:1002E0008093950184B7806484BF0E94A4077894AA
:1002F0008BB780628BBF0E94D70010924703F8949F
:1003000080914103882321F478948895000001C0EE
:1003100078948091410387FF12C0809141038F77C9
:100320008093410380919501833019F40E94DC0A87
:10033000E6CF8450823018F70E94850BE0CF809181
:10034000410381FF7EC0809141038D7F80934103F3
:1003500010929C010E943908182F809166008E31FE
:1003600078F02091C803222371F090E02F3F11F420
:100370004E9707C080FF02C0822F02C08091C70342
:1003800090E00E94030D90916A00992309F457C0F0
:10039000112329F4809166008E3109F050C09150EC
:1003A00090936A001092950110929B0180916100D8
:1003B0000E94CF0A10916300812F869586958695BD
:1003C000909162009295907F890F0E94CF0A1295BA
:1003D000110F107E80916400810F0E94CF0A90E07F
:1003E000809166008E3109F491E080916500880F5C
:1003F000890F0E94CF0A9091C8039923E1F09F3F93
:1004000079F480919B030E94CF0A80919C030E9403
:10041000CF0A80919D030E94CF0A80919E0309C05C
:10042000809166008E3139F4892F0E94CF0A809125
:10043000C7030E94CF0A0E94360B0E945E040E94EE
:1004400002048091410382FF10C0809141038B7FA1
:10045000809341038091970181FF07C0F8948D7FBD
:100460008093970178940E94CD0A8091410386FF82
:1004700046CF809141038F7B809341030E944006C9
:100480003ECF1F920F920FB60F9211248F938AB115
:10049000877B8AB98F910F900FBE0F901F90189590
:1004A00082E08BB910BC8FE189B986E880BD80E914
:1004B0008AB90895F894559905C056985E9A8AB1FC
:1004C00088628AB9789408951F920F920FB60F929E
:1004D00011242F933F934F935F936F937F938F9349
:1004E0009F93AF93BF93EF93FF930E94EE028823F5
:1004F00011F08CB903C055985E9A569AFF91EF910E
:10050000BF91AF919F918F917F916F915F914F912B
:100510003F912F910F900FBE0F901F9018951F9233
:100520000F920FB60F9211242F933F934F935F9327
:100530006F937F938F939F93AF93BF93EF93FF93AB
:100540008CB10E940503FF91EF91BF91AF919F91F4
:100550008F917F916F915F914F913F912F910F906C
:100560000FBE0F901F9018951F93182FF89440916D
:100570006B00E42FF0E0CF0101966EEF70E00E9477
:10058000DC0D20916C0030E08217930759F0EF5892
:10059000FF4F1083842F8F5F6EEF0E94BC0D9093EE
:1005A0006B0019C0442339F48AE280936D018AE01C
:1005B00080936E0110C0413039F48AE280936E015D
:1005C0008AE08093710007C0EF58FF4F32978AE2AC
:1005D00081938AE0808378941F91089590916C00B4
:1005E00080916B00891711F4E0E00CC0E92FF0E076
:1005F000EF58FF4FE081892F8F5F6EEF0E94BC0D97
:1006000090936C008E2F90E00895282F882319F185
:100610008D3009F42AE080916F00E82FF0E0E15975
:10062000FE4F2083982F9F5F9F7190936F00809162
:100630007000981721F49F5F9F71909370002A308B
:1006400051F48091410380648093410380918F0134
:100650008F5F80938F010895F894209170008091AE
:100660006F00821789F0E22FF0E0E159FE4FE08140
:100670002F5F2F7120937000EA3049F480918F0131
:10068000815080938F0103C010928F01E0E0789435
:100690008E2F90E008951F93182F843658F064E64B
:1006A0000E94BC0D805D0E94B402812F64E60E940E
:1006B000BC0D192F812F6AE00E94BC0D805D0E9445
:1006C000B402812F6AE00E94BC0D892F805D0E94D8
:1006D000B4021F9108950F931F938C0164E670E09C
:1006E0000E94C80DCB010E944B03C80164E670E074
:1006F0000E94C80D0E944B031F910F9108951F93F4
:10070000182F82958F708A3010F0895A01C0805D51
:100710000E94B402812F8F708A3010F0895A01C074
:10072000805D0E94B4021F9108950F931F938C0166
:10073000812F99270E947F03802F0E947F031F91A2
:100740000F910895CF93DF93EC0103C00E94B40290
:100750002196FE0184918823C9F7DF91CF910895F6
:1007600084EF90E00E94A2030895FF920F931F93DD
:10077000082FF62E10E01FC00E942C03982F282F60
:1007800020532A3038F08156863010F4275202C0A8
:10079000892F19C0E12FE69510FF06C0F0E0E05761
:1007A000FE4F8081280F05C0F0E0E057FE4F2295F4
:1007B000207F20831F5F1017F9F6FF2031F00E9481
:1007C0002C038A3011F090E002C080E090E01F918D
:1007D0000F91FF9008951F93182F81E20E94B40299
:1007E000812F81950E947F0381E20E94B4021F91B4
:1007F000089590916B0080916C00981711F00E9401
:100800005A0208950F931F9300916600002329F464
:1008100080EB90E00E94A2033BC00D3111F00B333E
:10082000A9F48EE40E94B4020B3311F480E301C0FA
:1008300081E30E94B4028FE30E94B4028AE00E9426
:10084000B4021092C8031092C70333C00E3100F1F6
:100850001091C803112379F11F3FA9F4102F1D51E6
:1008600080919B0390919C03A0919D03B0919E0366
:10087000012E04C0B695A795979587950A94D2F74F
:1008800080FD08C018C000FF05C01091C70302C05A
:10089000102F1F5F88E20E94B402812F0E947F0305
:1008A00089E20E94B4028FE30E94B4028AE00E94AF
:1008B000B4020E94F9031F910F910895809167007F
:1008C00080530E947F0380E20E94B4028091630003
:1008D0000E944B038EE20E94B402809162000E944B
:1008E0004B038EE20E94B402809161000E944B0390
:1008F00080E20E94B402809164000E944B038AE36C
:100900000E94B402809165000E944B038AE30E941A
:10091000B402809166000E944B038AE00E94B402F8
:100920000E94F9030895A0E0B0E0E9E9F4E00C9436
:10093000EF0DEC01062F142FF98080E40E94B40221
:10094000809166000E944B038EE20E94B402809167
:1009500098010E944B031123D9F00630CCF080EEB1
:1009600090E00E94A20380916D0090916E0001962C
:1009700090936E0080936D0001970E949503102F55
:1009800016508AE00E94B402112309F432C12CC02F
:100990008BED90E00E94A20380916D0090916E001B
:1009A000019690936E0080936D0001970E949503CD
:1009B0000B3024F00AE0FF24F39401C0FF24102F31
:1009C00007C080E20E94B40289910E947F03115007
:1009D0001116BCF3FF2021F087ED90E00E94A203E6
:1009E0008AE00E94B40205C1012F229688E20E948B
:1009F000B4028F2D0E947F0389E20E94B40284ED2D
:100A000090E00E94A203A8EC4A2EA0E05A2EF5EC3A
:100A10002F2EF0E03F2EE2EC6E2EE0E07E2E7FEBFC
:100A2000872E70E0972E69EBC62E60E0D62E5CEB29
:100A3000A52E50E0B52E888187FF02C08AE201C052
:100A40008DE20E94B40228812F772883822F90E0C4
:100A5000FC01E154F040E731F10520F4E65DFF4F81
:100A60000C94260E7E01102FB5C0015010F48FEFAC
:100A700010C029912A3009F4B2C0822F8F770E94CA
:100A8000B402F3CF822F0E94B4020A5007FF04C0C1
:100A9000802F0E94EB03A3C081ED90E00E94A2038F
:100AA00089818F730E944B038EEC90E00E94A20319
:100AB00042E0E42EF12CEC0EFD1E8A818F730E9421
:100AC0004B0380E20E94B402898187FD02C08DE45D
:100AD00005C086FF02C081E401C08DE20E94B4021D
:100AE0008BEC90E00E94A20389850E944B03C20117
:100AF0000E94A2038C8190E0982F88272D8130E0FE
:100B0000822B932B0E946B03C1010E94A203988544
:100B100082E3989FC00111240E946B03C3010E94CD
:100B2000A2038E8190E0982F88272F8130E0822BBE
:100B3000932B0E946B03C4010E94A2038B810E942D
:100B40007F03F701808186FF03C0C5010E94A203D5
:100B5000F701808187FF03C0C6010E94A2032A9685
:100B60003EC0822F0E94B40204500AF491CF8BE55C
:100B70000E94B40289810E947F038DE50E94B40225
:100B80008DE30E94B4028A810E947F038B810E94C0
:100B90007F03249624C0822F0E94B40203500AF4DB
:100BA00077CF8BE50E94B40289810E947F038DE597
:100BB0000E94B4028DE30E94B4028A810E947F03E6
:100BC00023960DC080E20E94B402F70181917F015B
:100BD0000E947F031150B0F7C00FD11D0FEF8AE0C4
:100BE0000E94B40210160CF426CF86EB90E00E940F
:100BF000A2030E94F903E2E1CDB7DEB70C940B0E1D
:100C00008CE391E00E94A2038091670080530E94D0
:100C10007F0380E20E94B402809163000E944B0334
:100C20008EE20E94B402809162000E944B038EE229
:100C30000E94B402809161000E944B0380E20E94F6
:100C4000B402809164000E944B038AE30E94B402C4
:100C5000809165000E944B038AE30E94B402809158
:100C600066000E944B038EE20E94B40280919801BC
:100C70000E944B038AE00E94B4020E94F903089587
:100C8000A0E0B0E0E6E4F6E00C94EF0D2BEE222EAF
:100C900020E0322E90E9C92E91E0D92E8BE9482E22
:100CA00083E0582E08EEA02E00E0B02E1EEE812E1E
:100CB00010E0912EB5EE6B2EB0E07B2E3BC10E9472
:100CC0002C03182F8F3409F466C0803590F48434D7
:100CD00039F1853438F4883209F4BCC0823409F023
:100CE00027C108C1873409F479C0883409F020C1CC
:100CF00036C0833509F472C0843520F4803509F09C
:100D000017C15AC0863521F0893509F011C111C0CB
:100D10000E942C038A3009F00BC10E94B00308C165
:100D20000E942C038A3009F003C18FEF0E94000655
:100D3000FFC061E086E00E94B503882309F0F5C09A
:100D4000809190010E94E808809191010E94ED0835
:100D5000809192010E94F70881EF90E0C8C061E0A5
:100D600088E00E94B503882309F0DFC080919001DC
:100D70000E94E607809191010E94ED078091920107
:100D80000E94F407809193010E94FB078FEF8093EC
:100D90006A00C401ACC061E084E00E94B50388230E
:100DA00009F0C3C0809190018093C80380919101A4
:100DB0008093C703C1019BC061E088E00E94B50336
:100DC000882309F0B2C044E050E0B601C2010E949D
:100DD000B30D8FEF8093C803C50189C0173441F468
:100DE00061E082E00E94B503882309F09EC015C02F
:100DF00061E084E00E94B503882309F094C09091DB
:100E00009001983050F4E92FF0E0ED56FC4F8091BE
:100E100091018083892F0E943E0A812F0E94B40293
:100E20008BE50E94B402809190010E947F038DE5C2
:100E30000E94B4028DE30E94B402E0919001EF3F62
:100E400011F481EE04C0F0E0ED56FC4F80810E9469
:100E50007F0369C060E082E00E94B503882309F047
:100E600064C0E09090010E942C038D3209F05DC0B7
:100E700060E081E00E94B503882309F056C000912C
:100E800090010E942C03893209F04FC00E942C036C
:100E9000F82E90E0FC01E154F040E731F10530F428
:100EA000EF5BFF4F0C94260E13E005C010E003C06B
:100EB00011E001C012E0C12FD0E061E09E01220FDD
:100EC000822F0E94B503882381F502950F70402F71
:100ED0006E2D812F8F5F0E94CE0CFC01892B29F192
:100EE000F192AE01B601CF010E94B30DC3010E9481
:100EF000A2031BC061E084E00E94B5038823A9F42B
:100F000080919001833189F480919101843269F458
:100F1000F89488E190E028E00FB6F894A89581BD98
:100F20000FBE21BDFFCF112319F08AE00E94B40249
:100F30000E94F90380918F01882309F0C0CEE2E17D
:100F4000CDB7DEB70C940B0E0E94B0030E94500286
:100F50000E94F90308959C01C49840E137FF02C044
:100F6000C59A01C0C598C79A880F991FB699816024
:100F7000C798415019F0220F331FF0CFC49AC4987C
:100F8000089580E090E00E94AB0787EE90E80E9411
:100F9000AB0785E896EA0E94AB0787E896EC0E94CB
:100FA000AB0783EC94E90E94AB078BEE92EC0E94B6
:100FB000AB0781E89AEC0E94AB0787EA94EC0E94A9
:100FC000AB0780E298E90E94AB070895885E68E16C
:100FD0000E94BC0D909364000895845C6CE30E94B1
:100FE000BC0D909365000895845C6CE30E94BC0D79
:100FF00090936600089590E08C599F4F64E670E0EE
:101000000E94DC0D80939801089580916200E82F82
:10101000F0E0E15CFE4F2491823051F48091610058
:1010200090E083709070892B19F48DE190E0089521
:10103000822F90E00895809167008730B1F480910D
:101040006200833039F420E030E080916300893120
:1010500070F008C08A3049F420E030E080916300ED
:10106000883128F021E030E002C020E030E0C90102
:1010700008951F9310926800809166008F5F80939F
:1010800066008C3318F480E090E05EC01092660039
:10109000809165008F5F809365008C3308F452C0A7
:1010A00010926500809164008F5F809364008831A6
:1010B00030F1109264000E940508909163009F5FD8
:1010C00090936300891798F491E090936300809166
:1010D00062008F5F809362008D3038F090936200E1
:1010E000809161008F5F80936100109292038091E4
:1010F000670067E00E94BC0D9F5F909367001091AE
:101100006200133059F4809164008230D9F40E9457
:101110001B088823B9F01093640014C01A3091F4AE
:1011200080916400833071F480919203882351F49C
:101130000E941B08882331F082E08093640081E0E4
:101140008093920381E090E01F9108950F931F9385
:10115000CF93DF9380916200E82FF0E0EE0FFF1F46
:10116000E65BFE4FC591D49190916300C90FD11DEC
:10117000833040F08091610090E083709070892B03
:1011800009F42196E0916100F0E08F0101501040D8
:10119000C80164E070E00E94DC0D9B012E0F3F1F30
:1011A000C80164E670E00E94DC0D261B370B2B5F44
:1011B0003F4FC9018C0F9D1F67E070E00E94C80D72
:1011C0008F5F80936700DF91CF911F910F910895FA
:1011D000809361000E94A6080895855F6CE00E94DC
:1011E000BC0D9F5F909362000E94A60808951F9314
:1011F000182F0E940508682F8150810F0E94BC0D96
:101200009F5F909363000E94A6081F91089583ED4D
:1012100090E39BBD8ABD8AE08EBD80E188BF89B71F
:10122000806189BF0E94A6080895E82FF894F0E035
:1012300081E090E00E2E02C0880F991F0A94E2F719
:1012400020919601282B20939601E856FE4F60834B
:1012500034B521FF0AC020919901822F90E0831BB1
:1012600091098F3F910509F0822F80939A0178941C
:1012700008951F920F920FB60F9211242F933F9350
:101280008F939F93809198018F5F809398018091B5
:101290009801843638F08091410382608093410345
:1012A0001092980120919601222391F1909198013A
:1012B00080919A01891761F518C0909198018091E9
:1012C0009901981769F48091970182608093970142
:1012D0002D7F209396018091410384608093410388
:1012E0008091960181FD04C011C021FDE6CFF8CFA9
:1012F0003091990120919801832F90E0821B9109F0
:101300008F3F910519F080919801832F80939A0166
:101310009F918F913F912F910F900FBE0F901F9033
:101320001895A8E0B0E0E7E9F9E00C94EF0D6C0146
:10133000F62EBA01E22E8E010F5F1F4F452B41F4AE
:10134000F801CE0109961192E817F90761F0FBCF79
:1013500048E050E0C8010E94B30D4FE953E0B801E6
:10136000C8010E942C0D80E04FEB842E43E0942EA8
:101370005E010894A11CB11C39E0232E312C2C0EE7
:101380003D1E20EE422E2FEF522E480C591C33C02A
:10139000182F185F1F1540F01F1529F497EB692EC1
:1013A00093E0792E01C03401A5019301982F9F1578
:1013B00028F4F601E90FF11DE08105C09F1511F435
:1013C000E0E801C0E0E01F1518F0D9018C91E82792
:1013D000DA018C918E27FA018193AF012F5F3F4F85
:1013E000E215F30511F09F5FE2CFA201B501C5013F
:1013F0000E942C0D812F8F1558F28E010F5F1F4F09
:101400008F2D90E0EE20A1F0F601E80FF91FD80132
:101410009E012B5F3F4F90818C91981719F080E0CF
:1014200090E00FC031961196A217B307A1F707C03D
:1014300044E050E0B8018C0D9D1D0E94B30D81E089
:1014400090E0E2E128960C940B0EE199FECF9FBB51
:101450008EBBE09A8DB390E00895E199FECF90E0C5
:10146000880F991F880F991F860F911D805C9F4FD1
:101470009FBB8EBBE09A8DB390E00895EF92FF92F0
:101480000F931F93CF93DF93082F8830C0F5E82E7A
:10149000FF24E701CD56DC4F188160E00E942D0A41
:1014A000181769F1188162E0802F0E942D0A181721
:1014B00038F0188163E0802F0E942D0A811728F4EC
:1014C00061E0802F0E942D0A888318819701220FE6
:1014D000331F220F331F205C3F4F80E0203438073A
:1014E00028F0C90183709070892B49F4E199FECFEF
:1014F0003FBB2EBB1DBBF894E29AE19A7894E6E0DC
:10150000CDB7DEB70C94170EEF92FF920F931F9397
:10151000CF93DF93082F53E9E52E53E0F52EC0E07B
:10152000D0E00023A9F460E08C2F0E942D0A182F30
:10153000F701808362E08C2F0E942D0A181740F07B
:10154000F701108163E08C2F0E942D0A811730F47F
:1015500061E08C2F0E942D0AF70180838C2F0E945E
:101560003E0A2196C830D10521F00894E11CF11CF7
:10157000D8CFE6E0CDB7DEB70C94170EAF81AA0F37
:10158000BFB7A7E00880BFBF001CBFB7008221968D
:101590003196A150B8F7289708959698089590919C
:1015A0009B01963440F4E92FF0E0E356FE4F808330
:1015B0009F5F90939B0108951092950110929B015B
:1015C000109294018BB78F7D8BBF81E89AEC0E94BB
:1015D000AB0783E89AEC0E94AB0788ED92E80E9483
:1015E000AB0784E0809395018BB780628BBF0E942C
:1015F000D7000895A8E0B0E0E0E0FBE00C94F50D22
:101600007C01062F662371F110E097EA892E93E0A2
:10161000992E81E6A82E80E0B82E6E010894C11C98
:10162000D11CA401B501C6010E942C0D8091680057
:101630008F5F80936800E12FF0E0D701AE0FBF1FEE
:10164000E770F070EC0DFD1D8C91908189278C93D3
:101650001F5F101738F4812F90E087709070892BEE
:1016600051F7DFCFECE028960C94110EEF92FF9229
:101670000F931F9388E192E80E94AB0702E413E006
:1016800044E050E064E671E0C8010E94AA0D409178
:101690009B01842F8B5F80688093460350E025E098
:1016A000E22EF12CE00EF11E6DE971E0C7010E94FF
:1016B000B30D20E040E050E060919B01C7010E9423
:1016C000910980919B01875FF801E80FF11D9AEA6B
:1016D00090838F5F080F111DF80190838F5F8093B7
:1016E00060001092940182E08093950188E392E873
:1016F0000E94AB07C4988BB780628BBF0E94D70053
:101700001F910F91FF90EF900895A0E0B0E0EBE8FB
:10171000FBE00C94FA0D80919401882309F4E6C053
:10172000482F50E090914203292F30E02F773070FE
:101730004217530734F4203531051CF4803508F482
:10174000D5C08BB78F7D8BBF241735071CF49F77CF
:101750009093940160919401663008F4B5C0862F8F
:1017600090E0019643E0959587954A95E1F72091A1
:101770006800280F20936800655021E041E650E0A2
:1017800083E493E00E949109182F60919401862FC1
:1017900090E0019633E0959587953A95E1F7209191
:1017A0006800281B20936800665084E493E00E9440
:1017B000FA0A809168008F5F8093680060919401BD
:1017C000412F82E493E00E949304D09043031123BD
:1017D00009F47AC0969A60919801625E81E00E9455
:1017E0001509EE24FF240FC0F801E90FF11D8381D4
:1017F0000E94CF0A9C2F2196F80180819817A0F3B0
:101800000894E11CF11C60919C014E2D8D2D0E94CD
:101810000F0D8C01892B19F0C0E0D0E0EBCF809147
:101820009C018F5F80939C0188E192E80E94AB0746
:1018300044E050E064E671E082E493E00E94AA0D87
:101840001092470340919B014A5F409360004650CD
:1018500050E06DE971E088E493E00E94B30D60917F
:10186000600060934603665088E493E00E94FA0AA1
:1018700060916000655020E041E650E087E493E02D
:101880000E949109809168008F5F80936800809129
:1018900060008C5FE82FF0E0EE5BFC4F9AEA9083EB
:1018A0008F5FE82FF0E0EE5BFC4F90838F5F8093BB
:1018B00060001092940182E08093950188E392E8A1
:1018C0000E94AB07C4980DC01092940184E08093ED
:1018D000950181E89AEC0E94AB0783E89AEC0E949C
:1018E000AB078BB780628BBF0E94D700E7E0CDB714
:1018F000DEB70C94160E0F931F93CF93DF9348E03F
:1019000050E063E973E087EB93E00E94B30D48E099
:1019100050E068E671E08FEB93E00E94AA0D20E0B2
:1019200030E0F901E156FC4F822F805480832F5F15
:101930003F4F28313105A9F747EB53E06FE973E0DA
:10194000CB010E942C0D47EB53E067EA73E0CB011B
:101950000E942C0D47EB53E06FEA73E0CB010E942D
:101960002C0DE7EBF3E0119283E0EF3BF807D9F79A
:101970008F0108501040AF0140525040B801C801DB
:101980000E942C0DE801FE01F9DDEFEBF3E0F6DD3E
:101990009698DF91CF911F910F910895CF93DF9388
:1019A000782FA4EEB1E02FEFE0E0F0E05E2F9C9105
:1019B000961731F4ED018981841711F42FEF05C0DA
:1019C0002F3F19F4992309F4252F31961796E23306
:1019D000F10561F72F3F19F480E090E011C030E08D
:1019E000C90153E0880F991F5A95E1F7821B930BA9
:1019F000FC01ED51FE4F7083618342838A519E4FFB
:101A0000DF91CF910895982FE4EEF1E08081891362
:101A10001082379683E0E234F807C1F70895582F13
:101A2000E4EEF1E020E030E08081851761F481810F
:101A3000861749F4415038F487E0289FC0011124EB
:101A40008D519E4F08952F5F3F4F379622333105BA
:101A500059F780E090E008952F923F924F925F9265
:101A60006F927F928F929F92EF92FF920F931F93AC
:101A7000CF93DB01FA012D903D904D905D906D90DC
:101A80007D908D909D90DC0160E2062E2227332709
:101A9000A901E89473018401C4E0EE0CFF1C001F4F
:101AA000111FCA95D1F7B301C401C5E0969587957A
:101AB00077956795CA95D1F7E626F726082719275F
:101AC000E60CF71C081D191D2EF4C32FC695CC700B
:101AD000E89405C0C22FC370CC0FCC0F6894EC0FF4
:101AE000F11D6081718182819381EC1BF040620F56
:101AF000731F841F951FE626F72608271927E20C77
:101B0000F31C041D151D13012401370148014EF477
:101B1000C9EB2C0FC9E73C1FC7E34C1FCEE95C1F84
:101B2000B9CF0A9409F0B6CF2D923D924D925D92B5
:101B30006D927D928D929D92CF911F910F91FF900A
:101B4000EF909F908F907F906F905F904F903F901D
:101B50002F900895FB01DC0102C005900D924150C9
:101B60005040D8F70895FB01DC0102C001900D92AE
:101B700041505040D8F70895991B79E004C0991F4F
:101B8000961708F0961B881F7A95C9F780950895D7
:101B9000AA1BBB1B51E107C0AA1FBB1FA617B70793
:101BA00010F0A61BB70B881F991F5A95A9F78095AF
:101BB0009095BC01CD01089597FB092E07260AD008
:101BC00077FD04D0E5DF06D000201AF4709561950A
:101BD0007F4F0895F6F7909581959F4F08952F9226
:101BE0003F924F925F926F927F928F929F92AF92AD
:101BF000BF92CF92DF92EF92FF920F931F93CF93FA
:101C0000DF93CDB7DEB7CA1BDB0B0FB6F894DEBF90
:101C10000FBECDBF09942A88398848885F846E84B6
:101C20007D848C849B84AA84B984C884DF80EE8000
:101C3000FD800C811B81AA81B981CE0FD11D0FB609
:101C4000F894DEBF0FBECDBFED010895EE0FFF1F6C
:0A1C50000590F491E02D0994FFCFF8
:0A1C5A00060901010C000000000063
:00000001FF
