:100000000C9452000C946F000C946F000C946F00D1
:100010000C946F000C946F000C946F000C946F00A4
:100020000C946F000C946F000C946F000C94BC0146
:100030000C9491010C945D010C946F000C946F0072
:100040000C946F000C946F000C9471000C946F0072
:100050000C946F00504B5400563A204F70656E4818
:10006000523230206D61737465722053572076656B
:100070007273696F6E20302E3031206275696C6446
:10008000204A616E20203220323030392032313A1D
:1000900031333A323520245265763A2031333920D3
:1000A000240A000011241FBECFE5D4E0DEBFCDBF7F
:1000B00010E0A0E6B0E0E6E6F6E002C005900D92A2
:1000C000A036B107D9F711E0A0E6B0E001C01D925B
:1000D000AA33B107E1F70E94E0000C9432030C94BC
:1000E00000001F920F920FB60F9211241F932F93AF
:1000F0003F934F935F936F937F938F939F93AF93B0
:10010000BF93EF93FF9348C08BB78F7D8BBF7894DD
:10011000809108018230E9F420910701E22FF0E09C
:10012000E65FFE4F808190E02F5F20930701986B80
:100130000E94BA029091070180910601981730F150
:1001400083E0809308018091090180688093090110
:1001500025C08430A1F41091070180E090EB0E944B
:10016000BA02E12FF0E0E65FFE4F80831F5F10933D
:100170000701103330F085E08093080102C085301C
:1001800029F480910901806880930901F8940000A6
:100190008BB780628BBF0000B699B6CFFF91EF910D
:1001A000BF91AF919F918F917F916F915F914F918F
:1001B0003F912F911F910F900FBE0F901F90189598
:1001C000CF93DF9380E888B98EE088BB80EB87BB54
:1001D00082E081BB8FEF82BB8BBB88BB0E94D002C9
:1001E00088E092E80E94BA0283E89AEC0E94BA0280
:1001F00080EE90EC0E94BA0288ED92E80E94BA026A
:1002000084E08093080184B7806484BF0E949602D2
:1002100078948BB780628BBF0E94710010920F019F
:10022000CAE0D1E0F89480910901882321F4789400
:100230008895000001C078948091090187FFF2CF72
:10024000809109018F7780930901809108018330A3
:1002500071F4109208018BB78F7D8BBF88E092E814
:100260000E94BA0280E098EB0E94BA02DBCF845071
:100270008230C0F6609107016623A1F280910A01E5
:10028000681710F4603370F2CE010E946002109281
:10029000070184E0809308018BB78F7D8BBF81E8D5
:1002A0009AEC0E94BA0283E89AEC0E94BA028BB7D9
:1002B00080628BBF0E947100B5CF1F920F920FB664
:1002C0000F9211248F938AB1877B8AB98F910F90F7
:1002D0000FBE0F901F9018959C0140E050E093E0F6
:1002E000220F331F441F551F9A95D1F760E876E916
:1002F00088E990E00E94F5022150304082E08BB9FD
:10030000832F992780BD29B986E880BD0895F89488
:10031000559905C056985E9A8AB188628AB97894D0
:1003200008951F920F920FB60F9211242F933F93AF
:100330004F935F936F937F938F939F93AF93BF93ED
:10034000EF93FF930E94FE01882311F08CB903C044
:1003500055985E9A569AFF91EF91BF91AF919F91F8
:100360008F917F916F915F914F913F912F910F905E
:100370000FBE0F901F9018951F920F920FB60F92FD
:1003800011242F933F934F935F936F937F938F939A
:100390009F93AF93BF93EF93FF938CB10E94110291
:1003A0008AB18F768AB9FF91EF91BF91AF919F91FA
:1003B0008F917F916F915F914F913F912F910F900E
:1003C0000FBE0F901F901895582FF894409162001F
:1003D000E42FF0E09F012F5F3F4F2F773070809127
:1003E000630090E02817390739F0EA59FF4F50832E
:1003F0004F5F4F7740936200789408952091630097
:1004000080916200821711F480E009C0E22FF0E0D1
:10041000EA59FF4F80812F5F2F772093630090E090
:100420000895282F8823F1F08D3009F42AE0809177
:100430006400E82FF0E0EA51FF4F2083982F9F5F80
:100440009F719093640080916500981721F49F5FDD
:100450009F71909365002A3029F48091090180648E
:100460008093090108951F93182F82958F708A3009
:1004700010F0895A01C0805D0E94E401812F8F70C5
:100480008A3010F0895A01C0805D0E94E4011F91FA
:100490000895CF93DF93EC0103C00E94E4012196FD
:1004A000FE0184918823C9F7DF91CF91089590913F
:1004B000620080916300981711F00E9487010895EF
:1004C000FF920F931F93CF93DF93EC01F62E84E5F9
:1004D00090E00E94490200916000109161000F5F5E
:1004E0001F4F109361000093600001501040812F56
:1004F00099270E943302802F0E9433028AE30E94D0
:10050000E40106C080E20E94E40189910E94330266
:10051000FA948FEFF816B1F78AE00E94E4010E9486
:100520005702E5E0CDB7DEB70C94240388E590E0F0
:100530000E94490280E096E90E946C010E945702E5
:100540000895982F40E820E030E050E0842F862383
:1005500009F051E0892F81709695581711F08CE8B9
:10056000982746952F5F3F4F2830310571F7892F27
:1005700090E008959C01C49840E137FF02C0C59AFD
:1005800001C0C598C79A880F991FB6998160C7980E
:10059000415019F0220F331FF0CFC49AC498089528
:1005A00080E090E00E94BA0287EE90E80E94BA02D2
:1005B00085E896EA0E94BA0287E896EC0E94BA02A1
:1005C00083EC94E90E94BA028BEE92EC0E94BA028C
:1005D00081E89AEC0E94BA0287EA94EC0E94BA027F
:1005E00080E298E90E94BA020895A1E21A2EAA1B9D
:1005F000BB1BFD010DC0AA1FBB1FEE1FFF1FA217D3
:10060000B307E407F50720F0A21BB30BE40BF50BCF
:10061000661F771F881F991F1A9469F76095709558
:10062000809590959B01AC01BD01CF0108952A886A
:10063000398848885F846E847D848C849B84AA84F6
:10064000B984C884DF80EE80FD800C811B81AA8183
:10065000B981CE0FD11D0FB6F894DEBF0FBECDBF4E
:06066000ED010895FFCF3B
:00000001FF
