:100000000C94B7000C94D4000C94D4000C94D6003B
:100010000C94D4000C94D4000C94D4000C943609A5
:100020000C94D4000C94D4000C94D4000C94D40000
:100030000C94D4000C9489020C945E020C943B0244
:100040000C94D4000C94D4000C94D4000C94D400E0
:100050000C94D4003F052F052F053F052F052F05D4
:10006000C8052F052F052F052F052F053F052F0547
:100070002F052F052F05AE05C805AE052F05320546
:10008000AE0555075707530753075307530755073F
:10009000530753075307530753075507530753078E
:1000A000530753075507570755075307530751077A
:1000B0005254433F0A007D0A002058002057002078
:1000C00045002042002053002049002056002073A4
:1000D00000206D007B0A002E2E2E0020455252007B
:1000E00020504B54004F4B004F4B004F4B004F4B99
:1000F000004F4B00563A204F70656E485232302008
:100100006D61737465722053572076657273696FE1
:100110006E20302E3031206275696C642044656336
:1001200020323020323030392032313A30343A32D5
:100130003520523235344A440A00443A20001F1C0C
:100140001F1E1F1E1F1F1E1F1E1F00001F003B0023
:100150005A0078009700B500D400F3001101300177
:100160004E01AAAA2DD40123456789ABCDEF1124F6
:100170001FBECFE5D8E0DEBFCDBF10E0A0E6B0E007
:10018000E4E2FCE102C005900D92AA36B107D9F76E
:1001900014E0AAE6B0E001C01D92AD3EB107E1F760
:1001A0000E9449010C94110E0C9400001F920F92B2
:1001B0000FB60F9211241F932F933F934F935F938A
:1001C0006F937F938F939F93AF93BF93EF93FF931F
:1001D0004CC08BB78F7D8BBF78948091B9028230F1
:1001E000E9F42091B802E22FF0E0EA59FB4F808158
:1001F00090E02F5F2093B802986B0E94A80790911F
:10020000B80280916000981750F183E08093B902A2
:100210008091650480688093650429C08430A1F4CE
:100220001091B80280E090EB0E94A807E12FF0E067
:10023000EA59FB4F80831F5F1093B802103550F0CE
:1002400085E08093B90206C0853049F480E090EBE8
:100250000E94A80780916504806880936504F894E3
:1002600000008BB780628BBF0000B699B2CFFF91C0
:10027000EF91BF91AF919F918F917F916F915F911E
:100280004F913F912F911F910F900FBE0F901F9094
:10029000189580E888B98EE088BB80EB87BB82E444
:1002A00081BB8FEF82BB8BBB88BB0E9404090E947D
:1002B000BE0788E092E80E94A80780E00E94810AB9
:1002C0000E94600C83E89AEC0E94A80780EE90ECF4
:1002D0000E94A80788ED92E80E94A80784E0809316
:1002E000B90284B7806484BF0E94A10778948BB759
:1002F00080628BBF0E94D60010926B04F8948091AC
:100300006504882321F478948895000001C07894CE
:100310008091650487FF12C0809165048F77809378
:1003200065048091B902833019F40E94D90AE6CF9E
:100330008450823018F70E94730BE0CF80916504DF
:1003400081FF79C0809165048D7F80936504109250
:10035000C0020E943608182F809166008E3178F016
:100360002091EC04222371F090E02F3F11F44E977E
:1003700007C080FF02C0822F02C08091EB0490E092
:100380000E94E80C90916A00992309F452C011234D
:1003900029F4809166008E3109F04BC09150909302
:1003A0006A001092B9021092BF02809161000E940F
:1003B000CC0A10916300812F869586958695909141
:1003C00062009295907F890F0E94CC0A1295110FBE
:1003D000107E80916400810F0E94CC0A90E0809191
:1003E00066008E3109F491E080916500880F890FD5
:1003F0000E94CC0A8091EC048E3FB9F08F3F79F4D3
:100400008091BF040E94CC0A8091C0040E94CC0A53
:100410008091C1040E94CC0A8091C20404C00E9451
:10042000CC0A8091EB040E94CC0A0E94330B0E94FC
:100430005B040E94FF038091650482FF10C08091DD
:1004400065048B7F809365048091BB0281FF07C0A8
:10045000F8948D7F8093BB0278940E94CA0A8091A1
:10046000650486FF4BCF809165048F7B8093650484
:100470000E943D0643CF1F920F920FB60F92112498
:100480008F938AB1877B8AB98F910F900FBE0F909F
:100490001F90189582E08BB910BC8FE189B986E86E
:1004A00080BD80E98AB90895F894559905C0569899
:1004B0005E9A8AB188628AB9789408951F920F92E1
:1004C0000FB60F9211242F933F934F935F936F9327
:1004D0007F938F939F93AF93BF93EF93FF930E946C
:1004E000E302882311F08CB903C055985E9A569A9E
:1004F000FF91EF91BF91AF919F918F917F916F91FC
:100500005F914F913F912F910F900FBE0F901F90D1
:1005100018951F920F920FB60F9211242F933F93AD
:100520004F935F936F937F938F939F93AF93BF93FB
:10053000EF93FF938CB10E94FD02FF91EF91BF9169
:10054000AF919F918F917F916F915F914F913F916B
:100550002F910F900FBE0F901F901895482FF89471
:10056000E0916B00F0916C0031969F0131703197F2
:1005700080916D0090916E002817390741F0ED5879
:10058000FF4F408330936C0020936B001AC030976C
:1005900039F48AE2809371028AE08093720211C07A
:1005A000E130F10539F48AE2809372028AE08093A7
:1005B000730007C0ED58FF4F32978AE281938AE0BB
:1005C00080837894089520916D0030916E00809121
:1005D0006B0090916C008217930711F480E00BC0C0
:1005E000F901ED58FF4F80812F5F3F4F31703093FD
:1005F0006E0020936D0090E00895282F882319F154
:100600008D3009F42AE080917100E82FF0E0ED5878
:10061000FD4F2083982F9F5F9F739093710080916F
:100620007200981721F49F5F9F73909372002A3095
:1006300051F4809165048064809365048091B302D5
:100640008F5F8093B3020895F89420917200809197
:100650007100821789F0E22FF0E0ED58FD4FE08144
:100660002F5F2F7320937200EA3049F48091B30218
:1006700081508093B30203C01092B302E0E07894FB
:100680008E2F90E008951F93182F843658F064E65B
:100690000E94A10D805D0E94AE02812F64E60E943F
:1006A000A10D192F812F6AE00E94A10D805D0E948B
:1006B000AE02812F6AE00E94A10D892F805D0E9409
:1006C000AE021F9108950F931F938C0164E670E0B2
:1006D0000E94AD0DCB010E944303C80164E670E0A7
:1006E0000E94AD0D0E9443031F910F9108951F9327
:1006F000182F82958F708A3010F0895A01C0805D62
:100700000E94AE02812F8F708A3010F0895A01C08A
:10071000805D0E94AE021F9108950F931F938C017C
:10072000812F99270E947703802F0E9477031F91C2
:100730000F910895CF93DF93EC0103C00E94AE02A6
:100740002196FE0184918823C9F7DF91CF91089506
:1007500084EF90E00E949A030895FF920F931F93F5
:10076000082FF62E10E01FC00E942403982F282F78
:1007700020532A3038F08156863010F4275202C0B8
:10078000892F19C0E12FE69510FF06C0F0E0EC5468
:10079000FD4F8081280F05C0F0E0EC54FD4F2295FD
:1007A000207F20831F5F1017F9F6FF2031F00E9491
:1007B00024038A3011F090E002C080E090E01F91A5
:1007C0000F91FF9008951F93182F81E20E94AE02AF
:1007D000812F81950E94770381E20E94AE021F91D2
:1007E000089520916B0030916C0080916D00909184
:1007F0006E002817390711F00E94540208950F93D4
:100800001F9300916600002329F480EB90E00E9482
:100810009A033BC00D3111F00B33A9F48EE40E9412
:10082000AE020B3311F480E301C081E30E94AE02FB
:100830008FE30E94AE028AE00E94AE021092EC04A6
:100840001092EB0433C00E3100F11091EC0411232F
:1008500079F11F3FA9F4102F1D518091BF04909191
:10086000C004A091C104B091C204012E04C0B69589
:10087000A795979587950A94D2F780FD08C018C070
:1008800000FF05C01091EB0402C0102F1F5F88E22B
:100890000E94AE02812F0E94770389E20E94AE027D
:1008A0008FE30E94AE028AE00E94AE020E94F10332
:1008B0001F910F9108958091670080530E947703E4
:1008C00080E20E94AE02809163000E9443038EE2A8
:1008D0000E94AE02809162000E9443038EE20E9459
:1008E000AE02809161000E94430380E20E94AE024A
:1008F000809164000E9443038AE30E94AE028091CB
:1009000065000E9443038AE30E94AE028091660064
:100910000E9443038AE00E94AE020E94F103089500
:10092000A0E0B0E0E6E9F4E00C94D40DEC01062F71
:10093000142FF98080E40E94AE02809166000E942C
:1009400043038EE20E94AE028091BC020E944303E8
:100950001123D9F00630CCF080EE90E00E949A038B
:1009600080916F0090917000019690937000809339
:100970006F0001970E948D03102F16508AE00E948D
:10098000AE02112309F432C12CC08BED90E00E941D
:100990009A0380916F00909170000196909370007F
:1009A00080936F0001970E948D030B3024F00AE0C2
:1009B000FF24F39401C0FF24102F07C080E20E949F
:1009C000AE0289910E94770311501116BCF3FF20EB
:1009D00021F087ED90E00E949A038AE00E94AE0227
:1009E00005C1012F229688E20E94AE028F2D0E943F
:1009F000770389E20E94AE0284ED90E00E949A03A0
:100A0000A8EC4A2EA0E05A2EF5EC2F2EF0E03F2E57
:100A1000E2EC6E2EE0E07E2E7FEB872E70E0972ECC
:100A200069EBC62E60E0D62E5CEBA52E50E0B52E0D
:100A3000888187FF02C08AE201C08DE20E94AE0277
:100A400028812F772883822F90E0FC01E154F04029
:100A5000E731F10520F4E65DFF4F0C940B0E7E01AB
:100A6000102FB5C0015010F48FEF10C029912A301B
:100A700009F4B2C0822F8F770E94AE02F3CF822F8B
:100A80000E94AE020A5007FF04C0802F0E94E303B9
:100A9000A3C081ED90E00E949A0389818F730E9428
:100AA00043038EEC90E00E949A0342E0E42EF12C86
:100AB000EC0EFD1E8A818F730E94430380E20E9428
:100AC000AE02898187FD02C08DE405C086FF02C0A9
:100AD00081E401C08DE20E94AE028BEC90E00E94A6
:100AE0009A0389850E944303C2010E949A038C8164
:100AF00090E0982F88272D8130E0822B932B0E9445
:100B00006303C1010E949A03988582E3989FC00104
:100B100011240E946303C3010E949A038E8190E016
:100B2000982F88272F8130E0822B932B0E9463031C
:100B3000C4010E949A038B810E947703F701808190
:100B400086FF03C0C5010E949A03F701808187FFD9
:100B500003C0C6010E949A032A963EC0822F0E94BB
:100B6000AE0204500AF491CF8BE50E94AE02898157
:100B70000E9477038DE50E94AE028DE30E94AE02D3
:100B80008A810E9477038B810E947703249624C078
:100B9000822F0E94AE0203500AF477CF8BE50E94A9
:100BA000AE0289810E9477038DE50E94AE028DE33B
:100BB0000E94AE028A810E94770323960DC080E2D4
:100BC0000E94AE02F70181917F010E9477031150CC
:100BD000B0F7C00FD11D0FEF8AE00E94AE021016D1
:100BE0000CF426CF86EB90E00E949A030E94F1035A
:100BF000E2E1CDB7DEB70C94F00D8AE391E00E94FC
:100C00009A038091670080530E94770380E20E94DC
:100C1000AE02809163000E9443038EE20E94AE0206
:100C2000809162000E9443038EE20E94AE02809196
:100C300061000E94430380E20E94AE028091640042
:100C40000E9443038AE30E94AE02809165000E94E5
:100C500043038AE30E94AE02809166000E94430330
:100C60008EE20E94AE028091BC020E9443038AE0A1
:100C70000E94AE020E94F1030895A0E0B0E0E3E418
:100C8000F6E00C94D40D2BEE222E20E0322E94EBC5
:100C9000C92E92E0D92E8FEB482E84E0582E08EE14
:100CA000A02E00E0B02E1EEE812E10E0912EB5EEAB
:100CB0006B2EB0E07B2E3BC10E942403182F8F3493
:100CC00009F466C0803590F4843439F1853438F401
:100CD000883209F4BCC0823409F027C108C18734C6
:100CE00009F479C0883409F020C136C0833509F48D
:100CF00072C0843520F4803509F017C15AC086359A
:100D000021F0893509F011C111C00E9424038A30F5
:100D100009F00BC10E94A80308C10E9424038A3075
:100D200009F003C18FEF0E94FD05FFC061E086E07E
:100D30000E94AD03882309F0F5C08091B4020E949F
:100D4000E5088091B5020E94EA088091B6020E94EF
:100D5000F40881EF90E0C8C061E088E00E94AD0334
:100D6000882309F0DFC08091B4020E94E3078091DC
:100D7000B5020E94EA078091B6020E94F1078091B5
:100D8000B7020E94F8078FEF80936A00C401ACC0DD
:100D900061E084E00E94AD03882309F0C3C0809124
:100DA000B4028093EC048091B5028093EB04C101FE
:100DB0009BC061E088E00E94AD03882309F0B2C0C7
:100DC00044E050E0B601C2010E94980D8FEF80937D
:100DD000EC04C50189C0173441F461E082E00E944F
:100DE000AD03882309F09EC015C061E084E00E9435
:100DF000AD03882309F094C09091B402983050F468
:100E0000E92FF0E0E954FB4F8091B5028083892FF0
:100E10000E943B0A812F0E94AE028BE50E94AE0227
:100E20008091B4020E9477038DE50E94AE028DE3AB
:100E30000E94AE02E091B402EF3F11F481EE04C0D3
:100E4000F0E0E954FB4F80810E94770369C060E0C5
:100E500082E00E94AD03882309F064C0E090B402F0
:100E60000E9424038D3209F05DC060E081E00E94A1
:100E7000AD03882309F056C00091B4020E942403F8
:100E8000893209F04FC00E942403F82E90E0FC0143
:100E9000E154F040E731F10530F4EF5BFF4F0C9483
:100EA0000B0E13E005C010E003C011E001C012E01A
:100EB000C12FD0E061E09E01220F822F0E94AD037E
:100EC000882381F502950F70402F6E2D812F8F5F43
:100ED0000E94B30CFC01892B29F1F192AE01B601FD
:100EE000CF010E94980DC3010E949A031BC061E0CC
:100EF00084E00E94AD038823A9F48091B402833179
:100F000089F48091B502843269F4F89488E190E024
:100F100028E00FB6F894A89581BD0FBE21BDFFCF84
:100F2000112319F08AE00E94AE020E94F103809121
:100F3000B302882309F0C0CEE2E1CDB7DEB70C944E
:100F4000F00D0E94A8030E944A020E94F103089536
:100F50009C01C49840E137FF02C0C59A01C0C59802
:100F6000C79A880F991FB6998160C798415019F0A8
:100F7000220F331FF0CFC49AC498089580E090E008
:100F80000E94A80787EE90E80E94A80785E896EAE5
:100F90000E94A80780E196EC0E94A80783EA94E9E2
:100FA0000E94A8078BEE92EC0E94A80781E89AECB9
:100FB0000E94A80787EA94EC0E94A80780E398E9BA
:100FC0000E94A8070895885E68E10E94A10D909391
:100FD00064000895845C6CE30E94A10D9093650009
:100FE0000895845C6CE30E94A10D909366000895BF
:100FF00090E08C599F4F64E670E00E94C10D809391
:10100000BC02089580916200E82FF0E0E35CFE4F9F
:101010002491823051F48091610090E0837090704F
:10102000892B19F48DE190E00895822F90E00895C6
:10103000809167008730B1F480916200833039F489
:1010400020E030E080916300893170F008C08A3080
:1010500049F420E030E080916300883128F021E0FD
:1010600030E002C020E030E0C90108951F931092E3
:101070006800809166008F5F809366008C3318F45F
:1010800080E090E05EC010926600809165008F5F06
:10109000809365008C3308F452C0109265008091F3
:1010A00064008F5F80936400883130F11092640097
:1010B0000E940208909163009F5F909363008917DC
:1010C00098F491E090936300809162008F5F809329
:1010D00062008D3038F090936200809161008F5FE4
:1010E000809361001092B6048091670067E00E94CF
:1010F000A10D9F5F9093670010916200133059F427
:10110000809164008230D9F40E9418088823B9F0D5
:101110001093640014C01A3091F4809164008330FD
:1011200071F48091B604882351F40E941808882332
:1011300031F082E08093640081E08093B60481E026
:1011400090E01F9108950F931F93CF93DF938091A9
:101150006200E82FF0E0EE0FFF1FE85BFE4FC59145
:10116000D49190916300C90FD11D833040F08091DC
:10117000610090E083709070892B09F42196E091D2
:101180006100F0E08F0101501040C80164E070E0A0
:101190000E94C10D9B012E0F3F1FC80164E670E045
:1011A0000E94C10D261B370B2B5F3F4FC9018C0FCF
:1011B0009D1F67E070E00E94AD0D8F5F8093670018
:1011C000DF91CF911F910F910895809361000E944C
:1011D000A3080895855F6CE00E94A10D9F5F909326
:1011E00062000E94A30808951F93182F0E9402080E
:1011F000682F8150810F0E94A10D9F5F9093630023
:101200000E94A3081F91089583ED90E39BBD8ABDC2
:101210008AE08EBD80E188BF89B7806189BF0E9466
:10122000A3080895E82FF894F0E081E090E00E2EF6
:1012300002C0880F991F0A94E2F72091BA02282B66
:101240002093BA02E454FD4F608334B521FF0AC0F5
:101250002091BD02822F90E0831B91098F3F910561
:1012600009F0822F8093BE02789408951F920F9206
:101270000FB60F9211242F933F938F939F938091DA
:10128000BC028F5F8093BC028091BC02843638F030
:10129000809165048260809365041092BC02209165
:1012A000BA02222391F19091BC028091BE0289176B
:1012B00061F518C09091BC028091BD02981769F445
:1012C0008091BB0282608093BB022D7F2093BA0283
:1012D000809165048460809365048091BA0281FDE9
:1012E00004C011C021FDE6CFF8CF3091BD0220919E
:1012F000BC02832F90E0821B91098F3F910519F06A
:101300008091BC02832F8093BE029F918F913F9169
:101310002F910F900FBE0F901F901895A8E0B0E08E
:10132000E4E9F9E00C94D40D6C01F62EBA01E22E3A
:101330008E010F5F1F4F452B41F4F801CE01099636
:101340001192E817F90761F0FBCF48E050E0C801BF
:101350000E94980D43EC54E0B801C8010E94110DA1
:1013600080E043EE842E44E0942E5E010894A11C9C
:10137000B11C39E0232E312C2C0E3D1E20EE422EC6
:101380002FEF522E480C591C33C0182F185F1F1511
:1013900040F01F1529F49BED692E94E0792E01C0D1
:1013A0003401A5019301982F9F1528F4F601E90F48
:1013B000F11DE08105C09F1511F4E0E801C0E0E0F7
:1013C0001F1518F0D9018C91E827DA018C918E272E
:1013D000FA018193AF012F5F3F4FE215F30511F042
:1013E0009F5FE2CFA201B501C5010E94110D812FBF
:1013F0008F1558F28E010F5F1F4F8F2D90E0EE205A
:10140000A1F0F601E80FF91FD8019E012B5F3F4FB5
:1014100090818C91981719F080E090E00FC0319680
:101420001196A217B307A1F707C044E050E0B80136
:101430008C0D9D1D0E94980D81E090E0E2E12896C0
:101440000C94F00DE199FECF9FBB8EBBE09A8DB35B
:1014500090E00895E199FECF90E0880F991F880FE2
:10146000991F860F911D805C9F4F9FBB8EBBE09A9A
:101470008DB390E00895EF92FF920F931F93CF9357
:10148000DF93082F8830C0F5E82EFF24E701C95408
:10149000DB4F188160E00E942A0A181769F1188151
:1014A00062E0802F0E942A0A181738F0188163E042
:1014B000802F0E942A0A811728F461E0802F0E9461
:1014C0002A0A888318819701220F331F220F331FA6
:1014D000205C3F4F80E02034380728F0C90183703A
:1014E0009070892B49F4E199FECF3FBB2EBB1DBB09
:1014F000F894E29AE19A7894E6E0CDB7DEB70C94DE
:10150000FC0DEF92FF920F931F93CF93DF93082F61
:1015100057EBE52E54E0F52EC0E0D0E00023A9F40F
:1015200060E08C2F0E942A0A182FF701808362E066
:101530008C2F0E942A0A181740F0F701108163E0EF
:101540008C2F0E942A0A811730F461E08C2F0E94B0
:101550002A0AF70180838C2F0E943B0A2196C8300B
:10156000D10521F00894E11CF11CD8CFE6E0CDB7FD
:10157000DEB70C94FC0DAF81AA0FBFB7A7E00880BF
:10158000BFBF001CBFB7008221963196A150B8F7AB
:1015900028970895969808959091BF02963440F444
:1015A000E92FF0E0EF53FD4F80839F5F9093BF02E0
:1015B00008958BB78F7D8BBF1092B9021092BF0236
:1015C0001092B80281E89AEC0E94A80783E89AEC8E
:1015D0000E94A80788ED92E80E94A80784E0809303
:1015E000B9028BB780628BBF0E94D6000895A8E035
:1015F000B0E0EDEFFAE00C94DA0D7C01062F6623E3
:1016000071F110E09BEC892E94E0992E81E6A82ED2
:1016100080E0B82E6E010894C11CD11CA401B50154
:10162000C6010E94110D809168008F5F8093680051
:10163000E12FF0E0D701AE0FBF1FE770F070EC0DA7
:10164000FD1D8C91908189278C931F5F101738F4B2
:10165000812F90E087709070892B51F7DFCFECE0FD
:1016600028960C94F60D0F931F938BB78F7D8BBF2D
:1016700088E192E80E94A80706E614E044E050E002
:1016800062E671E0C8010E948F0D4091BF02842F75
:101690008B5F806880936A0450E00B5F1F4F61ECA2
:1016A00072E0C8010E94980D20E040E050E0609197
:1016B000BF02C8010E948E098091BF02855F80939E
:1016C00060001092B80282E08093B90288E392E849
:1016D0000E94A807C4988BB780628BBF0E94D60077
:1016E0001F910F910895A0E0B0E0E9E7FBE00C94B2
:1016F000DF0D4091B802442309F4DDC06091660417
:10170000262F30E02F773070C90106978A34910573
:1017100010F4403518F01092B802CDC050E04217D6
:1017200053070CF4C8C08BB78F7D8BBF24173507C8
:101730001CF46F776093B8026091B802862F90E036
:10174000019633E0959587953A95E1F720916800E9
:10175000280F20936800655021E041E650E087E6BD
:1017600094E00E948E09182F6091B802862F90E0B5
:10177000019623E0959587952A95E1F720916800D9
:10178000281B20936800665088E694E00E94F70AC0
:10179000809168008F5F809368006091B802412F4C
:1017A00086E694E00E949004D0906704112309F427
:1017B00070C0969A6091BC02625E81E00E9412093C
:1017C000EE24FF240FC0F801E90FF11D83810E9470
:1017D000CC0A9C2F2196F80180819817A0F30894D9
:1017E000E11CF11C6091C0024E2D8D2D0E94F40C65
:1017F0008C01892B19F0C0E0D0E0EBCF8091C002C2
:101800008F5F8093C0028BB78F7D8BBF88E192E89A
:101810000E94A80744E050E062E671E086E694E0AA
:101820000E948F0D10926B044091BF024A5F40935B
:101830006000465050E061EC72E08CE694E00E945B
:10184000980D6091600060936A0466508CE694E0A5
:101850000E94F70A60916000655020E041E650E088
:101860008BE694E00E948E09809168008F5F8093E0
:101870006800809160008A5F809360001092B802D7
:1018800082E08093B90288E392E80E94A807C49896
:101890000DC01092B80284E08093B90281E89AECFE
:1018A0000E94A80783E89AEC0E94A8078BB7806281
:1018B0008BBF0E94D600E7E0CDB7DEB70C94FB0DDE
:1018C0000F931F93CF93DF9348E050E067EB74E0F2
:1018D0008BED94E00E94980D48E050E066E671E0E0
:1018E00083EE94E00E948F0D20E030E0F901ED538B
:1018F000FB4F822F805480832F5F3F4F283131056B
:10190000A9F74BED54E063EC74E0CB010E94110D9C
:101910004BED54E06BEC74E0CB010E94110D4BEDEC
:1019200054E063ED74E0CB010E94110DEBEDF4E0A7
:10193000119284E0E33EF807D9F78F010850104078
:10194000AF0140525040B801C8010E94110DE8019A
:10195000FE0111DEE3EEF4E00EDE9698DF91CF910A
:101960001F910F910895CF93DF93782FA8E0B3E0F4
:101970002FEFE0E0F0E05E2F9C91961731F4ED013F
:101980008981841711F42FEF05C02F3F19F4992393
:1019900009F4252F31961796E233F10561F72F3FB1
:1019A00019F480E090E011C030E0C90153E0880FE5
:1019B000991F5A95E1F7821B930BFC01E95FFC4FDD
:1019C000708361834283865F9C4FDF91CF9108953E
:1019D000982FE8E0F3E0808189131082379684E045
:1019E000E636F807C1F70895582FE8E0F3E020E065
:1019F00030E08081851761F48181861749F4415078
:101A000038F487E0289FC0011124895F9C4F089516
:101A10002F5F3F4F37962233310559F780E090E032
:101A200008952F923F924F925F926F927F928F9282
:101A30009F92EF92FF920F931F93CF93DB01FA01D6
:101A40002D903D904D905D906D907D908D909D90EE
:101A5000DC0160E2062E22273327A901E8947301F6
:101A60008401C4E0EE0CFF1C001F111FCA95D1F7C2
:101A7000B301C401C5E09695879577956795CA959A
:101A8000D1F7E626F72608271927E60CF71C081DCC
:101A9000191D2EF4C32FC695CC70E89405C0C22F33
:101AA000C370CC0FCC0F6894EC0FF11D6081718175
:101AB00082819381EC1BF040620F731F841F951F7E
:101AC000E626F72608271927E20CF31C041D151D2E
:101AD00013012401370148014EF4C9EB2C0FC9E76B
:101AE0003C1FC7E34C1FCEE95C1FB9CF0A9409F035
:101AF000B6CF2D923D924D925D926D927D928D92D8
:101B00009D92CF911F910F91FF90EF909F908F909A
:101B10007F906F905F904F903F902F900895FB01C2
:101B2000DC0102C005900D9241505040D8F7089555
:101B3000FB01DC0102C001900D9241505040D8F7EA
:101B40000895991B79E004C0991F961708F0961B19
:101B5000881F7A95C9F780950895AA1BBB1B51E190
:101B600007C0AA1FBB1FA617B70710F0A61BB70B0D
:101B7000881F991F5A95A9F780959095BC01CD01B2
:101B8000089597FB092E07260AD077FD04D0E5DFDC
:101B900006D000201AF4709561957F4F0895F6F7EE
:101BA000909581959F4F08952F923F924F925F920B
:101BB0006F927F928F929F92AF92BF92CF92DF925D
:101BC000EF92FF920F931F93CF93DF93CDB7DEB7C2
:101BD000CA1BDB0B0FB6F894DEBF0FBECDBF099456
:101BE0002A88398848885F846E847D848C849B84AD
:101BF000AA84B984C884DF80EE80FD800C811B81BB
:101C0000AA81B981CE0FD11D0FB6F894DEBF0FBEE9
:101C1000CDBFED010895EE0FFF1F0590F491E02D6B
:041C20000994FFCF55
:0A1C2400060901010C000000000099
:00000001FF
