:100000000C94F7000C9414010C947D090C949A0D37
:100010000C94B10D0C94E8050C9414010C9414018B
:100020000C9414010C9414010C9414010C94F70911
:100030000C9414010C94B6130C947E130C9432138C
:100040000C9414010C9414010C9414010C9453039B
:100050000C9414010C9414010C9491050D0E140EC3
:10006000900F900F900F900F6E0EC30ED00E4A0E91
:10007000520F5C0F5C0F7E0F200E2E0E2E0E4A0EBE
:100080004A0EA10FE30EEC0ED60FE20F1E111E1149
:100090001E111E113E103E103E103E1059116E11E1
:1000A0006E11D411F10F00100F101E102D107410CE
:1000B0008310A510F1113F065B4F666D7D077F6FC2
:1000C000777C395E7971635473763008400148411A
:1000D00009495054105C00332738583E786E20018F
:1000E00016072016011620160216201603162016D3
:1000F00004162016051620160616201607160B01E4
:100100001F241616161620160C16200E1C1C000F87
:100110000F20001D202000120E1D0C270C230B0A9F
:100120002626200E0220200E03200A0D202028243F
:100130001F1B02031B191800010002030405060718
:1001400008090A3935423E0C0D0E0F101112131416
:10015000151F1C1F1E1F1E1F1F1E1F1E1F00001FFE
:10016000003B005A0078009700B500D400F300115E
:100170000130014E01563A204F70656E48523230C0
:100180002053572076657273696F6E20302E32319E
:10019000206275696C64204E6F76203133203230D6
:1001A00030382032323A32303A35352024526576B2
:1001B0003A20373120240A0020580020453A0020F8
:1001C000423A2000424F4F540020533A2000204929
:1001D0003A200020563A2000443A2000148112812F
:1001E00035833383EA020B01EB021582138211245B
:1001F0001FBECFEFD4E0DEBFCDBF11E0A0E0B1E085
:10020000E2EDF0E302C005900D92A031B107D9F7FD
:1002100013E0A0E1B1E001C01D92A733B107E1F7FF
:100220000E9416010C9468180C9400001F9390E82B
:100230009093610081E08093610090BF8FEF809385
:100240007E008DE08093640088E183BB9EE09DB9D1
:1002500083E08EB988E080BB83EF81BB95B981EDE7
:1002600084B98EE280936C0080EC8DBB0E9478078D
:1002700083B120E090E0809590958E7090700E97FD
:1002800009F421E0822F0E94100C60E081E00E94BE
:10029000C80A0E9475031EBA78940E94BA1683E0B9
:1002A0000E945A038091E40088608093E40081E01A
:1002B00080931002F8948EB3882339F584B590E0CA
:1002C00087709070892B21F48091C100887111F0A2
:1002D00081E007C080911101882311F083E001C003
:1002E00087E083BF80911101813039F410921101B0
:1002F00080917A00806480937A00729878948895CF
:100300000000729A86E083BF01C07894F39B04C01A
:10031000F3980E944705CECFF29B04C0F2980E944A
:100320000103C8CFF69B04C0F6980E949515C2CF72
:10033000F59B04C0F5980E94290ABCCFF49B0BC022
:10034000F498109110010E94770D612F0E94C80A45
:100350000E94300BAFCFF09B03C0F0980E948F0C2F
:10036000F19B2AC0F198109110010E94E607612FBD
:100370000E942D17182F809310010E94770D612F76
:100380000E94C80A809110010E9416090E941B0D4C
:100390000E94F00280910A01882319F08150809315
:1003A0000A0180E00E94FC0D8091E4008860809347
:1003B000E40081E08093100280912B0290912C0246
:1003C000892B29F480910A01882309F073CF80E0FA
:1003D0000E94AE0F182F882319F081E00E94AE0F03
:1003E000812F0E94FC0D5ECF8F929F92AF92BF92A1
:1003F000CF92DF92EF92FF920F931F93CF93DF93F1
:100400004B01C82EDD245601AA0CBB1CAA0CBB1C38
:1004100026E131E0A20EB31EF50180819181A28117
:10042000B3817B010027F7FC0095102FE80EF91E21
:100430000A1F1B1FE082F182028313834091040193
:100440004F30F0F180911E01C82FD0E0CE018D9683
:100450006CE370E00E9418182CE330E0B901C69EEE
:100460009001C79E300DD69E300D1124F901E80F82
:10047000F91FEE0FFF1FE05EFE4F80819181AA27DA
:1004800097FDA095BA2FE81AF90A0A0B1B0BF50184
:10049000E082F182028313834C3390F0F601EE0F79
:1004A000FF1FE050FF4FC20FD31FCC0FDD1FC05EF8
:1004B000DE4F888199819401281B390B3183208379
:1004C00020911E018CE390E0C89EF001C99EF00DC2
:1004D000D89EF00D1124E20FF11DEE0FFF1FE05E1C
:1004E000FE4F91828082F601EE0FFF1FEE0FFF1F7D
:1004F000EA5EFE4F60817181828193814F3028F0E6
:100500002FE030E040E050E004C0242F30E040E035
:1005100050E0CC0CDD1CE2E1F1E0CE0EDF1E0E94CB
:100520004D18F60131832083DF91CF911F910F91F8
:10053000FF90EF90DF90CF90BF90AF909F908F9003
:1005400008959C0140E050E060E070E381E190E0BC
:100550000E942B18DA01C90108950F931F93BC0163
:1005600080912403482F50E040505F4FA1E0B0E05D
:100570000A2FFD01EC5DFC4F80819A01280F311D8F
:100580006217730738F00F5F1196A630B10519F0A6
:10059000A901EECF9A01621B730B80E090E02CE082
:1005A0003EEF4FEF5FEF0E94D91710E0F801EC5DCE
:1005B000FC4F208130E040E050E00E944D188CE07C
:1005C0009EEFAC01049FC001059F900D149F900DFC
:1005D00011248056904F820F931F1F910F91089501
:1005E00091E090931F018CE0809364008CE88093ED
:1005F0007A0010927B008EE580937C00909311012D
:10060000089580911F018F5F80931F01833041F017
:100610008430F1F08230E9F58DE880937A0014C0DF
:10062000209178008091790090E0982F882730E021
:10063000822B932B0E94A102BC0180E00E94F40156
:100640008B9A82E480937C0081E08093110127C023
:10065000209178008091790090E0982F882730E0F1
:10066000822B932B0E94AD02BC0181E00E94F40119
:1006700080911E0190E001966CE370E00E941818D2
:1006800080931E01809104018C3318F48F5F809356
:1006900004018B988DE080937A00809364008091B0
:1006A000110190E008950F9300E0F29A0093110178
:1006B0000F911895833011F42FEF01C020E080E0F6
:1006C00090E0FC01EE50FD4F208321870196893098
:1006D0009105B9F791E0909305018091E40088605D
:1006E0008093E40090931002089580E00E945A03E2
:1006F000809112038093E70085EA8093E50086E00D
:100700008093E600E4EEF0E080EC808380818860F6
:10071000808381E0809305010895EF92FF920F930B
:10072000CF93DF937B01082FC9E3D1E0FE018491D1
:1007300066270695F794E79408F463E00E94A903FE
:100740002196C13599F7DF91CF910F91FF90EF90EE
:100750000895782F769576957695877021E030E02C
:1007600001C0220F8A95EAF7462FE72FF0E060FFDD
:1007700005C0EE50FD4F8081822B06C0EE50FD4F2C
:100780009081822F809589238083E72FF0E041FFBD
:1007900005C0EE50FD4F8185282B05C0EE50FD4F62
:1007A000818520952823218780910501813021F4BE
:1007B0006330D1F06623C1F06150623048F020E030
:1007C00030E0F901EE50FD4F90818185981721F0BE
:1007D00082E08093050108952F5F3F4F2930310556
:1007E00081F781E0809305010895E9E3F1E0E80FE6
:1007F000F11DE4918E2F0E94A9030895EF92FF92BC
:100800000F931F93CF93DF93E42E643010F588325B
:1008100000F5E62FF0E0E25DFE4FF490E82FF0E007
:10082000EA54FF4F0491C2E3D1E011E0FE0194913C
:10083000812F802311F06E2D01C060E0892F8F0D74
:100840000E94A9032196F1E0C933DF0711F0110FCF
:10085000EDCFDF91CF911F910F91FF90EF90089511
:100860000F931F93CF93DF93062FC82FD0E0CC0FA9
:10087000DD1FCC0FDD1FC252DF4F13E0FE0184915C
:10088000402F612F0E94FE03115021961F3FB1F7A8
:1008900060E08BE30E94A903DF91CF911F910F913C
:1008A0000895FF920F931F93082F162FF42E633095
:1008B00090F4843680F46AE00E94F817612F892F43
:1008C0000E94FE031F5F802F6AE00E94F8174F2DE1
:1008D000612F0E94FE031F910F91FF9008950F93C7
:1008E0001F93082F162F893011F48CE007C08D3329
:1008F00011F48DE003C08E3320F08BE00E943004B1
:100900001EC0462F62E086950E94510400FF02C07F
:1009100085E001C080E0412F61E00E94FE030431C8
:1009200028F4412F63E080E20E94FE03412F60E043
:100930008CE00E94FE03612F8BE30E94A9031F91AC
:100940000F9108951F93CF93DF93162FEC0187E249
:10095000C031D80710F0CFE0D7E2CE0164E670E0F6
:100960000E940418CB01412F62E00E945104CE0185
:1009700064E670E00E940418412F60E00E94510478
:10098000DF91CF911F910895FF920F931F93082F2E
:10099000162FF42E623088F4262F2E5F64E60E9414
:1009A000F817622F0E94FE03802F64E60E94F8175A
:1009B0004F2D612F892F0E9451041F910F91FF909D
:1009C00008950F931F93CF93DF93162F27E2803163
:1009D000920714F08FE097E2EC018CEFC931D80751
:1009E00014F4C9E1DCEF00E0D7FF04C001E0D095CA
:1009F000C195DF4FCE016AE070E00E941818CB016C
:100A0000412F61E00E94C404002321F0412F63E0E4
:100A100086E106C0C85ED3402CF4412F63E080E23B
:100A20000E94FE03412F60E08CE00E94FE03DF91F4
:100A3000CF911F910F910895FF920F931F93F82E5E
:100A4000162F042F633058F48F700E94FE031F5F2F
:100A5000402F612F8F2D82958F700E94FE031F9172
:100A60000F91FF900895FF920F931F938C01F62E24
:100A7000812F9927462F62E00E941C054F2D60E0D0
:100A8000802F0E941C051F910F91FF900895809167
:100A900011028F5F809311028D3058F08091120205
:100AA0008F5F8170809312021092110281E0809317
:100AB000100280911002882351F11092100280914F
:100AC000120290E0FC0123E0EE0FFF1F2A95E1F7F0
:100AD000E80FF91FEE50FD4F80818093EC0081817B
:100AE0008093ED0082818093EE0083818093F100FA
:100AF00084818093F20085818093F30086818093C6
:100B0000F60087818093F70080858093F8008091BC
:100B10000501813029F48091E400877F8093E4000F
:100B20000895F39A1895992787FD9095489668E15E
:100B300070E00E94181880930B030895992787FD91
:100B40009095CC966CE370E00E9418188093040393
:100B50000895992787FD9095CC966CE370E00E94EC
:100B6000181880930D03089580910E03E82FF0E08C
:100B7000EF5AFE4F2491823051F480910F0390E0A0
:100B800083709070892B19F48DE190E00895822F85
:100B900090E00895809106038730B1F080910E03B4
:100BA000833039F420E030E080910C03893170F01B
:100BB00008C08A3049F420E030E080910C0388318D
:100BC00028F021E030E002C020E030E0C9010895C3
:100BD0001F920F920FB60F921124F19A0F900FBE31
:100BE0000F901F9018953F924F925F926F927F9255
:100BF0008F929F92AF92BF92CF92DF92EF92FF922D
:100C00000F931F93CF93DF93F82E5B01882319F086
:100C100048E0342E02C032E0332E55245A94662424
:100C2000CF2CDD24860123E0000F111F2A95E1F768
:100C3000702E98E0492E400E88249924C0E0D0E020
:100C400012C090E00E944C0C9F7025E0803A920701
:100C500048F48815990530F0A816B90618F05E2CEE
:100C6000500E4C012196EC2E8C2F870D841548F3E5
:100C700057FE11C0FF2041F0C601059667E070E005
:100C80000E941818F82EF394639480EAA82E85E049
:100C9000B82E631429F6852D90E0DF91CF911F9136
:100CA0000F91FF90EF90DF90CF90BF90AF909F900B
:100CB0008F907F906F905F904F903F900895FF923C
:100CC0000F931F93CF93DF93F82E90910B038CE338
:100CD000989FE001112480910403C80FD11D8091D9
:100CE0002B03813011F000E002C000910603BE0129
:100CF000802F0E94F305182F992787FD90950E9459
:100D00004C0CFC0117FD16C0FF2049F09F708C179A
:100D10009D0781F4159515951595101759F4EF2F2A
:100D2000FF27E295EF70E370F070ED5EFC4F80817D
:100D300090E002C080E090E0DF91CF911F910F9191
:100D4000FF900895CF92DF92EF92FF920F931F933F
:100D5000CF93DF93C82EC0EAD5E077E1D72EEE24FB
:100D6000FF248701BE018C2D0E94F30587FF03C07D
:100D700080E090E005C0992787FD90950E944C0C7B
:100D80009C01207030739F708C179D0718F0CFEF77
:100D9000DFEF02C0EC0121978CE34D2D4802C0012A
:100DA000112414C050E22030350740F041E050E0FB
:100DB00060E070E0E42AF52A062B172B1D1424F4BA
:100DC000EE0CFF1C001F111FDA94CC97C817D9072F
:100DD0004CF31C161D0634F2C801B701DF91CF9108
:100DE0001F910F91FF90EF90DF90CF9008950E9498
:100DF000A20660932E0370932F0380933003909389
:100E0000310308950F931F93CF93DF9380910E03C7
:100E1000E82FF0E0EE0FFF1FE55AFE4FC591D49189
:100E200090910C03C90FD11D833040F080910F03C6
:100E300090E083709070892B09F42196E0910F0364
:100E4000F0E08F0101501040C80164E070E00E94A2
:100E500018189B012E0F3F1FC80164E670E00E9426
:100E60001818261B370B2B5F3F4FC9018C0F9D1F96
:100E700067E070E00E940418282F2F5F209306037C
:100E800080912B03813009F020E0822F0E94F70629
:100E9000DF91CF911F910F91089580930F030E94CE
:100EA00002070895992787FD90950B966CE070E0F6
:100EB0000E9418188F5F80930E030E940207089506
:100EC0000F931F93082F0E94B405682F70E0CB0189
:100ED0000197112707FD1095800F911F0E94181888
:100EE0008F5F80930C030E9402071F910F9108955A
:100EF000809170008E7F8093700088E08093B600B0
:100F00001092B2008091B00085608093B000209173
:100F1000B6008091B60090E08470907030E021704F
:100F20003070822B932B892B91F78FEF87BB8091A9
:100F30007000816080937000109207031092080384
:100F40001092090310920A038CE080930B03109215
:100F5000040310920D0381E080930C038AE08093D8
:100F60000E0388E080930F030E94020708950E94F9
:100F7000B40590910C039F5F90930C038917D8F4EC
:100F800091E090930C0380910E038F5F80930E038A
:100F90008D3038F090930E0380910F038F5F809314
:100FA0000F0310920503809106038F5F67E00E9494
:100FB000F8179093060380912B03813011F080E0A5
:100FC00002C0809106030E94F70608951F93809146
:100FD000070390910803A0910903B0910A030196B9
:100FE000A11DB11D8093070390930803A0930903EB
:100FF000B0930A0380910D038F5F80930D038C33B0
:1010000018F480E090E03BC010920D03809104033F
:101010008F5F809304038C3380F1109204038091DE
:101020000B038F5F80930B03883120F010920B032A
:101030000E94B70710910E03133059F480910B03EF
:101040008230D9F40E94CA058823B9F010930B03AB
:1010500014C01A3091F480910B03833071F48091A5
:101060000503882351F40E94CA05882331F082E0E9
:1010700080930B0381E08093050381E090E01F9152
:1010800008950F931F938A0190E023E0880F991F22
:101090002A95E1F7860F911D0E944C0C9C01232F8D
:1010A000332722952F70F80120839F701F910F9195
:1010B0000895362F8830F8F46830E8F42430D8F4F6
:1010C00095E04C3D590710F04FEF5FE0622F70E064
:1010D000762F66277295707F642B752B90E043E026
:1010E000880F991F4A95E1F7830F911D0E94740C98
:1010F00081E090E0089580E090E00895409113022F
:10110000509114024B305105ECF080910601882378
:10111000C9F420911C0230911D02F90193E0EE0FF9
:10112000FF1F9A95E1F7CA016AE070E00E94181863
:10113000220F331FC9018E0F9F1F0E941818862F80
:1011400090E008958FEF90E00895809113029091C0
:101150001402892B19F480E090E0089590E08091CA
:101160000601811191E081E09827892F90E0089590
:10117000282F882379F410926E0080916B008F7E67
:1011800080936B00739814BA2F9888E484BD1092F2
:101190002002089580912002821709F446C010921F
:1011A0002502109226021092270210922802109215
:1011B0002A021092290280E09CE090932202809300
:1011C000210288E790E090932402809323022093E9
:1011D0002002739A8091210290912202909318022A
:1011E00080931702809123029091240290931A0217
:1011F0008093190281E080936E0080916B00806182
:1012000080936B002F3F49F488E084BB2F98809136
:101210001D0387BD89E684BD089580E184BB2F9AB4
:1012200080911C0387BD89E784BD0895282F809194
:101230000601882319F080E090E00895243689F4AF
:1012400080911F032091130230911402280F311D49
:1012500080911E03281B310930931F0220931E0228
:101260002FC080911E03222351F490E020911F0390
:10127000821B910990931F0280931E0221C0E82FC8
:10128000F0E080911302909114028E1B9F0B8E1B35
:101290009F0B959587959595879530E0AC01429F7A
:1012A000C001439F900D529F900D112469E170E0A1
:1012B0000E941818E60FF71FF0931F02E0931E021A
:1012C000809120028823B1F420911C0230911D02EC
:1012D00080911E0290911F028217930714F48FEFE2
:1012E00004C02817390734F481E00E94B80881E06F
:1012F00090E0089581E090E008951F920F920FB65C
:101300000F9211242F933F934F938F939F934CB140
:10131000242F30E040FD0AC08091C1008069809395
:10132000C10080916B008E7F80936B0020713070C4
:1013300080911B0290E08095909528233923232BE0
:1013400009F449C08091190290911A02892B09F081
:1013500042C020911C0230911D02809120029927E9
:1013600087FD9095820F931F90931D0280931C021E
:10137000809121029091220220911702309118024F
:10138000821B930B9093160280931502F49A20917E
:101390001C0230911D0280911E0290911F0228179D
:1013A000390749F48FEF9FEF90931A028093190247
:1013B00080E093E00CC080912302909124029093EE
:1013C0001A02809319028091210290912202909337
:1013D00018028093170240931B029F918F914F91A7
:1013E0003F912F910F900FBE0F901F9018951F9255
:1013F0000F920FB60F9211242F938F939F9380918A
:10140000170290911802892B51F080911702909148
:1014100018020197909318028093170205C014BA1E
:101420002F9888E484BDF59A8091190290911A0250
:1014300001972FEF8E3F920720F490931A0280932A
:1014400019029F918F912F910F900FBE0F901F90B7
:1014500018951F93CF93DF931091200280E00E9494
:10146000B8088091190290911A028F5F9F4F39F44A
:1014700080910601882309F46CC08FEF63C011309E
:10148000C9F5C0911C02D0911D0280912203909158
:10149000230318161906A4F0D0931402C093130264
:1014A000892BD1F4C436D105BCF0D0932303C0936B
:1014B000220380E10E94D80B81E10E94D80B0CC06E
:1014C00090931D0280931C0280911C0290911D023A
:1014D0009093140280931302809106018330A9F542
:1014E0008FEF0E94B808C85ED340D0931F02C0930C
:1014F0001E0227C01F3F69F520911C0230911D027A
:10150000809122039091230397FF0AC080911302D8
:1015100090911402821B930B9093140280931302F8
:1015200010921D0210921C0280910601833069F412
:1015300028513C4F30931F0220931E0281E00E94ED
:10154000B80884E08093060104C0843011F410923E
:10155000060180910601882391F480911C029091EC
:101560001D028A5E93403CF4809113029091140214
:101570008436910524F48091EC02886003C0809148
:10158000EC02877F8093EC02DF91CF911F91089549
:101590001F93182F882391F480E00E94B8081092BE
:1015A0001D0210921C0210921402109213028EEF70
:1015B0008093060185E08093070150C08091070168
:1015C000882321F081508093070123C09091060168
:1015D000892F81508230E8F49E5F909306018091BC
:1015E0002203909123038F5F9F4F51F4633340F0A8
:1015F00088E19CEF90931F0280931E028FEF07C03B
:1016000088EE93E090931F0280931E0281E00E9477
:10161000B808809106018E3F09F5133069F48FEF09
:101620009FEF909323038093220380E10E94D80BC5
:1016300081E10E94D80B06C0123021F410922303DE
:101640001092220381E08093060180912203909101
:10165000230397FD03C082E0809306011F91089544
:10166000EF92FF920F931F938091150290911602B3
:1016700081529E4408F062C06091290270912A0252
:1016800061157105D1F0209115023091160240E0EC
:1016900050E08091250290912602A0912702B091FE
:1016A0002802820F931FA41FB51F809325029093D9
:1016B0002602A0932702B0932802CB0101969093B3
:1016C0002A02809329024597C8F19B0140E050E02F
:1016D0006091250270912602809127029091280244
:1016E0000E942B1879018A012091200330E040E00C
:1016F00050E0C801B7010E94D91724E630E040E06D
:1017000050E00E942B18F89430932202209321027B
:1017100078942091210330E040E050E0C801B70107
:101720000E94D91724E630E040E050E00E942B18D8
:10173000F894309324022093230278946091150248
:1017400070911602809120020E94FA141F910F914D
:10175000FF90EF900895F999FECF92BD81BDF89A60
:1017600080B590E00895F999FECF90E0880F991F19
:10177000880F991F860F911D80549F4F92BD81BD88
:10178000F89A80B590E008959C0180E0203C3807ED
:1017900028F0C90183709070892B49F4F999FECF24
:1017A00032BD21BD60BDF894FA9AF99A78940895F3
:1017B000EF92FF920F931F93CF93DF93082F8C31FB
:1017C00040F5E82EFF24E701CE5EDC4F188160E093
:1017D0000E94B30B1817E9F0188162E0802F0E9475
:1017E000B30B181738F0188163E0802F0E94B30BF9
:1017F000811728F461E0802F0E94B30B8883EE0CE0
:10180000FF1CEE0CFF1C6881C70180549F4F0E9493
:10181000C40BDF91CF911F910F91FF90EF9008952E
:10182000EF92FF920F931F93CF93DF93082F42E124
:10183000E42E43E0F42EC0E0D0E00023A9F460E001
:101840008C2F0E94B30B182FF701808362E08C2F3E
:101850000E94B30B181740F0F701108163E08C2F42
:101860000E94B30B811730F461E08C2F0E94B30B00
:10187000F70180838C2F0E94D80B2196CC31D105A3
:1018800021F00894E11CF11CD8CFDF91CF911F917A
:101890000F91FF90EF900895EF92FF920F931F9397
:1018A0009C018091080190E02817390799F089017F
:1018B000000F111F0C5F1F4FC80101960E94AB0B58
:1018C000E82EC8010E94AB0BFF243E2D2227280FD3
:1018D000311D04C02091100330911103C9011F91E3
:1018E0000F91FF90EF9008950F931F93CF93DF9385
:1018F000EB01880F991F8038910560F48C010C5F13
:101900001F4FC8010E94C40B6D2F7727C801019695
:101910000E94C40BDF91CF911F910F9108952091E8
:101920002D02207680913002822785FF17C0222366
:1019300011F0203631F480912B0290912C028260BC
:1019400005C080912B0290912C02816090932C0213
:1019500080932B02109232022093300220912D02AC
:101960002E7030912F02231709F464C0222321F135
:10197000332311F5809109018823F1F0243031F4EB
:1019800080912B0290912C0284600FC0223031F4A0
:1019900080912B0290912C02886007C0283061F45E
:1019A00080912B0290912C02806190932C02809365
:1019B0002B0281E080932E0280912E02882319F160
:1019C000343041F42223F9F080912B0290912C02C3
:1019D000806213C0323041F42223A9F080912B029F
:1019E00090912C02806409C0383069F4222359F0A8
:1019F00080912B0290912C02806890932C0280930E
:101A00002B0210922E0280910901882369F0109216
:101A100009018091B2008E5C8093B300B99A8091E5
:101A2000700082608093700020932F021092310228
:101A300010923202089590912F029923A1F480917F
:101A400032028F5F80933202882321F48FEF8093DC
:101A5000320208958A3009F049C080912B0290919A
:101A60002C02906235C0809131028F5F80933102E9
:101A7000882321F48FEF8093310208958430B1F5EB
:101A80009830D1F0993028F4923079F0943071F593
:101A900005C09A30C1F09E3049F51FC080912B02DD
:101AA00090912C028062916013C080912B029091E2
:101AB0002C02806492600CC080912B0290912C02C9
:101AC0008068946005C080912B0290912C029860F0
:101AD00090932C0280932B02089580912B02909179
:101AE0002C02906190932C0280932B0208952098F1
:101AF000289A0000000083B12898209A809587706A
:101B00002091EC0280FF06C024602093EC0280E06C
:101B100090E008952B7F2093EC0281FF03C082E0C8
:101B200090E0089582FF03C083E090E0089581E093
:101B300090E008951F920F920FB60F9211248F9389
:101B400026982E9AF09A000083B180958E76809325
:101B50002D022E98269A8F910F900FBE0F901F90F6
:101B600018951F920F920FB60F9211248F93EF9337
:101B7000FF9381E080930901E0E7F0E080818D7FB1
:101B80008083FF91EF918F910F900FBE0F901F9068
:101B900018950F931F93082F162F811160E08CE288
:101BA0000E94A903802F8150823010F4612F01C060
:101BB00060E085E40E94A903023008F410E0612F80
:101BC0008DE20E94A9031F910F9108951F93182F72
:101BD00080E00E945A0363E0812F0E94A9031F91B5
:101BE00008950E94A20660932E0370932F038093A2
:101BF0003003909331030895982F80913203E82F9A
:101C0000F0E0E631F10508F09CC1E25DFF4FEE0F18
:101C1000FF1F0590F491E02D0994992309F49DC1CB
:101C200083E00E945A030895992309F496C18BE337
:101C30000E94E60D63E081E290EF0E943305089573
:101C4000992319F080E00E945A0380910F0390E0DD
:101C500061E08053984F0E94A2040895992319F0DF
:101C60008BE30E94E60D809132038F3011F441E046
:101C700001C043E060E080910E030E945104809116
:101C80003203803111F441E001C043E062E0809111
:101C90000C0359C0992359F080E00E945A0363E075
:101CA0008BE30E94A90363E083E20E94A903809171
:101CB0003203813111F441E001C043E062E08091E0
:101CC0000B030E94510480913203823111F441E0F0
:101CD00001C043E060E08091040335C0992319F00E
:101CE0008BE00E94E60D80910C01882341F09091D9
:101CF000EB028091EA02981711F463E001C060E002
:101D000088E10E94A90380910C01882311F060E012
:101D100001C063E082E30E94A90360912E037091E9
:101D20002F0380913003909131030E948D038091A5
:101D3000060118165CF463E083E10E94300443E07E
:101D400060E0809106010E94510408958091EC02A8
:101D5000882331F463E08091EA020E946F040895C1
:101D600087FF02C061E00DC082FF03C063E081E134
:101D7000A0C083FF03C063E082E19BC086FFEDC08B
:101D800063E080E196C0992319F08BE30E94E60D91
:101D900063E080911401909115010E94E10408957F
:101DA000992319F080E00E945A030E947E0885362C
:101DB00038F40E947E0843E060E00E94C404089565
:101DC00063E08AE076C0992319F08AE10E94E60D6B
:101DD00061E0809136026DC0992379F080E00E9425
:101DE0005A0363E08BE30E94A90363E083E20E944D
:101DF000A90363E08AE10E94A90380913602982F2B
:101E0000990F990F990F20913A02920F9093080120
:101E10002091390230E0322F22273295307F4091D5
:101E2000370250913802240F351F3093110320934D
:101E300010030E94A2060E948D038FEF8093080179
:101E400080913702909138026CE370E00E94041890
:101E5000CB0161E00E94F503809137029091380236
:101E600025E0803A9207B0F46CE370E00E94041819
:101E7000CB0141E062E00E945104809137029091D1
:101E800038026CE370E00E94041841E060E00E94B8
:101E9000510404C061E089E00E94300461E0809157
:101EA00039024CC0992319F080E00E945A0363E084
:101EB00088E00E9430040895992319F083E00E947D
:101EC0005A03809132038B3011F441E001C043E0AA
:101ED00062E0809135020E941C05809132038C30B3
:101EE00011F441E001C043E0E0913502F0E0EE5E24
:101EF000FC4F60E080810E941C050895992319F031
:101F000083E00E945A03809133020E94C31663E06B
:101F10000E94330561E0809133020E94F503089529
:101F2000992319F08BE30E94E60D61E0809136025F
:101F30000E946F048091320363E082500E94C90DB9
:101F40000895992319F08BE30E94E60D63E08091D8
:101F50001401909115010E94E1040895EF92FF92FF
:101F60000F931F93CF93DF93982F20912B023091E3
:101F70002C0220FF02C011E005C021FF02C01FEFAC
:101F800001C010E0C12FDD27C7FDD095409132037D
:101F9000E42FF0E0E731F10508F08BC1EC5BFF4F77
:101FA000EE0FFF1F0590F491E02D0994992319F08D
:101FB00082E080930A0180910A01882309F016C209
:101FC00081E00BC0992319F082E080930A0180918F
:101FD0000A01882309F00AC28EE08093320301E0EF
:101FE00006C2112329F080910F03810F0E944D0733
:101FF00080912B0290912C0282FFF8C18FE0EDCFEF
:10200000112329F080910E03810F0E9452078091C5
:102010002B0290912C0282FFE9C180E1DECF1123D7
:1020200029F080910C03810F0E94600780912B02A0
:1020300090912C0282FFDAC181E1CFCF112329F0E8
:1020400080910B03810F0E94930580912B02909148
:102050002C0282FFCBC182E1C0CF112341F08091DD
:102060000403810F0E949E0580E00E94A9058091D3
:102070002B0290912C0282FFB9C134C080913402AE
:10208000882331F03770232B09F4B0C18AE0A5CF43
:10209000112329F0463019F4812F0E94DA1620917D
:1020A0002B0230912C0223FD02C000E00BC0809176
:1020B00032038F5F809332038A3018F086E080937A
:1020C000320301E024FF07C08FEF0E94EC1686E088
:1020D0008093320301E080912B0287FF88C18EEF4D
:1020E0000E94EC1686E079CF992351F080912B0362
:1020F000813011F080E002C08091060380933602A7
:1021000084E180933203112361F08091360290E0E4
:1021100008968C0F9D1F68E070E00E94181880934D
:10212000360222FFA9C085E18093320310923A0261
:1021300010922B0380913602882319F081E080935E
:102140002B0389E10E94D80B6EC09923A9F049E3C3
:1021500052E060913A02809136020E9441089093C9
:10216000380280933702815A954030F080EA95E03A
:102170009093380280933702112319F1809137022E
:10218000909138026AE070E00E940418CB018F56EB
:102190009F4F212F332727FD3095820F931F61E931
:1021A00070E00E9404189C0153E0220F331F5A95DF
:1021B000E1F7880F991F280F391F309338022093B9
:1021C000370220912B0230912C0223FF08C080910E
:1021D000390290E00596837090708093390222FF57
:1021E0004BC04091370250913802209139026091E2
:1021F0003A02809136020E94590880913A028F5F1C
:1022000080933A02883068F080913602882331F05A
:1022100067E00E94F8179F5F9093360284E18093F5
:1022200032031092EB0280912B03813011F080E099
:1022300002C0809106030E94F10D33C0992339F04A
:10224000E42FF0E0EF5EFC4F808180933602112393
:1022500089F080913602810F809336028E3318F018
:102260008DE38093360280913602893018F489E03C
:102270008093360222FD02C000E014C0E42FF0E09B
:10228000EF5EFC4F80913602808380913203815053
:102290000E94D80B809132038F5F8093320310929B
:1022A000EB0201E080912B0290912C0284FF9FC0F1
:1022B00019CF80913402882311F000E004C086E039
:1022C0008093320301E0992319F085E080930A019D
:1022D00080910A01882309F08AC004CF24FD02C03E
:1022E00000E007C086E08093320380E00E94100C7B
:1022F00001E080912B0290912C0283FF07C08DE0BA
:102300008093320380E00E94100C01E080912B0248
:1023100090912C0282FF0DC0809132038C3031F4F9
:10232000809135020E94D80B8BE001C08CE0809335
:102330003203809132038B3069F480913502C80FEB
:10234000D11DCE014C966CE170E00E940418809380
:1023500035024DC062E0809135020E94B30B182F08
:10236000E82EFF2463E0809135020E94B30B682FB2
:1023700070E06F5F7F4F6E197F0920913502E22F69
:10238000F0E0EE5EFC4F8081C80FD11DCE19DF0951
:10239000CE01860F971F0E941818180F1083222352
:1023A00031F50E9475031BCE24FD02C000E004C07D
:1023B00086E08093320301E023FF04C08BE080932A
:1023C000320301E08091330290E009968C0F9D1F4B
:1023D00069E070E00E94181880933302112339F0ED
:1023E000FECD992319F081E080930A0100E08091ED
:1023F0002B0290912C022091340293FF0EC08AE0B0
:102400008093320380E0222309F481E08093340238
:1024100010922C0210922B021FC02223F1F494FF81
:102420000AC08BE08093320310922C0210922B0290
:102430001092350211C092FF02C08EE00BC090FFD7
:1024400002C083E107C095FF02C086E003C091FF90
:1024500004C082E08093320301E010922C021092BB
:102460002B02802F90E0DF91CF911F910F91FF9071
:10247000EF9008950F931F9310923303109234033B
:10248000109235031092360390933C0280933B02E6
:1024900000911703602F70E06F5F7F4F8FEF9FE712
:1024A0000E94181870933E0260933D02882777FDC2
:1024B0008095982F10E020E030E0A90198010E945B
:1024C000D9172091180330E040E050E00E944D18E9
:1024D00020933F02309340024093410250934202C6
:1024E0001F910F910895CF92DF92EF92FF920F9379
:1024F0001F93CF93DF93EB019C01261B370B809139
:102500003D0290913E02821793072CF49FEFC92E53
:102510009FE7D92E15C0909581959F4F28173907B1
:102520002CF481E0C82E80E8D82E0AC080911703D1
:1025300090E0289F6001299FD00C389FD00C112477
:10254000442737FD4095542F8091330390913403F5
:10255000A0913503B0913603280F391F4A1F5B1F26
:102560002093330330933403409335035093360361
:1025700080913F0290914002A0914102B0914202AD
:1025800082179307A407B50764F0B095A0959095BE
:1025900081959F4FAF4FBF4F281739074A075B07F9
:1025A00044F48093330390933403A0933503B093A2
:1025B00036036091180370E080E090E020913303CF
:1025C0003091340340913503509136030E94D9175E
:1025D0007B018C0120913B0230913C022C1B3D0B76
:1025E0008091190390E0289FB001299F700D389FBA
:1025F000700D1124D0933C02C0933B02882777FDD5
:102600008095982F6E0D7F1D801F911F9601442786
:1026100037FD4095542F620F731F841F951F209123
:102620001A0330E040E050E00E944D1857FF04C00C
:1026300020E030E040E050E025363105410551050D
:1026400024F024E630E040E050E0822F992787FD17
:102650009095DF91CF911F910F91FF90EF90DF90B8
:10266000CF9008951F920F920FB60F9211248F935F
:10267000EF93FF93E1ECF0E08081877B8083FF9113
:10268000EF918F910F900FBE0F901F9018959C01A6
:1026900040E050E094E0220F331F441F551F9A95ED
:1026A000D1F760E079E08DE390E00E942B18215093
:1026B0003040832F99278093C5002093C40086E083
:1026C0008093C200EBE6F0E0808181608083089512
:1026D000F8948091C10085FD0FC08091C1008F7B6F
:1026E0008093C1008091C00080648093C00080917D
:1026F000C10088628093C100789408951F920F9260
:102700000FB60F9211242F933F934F935F936F93C4
:102710007F938F939F93AF93BF93EF93FF930E9409
:102720000014882319F08093C6000FC08091C10067
:102730008F7D8093C1008091C00080648093C00031
:102740008091C10080648093C100FF91EF91BF919F
:10275000AF919F918F917F916F915F914F913F9139
:102760002F910F900FBE0F901F9018951F920F92F0
:102770000FB60F9211242F933F934F935F936F9354
:102780007F938F939F93AF93BF93EF93FF9380912A
:10279000C6000E941314E1ECF0E080818F76808304
:1027A000EBE6F0E0808181608083FF91EF91BF9143
:1027B000AF919F918F917F916F915F914F913F91D9
:1027C0002F910F900FBE0F901F901895582FF894CF
:1027D00040914302E42FF0E09F012F5F3F4F2F779E
:1027E00030708091440290E02817390739F0E95B96
:1027F000FD4F50834F5F4F77409343027894089585
:102800002091440280914302821711F480E009C0B4
:10281000E22FF0E0E95BFD4F80812F5F2F7720935F
:10282000440290E00895282F8823D1F08D3009F4D8
:102830002AE080914502E82FF0E0E953FD4F208324
:10284000982F9F5F9F719093450280914602981741
:1028500021F49F5F9F71909346022A3009F4F69A03
:102860000895F8942091460280914502821711F450
:1028700080E009C0E22FF0E0E953FD4F80812F5F37
:102880002F7120934602789490E008951F93182F9B
:10289000843658F064E60E94F817805D0E94E613C3
:1028A000812F64E60E94F817192F812F6AE00E9499
:1028B000F817805D0E94E613812F6AE00E94F817E6
:1028C000892F805D0E94E6131F9108950F931F9337
:1028D0008C0164E670E00E940418CB010E9446144B
:1028E000C80164E670E00E9404180E9446141F911B
:1028F0000F9108951F93182F82958F708A3010F0D2
:10290000895A01C0805D0E94E613812F8F708A3042
:1029100010F0895A01C0805D0E94E6131F9108954E
:102920000F931F938C01812F99270E947A14802F77
:102930000E947A141F910F910895CF93DF93EC01B9
:1029400003C00E94E6132196FE0184918823C9F7F3
:10295000DF91CF91089585E791E00E949D1408953D
:102960000F931F93082F10E01FC00E943114982F5F
:10297000282F20532A3038F08156863010F4275201
:1029800002C0892F1AC0E12FE69510FF06C0F0E0C3
:10299000E951FD4F8081280F05C0F0E0E951FD4F5E
:1029A0002295207F20831F5F1017F9F60E943114B3
:1029B0008A3019F480E090E001C090E01F910F91FF
:1029C00008950E94E6138BE50E94E6138091E702CA
:1029D0000E947A148DE50E94E6138DE30E94E613AF
:1029E00008959091430280914402981711F00E943B
:1029F00068130895CF93DF93EB01181614F48BE25C
:102A000003C0882319F08DE20E94E61380E20E9441
:102A1000E613CE010E9490148AE00E94E6130E9401
:102A2000F114DF91CF9108951F93182F88ED91E055
:102A30000E949D148091060380530E947A1480E2C4
:102A40000E94E61380910C030E9446148EE20E94BD
:102A5000E61380910E030E9446148EE20E94E61354
:102A600080910F030E94461480E20E94E613809139
:102A70000B030E9446148AE30E94E613809104032C
:102A80000E9446148AE30E94E61380910D030E947F
:102A9000461483ED91E00E949D1417FD02C0812F22
:102AA00002C0809110010E9446148EEC91E00E94B9
:102AB0009D1480911401909115010E94661489EC77
:102AC00091E00E949D1490910B019D3328F084ECBD
:102AD00091E00E949D1406C082E3989FC0011124DA
:102AE0000E9466148FEB91E00E949D148091120168
:102AF000909113010E9466148091EC02882341F0AA
:102B00008BEB91E00E949D148091EC020E947A145C
:102B100017FF04C088EB91E00E949D148AE00E9498
:102B2000E6130E94F1141F9108951F9316C11D34DE
:102B300009F4EEC01E3488F4143459F1153438F415
:102B4000113409F4F4C0123409F005C1C5C01734BA
:102B5000A1F1183409F0FFC0A9C0143501F11535F1
:102B600038F4123509F452C0133509F0F4C025C009
:102B7000173509F44BC0193509F485C0163509F02D
:102B8000EAC00E9431148A3009F0E5C00E94AB14FB
:102B9000E2C00E9431148A3009F0DDC099C082E0A1
:102BA0000E94B014882309F0DFC084E50E94E1147C
:102BB0008091E7020E94C31663C0173439F482E0A3
:102BC0000E94B014882309F0CFC014C084E00E9492
:102BD000B014882309F0C8C09091E7029C3150F4EA
:102BE000E92FF0E0EE5EFC4F8091E8028083892FB0
:102BF0000E94D80B812F0E94E114E091E702F0E0DF
:102C0000EE5EFC4F80810E947A14AEC0123539F41A
:102C100082E00E94B014882309F0A6C01EC086E09E
:102C20000E94B014882309F09FC02091E80280918F
:102C3000E702422F50E04F705070542F442790917C
:102C4000E902490F511D682F6F7022952F708295F0
:102C50008F700E9459081092EB02812F0E94E1149C
:102C60002091E702822F82958F7090E033E0880FE9
:102C7000991F3A95E1F72F70820F911D0E944C0C1D
:102C80000E94901471C086E00E94B014882309F05D
:102C90006BC08091E7020E944D078091E8020E947C
:102CA00052078091E9020E94600712C086E00E94EC
:102CB000B014882309F058C08091E7020E94930560
:102CC0008091E8020E949E058091E9020E94A90578
:102CD0008FEF0E9414153FC084E00E94B014882337
:102CE00009F042C08091E702833109F03DC0809134
:102CF000E8028432C9F5F89488E190E028E00FB644
:102D0000F894A895809360000FBE20936000FFCFD9
:102D100082E00E94B014882339F590E08091E702A8
:102D2000813009F491E0892F0E94EC1610C082E0F6
:102D30000E94B0148823C1F49091E7029930A0F06A
:102D40009E3390F48AE080930D019093EA028FEF16
:102D50000E94141509C00E94F1140E943114182F0A
:102D6000882309F0E4CE04C08AE00E94E613F3CF82
:102D70001F9108950E94AB1480E895E20E944713CA
:102D80000E94F1140895893018F080E090E00895D1
:102D9000E82FF0E0EE0FFF1FE452FE4F8591949173
:102DA000FC01FF7797FF03C08081918108958081A6
:102DB00090E008959091EA02980F9093EA0299307A
:102DC00010F489E003C09E3318F08DE38093EA028B
:102DD0008AE080930D0108958F3F21F520910C0129
:102DE000222331F09091EA028091EB02981749F08A
:102DF0008091EA028093ED028091EB028093EE02D3
:102E000004C01092ED021092EE0280E0222309F439
:102E100081E080930C018823E1F08091EB028093A4
:102E2000EA0217C08E3F99F420910C01222331F45D
:102E30009091EE028091EB02981721F48091ED02BF
:102E40008093EA0210920C01222319F481E080930E
:102E50000C018AE080930D0108951F93162F88239B
:102E600021F48091EB028823E9F490E08091EB0259
:102E7000811191E0892F0E945F06982F882391F09D
:102E80008093EB0280910C01882361F09093EA0219
:102E900080910D0187FF06C080910B01981711F0FA
:102EA00010920D0180910E0190910F01009729F071
:102EB000019790930F0180930E0180910D011816D8
:102EC0001CF4815080930D0180910E0190910F01AF
:102ED000892B29F080910D01882309F042C090913F
:102EE000EA0280910B01981761F090930B01809199
:102EF0001401909115010E943A1210920F01109244
:102F00000E0180910E0190910F01892B21F5809186
:102F10001B0325E0829FC001112490930F01809331
:102F20000E019091EA029A3038F460911401709188
:102F3000150184EF91E00CC09D3310F014E60BC036
:102F4000609114017091150182E3989FC0011124D2
:102F50000E947312182F8FEF80930D01812F0E9412
:102F60001415409112015091130180912C0324E11A
:102F7000829FC00111242091EC024817590710F4D8
:102F8000206401C02F7B2093EC0280912D0324E16B
:102F9000829FC00111242091EC024817590710F4B8
:102FA000206801C02F772093EC02812F90E01F91C1
:102FB0000895629FD001739FF001829FE00DF11D83
:102FC000649FE00DF11D929FF00D839FF00D749FA3
:102FD000F00D659FF00D9927729FB00DE11DF91F4F
:102FE000639FB00DE11DF91FBD01CF0111240895AC
:102FF000991B79E004C0991F961708F0961B881F4B
:103000007A95C9F780950895AA1BBB1B51E107C0AB
:10301000AA1FBB1FA617B70710F0A61BB70B881F68
:10302000991F5A95A9F780959095BC01CD010895F7
:1030300097FB092E07260AD077FD04D0E5DF06D0DE
:1030400000201AF4709561957F4F0895F6F79095DA
:1030500081959F4F0895A1E21A2EAA1BBB1BFD016B
:103060000DC0AA1FBB1FEE1FFF1FA217B307E40767
:10307000F50720F0A21BB30BE40BF50B661F771FBF
:10308000881F991F1A9469F760957095809590959F
:103090009B01AC01BD01CF01089597FB092E0526C8
:1030A0000ED057FD04D0D7DF0AD0001C38F450955D
:1030B0004095309521953F4F4F4F5F4F0895F6F75C
:1030C00090958095709561957F4F8F4F9F4F089594
:0230D000FFCF30
:1030D200FF7FFF7F0101FE05FF0102FF01101000CB
:00000001FF
