:100000000C940F010C942C010C946F090C94F80DB6
:100010000C940F0E0C9400060C942C010C942C01E3
:100020000C942C010C942C010C942C010C940B0AB4
:100030000C942C010C945F140C9427140C94DB1377
:100040000C942C010C942C010C942C010C946D0339
:100050000C942C010C942C010C94A9055F0E660ED7
:1000600008100810081008100A0FC20E390F460FAA
:100070009C0ECA0FD20FD20FF60F720E800E800E9A
:100080009C0E9C0E1810590F640F3E104A108D11D3
:100090008D118D118D11A810A810A810A810A810EE
:1000A000C811DD11DD113A1256106510741083105D
:1000B0009210E310F21014112B1700173F175D1662
:1000C0003F173F177116EA163F173F173F173F17A5
:1000D0001C173F173F173F173F179A1671166316E5
:1000E0003F1755169A163F17D7163F065B4F666D9A
:1000F0007D077F6F777C395E797163547376300842
:100100004001484109495054105C00332738583E9B
:10011000786E2001160720160116201602162016EA
:10012000031620160416201605162016061620168D
:1001300007160B011F241616161620160C16200E75
:100140001C1C000F0F20001D202000120E1D0B0A8A
:100150002626200E0220200E032028241F1B020327
:100160001B191800010002030405060708090A39D3
:1001700035423E0C0D0E0F1011121314151F1C1FCB
:100180001E1F1E1F1F1E1F1E1F00001F003B005AA8
:100190000078009700B500D400F300110130014E43
:1001A00001563A204F70656E485232302053572026
:1001B00076657273696F6E20302E383120627569F2
:1001C0006C64204E6F76203233203230303820324B
:1001D000313A34323A34372052657639315F4A4405
:1001E0000A0020570020580020453A0020423A20BB
:1001F00000424F4F540020533A200020493A20003B
:1002000020563A2000443A2000128110813D833B61
:10021000833983ED020801EE021782158200112452
:100220001FBECFEFD4E0DEBFCDBF11E0A0E0B1E054
:10023000ECE0F3E302C005900D92AE30B107D9F7C0
:1002400013E0AEE0B1E001C01D92A134B107E1F7C7
:100250000E942E010C9485190C9400001F9390E8C5
:100260009093610081E08093610090BF8FEF809355
:100270007E008DE08093640088E183BB9EE09DB9A1
:1002800083E08EB988E080BB83EF81BB95B981EDB7
:1002900084B98EE280936C0080EC8DBB0E9468076D
:1002A00083B120E090E0809590958E7090700E97CD
:1002B00009F421E0822F0E94700C81E00E945B0A09
:1002C0000E948F031EBA78940E944E1783E00E940A
:1002D00074038091E40088608093E40081E080935F
:1002E0001202F8948EB3882339F584B590E08770B4
:1002F0009070892B21F48091C100887111F081E008
:1003000007C080910F01882311F083E001C087E0CE
:1003100083BF80910F01813039F410920F018091D9
:100320007A00806480937A007298789488950000AF
:10033000729A86E083BF01C07894F39B04C0F3985F
:100340000E945F05CECFF29B04C0F2980E94D202B9
:10035000C8CFF69B04C0F6980E944616C2CFF59B04
:1003600004C0F5980E94C00ABCCFF49B08C0F49862
:100370000E94D50D0E945B0A0E947E0BB2CFF09BBB
:1003800003C0F0980E94ED0CF19B38C0F1980E94D8
:10039000D407182F60910E010E94C51780930E019B
:1003A000112371F080910A03863051F480910F037C
:1003B0008A3031F480910803882311F40E945B0A8B
:1003C0000E94D50D0E945B0A80910E010E940809CF
:1003D0000E94790D0E94C10280910601882319F0C4
:1003E00081508093060180E00E94510E8091E400CC
:1003F00088608093E40081E0809312028091330250
:1004000090913402892B29F480910601882309F008
:1004100068CF80E00E941A10182F882319F081E01D
:100420000E941A10812F0E94510E53CFA0E0B0E01D
:10043000ECE1F2E00C944E194B01C82EDD2456017C
:10044000AA0CBB1CAA0CBB1C28E131E0A20EB31EF7
:10045000F50180819181A281B3817B010027F7FCA6
:100460000095102FE80EF91E0A1F1B1FE082F18273
:1004700002831383409100014F30F0F180912001FD
:10048000C82FD0E0CE018D966CE370E00E94F81882
:100490002CE330E0B901C69E9001C79E300DD69E78
:1004A000300D1124F901E80FF91FEE0FFF1FEE5D6B
:1004B000FE4F80819181AA2797FDA095BA2FE81A57
:1004C000F90A0A0B1B0BF501E082F1820283138308
:1004D0004C3390F0F601EE0FFF1FEC5EFE4FC20FA3
:1004E000D31FCC0FDD1FCE5DDE4F88819981940133
:1004F000281B390B31832083209120018CE390E06D
:10050000C89EF001C99EF00DD89EF00D1124E20F97
:10051000F11DEE0FFF1FEE5DFE4F91828082F6010E
:10052000EE0FFF1FEE0FFF1FE85EFE4F608171812F
:10053000828193814F3028F02FE030E040E050E09E
:1005400004C0242F30E040E050E0CC0CDD1CE0E1A2
:10055000F1E0CE0EDF1E0E942D19F60131832083BB
:10056000ECE0CDB7DEB70C946A199C0140E050E096
:1005700060E070E381E190E00E940B19DA01C901AB
:10058000089591E0909321018CE0809364008CE8C1
:1005900080937A0010927B008EE580937C0090938C
:1005A0000F010895CF92DF92EF92FF920F931F9366
:1005B000809121018F5F80932101833049F0843045
:1005C000F9F0823009F079C08DE880937A0014C088
:1005D000209178008091790090E0982F882730E072
:1005E000822B932B0E94B502BC0180E00E94160270
:1005F0008B9A82E480937C0081E080930F0163C03A
:10060000809178002091790030E0722F662790E089
:10061000682B792B80912803482F50E040505F4F82
:10062000A1E0B0E02A2FFD01E85DFC4F8081FA01D6
:10063000E80FF11D6E177F0730F0AF012F5F1196A5
:10064000A630B10579F730E0F901E85DFC4FE080B4
:100650008CE09EEF289F6001299FD00C389FD00C22
:10066000112480EA9FE0C80ED91E641B750B80E040
:1006700090E02CE03EEF4FEF5FEF0E94AC18FF24BC
:1006800000E010E0A80197010E942D19C20ED31EB0
:10069000B60181E00E9416028091200190E001964F
:1006A0006CE370E00E94F8188093200180910001B3
:1006B0008C3318F48F5F809300018B988DE08093CA
:1006C0007A008093640080910F0190E01F910F9158
:1006D000FF90EF90DF90CF9008950F9300E0F29A93
:1006E00000930F010F911895833011F42FEF01C083
:1006F00020E080E090E0FC01EA50FD4F208321875C
:10070000019689309105B9F791E0909301018091AC
:10071000E40088608093E40090931202089580E0E2
:100720000E947403809116038093E70085EA80930A
:10073000E50086E08093E600E4EEF0E080EC808364
:1007400080818860808381E0809301010895EF9229
:10075000FF920F93CF93DF937B01082FC5E6D1E083
:10076000FE01849166270695F794E79408F463E008
:100770000E94C3032196CD3799F7DF91CF910F9156
:10078000FF90EF900895782F7695769576958770FF
:1007900021E030E001C0220F8A95EAF7462FE72FCB
:1007A000F0E060FF05C0EA50FD4F8081822B06C05B
:1007B000EA50FD4F9081822F809589238083E72F17
:1007C000F0E041FF05C0EA50FD4F8185282B05C0B0
:1007D000EA50FD4F818520952823218780910101D2
:1007E000813021F46330D1F06623C1F06150623072
:1007F00048F020E030E0F901EA50FD4F908181851A
:10080000981721F082E08093010108952F5F3F4FF8
:100810002930310581F781E0809301010895E5E6F3
:10082000F1E0E80FF11DE4918E2F0E94C3030895BB
:10083000EF92FF920F931F93CF93DF93E42E6430D8
:1008400010F5883200F5E62FF0E0E65AFE4FF490FE
:10085000E82FF0E0E651FF4F0491CEE5D1E011E042
:10086000FE019491812F802311F06E2D01C060E074
:10087000892F8F0D0E94C3032196F1E0C536DF0753
:1008800011F0110FEDCFE6E0CDB7DEB70C94701983
:100890000F931F93CF93DF93062FC82FD0E0CC0F79
:1008A000DD1FCC0FDD1FCE5EDE4F13E0FE01849115
:1008B000402F612F0E941804115021961F3FB1F75D
:1008C00060E08BE30E94C303DF91CF911F910F91F2
:1008D0000895FF920F931F93082F162FF42E633065
:1008E00090F4843680F46AE00E94CB18612F892F3F
:1008F0000E9418041F5F802F6AE00E94CB184F2DC2
:10090000612F0E9418041F910F91FF9008950F937B
:100910001F93082F162F893011F48CE007C08D33F8
:1009200011F48DE003C08E3320F08BE00E94480468
:100930001EC0462F62E086950E94690400FF02C037
:1009400085E001C080E0412F61E00E94180404317D
:1009500028F4412F63E080E20E941804412F60E0F8
:100960008CE00E941804612F8BE30E94C3031F9147
:100970000F9108951F93CF93DF93162FEC0187E219
:10098000C031D80710F0CFE0D7E2CE0164E670E0C6
:100990000E94E418CB01412F62E00E946904CE015D
:1009A00064E670E00E94E418412F60E00E94690450
:1009B000DF91CF911F910895FF920F931F93082FFE
:1009C000162FF42E623088F4262F2E5F64E60E94E4
:1009D000CB18622F0E941804802F64E60E94CB1867
:1009E0004F2D612F892F0E9469041F910F91FF9055
:1009F00008950F931F93CF93DF93162F27E2803133
:100A0000920714F08FE097E2EC018CEFC931D80720
:100A100014F4C9E1DCEF00E0D7FF04C001E0D09599
:100A2000C195DF4FCE016AE070E00E94F818CB015B
:100A3000412F61E00E94DC04002321F0412F63E09C
:100A400086E106C0C85ED3402CF4412F63E080E20B
:100A50000E941804412F60E08CE00E941804DF918E
:100A6000CF911F910F910895FF920F931F93F82E2E
:100A7000162F042F633058F48F700E9418041F5FE4
:100A8000402F612F8F2D82958F700E9418041F9127
:100A90000F91FF900895FF920F931F938C01F62EF4
:100AA000812F9927462F62E00E9434054F2D60E088
:100AB000802F0E9434051F910F91FF90089580911F
:100AC00013028F5F809313028D3058F080911402CF
:100AD0008F5F8170809314021092130281E08093E3
:100AE000120280911202882351F110921202809119
:100AF000140290E0FC0123E0EE0FFF1F2A95E1F7BE
:100B0000E80FF91FEA50FD4F80818093EC0081814E
:100B10008093ED0082818093EE0083818093F100C9
:100B200084818093F20085818093F3008681809395
:100B3000F60087818093F70080858093F80080918C
:100B40000101813029F48091E400877F8093E400E3
:100B50000895F39A1895992787FD9095489668E12E
:100B600070E00E94F81880930F030895992787FD7D
:100B70009095CC966CE370E00E94F818809308037F
:100B80000895992787FD9095CC966CE370E00E94BC
:100B9000F81880931103089580911203E82FF0E074
:100BA000E358FE4F2491823051F48091130390E07A
:100BB00083709070892B19F48DE190E00895822F55
:100BC00090E0089580910A038730B1F0809112037C
:100BD000833039F420E030E080911003893170F0E7
:100BE00008C08A3049F420E030E080911003883159
:100BF00028F021E030E002C020E030E0C901089593
:100C0000F19A1895A0E0B0E0E8E0F6E00C944919FC
:100C1000F82E5B01882319F048E0342E02C032E040
:100C2000332E55245A946624CF2CDD24860123E0EC
:100C3000000F111F2A95E1F7702E98E0492E400E03
:100C400088249924C0E0D0E012C090E00E94AA0C51
:100C50009F7025E0803A920748F48815990530F096
:100C6000A816B90618F05E2C500E4C012196EC2EF9
:100C70008C2F870D841548F357FE11C0FF2041F0DB
:100C8000C601059667E070E00E94F818F82EF3940C
:100C9000639480EAA82E85E0B82E631429F6852D8A
:100CA00090E0E1E1CDB7DEB70C946519FF920F93A8
:100CB0001F93CF93DF93F82E90910F038CE3989FAF
:100CC000E001112480910803C80FD11D80912F03EA
:100CD000813011F000E002C000910A03BE01802FB4
:100CE0000E940206182F992787FD90950E94AA0C52
:100CF000FC0117FD16C0FF2049F09F708C179D075F
:100D000081F4159515951595101759F4EF2FFF27B8
:100D1000E295EF70E370F070E95EFC4F808190E047
:100D200002C080E090E0E5E0CDB7DEB70C94711929
:100D3000A0E0B0E0EEE9F6E00C945219C82EC0EA4B
:100D4000D5E077E1D72EEE24FF248701BE018C2D5C
:100D50000E94020687FF03C080E090E005C099274B
:100D600087FD90950E94AA0C9C01207030739F70A3
:100D70008C179D0718F0CFEFDFEF02C0EC01219731
:100D80008CE34D2D4802C001112414C050E22030E4
:100D9000350740F041E050E060E070E0E42AF52AD9
:100DA000062B172B1D1424F4EE0CFF1C001F111F23
:100DB000DA94CC97C817D9074CF31C161D0634F2E9
:100DC000C801B701E8E0CDB7DEB70C946E190E94F8
:100DD00098066093340370933503809336039093A1
:100DE000370308950F931F93CF93DF9380911203DE
:100DF000E82FF0E0EE0FFF1FE957FE4FC591D491A9
:100E000090911003C90FD11D833040F080911303DE
:100E100090E083709070892B09F42196E091130380
:100E2000F0E08F0101501040C80164E070E00E94C2
:100E3000F8189B012E0F3F1FC80164E670E00E9466
:100E4000F818261B370B2B5F3F4FC9018C0F9D1FD6
:100E500067E070E00E94E418282F2F5F20930A03B8
:100E600080912F03813009F020E0822F0E94E70655
:100E7000DF91CF911F910F910895809313030E94EA
:100E8000F2060895992787FD90950B966CE070E027
:100E90000E94F8188F5F809312030E94F206089553
:100EA0000F931F93082F0E94CC05682F70E0CB0191
:100EB0000197112707FD1095800F911F0E94F818C8
:100EC0008F5F809310030E94F2061F910F91089587
:100ED000809170008E7F8093700088E08093B600D0
:100EE0001092B2008091B00085608093B000209194
:100EF000B6008091B60090E08470907030E0217070
:100F00003070822B932B892B91F78FEF87BB8091C9
:100F1000700081608093700010920B0310920C039C
:100F200010920D0310920E038CE080930F03109229
:100F300008031092110381E0809310038AE08093EC
:100F4000120388E0809313030E94F20608950E9422
:100F5000CC05909110039F5F90931003891798F42C
:100F600091E090931003809112038F5F809312039E
:100F70008D3038F090931203809113038F5F80932C
:100F800013031092090380910A0367E00E94CB18B3
:100F90009F5F90930A0380912F03813009F090E0C6
:100FA000892F0E94E70608951F9380910B0390916B
:100FB0000C03A0910D03B0910E030196A11DB11D6C
:100FC00080930B0390930C03A0930D03B0930E0337
:100FD000809111038F5F809311038C3318F480E0AC
:100FE00090E03BC010921103809108038F5F8093C3
:100FF00008038C3380F11092080380910F038F5FF8
:1010000080930F03883120F010920F030E94A707EE
:1010100010911203133059F480910F038230D9F4E8
:101020000E94E2058823B9F010930F0314C01A3010
:1010300091F480910F03833071F480910903882328
:1010400051F40E94E205882331F082E080930F037F
:1010500081E08093090381E090E01F9108950F9350
:101060001F938A0190E023E0880F991F2A95E1F7EA
:10107000860F911D0E94AA0C9C01232F33272295D5
:101080002F70F80120839F701F910F910895362FC4
:101090008830F8F46830E8F42430D8F495E04C3D1A
:1010A000590710F04FEF5FE0622F70E0762F662750
:1010B0007295707F642B752B90E043E0880F991F29
:1010C0004A95E1F7830F911D0E94D20C81E090E0D8
:1010D000089580E090E00895409115025091160225
:1010E0004B305105ECF0809102018823C9F4209126
:1010F000200230912102F90193E0EE0FFF1F9A9533
:10110000E1F7CA016AE070E00E94F818220F331F6D
:10111000C9018E0F9F1F0E94F818862F90E0089536
:101120008FEF90E008958091150290911602892B1F
:1011300019F480E090E0089590E08091020181111F
:1011400091E081E09827892F90E00895282F882347
:1011500079F410926E0080916B008F7E80936B000B
:10116000739814BA2F9888E484BD109224020895CD
:1011700080912402821709F44AC010922D02109225
:101180002E0210922F02109230028EEF9FEF90935A
:1011900032028093310210921A02109219022093A7
:1011A0002402739AA0E0B0E02F3F11F0A1E0B0E07C
:1011B000AA0FBB1FFD01EB5DFD4F80819181880F60
:1011C000991F880F991F90931C0280931B02A75DA3
:1011D000BD4F8D919C9190931E0280931D0281E0E2
:1011E00085BB16BC80936E002F3F49F488E084BB1A
:1011F0002F988091210387BD89E684BD089580E101
:1012000084BB2F9A8091200387BD89E784BD089510
:10121000282F80910201882319F080E090E0089542
:10122000243689F48091230320911502309116020F
:10123000280F311D80912203281B3109309323028E
:10124000209322022FC080912203222351F490E0A8
:1012500020912303821B9109909323028093220201
:1012600021C0E82FF0E080911502909116028E1BAC
:101270009F0B8E1B9F0B959587959595879530E0D5
:10128000AC01429FC001439F900D529F900D1124CD
:1012900069E170E00E94F818E60FF71FF09323024F
:1012A000E0932202809124028823B1F4209120024D
:1012B000309121028091220290912302821793079C
:1012C00014F48FEF04C02817390734F481E00E942A
:1012D000A60881E090E0089581E090E008951F92D3
:1012E0000F920FB60F9211242F933F934F938F932A
:1012F0009F93EF93FF934CB1242F30E040FD0AC041
:101300008091C10080698093C10080916B008E7FC5
:1013100080936B0080916B0084FF6FC020713070F0
:1013200080911F0290E08095909528233923232BEC
:1013300009F463C02091200230912102809124029F
:10134000992787FD9095820F931F90932102809398
:1013500020028091190290911A02909318028093B2
:10136000170210921A0210921902F49A80916B00DF
:101370008F7E80936B00209120023091210280911A
:101380002202909123022817390799F48FEF9FEFDB
:1013900090931E0280931D0280912402E0E0F0E011
:1013A0008F3F11F0E1E0F0E0EE0FFF1FE75DFD4F32
:1013B0001EC080912402E0E0F0E08F3F11F0E1E0F8
:1013C000F0E0EE0FFF1FE75DFD4F8081918190936C
:1013D0001E0280931D0280912402E0E0F0E08F3F26
:1013E00011F0E1E0F0E0EE0FFF1FEB5DFD4F8081BB
:1013F000918190931C0280931B0240931F02FF91E6
:10140000EF919F918F914F913F912F910F900FBE30
:101410000F901F9018951F920F920FB60F921124E4
:101420002F938F939F938091190290911A020196A6
:1014300090931A028093190280911B0290911C02D2
:10144000892BF9F080911B0290911C0201979093D7
:101450001C0280931B0280911D0290911E02009736
:1014600051F02FEF8F3F9207F1F0019790931E02FA
:1014700080931D0218C010921F0280916B00806142
:1014800010C08091190290911A02909318028093D3
:10149000170214BA2F9888E484BDF59A80916B00E6
:1014A0008F7E80936B009F918F912F910F900FBE35
:1014B0000F901F9018951F93182F8823B9F480E080
:1014C0000E94A60810922102109220021092160289
:1014D000109215028EEF8093020185E08093030144
:1014E0008091F002877F8093F00248C080910301D1
:1014F000882321F081508093030124C08091020150
:10150000813001F580E09CE09093260280932502D3
:10151000909328028093270288E790E090932A0214
:101520008093290290932C0280932B0282E0809377
:10153000020188EE93E0909323028093220281E0DF
:101540000E94A608809102018E3FC1F4133069F415
:101550008FEF9FEF909327038093260380E10E94F3
:101560003A0C81E10E943A0C06C0123021F410922C
:1015700027031092260381E0809302011F910895B2
:101580001F93CF93DF931091240280E00E94A6085E
:1015900080911D0290911E028F5F9F4FD1F4809128
:1015A0000201833051F4809126039091270318168D
:1015B000190634F41092020183C0882309F480C014
:1015C0008FEF809302018091F00288608093F00297
:1015D00077C0113009F045C0C0912002D09121029E
:1015E000809102018230E1F48FEF0E94A608809181
:1015F000260390912703181619061CF480E090E04A
:1016000003C0CE01885E9340909323028093220210
:10161000D0931602C093150283E08093020150C05C
:101620008091260390912703892B91F4C436D1052C
:101630007CF0D0931602C0931502D0932703C09379
:10164000260380E10E943A0C81E10E943A0C38C0E6
:1016500080911502909116029093210280932002AE
:101660002FC01F3F69F5809102018330B1F41092C1
:101670000201809126039091270397FF0EC02091CD
:101680002002309121028091150290911602821B56
:10169000930B9093160280931502809120029091F3
:1016A00021028536910544F08FEF809302018091ED
:1016B000F00288608093F0021092210210922002C2
:1016C00080910201882379F480911502909116028D
:1016D0008436910544F48FEF809302018091F002EB
:1016E00088608093F002609117027091180280E088
:1016F0000E94A315DF91CF911F910895A0E0B0E063
:10170000E4E8FBE00C945319D09024028091170276
:101710009091180281529E4408F072C0609131028B
:101720007091320277FD1AC0209117023091180291
:1017300040E050E080912D0290912E02A0912F0266
:10174000B0913002820F931FA41FB51F80932D020A
:1017500090932E02A0932F02B09330029B012F5F33
:101760003F4F3093320220933102243031050CF484
:1017700047C0DD2009F444C0442737FD4095542F6D
:1017800060912D0270912E0280912F029091300273
:101790000E940B1979018A012091240330E040E076
:1017A00050E0C801B7010E94AC1824E630E040E0E8
:1017B00050E00E940B19F894C0E0D0E08FEFD816EB
:1017C00011F0C1E0D0E0CC0FDD1FFE01EB5DFD4F5D
:1017D0003183208378942091250330E040E050E06D
:1017E000C801B7010E94AC1824E630E040E050E0A8
:1017F0000E940B19F894C75DDD4F398328837894D4
:101800006091170270911802809124020E94A31522
:10181000E7E0CDB7DEB70C946F19F999FECF92BD12
:1018200081BDF89A80B590E00895F999FECF90E0D7
:10183000880F991F880F991F860F911D80549F4F05
:1018400092BD81BDF89A80B590E008959C0180E03A
:10185000203C380728F0C90183709070892B49F427
:10186000F999FECF32BD21BD60BDF894FA9AF99A7C
:1018700078940895EF92FF920F931F93CF93DF9385
:10188000082F8E3140F5E82EFF24E701CA5EDC4FB9
:10189000188160E00E94150C1817E9F0188162E0C9
:1018A000802F0E94150C181738F0188163E0802FE4
:1018B0000E94150C811728F461E0802F0E94150CFE
:1018C0008883EE0CFF1CEE0CFF1C6881C70180545E
:1018D0009F4F0E94260CE6E0CDB7DEB70C9470193E
:1018E000EF92FF920F931F93CF93DF93082F46E160
:1018F000E42E43E0F42EC0E0D0E00023A9F460E041
:101900008C2F0E94150C182FF701808362E08C2F1A
:101910000E94150C181740F0F701108163E08C2F1E
:101920000E94150C811730F461E08C2F0E94150C79
:10193000F70180838C2F0E943A0C2196CE31D1057D
:1019400021F00894E11CF11CD8CFE6E0CDB7DEB75A
:101950000C947019EF92FF920F931F939C0180914A
:10196000040190E02817390799F08901000F111F31
:101970000C5F1F4FC80101960E940D0CE82EC80194
:101980000E940D0CFF243E2D2227280F311D04C07C
:101990002091140330911503C9011F910F91FF90FD
:1019A000EF9008950F931F93CF93DF93EB01880F70
:1019B000991F8038910560F48C010C5F1F4FC8019E
:1019C0000E94260C6D2F7727C80101960E94260CD5
:1019D000DF91CF911F910F910895209135022076CC
:1019E00080913802822785FF17C0222311F020360C
:1019F00031F48091330290913402826005C080916D
:101A000033029091340281609093340280933302C8
:101A100010923A0220933802209135022E703091B4
:101A20003702231709F464C0222321F1332311F56F
:101A3000809105018823F1F0243031F48091330244
:101A40009091340284600FC0223031F480913302CF
:101A500090913402886007C0283061F4809133028D
:101A6000909134028061909334028093330281E03C
:101A70008093360280913602882319F1343041F484
:101A80002223F9F08091330290913402806213C0D6
:101A9000323041F42223A9F0809133029091340234
:101AA000806409C0383069F4222359F080913302F0
:101AB00090913402806890933402809333021092A4
:101AC000360280910501882369F01092050180910A
:101AD000B2008E5C8093B300B99A809170008260EE
:101AE00080937000209337021092390210923A02CC
:101AF0000895909137029923A1F480913A028F5F63
:101B000080933A02882321F48FEF80933A0208955C
:101B10008A3009F049C0809133029091340290627A
:101B200035C0809139028F5F80933902882321F478
:101B30008FEF8093390208958430B1F59830D1F059
:101B4000993028F4923079F0943071F505C09A30CC
:101B5000C1F09E3049F51FC080913302909134024C
:101B60008062916013C0809133029091340280644E
:101B700092600CC08091330290913402806894602E
:101B800005C08091330290913402986090933402A2
:101B900080933302089580913302909134029061D2
:101BA000909334028093330208952098289A00007D
:101BB000000083B12898209A809587702091F002C8
:101BC00080FF06C024602093F00280E090E008953A
:101BD0002B7F2093F00281FF03C082E090E0089504
:101BE00082FF03C083E090E0089581E090E00895D3
:101BF0001F920F920FB60F9211248F9326982E9A50
:101C0000F09A000083B180958E76809335022E98ED
:101C1000269A8F910F900FBE0F901F9018950F93DB
:101C20000FB70F9301E000930501009170000D7F45
:101C3000009370000F910FBF0F9118950F931F9392
:101C4000082F162F811160E08CE20E94C303802FC1
:101C50008150823010F4612F01C060E085E40E9461
:101C6000C303023008F410E0612F8DE20E94C30329
:101C70001F910F9108951F93182F80E00E94740305
:101C800063E0812F0E94C3031F9108950E9498066C
:101C90006093340370933503809336039093370336
:101CA00008951F93182F80913803E82FF0E0E73153
:101CB000F10508F0BDC1E25DFF4F0C947F191123BF
:101CC00009F4B6C183E00E947403B2C1112309F480
:101CD000AFC18BE30E943B0E63E081E890EF0E946E
:101CE0004B05A6C1112319F080E00E947403809176
:101CF000130390E061E08053984F0E94BA0498C1AA
:101D0000112319F08BE30E943B0E80913803803140
:101D100011F441E001C043E060E0809112030E94B1
:101D2000690480913803813111F441E001C043E03E
:101D300062E08091100323C0112359F080E00E94DB
:101D4000740363E08BE30E94C30363E083E20E94B9
:101D5000C30380913803823111F441E001C043E0B4
:101D600062E080910F030E946904809138038331FF
:101D700011F441E001C043E060E0809108030E945B
:101D8000690456C1809102011816FCF48BE00E9490
:101D90003B0E43E063E08AE00E9418048091260332
:101DA000909127038F5F9F4F29F443E062E08DE01D
:101DB0000E941804809102016AE00E94D71843E053
:101DC00060E0892F0E9418042FC0112319F08BE0C6
:101DD0000E943B0E8091F0028823A9F087FF02C089
:101DE00061E00DC082FF03C063E080E109C083FFB2
:101DF00003C063E081E104C086FF16C063E08FE0AA
:101E00000E94480411C08091EF02823018F063E014
:101E10008EE0F6CF112319F08BE00E943B0E63E0B9
:101E20008091ED020E94870480910901882341F08E
:101E30009091EE028091ED02981711F463E001C0D9
:101E400060E088E10E94C30380910901882311F0BA
:101E500060E001C063E082E30E94C3036091340349
:101E60007091350380913603909137030E94A70348
:101E7000DFC0112319F08BE30E943B0E63E08091D9
:101E80001201909113010E94F904D2C0112319F09C
:101E900080E00E9474030E946C08853638F40E942A
:101EA0006C0843E060E00E94DC04C2C063E08AE0AA
:101EB00008C0112319F08AE10E943B0E61E0809175
:101EC0003D020E944804B4C0112379F080E00E94D2
:101ED000740363E08BE30E94C30363E083E20E9428
:101EE000C30363E08AE10E94C30380913D02982FFF
:101EF000990F990F990F20914102920F909304012D
:101F00002091400230E0322F22273295307F4091DD
:101F10003E0250913F02240F351F3093150320934A
:101F200014030E9498060E94A7038FEF8093040178
:101F300080913E0290913F026CE370E00E94E418B1
:101F4000CB0161E00E940F0480913E0290913F021C
:101F500025E0803A9207B0F46CE370E00E94E41848
:101F6000CB0141E062E00E94690480913E029091C1
:101F70003F026CE370E00E94E41841E060E00E94E0
:101F8000690404C061E089E00E94480461E0809136
:101F900040024CC0112319F080E00E94740363E0FA
:101FA00088E08FCF112319F083E00E9474038091A1
:101FB00038038C3011F441E001C043E062E08091CD
:101FC00007010E943405809138038D3011F441E0FF
:101FD00001C043E0E0910701FF27E7FDF095EA5ECD
:101FE000FC4F60E080810E94340522C0112319F06B
:101FF00083E00E94740380913B020E94571763E0C4
:102000000E944B0561E080913B020E940F0410C0CA
:10201000112319F08BE30E943B0E61E080913D0299
:102020000E9487048091380363E082500E941E0E54
:102030001F910895EF92FF920F931F93CF93DF9319
:10204000482F209133023091340220FF02C011E06A
:1020500005C021FF02C01FEF01C010E0C12FDD2726
:10206000C7FDD09590913803E92FF0E0E731F105F5
:1020700008F08EC1EB5BFF4F0C947F19442319F0DD
:1020800082E08093060180910601882309F00FC247
:1020900081E068C0442319F082E0809306018091BA
:1020A0000601882309F003C28FE05CC0112329F0E8
:1020B00080911303810F0E943D078091330290911C
:1020C000340282FFF4C180E13EC0112329F08091E7
:1020D0001203810F0E9442078091330290913402D3
:1020E00082FFE5C181E12FC0112329F08091100307
:1020F000810F0E945007809133029091340282FF39
:10210000D6C182E120C0112329F080910F03810FF5
:102110000E94AB05809133029091340282FFC7C1C7
:1021200083E111C0112341F080910803810F0E94C7
:10213000B60580E00E94C10580913302909134027F
:1021400082FFB5C187E0809338031092EE02B1C1DF
:1021500023FF0BC0892F8F5F809338038B3008F4E7
:10216000A8C187E080933803A4C180913C028823F2
:1021700039F0277F3770232B09F499C18BE0F2CF18
:10218000112349F09650923030F4812F0E946E173F
:1021900086E080933803809133029091340284FD6D
:1021A00002C000E007C08FEF0E94821786E0809394
:1021B000380301E08091330287FF7CC18EEF0E94DB
:1021C000821786E0CFCF442351F080912F038130D6
:1021D00011F080E002C080910A0380933D0285E106
:1021E00080933803112361F080913D0290E00896BE
:1021F0008C0F9D1F68E070E00E94F81880933D02EC
:1022000022FFA9C086E18093380310924102109208
:102210002F0380913D02882319F081E080932F03E2
:1022200089E10E943A0C6EC04423A9F040E452E0D8
:102230006091410280913D020E942F0890933F02DD
:1022400080933E02815A954030F080EA95E0909369
:102250003F0280933E02112319F180913E0290913A
:102260003F026AE070E00E94E418CB018F569F4F56
:10227000212F332727FD3095820F931F61E970E0EE
:102280000E94E4189C0153E0220F331F5A95E1F796
:10229000880F991F280F391F30933F0220933E0269
:1022A000209133023091340223FF08C08091400214
:1022B00090E00596837090708093400222FF4BC09F
:1022C00040913E0250913F022091400260914102B4
:1022D00080913D020E944708809141028F5F809368
:1022E0004102883068F080913D02882331F067E038
:1022F0000E94CB189F5F90933D0285E18093380345
:102300001092EE0280912F03813011F080E002C024
:1023100080910A030E94460E33C0442339F0E92F0E
:10232000F0E0EB5EFC4F808180933D02112389F049
:1023300080913D02810F80933D028E3318F08DE332
:1023400080933D0280913D02893018F489E08093AA
:102350003D0222FD02C000E014C0E92FF0E0EB5E78
:10236000FC4F80913D0280838091380381500E9410
:102370003A0C809138038F5F809338031092EE02FD
:1023800001E0809133029091340284FF93C0E9CE42
:1023900080913C02882311F000E004C087E0809324
:1023A000380301E0442319F085E080930601809111
:1023B0000601882309F07EC0D4CE24FD02C000E0CF
:1023C00004C087E08093380301E023FF04C08EE05F
:1023D0008093380301E022FF0DC0809138038D30D7
:1023E00031F4809107010E943A0C8CE001C08DE02D
:1023F00080933803809138038C3081F480910701F9
:10240000992787FD9095C80FD91FCE014E966EE192
:1024100070E00E94E418809307014CC062E0809154
:1024200007010E94150C182FE82EFF2463E080910D
:1024300007010E94150C682F70E06F5F7F4F6E19C7
:102440007F0920910701E22FFF27E7FDF095EA5E63
:10245000FC4F8081C80FD11DCE19DF09CE01860F38
:10246000971F0E94F818180F1083222319F50E9455
:102470008F0320C024FD02C000E004C087E08093E9
:10248000380301E023FF04C08CE08093380301E0AF
:1024900080913B0290E00A968C0F9D1F6AE070E0ED
:1024A0000E94F81880933B02112319F403C000E046
:1024B00001C001E0809133029091340220913C02EE
:1024C00093FF0EC08BE08093380380E0222309F451
:1024D00081E080933C0210923402109233021FC0BC
:1024E0002223F9F494FF0AC08CE080933803109201
:1024F0003402109233021092070111C092FF02C001
:102500008FE00BC090FF02C084E107C095FF02C0BE
:1025100087E003C091FF05C082E08093380301E0AB
:1025200002C00023A1F01091070117FD10C01E3159
:1025300070F460E0812F0E94150CE12FFF27E7FD6A
:10254000F095EA5EFC4F80838FEF80930701109235
:10255000340210923302802F90E0E6E0CDB7DEB770
:102560000C94701910923B0310923C0310923D039F
:1025700010923E03909343028093420260911B03AA
:1025800070E06F5F7F4F8FEF9FE70E94F8187093A6
:1025900045026093440260911C03662339F48FEF77
:1025A0009FE790933A038093390308959091330302
:1025B00080911E0370E0989FC00111240E94F818BA
:1025C00070933A03609339030895A0E0B0E0EBEE16
:1025D000F2E10C944C19EB01861B970B9C014427EC
:1025E00037FD4095542FCA01B90157FF07C0662730
:1025F0007727CB01621B730B840B950B0E94AC18E1
:1026000020911E03A22EBB24CC24DD24A60195011B
:102610000E942D1979018A012091440230914502CE
:10262000C901AA2797FDA095BA2F8E159F05A0076F
:10263000B1073CF49FEF692E9FE7792E812C912CF6
:1026400021C088279927821B930BAA2797FDA09565
:10265000BA2FE816F9060A071B074CF481E0682E2A
:1026600080E8782E8FEF882E8FEF982E0BC0209168
:102670001B0330E040E050E0C801B7010E94AC18F5
:102680003B014C0120913B0330913C0340913D03C1
:1026900050913E032E0D3F1D401F511F20933B03C1
:1026A00030933C0340933D0350933E0360913903C4
:1026B00070913A03CB01AA2797FDA095BA2F8217F4
:1026C0009307A407B5076CF088279927861B970BFB
:1026D000AA2797FDA095BA2F281739074A075B0745
:1026E00044F480933B0390933C03A0933D03B09349
:1026F0003E0360911C0370E080E090E020913B037A
:1027000030913C0340913D0350913E030E94AC1830
:102710007B018C0180914202909143028C1B9D0BA6
:102720009C01442737FD4095542FCA01B90157FF3A
:1027300007C066277727CB01621B730B840B950BB1
:102740000E94AC18A60195010E942D19CA01B90179
:1027500020911D0330E040E050E00E94AC18D0937F
:102760004302C09342026E0D7F1D801F911F660DB4
:10277000771D881D991DA60195010E942D192333EF
:102780003105410551051CF082E390E00FC02E3C5D
:102790008FEF38078FEF48078FEF58071CF48EEC48
:1027A0009FEF04C0822F992787FD9095EEE0CDB76B
:1027B000DEB70C9468191F920F920FB60F92112476
:1027C0008F93EF93FF93E1ECF0E08081877B808330
:1027D000FF91EF918F910F900FBE0F901F90189562
:1027E0009C0140E050E094E0220F331F441F551F2E
:1027F0009A95D1F760E079E08DE390E00E940B19A3
:1028000021503040832F99278093C5002093C40026
:1028100086E08093C200EBE6F0E0808181608083F7
:102820000895F8948091C10085FD0FC08091C1008A
:102830008F7B8093C1008091C00080648093C00032
:102840008091C10088628093C100789408951F929E
:102850000F920FB60F9211242F933F934F935F93D4
:102860006F937F938F939F93AF93BF93EF93FF9358
:102870000E94A914882319F08093C6000FC080918C
:10288000C1008F7D8093C1008091C00080648093DF
:10289000C0008091C10080648093C100FF91EF91DE
:1028A000BF91AF919F918F917F916F915F914F9168
:1028B0003F912F910F900FBE0F901F9018951F9270
:1028C0000F920FB60F9211242F933F934F935F9364
:1028D0006F937F938F939F93AF93BF93EF93FF93E8
:1028E0008091C6000E94BC14E1ECF0E080818F76FC
:1028F0008083EBE6F0E0808181608083FF91EF913F
:10290000BF91AF919F918F917F916F915F914F9107
:102910003F912F910F900FBE0F901F901895582F39
:10292000F89440914602E42FF0E09F012F5F3F4F63
:102930002F7730708091470290E02817390739F0DF
:10294000E65BFD4F50834F5F4F774093460278948C
:1029500008952091470280914602821711F480E089
:1029600009C0E22FF0E0E65BFD4F80812F5F2F77FB
:102970002093470290E00895282F8823D1F08D30CE
:1029800009F42AE080914802E82FF0E0E653FD4F79
:102990002083982F9F5F9F719093480280914902F6
:1029A000981721F49F5F9F71909349022A3009F490
:1029B000F69A0895F894209149028091480282176E
:1029C00011F480E009C0E22FF0E0E653FD4F808172
:1029D0002F5F2F7120934902789490E008951F9300
:1029E000182F843658F064E60E94CB18805D0E9450
:1029F0008F14812F64E60E94CB18192F812F6AE073
:102A00000E94CB18805D0E948F14812F6AE00E9483
:102A1000CB18892F805D0E948F141F9108950F930A
:102A20001F938C0164E670E00E94E418CB010E94C1
:102A3000EF14C80164E670E00E94E4180E94EF14ED
:102A40001F910F9108951F93182F82958F708A30D0
:102A500010F0895A01C0805D0E948F14812F8F7001
:102A60008A3010F0895A01C0805D0E948F141F9136
:102A700008950F931F938C01812F99270E9423158E
:102A8000802F0E9423151F910F910895CF93DF93FC
:102A9000EC0103C00E948F142196FE0184918823CB
:102AA000C9F7DF91CF91089581EA91E00E94461520
:102AB00008950F931F93082F10E01FC00E94DA148F
:102AC000982F282F20532A3038F08156863010F462
:102AD000275202C0892F1AC0E12FE69510FF06C0C9
:102AE000F0E0E651FD4F8081280F05C0F0E0E6518F
:102AF000FD4F2295207F20831F5F1017F9F60E945B
:102B0000DA148A3019F480E090E001C090E01F915F
:102B10000F9108950E948F148BE50E948F1480916D
:102B2000EA020E9423158DE50E948F148DE30E9416
:102B30008F1408959091460280914702981711F0E2
:102B40000E9411140895CF93DF93EB01181614F42B
:102B50008BE203C0882319F08DE20E948F1480E27B
:102B60000E948F14CE010E9439158AE00E948F14B2
:102B70000E949A15DF91CF9108951F93182F85E039
:102B800092E00E94461580910A0380530E9423150B
:102B900080E20E948F14809110030E94EF148EE255
:102BA0000E948F14809112030E94EF148EE20E9403
:102BB0008F14809113030E94EF1480E20E948F14FF
:102BC00080910F030E94EF148AE30E948F1480917A
:102BD00008030E94EF148AE30E948F14809111036E
:102BE0000E94EF1480E092E00E94461517FD02C09B
:102BF000812F02C080910E010E94EF148BEF91E0B3
:102C00000E94461580911201909113010E940F15A8
:102C100086EF91E00E944615909108019D3328F0BF
:102C200081EF91E00E94461506C082E3989FC001A3
:102C300011240E940F158CEE91E00E9446158091A0
:102C40001001909111010E940F158091F0028823CC
:102C500041F088EE91E00E9446158091F0020E94BA
:102C6000231517FF04C085EE91E00E944615809160
:102C7000EF02823020F082EE91E00E9446158AE059
:102C80000E948F140E949A151F9108951F93F9C0F6
:102C9000812F90E0FC01E154F040E931F10508F0AA
:102CA000EEC0E45AFF4F0C947F190E94DA148A3068
:102CB00009F0E5C00E945415E2C00E94DA148A307F
:102CC00009F0DDC099C082E00E945915882309F0FF
:102CD000DFC084E50E948A158091EA020E9457179E
:102CE00063C0173439F482E00E945915882309F033
:102CF000CFC014C084E00E945915882309F0C8C0D1
:102D00009091EA029E3150F4E92FF0E0EA5EFC4F28
:102D10008091EB028083892F0E943A0C812F0E94C0
:102D20008A15E091EA02F0E0EA5EFC4F80810E94A1
:102D30002315AEC0123539F482E00E94591588235C
:102D400009F0A6C01EC086E00E945915882309F02C
:102D50009FC02091EB028091EA02422F50E04F7019
:102D60005070542F44279091EC02490F511D682F49
:102D70006F7022952F7082958F700E944708109275
:102D8000EE02812F0E948A152091EA02822F8295FD
:102D90008F7090E033E0880F991F3A95E1F72F701C
:102DA000820F911D0E94AA0C0E94391571C086E005
:102DB0000E945915882309F06BC08091EA020E9495
:102DC0003D078091EB020E9442078091EC020E9435
:102DD000500712C086E00E945915882309F058C098
:102DE0008091EA020E94AB058091EB020E94B60539
:102DF0008091EC020E94C1058FEF0E94BD153FC07B
:102E000084E00E945915882309F042C08091EA02AB
:102E1000833109F03DC08091EB028432C9F5F8940A
:102E200088E190E028E00FB6F894A89580936000C0
:102E30000FBE20936000FFCF82E00E9459158823C7
:102E400039F590E08091EA02813009F491E0892F10
:102E50000E94821710C082E00E9459158823C1F495
:102E60009091EA029930A0F09E3390F48AE080932A
:102E70000A019093ED028FEF0E94BD1509C00E94D8
:102E80009A150E94DA14182F882309F001CF04C084
:102E90008AE00E948F14F3CF1F9108950E94541569
:102EA00080E895E20E94F0130E949A1508958A30F6
:102EB00018F080E090E00895E82FF0E0EE0FFF1F9B
:102EC000E75FFD4F85919491FC01FF7797FF03C069
:102ED000808191810895808190E008959091ED0224
:102EE000980F9093ED02993010F489E003C09E335F
:102EF00018F08DE38093ED021092EF028AE0809348
:102F00000A0108958F3F21F520910901222331F014
:102F10009091ED028091EE02981749F08091ED02B8
:102F20008093F1028091EE028093F20204C010922D
:102F3000F1021092F20280E0222309F481E08093F2
:102F400009018823E1F08091EE028093ED0217C021
:102F50008E3F99F420910901222331F49091F202DD
:102F60008091EE02981721F48091F1028093ED0296
:102F700010920901222319F481E080930901109233
:102F8000EF028AE080930A0108950F931F93062FA2
:102F9000882321F48091EE028823E9F490E0809167
:102FA000EE02811191E0892F0E945606982F882306
:102FB00091F08093EE0280910901882361F0909353
:102FC000ED0280910A0187FF06C0809108019817E1
:102FD00011F010920A014091EF024230E0F420918A
:102FE000160130911701309521953F4F80913203A2
:102FF00090E08217930764F5842F8F5F8093EF0230
:10300000823061F510920A0188E097E090934003C6
:1030100080933F0323C080913F039091400300972A
:10302000E9F001979093400380933F03809132032E
:1030300090E02091160130911701821793075CF4FC
:10304000842F8F5F8093EF02843040F010920A014A
:103050001092EF0203C082E08093EF0280910B0197
:1030600090910C01009729F0019790930C018093A7
:103070000B0180910A0118161CF4815080930A01FB
:1030800020910B0130910C012115310521F0809127
:103090000A018823B9F51091ED021A3018F08091D9
:1030A000EF0281111AE080910801181749F010937E
:1030B000080180911201909113010E94B21202C086
:1030C000232BD1F480911F0325E0829FC00111249E
:1030D00090930C0180930B011D3310F004E60CC09B
:1030E000609112017091130182E3189FC0011124B5
:1030F0000E94E512082F0E5C8FEF80930A01802F4B
:103100000E94BD1540911001509111018091310331
:1031100024E1829FC00111244817590730F480919F
:10312000F002806C8093F00210C080913003829F87
:10313000C00111242091F0024817590718F42064A7
:103140002F7701C02F732093F002802F992787FDDE
:1031500090951F910F910895629FD001739FF00188
:10316000829FE00DF11D649FE00DF11D929FF00D17
:10317000839FF00D749FF00D659FF00D9927729F4E
:10318000B00DE11DF91F639FB00DE11DF91FBD01D9
:10319000CF0111240895991B79E004C0991F961757
:1031A00008F0961B881F7A95C9F78095089587FBCC
:1031B000082E062687FD819567FD6195ECDF0EF4EC
:1031C000919507FC81950895AA1BBB1B51E107C08F
:1031D000AA1FBB1FA617B70710F0A61BB70B881FA7
:1031E000991F5A95A9F780959095BC01CD01089536
:1031F00097FB092E07260AD077FD04D0E5DF06D01D
:1032000000201AF4709561957F4F0895F6F7909518
:1032100081959F4F0895A1E21A2EAA1BBB1BFD01A9
:103220000DC0AA1FBB1FEE1FFF1FA217B307E407A5
:10323000F50720F0A21BB30BE40BF50B661F771FFD
:10324000881F991F1A9469F76095709580959095DD
:103250009B01AC01BD01CF01089597FB092E052606
:103260000ED057FD04D0D7DF0AD0001C38F450959B
:103270004095309521953F4F4F4F5F4F0895F6F79A
:1032800090958095709561957F4F8F4F9F4F0895D2
:103290002F923F924F925F926F927F928F929F9266
:1032A000AF92BF92CF92DF92EF92FF920F931F9354
:1032B000CF93DF93CDB7DEB7CA1BDB0B0FB6F89405
:1032C000DEBF0FBECDBF09942A88398848885F8445
:1032D0006E847D848C849B84AA84B984C884DF80B6
:1032E000EE80FD800C811B81AA81B981CE0FD11D9A
:1032F0000FB6F894DEBF0FBECDBFED010895EE0FFF
:0C330000FF1F0590F491E02D0994FFCF11
:0E330C000101FE05FF0102FFFF01101000008D
:00000001FF
