:100000000C9472000C948F000C942F0A0C94030C27
:100010000C948F000C9430080C948F000C948F007B
:100020000C948F000C948F000C948F000C943B0A5E
:100030000C948F000C948F000C948F000C948F0004
:100040000C948F000C948F000C948F000C94090377
:100050000C948F000C948F000C9473063F065B4F3A
:10006000666D7D077F6F777C395E79716354737637
:1000700030084001484111495054105C0033273882
:1000800021221F20200D1E2021221E20200D1F2096
:10009000200F1C2020050A2020051F2028241F1BBC
:1000A00002031B19180001000203040506070809D2
:1000B0000A3935423E0C0D0E0F1011121314151F84
:1000C0001C1F1E1F1E1F1F1E1F1E1F00001F003B88
:1000D000005A0078009700B500D400F300110130F9
:1000E000014E010011241FBECFEFD4E0DEBFCDBF13
:1000F00011E0A0E0B1E0E2E1FCE102C005900D9268
:10010000AA32B107D9F713E0AAE2B1E001C01D920B
:10011000A130B107E1F70E94BB000C94080E0C94CB
:100120000000E1E6F0E090E8908381E0808390BFFA
:100130008FEF80937E009CE09093640080E984B907
:1001400088E183BB9DB983E08EB988E080BB83EFF3
:1001500081BB8EE085B981ED84B98EE280936C001D
:1001600080EC8DBB0E943B080E948E090E947C0A95
:100170000E944B0308951F930E9491001EBA789429
:1001800083E00E9416038091E40088608093E4007D
:1001900081E080932E02F8948EB3882309F5809134
:1001A000F002882311F081E007C080912B018823A1
:1001B00011F083E001C087E083BF80912B01813083
:1001C00039F410922B0180917A00806480937A0038
:1001D0007298789488950000729A86E083BF01C077
:1001E0007894F39B04C0F3980E942906D4CFF29B25
:1001F00004C0F2980E94BC02CECFF59B08C0F598CF
:100200000E94F10B62E30E9466090E94CE09F49BF2
:1002100004C0F4980E949609BECFF09B03C0F098EA
:100220000E942A0BF19B3FC0F1980E9453078091D6
:1002300002019091030118161906ECF0892B31F098
:1002400080913001909131010E94830C8091FA02DB
:100250002AE0829FC0011124909303018093020140
:100260006091300170913101809100019091010104
:100270000E94B40C05C00197909303018093020182
:100280000E94950B0E94F10B62E30E9466090E9496
:10029000AB0280912901882319F0815080932901B4
:1002A00082E30E9401098091390290913A02892BE0
:1002B00029F480912901882309F06DCF80E00E9404
:1002C0001E0C182F882319F081E00E941E0C812F2C
:1002D0000E94560C58CF8F929F92AF92BF92CF92AE
:1002E000DF92EF92FF920F931F93CF93DF934B0117
:1002F000C82EDD245601AA0CBB1CAA0CBB1C24E38F
:1003000031E0A20EB31EF50180819181A281B381FB
:100310007B010027F7FC0095102FE80EF91E0A1F3D
:100320001B1FE082F18202831383409125014F302D
:10033000F0F180913C01C82FD0E0CE018D966CE3A6
:1003400070E00E94B80D2CE330E0B901C69E900128
:10035000C79E300DD69E300D1124F901E80FF91F0C
:10036000EE0FFF1FE25CFE4F80819181AA2797FD6F
:10037000A095BA2FE81AF90A0A0B1B0BF501E082C7
:10038000F182028313834C3390F0F601EE0FFF1FCE
:10039000EC5FFE4FC20FD31FCC0FDD1FC25CDE4FE0
:1003A000888199819401281B390B31832083209106
:1003B0003C018CE390E0C89EF001C99EF00DD89EF0
:1003C000F00D1124E20FF11DEE0FFF1FE25CFE4F56
:1003D00091828082F601EE0FFF1FEE0FFF1FEC5C93
:1003E000FE4F60817181828193814F3028F02FE030
:1003F00030E040E050E004C0242F30E040E050E026
:10040000CC0CDD1CCC0CDD1CECE2F1E0CE0EDF1ED2
:100410000E94ED0D442737FD4095542FF6012083AF
:10042000318342835383DF91CF911F910F91FF90CE
:10043000EF90DF90CF90BF90AF909F908F900895F6
:100440009C0140E050E060E070E381E190E00E94B8
:10045000CB0DDA01C90108958F929F92AF92BF929E
:10046000CF92DF92EF92FF920F931F93BC013091D6
:10047000080121E00CC0E22FF0E0EE0FFF1FE75F64
:10048000FE4F808191816817790718F02F5F23173D
:1004900090F3C22EDD240894C108D108D601AA0F1A
:1004A000BB1F0894C11CD11CFD01E95EFE4F80807A
:1004B0009180AA24BB24CC0CDD1CF601E95EFE4F22
:1004C0002081318140E050E0281939094A095B094F
:1004D000A75FBE4FED90FC9000E010E080E090E060
:1004E0006E197F09800B910B0E94790D29E031E094
:1004F000C20ED31EF6012081318140E050E02E195A
:100500003F09400B510B0E94ED0D280D391D4A1D6E
:100510005B1D2030F0E83F07FFEF4F07FFEF5F075D
:100520001CF480E090E80CC0203080E8380780E0C0
:10053000480780E058071CF08FEF9FE701C0C90112
:100540001F910F91FF90EF90DF90CF90BF90AF90F1
:100550009F908F90089591E090933D01ECE7F0E03B
:1005600080E480838DE880937A0010927B008EE592
:10057000808390932B01089580913D018F5F80933C
:100580003D01833029F08430D9F08230D1F514C098
:10059000209178008091790090E0982F882730E0B2
:1005A000822B932B0E942002BC0180E00E946B01F1
:1005B0008B9A82E480937C0081E080932B0125C09C
:1005C000209178008091790090E0982F882730E082
:1005D000822B932B0E942C02BC0181E00E946B01B4
:1005E00080913C0190E001966CE370E00E94B80DB0
:1005F00080933C01809125018C3318F48F5F8093A8
:1006000025018B988DE080937A0080912B0190E0FA
:1006100008951F920F920FB60F921124F29A109222
:100620002B010F900FBE0F901F90189540E050E0E7
:10063000682F70E0CB01042E02C0959587950A942F
:10064000E2F780FF02C0AFEF01C0A0E020E030E0A1
:10065000CA01E3E0880F991FEA95E1F7840F951F1F
:10066000FC01E20FF31FEE5AFD4FA0832F5F3F4FB7
:1006700029303105A9F74F5F5F4F42305105D1F660
:1006800091E0909326018091E40088608093E400DB
:1006900090932E02089580E00E9416038091F1024B
:1006A0008093E70085EA8093E50086E08093E6008A
:1006B000E4EEF0E080EC808380818860808381E0DC
:1006C00080932601089580E00E9416030895982FD4
:1006D00080912601813011F49923C1F0915092301C
:1006E00048F020E030E0F901EE5AFD4F908181851D
:1006F000981721F082E08093260108952F5F3F4FE5
:100700002930310581F781E0809326010895782F03
:10071000769576957695382F3770A62FE72FF0E0EF
:1007200060FD0FC0EE5AFD4F208181E090E0032E66
:1007300002C0880F991F0A94E2F780958223808374
:100740000DC0EE5AFD4F208181E090E0032E02C0E3
:10075000880F991F0A94E2F7282B2083E72FF0E0F7
:10076000A1FF0DC0EE5AFD4F218581E090E002C04F
:10077000880F991F3A95E2F7282B21870DC0EE5A72
:10078000FD4F218581E090E002C0880F991F3A95C6
:10079000E2F7809582238187862F0E946703089560
:1007A00060E088E10E94870360E082E30E948703A3
:1007B00060E08AE10E94870360E08DE20E94870387
:1007C00060E085E40E94870360E08CE20E9487037A
:1007D00080E00E946703E4EEF0E08081886080831F
:1007E00081E080932E0208951F93162FE7EAF0E030
:1007F000E80FF11DE4918E2F0E948703812F0E9444
:1008000067031F9108950F931F93CF93DF93062FD4
:10081000182F883108F017E1C0E0D0E01C1711F460
:10082000602F01C060E08C2F0E94F4032196C83134
:10083000D105A1F7DF91CF911F910F91089560E04D
:1008400087E10E940304E4EEF0E080818860808309
:1008500081E080932E0208950F931F93CF93DF932F
:10086000062F182F883108F017E1C0E0D0E01C17E0
:1008700010F460E001C0602F8C2F0E94F4032196D9
:10088000C831D105A1F7DF91CF911F910F91089544
:10089000EF92FF920F931F93CF93DF93F42E643068
:1008A00010F5853200F5E62FF0E0E456FF4FE490B6
:1008B000E82FF0E0E45AFF4F0491C0EAD0E011E0E5
:1008C000FE0194919E0D812F802311F06F2D01C0A8
:1008D00060E0892F0E9487032196F0E0C73ADF0786
:1008E00011F0110FEDCF8F2D0E946703DF91CF9193
:1008F0001F910F91FF90EF90089540E063E080E238
:100900000E94480440E062E080E20E94480440E027
:1009100061E080E20E94480440E060E080E20E94E2
:10092000480460E08BE30E94870360E083E20E945A
:10093000870380E00E946703E4EEF0E08081886036
:10094000808381E080932E0208950F931F93CF93AD
:10095000DF93062F67E00E94980DC92FD0E0CC0FDF
:10096000DD1FCC0FDD1FC058DF4F13E0FE01849167
:10097000402F612F0E944804115021961F3FB1F76C
:1009800060E08BE30E94870360E083E20E948703BC
:10099000DF91CF911F910F910895EF92FF920F93E6
:1009A0001F93CF93DF938C01F62E60E083E20E94C9
:1009B0008703C8010051174214F08FE097E2EC0161
:1009C0008CEFC931D80714F4C9E1DCEFEE24D7FF6E
:1009D00005C0EE24E394D095C195DF4FCE016AE0C7
:1009E00070E00E94B80D8B01CB016AE070E00E94BC
:1009F000B80D4F2D61E00E944804C8016AE070E024
:100A00000E94B80D8B01CB016AE070E00E94B80D26
:100A10004F2D62E00E944804EE2021F04F2D63E04C
:100A200086E113C0C85ED34024F44F2D63E080E21A
:100A30000CC0C8016AE070E00E94B80DCB016AE00A
:100A400070E00E94B80D4F2D63E00E9448044F2DC6
:100A500060E08CE00E9448046F2D8BE30E948703C6
:100A60008F2D0E946703DF91CF911F910F91FF900F
:100A7000EF900895FF920F931F93082FF42E62308A
:100A8000B8F48436A8F4262F30E0220F331F122F3B
:100A90006AE00E94980D622F892F0E9448041F5F10
:100AA000802F6AE00E94980D4F2D612F0E9448040C
:100AB0001F910F91FF9008950F931F93CF93DF9392
:100AC000182F062F60E083E20E948703112371F440
:100AD000402F63E080E00E944804402F62E08FE0F6
:100AE0000E944804402F61E08FE00FC0143399F456
:100AF000402F63E080E00E944804402F62E081E1E3
:100B00000E944804402F61E080E20E944804402F88
:100B100060E080E214C01533B0F0402F63E080E263
:100B20000E944804402F62E08EE00E944804402F5B
:100B300061E08CE10E944804402F60E08CE10E945B
:100B4000480460E02BC0C12FD0E0CE01019762E0E5
:100B500070E00E94B80D162F1B5F1A3058F4402F1A
:100B600063E080E20E944804402F62E0812F0E94EF
:100B7000480405C0402F61E0812F0E943A05C0FD66
:100B800002C085E001C080E0402F61E00E9448047F
:100B9000402F60E08CE00E944804602F8BE30E94AD
:100BA0008703802F0E946703DF91CF911F910F91E0
:100BB00008951F93CF93DF93162FEC0187E2C03186
:100BC000D80710F0CFE0D7E2CE0164E670E00E94D3
:100BD000A40DCB01412F61E00E943A05CE0164E6ED
:100BE00070E00E94A40D412F60E00E943A05DF9161
:100BF000CF911F910895FF920F931F93F82E042F0A
:100C0000623078F470E0660F771F162F8F700E94A5
:100C100048041F5F402F612F8F2D82958F700E9497
:100C200048041F910F91FF900895FF920F931F9317
:100C30008C01F62E812F9927462F61E00E94FB053B
:100C40004F2D60E0802F0E94FB051F910F91FF90B8
:100C5000089580912F028F5F80932F028D3058F07E
:100C6000809130028F5F81708093300210922F024A
:100C700081E080932E0280912E02882351F1109200
:100C80002E028091300290E0FC0123E0EE0FFF1F66
:100C90002A95E1F7E80FF91FEE5AFD4F8081809306
:100CA000EC0081818093ED0082818093EE0083814E
:100CB0008093F10084818093F20085818093F3001A
:100CC00086818093F60087818093F70080858093EA
:100CD000F80080912601813029F48091E400877F1B
:100CE0008093E40008951F920F920FB60F92112483
:100CF000F39A0F900FBE0F901F901895883110F443
:100D000080936B0208958C3310F4809364020895ED
:100D10008C3310F48093ED020895E82FF0E033E077
:100D2000EE0FFF1F3A95E1F7E60FF11DEE0FFF1FE3
:100D3000E359FD4F30E0322F22273295307F5F702C
:100D4000242B352B318320830895DA01E82FF0E03E
:100D500073E0EE0FFF1F7A95E1F7E60FF11DEE0F3E
:100D6000FF1FE359FD4F808191819C01232F332781
:100D700022952F702C939F700895E82FF0E0A4E047
:100D8000EE0FFF1FAA95E1F7E159FD4F41E08FEF0C
:100D9000A0E0B0E0208131813F70A217B30728F4B2
:100DA0006217730710F0842FD9014F5F32964830D5
:100DB00089F7992787FD909508952091EF02822F5A
:100DC00064E60E94980D992319F480E090E008955C
:100DD000822F90E0837090700895E091EE02E230EF
:100DE00039F0F0E0E154FF4FE4918E2F90E0089548
:100DF0000E94DD06882319F08CE190E008958DE1D2
:100E000090E008950E94ED0620916C022F5F2093E0
:100E10006C0230E090E0019628173907F9F491E070
:100E200090936C028091EE028F5F8093EE028D3082
:100E300039F49093EE028091EF028F5F8093EF027E
:100E40008091EE028B3011F410926502809166025F
:100E50008F5F67E00E94980D9093660208958091DD
:100E6000EE02833019F42FE130E004C08A30C1F47F
:100E70002EE130E080916C0290E02750304002C0BB
:100E8000880F991F2A95E2F7892B51F420E030E072
:100E900080916602873011F421E030E0C9010895A5
:100EA00080E090E008951F9380916702909168021E
:100EB000A0916902B0916A020196A11DB11D8093B3
:100EC000670290936802A0936902B0936A028091CE
:100ED000ED028F5F8093ED028C3319F080E090E09B
:100EE0003BC01092ED02809164028F5F8093640298
:100EF0008C3381F51092640280916B028F5F809336
:100F00006B02883121F410926B020E94020710914B
:100F1000EE02133059F480916B028230D9F40E94B2
:100F20002F078823B9F010936B0214C01A3091F484
:100F300080916B02833071F480916502882351F4B3
:100F40000E942F07882331F082E080936B0281E0BA
:100F50008093650281E090E01F9108950F931F93A5
:100F6000CF93DF938091EE02E82FF0E0EE0FFF1FAA
:100F7000E753FF4FC591D49190916C02C90FD11DD9
:100F8000833028F00E94DD06882309F42196E09141
:100F9000EF02F0E08F0101501040C80164E070E002
:100FA0000E94B80D9B012E0F3F1FC80164E670E040
:100FB0000E94B80D261B370B2A5F3F4FC9018C0FCB
:100FC0009D1F67E070E00E94A40D80936602DF9190
:100FD000CF911F910F9108958093EF020E94AE0769
:100FE0000895982F81508C3010F49093EE020E9457
:100FF000AE070895982F81508F3110F490936C02B2
:101000000E94AE070895EF92FF920F931F93182F3F
:10101000062FF090EF02E090EE02862F81508C3088
:1010200090F4112381F0842F0E94EC07802F0E94FE
:10103000F1070E94ED06811730F0812F0E94FA0718
:1010400081E090E008C08F2D0E94EC078E2D0E9459
:10105000F10780E090E01F910F91FF90EF900895CD
:101060001F920F920FB60F921124F19A0F900FBE9C
:101070000F901F901895809170008E7F8093700064
:1010800088E08093B6001092B2008091B000856035
:101090008093B0002091B6008091B60090E08470FB
:1010A000907030E021703070822B932B892B91F758
:1010B0008FEF87BB809170008160809370001092E9
:1010C0006702109268021092690210926A021092EE
:1010D0006B02109264021092ED0281E080936C0228
:1010E0008093EE0288E08093EF020E94AE070E9498
:1010F000F20A089580913502909136028B30910565
:101100001CF48FEF90E00895209133023091340267
:10111000F90143E0EE0FFF1F4A95E1F76AE070E046
:101120000E94B80D220F331FC9018E0F9F1F0E940E
:10113000B80D862F90E00895809135029091360287
:10114000892B19F480E090E0089590E080912701C8
:10115000811191E081E09827892F90E00895982FE0
:10116000882359F480916B008F7E80936B00739875
:10117000A398A4982F9888E41DC08091F002891745
:10118000D1F0739A80E180936B008091FD0280938F
:101190003202923041F4A39AA4982F988091FC02D5
:1011A00087BD89E607C0A398A49A2F9A8091FB0275
:1011B00087BD89E784BD9093F002089510923402B0
:1011C00010923302109236021092350210923802B9
:1011D00010923702833340F088E19CEF90933802FD
:1011E0008093370282E007C088EE93E09093380244
:1011F0008093370281E00E94AF0881E0809327014D
:101200000895282F80912701882319F080E090E02D
:101210000895243689F48091FF022091350230919F
:101220003602280F311D8091FE02281B31093093B0
:101230003802209337022FC08091FE02222351F4FE
:1012400090E02091FF02821B9109909338028093D5
:10125000370221C0E82FF0E08091350290913602EC
:101260008E1B9F0B8E1B9F0B95958795959587954C
:1012700030E0AC01429FC001439F900D529F900D02
:10128000112469E170E00E94B80DE60FF71FF0939A
:101290003802E0933702209133023091340280917A
:1012A0003702909138028217930724F482E00E945B
:1012B000AF0803C0281739071CF081E090E00895BB
:1012C00081E00E94AF0881E090E008958823B1F0AA
:1012D00010923402109233021092360210923502AC
:1012E00010923802109237028EEF8093270185E02A
:1012F0008093280180E00E94AF0808958091280122
:10130000882321F08150809328010895809127013E
:101310008E3F19F4862F0E94DE08089560E081E078
:101320000E94660981E080936E0008958091FD021D
:10133000809332028091F002209133023091340286
:1013400040913702509138028130A1F4C9010196D1
:10135000909334028093330284179507F4F080E071
:101360000E94AF08809127018823B9F08FEF809306
:1013700027010895C90101979093340280933302A5
:101380004817590754F080E00E94AF088091270168
:10139000882319F08FEF8093270108951F93CF932F
:1013A000DF9380913202882321F0815080933202B2
:1013B00052C01091F0021130F9F480E00E94AF08A1
:1013C000C0913302D0913402D0933602C0933502DB
:1013D00080912701813069F482E00E94AF08C85EE5
:1013E000D340D0933802C093370282E08093270124
:1013F00032C0823081F529C0123051F580E00E9460
:10140000AF088091350290913602209133023091DD
:101410003402821B930B9093360280933502109214
:1014200034021092330280912701813061F488EEFA
:1014300093E0909338028093370281E00E94AF08D6
:101440001093270108C0823031F41092270103C0A5
:1014500080E00E94AF08DF91CF911F9108951F9205
:101460000F920FB60F9211246499F49A0F900FBE49
:101470000F901F9018951F920F920FB60F92112484
:101480008F93809131028F5F80933102882309F41A
:10149000F59A8F910F900FBE0F901F901895F999A4
:1014A000FECF92BD81BDF89A80B590E00895F9997C
:1014B000FECF90E0880F991F880F991F860F911D0E
:1014C00080549F4F92BD81BDF89A80B590E00895F9
:1014D0009C0180E0203C380728F0C901837090709F
:1014E000892B49F4F999FECF32BD21BD60BDF89436
:1014F000FA9AF99A78940895EF92FF921F93CF93F6
:10150000DF9331EFE32E32E0F32EC0E0D0E060E075
:101510008C2F0E94570A182FF701808361E08C2FCF
:101520000E94570A181740F0F701108161E08C2FD4
:101530000E94570A811730F461E08C2F0E94570AED
:10154000F70180832196CF30D10521F00894E11C6A
:10155000F11CDDCFDF91CF911F91FF90EF900895A7
:10156000EF92FF921F93CF93DF9351EFE52E52E05E
:10157000F52EC0E0D0E0F701108160E08C2F0E94D2
:10158000570A181709F1F701108161E08C2F0E94AA
:10159000570A181740F0F701108161E08C2F0E9464
:1015A000570A811730F461E08C2F0E94570AF70127
:1015B0008083CE01880F991F880F991FF7016081E2
:1015C00080549F4F0E94680A2196CF30D10521F0A8
:1015D0000894E11CF11CCFCFDF91CF911F91FF90B8
:1015E000EF900895CF93DF93C0E0D0E0CE018C5F01
:1015F0009F4F0E944F0AFE01E359FD4F80832196C1
:10160000C038D10599F7DF91CF910895EF92FF92FD
:101610001F93CF93DF93CDE6D2E064E0E62E60E047
:10162000F62E1881C7010E944F0A181721F0688111
:10163000C7010E94680A0894E11CF11C82E0CC3EBC
:10164000D80711F02196EDCFDF91CF911F91FF9038
:10165000EF90089520913B02207680913D028227F1
:1016600085FF17C0222311F0203631F48091390212
:1016700090913A02826005C08091390290913A02BD
:10168000816090933A028093390210923F02209336
:101690003D0220913B022E7080913C02281709F4F4
:1016A00043C02223D1F08823C1F4243031F4809147
:1016B000390290913A0284602DC0223031F4809139
:1016C000390290913A02886025C0283039F580911E
:1016D000390290913A0280611DC0843041F4222386
:1016E000E9F08091390290913A02806213C0823011
:1016F00041F4222399F08091390290913A0280645A
:1017000009C0883059F4222349F080913902909120
:101710003A02806890933A028093390220933C0207
:1017200010923E0210923F02089590913C0299233C
:10173000A1F480913F028F5F80933F02882321F4C0
:101740008FEF80933F0208958A3009F049C080915D
:10175000390290913A02906235C080913E028F5FCB
:1017600080933E02882321F48FEF80933E020895F8
:101770008430B1F59830D1F0993028F4923079F076
:10178000943071F505C09A30C1F09E3049F51FC004
:101790008091390290913A028062916013C08091E9
:1017A000390290913A02806492600CC080913902B3
:1017B00090913A028068946005C0809139029091BE
:1017C0003A02986090933A0280933902089580918A
:1017D000390290913A02906190933A0280933902D3
:1017E0000895F89480ED84B9289A0000000083B130
:1017F00025B125B921ED24B9789490E08095909594
:101800008170907008951F920F920FB60F9211245D
:101810008F939F9381ED84B92E9AF09A000093B133
:1018200090959E7690933B0295B195B984B99F911E
:101830008F910F900FBE0F901F90189590910003FD
:10184000992319F0913011F50DC0882319F082E029
:101850008093290180912901882369F481E0809394
:1018600000030FC0882319F082E080932901809142
:101870002901882311F080E004C08CE080930003EC
:1018800081E010923A02109239020EC0882321F4AE
:1018900080912901882319F481E080932901109215
:1018A0003A021092390280E090E00895909100038E
:1018B000992319F09130B1F406C0882319F183E01F
:1018C0000E94160308958823E9F080E00E94160321
:1018D00063E080E890EF0E94150663E08BE30E94CE
:1018E00087030895882339F080E00E94160363E09F
:1018F0008BE30E94870363E0809130019091310176
:101900000E94D9050895109242021092430210924B
:1019100044021092450290934102809340026091EC
:10192000F60270E06F5F7F4F8FEF9FE70E94B80D68
:1019300070934702609346022091F70230E02F5FD8
:101940003F4F442737FD4095542F6FEF7FEF8FEFC8
:101950009FE30E94ED0D209348023093490240938B
:101960004A0250934B020895CF92DF92EF92FF927A
:101970000F931F93CF93DF93EB019C01261B370B33
:101980008091460290914702821793072CF49FEFB3
:10199000C92E9FE7D92E15C0909581959F4F281786
:1019A00039072CF481E0C82E80E8D82E0AC0809137
:1019B000F60290E0289F6001299FD00C389FD00C40
:1019C0001124442737FD4095542F80914202909175
:1019D0004302A0914402B0914502280F391F4A1FCB
:1019E0005B1F209342023093430240934402509382
:1019F00045028091480290914902A0914A02B0911B
:101A00004B0282179307A407B50764F0B095A09521
:101A1000909581959F4FAF4FBF4F281739074A07C1
:101A20005B0744F48093420290934302A0934402E4
:101A3000B09345026091F70270E080E090E0209161
:101A400042023091430240914402509145020E946B
:101A5000790D7B018C0120914002309141022C1BB9
:101A60003D0B8091F80290E0289FB001299F700DF6
:101A7000389F700D1124D0934102C09340028827F3
:101A800077FD8095982F6E0D7F1D801F911F960109
:101A9000442737FD4095542F620F731F841F951FF5
:101AA0002091F90230E040E050E00E94ED0D21303D
:101AB00080E838078FEF48078FEF580724F421E0BC
:101AC00030E84FEF5FEF203080E8380780E04807CC
:101AD00080E0580724F02FEF3FE740E050E0C901D5
:101AE000DF91CF911F910F91FF90EF90DF90CF90FA
:101AF0000895629FD001739FF001829FE00DF11D58
:101B0000649FE00DF11D929FF00D839FF00D749F77
:101B1000F00D659FF00D9927729FB00DE11DF91F23
:101B2000639FB00DE11DF91FBD01CF011124089580
:101B3000991B79E004C0991F961708F0961B881F1F
:101B40007A95C9F780950895AA1BBB1B51E107C080
:101B5000AA1FBB1FA617B70710F0A61BB70B881F3D
:101B6000991F5A95A9F780959095BC01CD010895CC
:101B700097FB092E07260AD077FD04D0E5DF06D0B3
:101B800000201AF4709561957F4F0895F6F79095AF
:101B900081959F4F0895A1E21A2EAA1BBB1BFD0140
:101BA0000DC0AA1FBB1FEE1FFF1FA217B307E4073C
:101BB000F50720F0A21BB30BE40BF50B661F771F94
:101BC000881F991F1A9469F7609570958095909574
:101BD0009B01AC01BD01CF01089597FB092E05269D
:101BE0000ED057FD04D0D7DF0AD0001C38F4509532
:101BF0004095309521953F4F4F4F5F4F0895F6F731
:101C000090958095709561957F4F8F4F9F4F089568
:021C1000FFCF04
:101C1200D007FFFFFF7FFF7F07300154018D01D8FE
:101C22000125026602A302480DB80BC409D007DCE5
:0A1C320005E803F4010101FE0502BC
:00000001FF
