:100000000C94F0000C940D010C9467090C94F20C04
:100010000C94090D0C94ED050C940D010C940D013C
:100020000C940D010C940D010C940D010C94D50948
:100030000C940D010C94D1120C9499120C944D1245
:100040000C940D010C940D010C940D010C944103C2
:100050000C940D010C940D010C948D05650D6C0D27
:10006000D60ED60ED60ED60EC60D1B0E280EA20D1F
:10007000AA0EB40EB40E780D860D860DA20DA20D3B
:10008000E70E3B0E440E1C0F280F64106410641022
:100090006410840F840F840F840F9F10B410B41069
:1000A000370F460F550F640F730FBA0FC90FEB0FC1
:1000B0000C113F065B4F666D7D077F6F777C395E65
:1000C00079716354737630084001484109495054AE
:1000D000105C00332738583E786E20011607201632
:1000E00001162016021620160316201604162016D6
:1000F000051620160616201607160B011F241616C5
:10010000161620160C16200E1C1C000F0F20001DAA
:10011000202000120E1D0C270C230B0A2626200E71
:100120000220200E03200A0D202028241F1B02037A
:100130001B191800010002030405060708090A3903
:1001400035423E0C0D0E0F1011121314151F1C1FFB
:100150001E1F1E1F1F1E1F1E1F00001F003B005AD8
:100160000078009700B500D400F300110130014E73
:1001700001563A204F70656E485232302053572056
:1001800076657273696F6E20302E32312062756928
:100190006C64204E6F76202031203230303820328F
:1001A000323A34363A33340A0020580020453A00B7
:1001B00020423A2000424F4F540020533A20002062
:1001C000493A200020563A2000443A200014811277
:1001D000812A832883E0020B01E102158213820049
:1001E00011241FBECFEFD4E0DEBFCDBF11E0A0E0F1
:1001F000B1E0E0E0FFE202C005900D92A031B1074E
:10020000D9F713E0A0E1B1E001C01D92AC32B10713
:10021000E1F70E940F010C947F170C9400001F93CC
:1002200090E89093610081E08093610090BF8FEF30
:1002300080937E008DE08093640088E183BB9EE024
:100240009DB983E08EB988E080BB83EF81BB95B90F
:1002500081ED84B98EE280936C0080EC8DBB0E94AE
:100260007D0760E081E00E949A0A0E94380B0E949C
:1002700069031EBA78940E94D11583E00E944E0350
:100280008091E40088608093E40081E08093100214
:10029000F8948EB3882339F584B590E08770907018
:1002A000892B21F48091C100887111F081E007C091
:1002B00080911101882311F083E001C087E083BFA2
:1002C00080911101813039F41092110180917A00EE
:1002D000806480937A007298789488950000729A6E
:1002E00086E083BF01C07894F39B04C0F3980E941A
:1002F0004305CECFF29B04C0F2980E94EF02C8CF14
:10030000F69B04C0F6980E94AC14C2CFF59B04C0C3
:10031000F5980E94FD09BCCFF49B0BC0F498109196
:1003200010010E94CF0C612F0E949A0A0E94020BBA
:10033000AFCFF09B03C0F0980E94E70BF19B2AC05F
:10034000F198109110010E94EB07612F0E94441652
:10035000182F809310010E94CF0C612F0E949A0ADF
:10036000809110010E9400090E94730C0E94DE021D
:1003700080910A01882319F0815080930A0180E05E
:100380000E94540D8091E40088608093E40081E035
:10039000809310028091220290912302892B29F4EC
:1003A00080910A01882309F073CF80E00E94F40E47
:1003B000182F882319F081E00E94F40E812F0E94EB
:1003C000540D5ECF8F929F92AF92BF92CF92DF92E9
:1003D000EF92FF920F931F93CF93DF934B01C82EA1
:1003E000DD245601AA0CBB1CAA0CBB1C26E131E083
:1003F000A20EB31EF50180819181A281B3817B01A0
:100400000027F7FC0095102FE80EF91E0A1F1B1F8E
:10041000E082F18202831383409104014F30F0F1B6
:1004200080911E01C82FD0E0CE018D966CE370E064
:100430000E942F172CE330E0B901C69E9001C79EA1
:10044000300DD69E300D1124F901E80FF91FEE0F83
:10045000FF1FE05EFE4F80819181AA2797FDA09546
:10046000BA2FE81AF90A0A0B1B0BF501E082F18298
:10047000028313834C3390F0F601EE0FFF1FE05020
:10048000FF4FC20FD31FCC0FDD1FC05EDE4F888130
:1004900099819401281B390B3183208320911E01FF
:1004A0008CE390E0C89EF001C99EF00DD89EF00D3F
:1004B0001124E20FF11DEE0FFF1FE05EFE4F91824F
:1004C0008082F601EE0FFF1FEE0FFF1FEA5EFE4F68
:1004D00060817181828193814F3028F02FE030E07C
:1004E00040E050E004C0242F30E040E050E0CC0C6D
:1004F000DD1CE2E1F1E0CE0EDF1E0E946417F60182
:1005000031832083DF91CF911F910F91FF90EF9066
:10051000DF90CF90BF90AF909F908F9008959C01F7
:1005200040E050E060E070E381E190E00E9442171B
:10053000DA01C90108950F931F93BC01809119033B
:10054000482F50E040505F4FA1E0B0E00A2FFD017E
:10055000E75EFC4F80819A01280F311D62177307F7
:1005600038F00F5F1196A630B10519F0A901EECF52
:100570009A01621B730B80E090E02CE03EEF4FEF9E
:100580005FEF0E94F01610E0F801E75EFC4F20815B
:1005900030E040E050E00E9464178CE09EEFAC0138
:1005A000049FC001059F900D149F900D112480564B
:1005B000904F820F931F1F910F91089591E0909398
:1005C0001F018CE0809364008CE880937A00109285
:1005D0007B008EE580937C009093110108958091BB
:1005E0001F018F5F80931F01833041F08430F1F051
:1005F0008230E9F58DE880937A0014C0209178006C
:100600008091790090E0982F882730E0822B932BFF
:100610000E948F02BC0180E00E94E2018B9A82E47A
:1006200080937C0081E08093110127C020917800A5
:100630008091790090E0982F882730E0822B932BCF
:100640000E949B02BC0181E00E94E20180911E0198
:1006500090E001966CE370E00E942F1780931E01DA
:10066000809104018C3318F48F5F809304018B9880
:100670008DE080937A00809364008091110190E076
:1006800008951F920F920FB60F921124F29A1092B2
:1006900011010F900FBE0F901F901895833011F429
:1006A0002FEF01C020E080E090E0FC01E851FD4F19
:1006B00020832187019689309105B9F791E09093C5
:1006C00005018091E40088608093E400909310021B
:1006D000089580E00E944E03809108038093E70014
:1006E00085EA8093E50086E08093E600E4EEF0E0A2
:1006F00080EC808380818860808381E08093050125
:100700000895782F769576957695877021E030E07C
:1007100001C0220F8A95EAF7462FE72FF0E060FF2D
:1007200005C0E851FD4F8081822B06C0E851FD4F86
:100730009081822F809589238083E72FF0E041FF0D
:1007400005C0E851FD4F8185282B05C0E851FD4FBC
:10075000818520952823218780910501813021F40E
:100760006330D1F06623C1F06150623048F020E080
:1007700030E0F901E851FD4F90818185981721F013
:1007800082E08093050108952F5F3F4F29303105A6
:1007900081F781E0809305010895EF92FF920F9316
:1007A0001F93CF93DF937B018C01C5E3D1E0FE0162
:1007B0008491E0FE02C063E001C060E00E9481031A
:1007C0002196F1E0CD34DF0729F016950795F794CF
:1007D000E794EDCFDF91CF911F910F91FF90EF90B4
:1007E0000895E5E3F1E0E80FF11DE4918E2F0E94FA
:1007F00081030895EF92FF920F931F93CF93DF939E
:10080000E42E643010F5883200F5E62FF0E0E65D66
:10081000FE4FF490E82FF0E0EE54FF4F0491CEE24B
:10082000D1E011E0FE019491812F802311F06E2D13
:1008300001C060E0892F8F0D0E9481032196F1E0B5
:10084000C533DF0711F0110FEDCFDF91CF911F916D
:100850000F91FF90EF9008950F931F93CF93DF9325
:10086000062FC82FD0E0CC0FDD1FCC0FDD1FC652E6
:10087000DF4F13E0FE018491402F612F0E94FA03A5
:10088000115021961F3FB1F760E08BE30E94810376
:10089000DF91CF911F910F910895FF920F931F93B6
:1008A000082F162FF42E633090F4843680F46AE01B
:1008B0000E940F17612F892F0E94FA031F5F802F5C
:1008C0006AE00E940F174F2D612F0E94FA031F91BB
:1008D0000F91FF9008950F931F93082F162F8930C3
:1008E00011F48CE007C08D3311F48DE003C08E331A
:1008F00020F08BE00E942C041EC0462F62E08695FB
:100900000E944D0400FF02C085E001C080E0412F3D
:1009100061E00E94FA03043128F4412F63E080E291
:100920000E94FA03412F60E08CE00E94FA03612FDD
:100930008BE30E9481031F910F9108951F93CF9322
:10094000DF93162FEC0187E2C031D80710F0CFE01B
:10095000D7E2CE0164E670E00E941B17CB01412F65
:1009600062E00E944D04CE0164E670E00E941B1715
:10097000412F60E00E944D04DF91CF911F910895B7
:10098000FF920F931F93082F162FF42E623088F4D6
:10099000262F2E5F64E60E940F17622F0E94FA0333
:1009A000802F64E60E940F174F2D612F892F0E9420
:1009B0004D041F910F91FF9008950F931F93CF93B4
:1009C000DF93162F27E28031920714F08FE097E231
:1009D000EC018CEFC931D80714F4C9E1DCEF00E079
:1009E000D7FF04C001E0D095C195DF4FCE016AE08A
:1009F00070E00E942F17CB01412F61E00E94C004DC
:100A0000002321F0412F63E086E106C0C85ED34099
:100A10002CF4412F63E080E20E94FA03412F60E052
:100A20008CE00E94FA03DF91CF911F910F910895FE
:100A3000FF920F931F93F82E162F042F633058F454
:100A40008F700E94FA031F5F402F612F8F2D8295B8
:100A50008F700E94FA031F910F91FF900895FF92EB
:100A60000F931F938C01F62E892F9927462F62E052
:100A70000E9418054F2D60E0802F0E9418051F91DD
:100A80000F91FF900895809111028F5F8093110262
:100A90008D3058F0809112028F5F81708093120226
:100AA0001092110281E0809310028091100288233D
:100AB00051F1109210028091120290E0FC0133E09B
:100AC000EE0FFF1F3A95E1F7E80FF91FE851FD4FD0
:100AD00080818093EC0081818093ED0082818093FE
:100AE000EE0083818093F10084818093F200858100
:100AF0008093F30086818093F60087818093F700CE
:100B000080858093F80080910501813029F48091DF
:100B1000E400877F8093E40008951F920F920FB640
:100B20000F921124F39A0F900FBE0F901F901895FB
:100B3000992787FD9095489668E170E00E942F17ED
:100B4000809301030895992787FD9095CC966CE3D7
:100B500070E00E942F178093FA020895992787FD6D
:100B60009095CC966CE370E00E942F17809303035E
:100B7000089580910403E82FF0E0E35BFE4F249199
:100B8000823051F48091050390E083709070892B3E
:100B900019F48DE190E00895822F90E008958091FE
:100BA000FC028730B1F080910403833039F420E0F7
:100BB00030E080910203893170F008C08A3049F436
:100BC00020E030E080910203883128F021E030E01D
:100BD00002C020E030E0C90108951F920F920FB6C5
:100BE0000F921124F19A0F900FBE0F901F9018953D
:100BF0003F924F925F926F927F928F929F92AF92AD
:100C0000BF92CF92DF92EF92FF920F931F93CF93F9
:100C1000DF93F82E5B01882319F048E0342E02C0E0
:100C200032E0332E55245A946624CF2CDD248601DD
:100C300023E0000F111F2A95E1F7702E98E0492E4E
:100C4000400E88249924C0E0D0E012C090E00E94B9
:100C5000A40B9F7025E0803A920748F48815990507
:100C600030F0A816B90618F05E2C500E4C012196F3
:100C7000EC2E8C2F870D841548F357FE11C0FF20F2
:100C800041F0C601059667E070E00E942F17F82E2C
:100C9000F394639480EAA82E85E0B82E631429F6B5
:100CA000852D90E0DF91CF911F910F91FF90EF90F4
:100CB000DF90CF90BF90AF909F908F907F906F907C
:100CC0005F904F903F900895FF920F931F93CF93A3
:100CD000DF93F82E909101038CE3989FE00111249B
:100CE0008091FA02C80FD11D80912003813011F04C
:100CF00000E002C00091FC02BE01802F0E94F805B6
:100D0000182F992787FD90950E94A40BFC0117FDD1
:100D100016C0FF2049F09F708C179D0781F4159530
:100D200015951595101759F4EF2FFF27E295EF70E1
:100D3000E370F070E75FFC4F808190E002C080E0DC
:100D400090E0DF91CF911F910F91FF900895CF9286
:100D5000DF92EF92FF920F931F93CF93DF93C82EF2
:100D6000C0EAD5E077E1D72EEE24FF248701BE014B
:100D70008C2D0E94F80587FF03C080E090E005C03D
:100D8000992787FD90950E94A40B9C0120703073D9
:100D90009F708C179D0718F0CFEFDFEF02C0EC01BA
:100DA00021978CE34D2D4802C001112414C050E25C
:100DB0002030350740F041E050E060E070E0E42A88
:100DC000F52A062B172B1D1424F4EE0CFF1C001F14
:100DD000111FDA94CC97C817D9074CF31C161D06BF
:100DE00034F2C801B701DF91CF911F910F91FF90AD
:100DF000EF90DF90CF9008950E94A70660932303A1
:100E000070932403809325039093260308950F93F2
:100E10001F93CF93DF9380910403E82FF0E0EE0F50
:100E2000FF1FE95AFE4FC591D49190910203C90F5B
:100E3000D11D833040F08091050390E08370907065
:100E4000892B09F42196E0910503F0E08F01015010
:100E50001040C80164E070E00E942F179B012E0F24
:100E60003F1FC80164E670E00E942F17261B370B56
:100E70002B5F3F4FC9018C0F9D1F67E070E00E9400
:100E80001B17282F2F5F2093FC02809120038130B5
:100E900009F020E0822F0E94FC06DF91CF911F9184
:100EA0000F910895809305030E94070708959927DD
:100EB00087FD90950B966CE070E00E942F178F5F76
:100EC000809304030E94070708950F931F93082F30
:100ED0000E94B905682F70E0CB010197112707FD2B
:100EE0001095800F911F0E942F178F5F8093020330
:100EF0000E9407071F910F910895809170008E7FC7
:100F00008093700088E08093B6001092B2008091C8
:100F1000B00085608093B0002091B6008091B6004B
:100F200090E08470907030E021703070822B932BB1
:100F3000892B91F78FEF87BB809170008160809340
:100F400070001092FD021092FE021092FF021092A9
:100F500000038CE0809301031092FA0210920303C5
:100F600081E0809302038AE08093040388E0809309
:100F700005030E94070708950E94B9059091020396
:100F80009F5F909302038917D8F491E09093020336
:100F9000809104038F5F809304038D3038F0909329
:100FA0000403809105038F5F809305031092FB0279
:100FB0008091FC028F5F67E00E940F179093FC0204
:100FC00080912003813011F080E002C08091FC020A
:100FD0000E94FC0608951F938091FD029091FE02ED
:100FE000A091FF02B09100030196A11DB11D809355
:100FF000FD029093FE02A093FF02B0930003809144
:1010000003038F5F809303038C3318F480E090E038
:101010003BC0109203038091FA028F5F8093FA0223
:101020008C3380F11092FA02809101038F5F8093DC
:101030000103883120F0109201030E94BC07109137
:101040000403133059F4809101038230D9F40E94D3
:10105000CF058823B9F01093010314C01A3091F41E
:1010600080910103833071F48091FB02882351F455
:101070000E94CF05882331F082E08093010381E054
:101080008093FB0281E090E01F9108950F931F93DE
:101090008A0190E023E0880F991F2A95E1F7860FD7
:1010A000911D0E94A40B9C01232F332722952F70A2
:1010B000F80120839F701F910F910895362F88307B
:1010C000F8F46830E8F42430D8F495E04C3D590742
:1010D00010F04FEF5FE0622F70E0762F6627729579
:1010E000707F642B752B90E043E0880F991F4A9521
:1010F000E1F7830F911D0E94CC0B81E090E00895F1
:1011000080E090E0089540911302509114024B301A
:101110005105ECF0809106018823C9F420911B024F
:1011200030911C02F90193E0EE0FFF1F9A95E1F751
:10113000CA016AE070E00E942F17220F331FC90115
:101140008E0F9F1F0E942F17862F90E008958FEF1C
:1011500090E008958091130290911402892B19F464
:1011600080E090E0089590E080910601811191E087
:1011700081E09827892F90E00895282F882361F433
:1011800010926E0080916B008F7E80936B0073983D
:1011900014BA2F9888E430C080911F02821769F139
:1011A000739A80911403992787FD9095982F88272B
:1011B000909321028093200290931802809317024B
:1011C00085E08093190281E080936E0080916B002E
:1011D000806180936B002F3F41F488E084BB2F989F
:1011E0008091130387BD89E607C080E184BB2F9AF5
:1011F0008091120387BD89E784BD20931F02089563
:10120000282F80910601882319F080E090E008954E
:10121000243689F480911603209113023091140230
:10122000280F311D80911503281B310930931E02B0
:1012300020931D022FC080911503222351F490E0CA
:1012400020911603821B910990931E0280931D0228
:1012500021C0E82FF0E080911302909114028E1BC0
:101260009F0B8E1B9F0B959587959595879530E0E5
:10127000AC01429FC001439F900D529F900D1124DD
:1012800069E170E00E942F17E60FF71FF0931E022E
:10129000E0931D0280911F028823B1F420911B026C
:1012A00030911C0280911D0290911E0282179307BB
:1012B00014F48FEF04C02817390734F481E00E943A
:1012C000BD0881E090E0089581E090E008951F92CC
:1012D0000F920FB60F9211242F933F934F938F933A
:1012E0009F934CB1242F30E040FD0AC08091C10093
:1012F00080698093C10080916B008E7F80936B002A
:101300002071307080911A0290E08095909528238A
:101310003923232BF1F1809119028823D1F52091F3
:101320001B0230911C0280911F02992787FD909526
:10133000820F931F90931C0280931B0280912002C6
:10134000909121022091170230911802821B930B79
:101350009093160280931502F49A20911B0230910B
:101360001C0280911D0290911E022817390731F44A
:101370008FEF8093190280E093E007C085E08093AF
:10138000190280912002909121029093180280937B
:10139000170240931A029F918F914F913F912F9185
:1013A0000F900FBE0F901F9018951F920F920FB6BF
:1013B0000F9211248F939F9380911702909118029E
:1013C000892B51F080911702909118020197909308
:1013D00018028093170203C014BA2F98F59A8091CF
:1013E000190281508E3F10F4809319029F918F91C2
:1013F0000F900FBE0F901F9018951F93CF93DF9300
:1014000010911F0280E00E94BD08909119029F3F39
:1014100041F480910601882309F46DC09093060180
:101420006AC01130C9F5C0911B02D0911C02809195
:1014300017039091180318161906A4F0D0931402FC
:10144000C0931302892BD1F4C436D105BCF0D093DC
:101450001803C09317038FE00E946C0B80E10E9479
:101460006C0B0CC090931C0280931B0280911B029A
:1014700090911C02909314028093130280910601B4
:101480008330A9F58FEF0E94BD08C85ED340D0938A
:101490001E02C0931D0227C01F3F69F520911B0249
:1014A00030911C02809117039091180397FF0AC096
:1014B0008091130290911402821B930B909314025B
:1014C0008093130210921C0210921B02809106015D
:1014D000833069F428513C4F30931E0220931D0243
:1014E00081E00E94BD0884E08093060104C084303E
:1014F00011F41092060180910601882391F48091E5
:101500001B0290911C028A5E93403CF4809113026E
:10151000909114028436910524F48091E20288604F
:1015200003C08091E202877F8093E202DF91CF9136
:101530001F9108951F93182F882391F480E00E9433
:10154000BD0810921C0210921B02109214021092FD
:1015500013028EEF8093060185E08093070150C04F
:1015600080910701882321F081508093070123C0D7
:1015700090910601892F81508230E8F49E5F90930C
:10158000060180911703909118038F5F9F4F51F4CC
:10159000633340F088E19CEF90931E0280931D021C
:1015A0008FEF07C088EE93E090931E0280931D0298
:1015B00081E00E94BD08809106018E3F09F513303D
:1015C00069F48FEF9FEF90931803809317038FE0D8
:1015D0000E946C0B80E10E946C0B06C0123021F45B
:1015E000109218031092170381E0809306018091F6
:1015F00017039091180397FD03C082E080930601C2
:101600001F910895609115027091160280911F023A
:101610000E9415140895F999FECF92BD81BDF89AE4
:1016200080B590E00895F999FECF90E0880F991F5A
:10163000880F991F860F911D80549F4F92BD81BDC9
:10164000F89A80B590E008959C0180E0203C38072E
:1016500028F0C90183709070892B49F4F999FECF65
:1016600032BD21BD60BDF894FA9AF99A7894089534
:10167000EF92FF921F93CF93DF9338E0E32E33E096
:10168000F32EC0E0D0E060E08C2F0E94130B182FE7
:10169000F701808362E08C2F0E94130B181740F033
:1016A000F701108163E08C2F0E94130B811730F437
:1016B00061E08C2F0E94130BF70180832196CB31C0
:1016C000D10521F00894E11CF11CDDCFDF91CF9111
:1016D0001F91FF90EF900895EF92FF920F931F9349
:1016E000CF93DF93082F8B3140F5E82EFF24E701DD
:1016F000C85FDC4F188160E00E94130B1817E9F0F7
:10170000188162E0802F0E94130B181738F018819F
:1017100063E0802F0E94130B811728F461E0802F73
:101720000E94130B8883EE0CFF1CEE0CFF1C6881DB
:10173000C70180549F4F0E94240BDF91CF911F91CE
:101740000F91FF90EF900895EF92FF920F931F93E8
:101750009C018091080190E02817390799F08901D0
:10176000000F111F0C5F1F4FC80101960E940B0B49
:10177000E82EC8010E940B0BFF243E2D2227280FC4
:10178000311D04C02091060330910703C9011F9148
:101790000F91FF90EF9008950F931F93CF93DF93D6
:1017A000EB01880F991F8038910560F48C010C5F64
:1017B0001F4FC8010E94240B6D2F7727C801019687
:1017C0000E94240BDF91CF911F910F9108952091DA
:1017D0002402207680912702822785FF17C02223CA
:1017E00011F0203631F48091220290912302826020
:1017F00005C0809122029091230281609093230280
:101800008093220210922902209327022091240221
:101810002E7030912602231709F464C0222321F18F
:10182000332311F5809109018823F1F0243031F43C
:10183000809122029091230284600FC0223031F403
:101840008091220290912302886007C0283061F4C1
:1018500080912202909123028061909323028093D1
:10186000220281E08093250280912502882319F1CC
:10187000343041F42223F9F0809122029091230226
:10188000806213C0323041F42223A9F080912202F9
:1018900090912302806409C0383069F4222359F002
:1018A000809122029091230280689093230280937A
:1018B00022021092250280910901882369F010927A
:1018C00009018091B2008E5C8093B300B99A809137
:1018D000700082608093700020932602109228028C
:1018E000109229020895909126029923A1F48091E3
:1018F00029028F5F80932902882321F48FEF809340
:10190000290208958A3009F049C0809122029091FD
:101910002302906235C0809128028F5F8093280255
:10192000882321F48FEF8093280208958430B1F545
:101930009830D1F0993028F4923079F0943071F5E4
:1019400005C09A30C1F09E3049F51FC08091220237
:10195000909123028062916013C080912202909145
:101960002302806492600CC0809122029091230235
:101970008068946005C08091220290912302986053
:1019800090932302809322020895809122029091E5
:10199000230290619093230280932202089520985D
:1019A000289A0000000083B12898209A80958770BB
:1019B0002091E20280FF06C024602093E20280E0D2
:1019C00090E008952B7F2093E20281FF03C082E024
:1019D00090E0089582FF03C083E090E0089581E0E5
:1019E00090E008951F920F920FB60F9211248F93DB
:1019F00026982E9AF09A000083B180958E76809377
:101A000024022E98269A8F910F900FBE0F901F9050
:101A100018951F920F920FB60F9211248F93EF9388
:101A2000FF9381E080930901E0E7F0E080818D7F02
:101A30008083FF91EF918F910F900FBE0F901F90B9
:101A400018950F931F93082F162F811160E08CE2D9
:101A50000E948103802F8150823010F4612F01C0D9
:101A600060E085E40E948103023008F410E0612FF9
:101A70008DE20E9481031F910F9108951F93182FEB
:101A800080E00E944E0363E0812F0E9481031F913A
:101A900008950E94A7066093230370932403809304
:101AA0002503909326030895982F80912703E82F0C
:101AB000F0E0E531F10508F08AC1E25DFF4FEE0F7D
:101AC000FF1F0590F491E02D0994992309F48BC12F
:101AD00083E00E944E030895992309F484C18BE3A7
:101AE0000E943E0D63E081E290EF0E942F05089571
:101AF000992319F080E00E944E038091050390E045
:101B000061E08053984F0E949E040895992319F034
:101B10008BE30E943E0D809127038E3011F441E04B
:101B200001C043E060E0809104030E944D04809175
:101B300027038F3011F441E001C043E062E080915F
:101B4000020359C0992359F080E00E944E0363E0DC
:101B50008BE30E94810363E083E20E948103809112
:101B60002703803111F441E001C043E062E080913D
:101B700001030E944D0480912703813111F441E05B
:101B800001C043E060E08091FA0235C0992319F06A
:101B90008BE00E943E0D80910C01882341F09091D2
:101BA000E1028091E002981711F463E001C060E067
:101BB00088E10E94810380910C01882311F060E08C
:101BC00001C063E082E30E9481036091230370916E
:101BD000240380912503909126030E94CD038091D8
:101BE000060118165CF463E083E10E942C0443E0D4
:101BF00060E0809106010E944D0408958091E20208
:101C0000882331F463E08091E0020E946B04089520
:101C100087FF02C061E00DC082FF03C063E081E185
:101C2000A0C083FF03C063E082E19BC086FFDBC0EE
:101C300063E080E196C0992319F08BE30E943E0D8A
:101C400063E080911401909115010E94DD040895D4
:101C5000992319F080E00E944E030E948308853684
:101C600038F40E94830843E060E00E94C0040895B5
:101C700063E08AE076C0992319F08AE10E943E0D64
:101C800061E080912C026DC0992379F080E00E9480
:101C90004E0363E08BE30E94810363E083E20E94D2
:101CA000810363E08AE10E94810380912C02982FD6
:101CB000990F990F990F20913002920F909308017C
:101CC00020912F0230E0322F22273295307F409131
:101CD0002D0250912E02240F351F309307032093BD
:101CE00006030E94A7060E94CD038FEF8093080190
:101CF00080912D0290912E026CE370E00E941B17E0
:101D0000CB0161E00E94F10380912D0290912E029F
:101D100025E0803A9207B0F46CE370E00E941B1754
:101D2000CB0141E062E00E944D0480912D02909130
:101D30002E026CE370E00E941B1741E060E00E94FD
:101D40004D0404C061E089E00E942C0461E08091B0
:101D50002F023AC0992319F080E00E944E0363E0FD
:101D600088E00E942C040895992319F083E00E94D2
:101D70004E03809127038B3011F441E001C043E012
:101D800062E080912B020E941805809127038C301D
:101D900011F441E001C043E0E0912B02F0E0E85F84
:101DA000FC4F60E080810E9418050895992319F086
:101DB0008BE30E943E0D61E080912C020E946B0437
:101DC0008091270363E082500E94210D089599239A
:101DD00019F08BE30E943E0D63E080911401909115
:101DE00015010E94DD040895EF92FF920F931F9357
:101DF000CF93DF93982F209122023091230220FF6E
:101E000002C011E005C021FF02C01FEF01C010E0B9
:101E1000C12FDD27C7FDD09540912703E42FF0E0C7
:101E2000E631F10508F08BC1ED5BFF4FEE0FFF1FB0
:101E30000590F491E02D0994992319F082E08093A4
:101E40000A0180910A01882309F0EBC181E00BC0EF
:101E5000992319F082E080930A0180910A01882376
:101E600009F0DFC18DE08093270301E0DBC111237E
:101E700029F080910503810F0E9452078091220270
:101E80009091230282FFCDC18EE0EDCF112329F086
:101E900080910403810F0E94570780912202909144
:101EA000230282FFBEC18FE0DECF112329F0809193
:101EB0000203810F0E946507809122029091230204
:101EC00082FFAFC180E1CFCF112329F080910103C0
:101ED000810F0E949805809122029091230282FF37
:101EE000A0C181E1C0CF112341F08091FA02810F9E
:101EF0000E94A30580E00E94AE058091220290918D
:101F0000230282FF8EC134C080912A02882331F0DF
:101F10003770232B09F485C18AE0A5CF112329F05E
:101F2000463019F4812F0E94F11520912202309140
:101F3000230223FD02C000E00BC0809127038F5FC6
:101F4000809327038A3018F086E08093270301E00E
:101F500024FF07C08FEF0E94031686E080932703BB
:101F600001E08091220287FF5DC18EEF0E9403167F
:101F700086E079CF992351F080912003813011F0D0
:101F800080E002C08091FC0280932C0283E1809368
:101F90002703112361F080912C0290E008968C0FAA
:101FA0009D1F68E070E00E942F1780932C0222FF93
:101FB000A9C084E18093270310923002109220037D
:101FC00080912C02882319F081E08093200388E11E
:101FD0000E946C0B6EC09923A9F04FE252E0609111
:101FE000300280912C020E94460890932E0280932A
:101FF0002D02815A954030F080EA95E090932E02B0
:1020000080932D02112319F180912D0290912E02BF
:102010006AE070E00E941B17CB018F569F4F212F63
:10202000332727FD3095820F931F61E970E00E94EE
:102030001B179C0153E0220F331F5A95E1F7880FBD
:10204000991F280F391F30932E0220932D022091C3
:1020500022023091230223FF08C080912F0290E0DA
:1020600005968370907080932F0222FF4BC04091A1
:102070002D0250912E0220912F026091300280910A
:102080002C020E945E08809130028F5F80933002A4
:10209000883068F080912C02882331F067E00E943C
:1020A0000F179F5F90932C0283E180932703109278
:1020B000E10280912003813011F080E002C0809124
:1020C000FC020E94490D33C0992339F0E42FF0E05F
:1020D000E95FFC4F808180932C02112389F080916D
:1020E0002C02810F80932C028E3318F08DE38093A5
:1020F0002C0280912C02893018F489E080932C0204
:1021000022FD02C000E014C0E42FF0E0E95FFC4FC4
:1021100080912C0280838091270381500E946C0B58
:10212000809127038F5F809327031092E10201E0E3
:10213000809122029091230284FF74C019CF809174
:102140002A02882311F000E004C086E08093270370
:1021500001E0992319F085E080930A0180910A013A
:10216000882309F05FC004CF24FD02C000E006C050
:1021700086E0809327030E94380B01E080912202C1
:102180009091230282FF0DC0809127038C3031F49F
:1021900080912B020E946C0B8BE001C08CE080933D
:1021A0002703809127038B3069F480912B02C80F9D
:1021B000D11DCE014B966BE170E00E941B178093FE
:1021C0002B0230C062E080912B020E94130B182F6B
:1021D000E82EFF2463E080912B020E94130B682FEE
:1021E00070E06F5F7F4F6E197F0920912B02E22F05
:1021F000F0E0E85FFC4F8081C80FD11DCE19DF09E8
:10220000CE01860F971F0E942F17180F10832223CD
:1022100049F40E94690329CE992319F081E0809343
:102220000A0100E0809122029091230220912A026B
:1022300093FF0EC08AE08093270380E0222309F4F5
:1022400081E080932A0210922302109222021FC082
:102250002223F1F494FF0AC08BE0809327031092AD
:1022600023021092220210922B0211C092FF02C090
:102270008DE00BC090FF02C082E107C095FF02C055
:1022800086E003C091FF04C082E08093270301E051
:102290001092230210922202802F90E0DF91CF91C2
:1022A0001F910F91FF90EF9008950F931F9310923D
:1022B00028031092290310922A0310922B03909363
:1022C00032028093310200910D03602F70E06F5F46
:1022D0007F4F8FEF9FE70E942F1770933402609318
:1022E0003302882777FD8095982F10E020E030E0BA
:1022F000A90198010E94F01620910E0330E040E001
:1023000050E00E94641720933502309336024093C8
:102310003702509338021F910F910895CF92DF92A8
:10232000EF92FF920F931F93CF93DF93EB019C01EA
:10233000261B370B8091330290913402821793074A
:102340002CF49FEFC92E9FE7D92E15C0909581954B
:102350009F4F281739072CF481E0C82E80E8D82E2B
:102360000AC080910D0390E0289F6001299FD00C46
:10237000389FD00C1124442737FD4095542F80916D
:10238000280390912903A0912A03B0912B03280FD1
:10239000391F4A1F5B1F2093280330932903409362
:1023A0002A0350932B038091350290913602A0911D
:1023B0003702B091380282179307A407B50764F07B
:1023C000B095A095909581959F4FAF4FBF4F28171F
:1023D00039074A075B0744F4809328039093290345
:1023E000A0932A03B0932B0360910E0370E080E06A
:1023F00090E0209128033091290340912A035091C5
:102400002B030E94F0167B018C0120913102309148
:1024100032022C1B3D0B80910F0390E0289FB001EE
:10242000299F700D389F700D1124D0933202C093F4
:102430003102882777FD8095982F6E0D7F1D801FB4
:10244000911F9601442737FD4095542F620F731F4B
:10245000841F951F2091100330E040E050E00E945F
:10246000641757FF04C020E030E040E050E025361C
:1024700031054105510524F024E630E040E050E00C
:10248000822F992787FD9095DF91CF911F910F9112
:10249000FF90EF90DF90CF9008951F920F920FB6AC
:1024A0000F9211248F93EF93FF93E1ECF0E0808182
:1024B000877B8083FF91EF918F910F900FBE0F90DC
:1024C0001F9018959C0140E050E094E0220F331FCC
:1024D000441F551F9A95D1F760E079E08DE390E0B5
:1024E0000E94421721503040832F99278093C500C6
:1024F0002093C40086E08093C200EBE6F0E0808188
:10250000816080830895F8948091C10085FD0FC09B
:102510008091C1008F7B8093C1008091C000806456
:102520008093C0008091C10088628093C10078943C
:1025300008951F920F920FB60F9211242F933F937D
:102540004F935F936F937F938F939F93AF93BF93BB
:10255000EF93FF930E941B13882319F08093C6000A
:102560000FC08091C1008F7D8093C1008091C00019
:1025700080648093C0008091C10080648093C1001A
:10258000FF91EF91BF91AF919F918F917F916F914B
:102590005F914F913F912F910F900FBE0F901F9021
:1025A00018951F920F920FB60F9211242F933F93FD
:1025B0004F935F936F937F938F939F93AF93BF934B
:1025C000EF93FF938091C6000E942E13E1ECF0E0A0
:1025D00080818F768083EBE6F0E08081816080836C
:1025E000FF91EF91BF91AF919F918F917F916F91EB
:1025F0005F914F913F912F910F900FBE0F901F90C1
:102600001895582FF89440913902E42FF0E09F017B
:102610002F5F3F4F2F77307080913A0290E028175C
:10262000390739F0E35CFD4F50834F5F4F7740939C
:1026300039027894089520913A02809139028217E4
:1026400011F480E009C0E22FF0E0E35CFD4F8081EF
:102650002F5F2F7720933A0290E00895282F882348
:10266000D1F08D3009F42AE080913B02E82FF0E0B0
:10267000E354FD4F2083982F9F5F9F7190933B02FF
:1026800080913C02981721F49F5F9F7190933C02C8
:102690002A3009F4F69A0895F89420913C0280912A
:1026A0003B02821711F480E009C0E22FF0E0E3540E
:1026B000FD4F80812F5F2F7120933C02789490E032
:1026C00008951F93182F843658F064E60E940F1760
:1026D000805D0E940113812F64E60E940F17192F5D
:1026E000812F6AE00E940F17805D0E940113812FE5
:1026F0006AE00E940F17892F805D0E9401131F91CD
:1027000008950F931F938C0164E670E00E941B17DD
:10271000CB010E946113C80164E670E00E941B17A0
:102720000E9461131F910F9108951F93182F829596
:102730008F708A3010F0895A01C0805D0E940113A9
:10274000812F8F708A3010F0895A01C0805D0E94FD
:1027500001131F9108950F931F938C01812F9927C7
:102760000E949513802F0E9495131F910F91089539
:10277000CF93DF93EC0103C00E9401132196FE0169
:1027800084918823C9F7DF91CF91089581E791E083
:102790000E94B81308950F931F93082F10E01FC0D5
:1027A0000E944C13982F282F20532A3038F081563E
:1027B000863010F4275202C0892F1AC0E12FE69507
:1027C00010FF06C0F0E0E352FD4F8081280F05C0E6
:1027D000F0E0E352FD4F2295207F20831F5F10170A
:1027E000F9F60E944C138A3019F480E090E001C0A1
:1027F00090E01F910F9108950E9401138BE50E94B4
:1028000001138091DD020E9495138DE50E94011352
:102810008DE30E94011308959091390280913A024C
:10282000981711F00E9483120895CF93DF93EB0164
:10283000181614F48BE203C0882319F08DE20E946D
:10284000011380E20E940113CE010E94AB138AE0C3
:102850000E9401130E940C14DF91CF9108951F93E1
:10286000182F89EC91E00E94B8138091FC028053EC
:102870000E94951380E20E940113809102030E943E
:1028800061138EE20E940113809104030E94611380
:102890008EE20E940113809105030E94611380E281
:1028A0000E940113809101030E9461138AE30E9438
:1028B00001138091FA020E9461138AE30E940113BE
:1028C000809103030E94611384EC91E00E94B8138D
:1028D000809110010E9461138FEB91E00E94B81368
:1028E00080911401909115010E9481138AEB91E06F
:1028F0000E94B81390910B019D3328F085EB91E075
:102900000E94B81306C082E3989FC00111240E9460
:10291000811380EB91E00E94B81380911201909195
:1029200013010E9481138091E202882341F08CEA16
:1029300091E00E94B8138091E2020E949513112346
:1029400021F089EA91E00E94B8138AE00E94011305
:102950000E940C141F9108951F9316C11D3409F491
:10296000EEC01E3488F4143459F1153438F411349F
:1029700009F4F4C0123409F005C1C5C01734A1F13F
:10298000183409F0FFC0A9C0143501F1153538F429
:10299000123509F452C0133509F0F4C025C01735BB
:1029A00009F44BC0193509F485C0163509F0EAC0A1
:1029B0000E944C138A3009F0E5C00E94C613E2C0A1
:1029C0000E944C138A3009F0DDC099C082E00E9459
:1029D000CB13882309F0DFC084E50E94FC138091AB
:1029E000DD020E94DA1563C0173439F482E00E94D8
:1029F000CB13882309F0CFC014C084E00E94CB130E
:102A0000882309F0C8C09091DD029B3150F4E92F72
:102A1000F0E0E85FFC4F8091DE028083892F0E9406
:102A20006C0B812F0E94FC13E091DD02F0E0E85F67
:102A3000FC4F80810E949513AEC0123539F482E0BC
:102A40000E94CB13882309F0A6C01EC086E00E9416
:102A5000CB13882309F09FC02091DE028091DD0214
:102A6000422F50E04F705070542F44279091DF0256
:102A7000490F511D682F6F7022952F7082958F70AE
:102A80000E945E081092E102812F0E94FC132091A7
:102A9000DD02822F82958F7090E033E0880F991FBE
:102AA0003A95E1F72F70820F911D0E94A40B0E94AE
:102AB000AB1371C086E00E94CB13882309F06BC072
:102AC0008091DD020E9452078091DE020E9457072A
:102AD0008091DF020E94650712C086E00E94CB133E
:102AE000882309F058C08091DD020E9498058091EA
:102AF000DE020E94A3058091DF020E94AE0581E004
:102B00000E942F143FC084E00E94CB13882309F059
:102B100042C08091DD02833109F03DC08091DE0228
:102B20008432C9F5F89488E190E028E00FB6F89473
:102B3000A895809360000FBE20936000FFCF82E0D5
:102B40000E94CB13882339F590E08091DD0281301B
:102B500009F491E0892F0E94031610C082E00E94C0
:102B6000CB138823C1F49091DD029930A0F09E33FD
:102B700090F48AE080930D019093E00281E00E943E
:102B80002F1409C00E940C140E944C13182F882384
:102B900009F0E4CE04C08AE00E940113F3CF1F9134
:102BA00008950E94C61380E895E20E9462120E9476
:102BB0000C140895893018F080E090E00895E82F13
:102BC000F0E0EE0FFF1FE353FE4F85919491FC015F
:102BD000FF7797FF03C0808191810895808190E005
:102BE00008959091E002980F9093E002993010F4CC
:102BF00089E003C09E3318F08DE38093E0028AE001
:102C000080930D0108958F3F21F520910C0122231F
:102C100031F09091E0028091E102981749F08091A3
:102C2000E0028093E3028091E1028093E40204C019
:102C30001092E3021092E40280E0222309F481E082
:102C400080930C018823E1F08091E1028093E002FF
:102C500017C08E3F99F420910C01222331F49091FA
:102C6000E4028091E102981721F48091E3028093BD
:102C7000E00210920C01222319F481E080930C01F0
:102C80008AE080930D0108951F93162F882321F465
:102C90008091E1028823E9F490E08091E1028111C2
:102CA00091E0892F0E946406982F882391F08093E9
:102CB000E10280910C01882361F09093E002809101
:102CC0000D0187FF06C080910B01981711F010923B
:102CD0000D0180910E0190910F01009729F001974D
:102CE00090930F0180930E0180910D0118161CF432
:102CF000815080930D0180910E0190910F01892BDD
:102D000029F080910D01882309F042C09091E002E2
:102D100080910B01981761F090930B018091140141
:102D2000909115010E94551110920F0110920E0101
:102D300080910E0190910F01892B21F58091110353
:102D400025E0829FC001112490930F0180930E0112
:102D50009091E0029A3038F460911401709115015D
:102D600084EF91E00CC09D3310F014E60BC060912D
:102D700014017091150182E3989FC00111240E94F3
:102D80008E11182F8FEF80930D0180E00E942F1479
:102D900040911201509113018091210324E1829FFF
:102DA000C00111242091E2024817590710F4206451
:102DB00001C02F7B2093E2028091220324E1829FB5
:102DC000C00111242091E2024817590710F420682D
:102DD00001C02F772093E202812F90E01F91089588
:102DE000629FD001739FF001829FE00DF11D649FEF
:102DF000E00DF11D929FF00D839FF00D749FF00D7B
:102E0000659FF00D9927729FB00DE11DF91F639F1B
:102E1000B00DE11DF91FBD01CF0111240895991BCB
:102E200079E004C0991F961708F0961B881F7A95C1
:102E3000C9F780950895AA1BBB1B51E107C0AA1FC3
:102E4000BB1FA617B70710F0A61BB70B881F991F4B
:102E50005A95A9F780959095BC01CD01089597FBEF
:102E6000092E07260AD077FD04D0E5DF06D0002022
:102E70001AF4709561957F4F0895F6F790958195B6
:102E80009F4F0895A1E21A2EAA1BBB1BFD010DC086
:102E9000AA1FBB1FEE1FFF1FA217B307E407F5070A
:102EA00020F0A21BB30BE40BF50B661F771F881FE6
:102EB000991F1A9469F760957095809590959B017C
:102EC000AC01BD01CF01089597FB092E05260ED058
:102ED00057FD04D0D7DF0AD0001C38F45095409538
:102EE000309521953F4F4F4F5F4F0895F6F79095DE
:102EF0008095709561957F4F8F4F9F4F0895FFCFBD
:102F0000FF7FFF7F0101FE05FF0102FF011010009E
:00000001FF
