:100000000C9418010C9435010C94AB090C94D40D8C
:100010000C94EB0D0C940A060C9435010C943501EC
:100020000C9435010C9435010C9435010C94270A7D
:100030000C9435010C94DF170C94A7170C945B17E4
:100040000C9435010C9435010C9435010C94820309
:100050000C9435010C9435010C94B9053B0E3F0E00
:10006000D00FD00FD00FD00FDE0E940E0D0F1A0F41
:100070006E0E9A0FA00FA00FC00F480E540E540E14
:100080006E0E6E0EDE0F2D0F360F03100F10501177
:100090005011501150116D106D106D106D106D10CC
:1000A000811187118711D4111B102A103D104C109B
:1000B0005B10A210B110D310FB14D0140F1529142B
:1000C0000F150F153D14BA140F150F150F150F1539
:1000D000EC140F150F150F150F156A143D142F147E
:1000E0000F1521146A140F15A7143F065B4F666D98
:1000F0007D077F6F777C395E797163547376300842
:100100004001484109495054105C00332738583E9B
:10011000786E2001160720160116201602162016EA
:10012000031620160416201605162016061620168D
:1001300007160B011F241616161620160C16200E75
:100140001C1C000F0F20001D202000120E1D0B0A8A
:100150002626200E0220200E03200E0E121C28241C
:100160001F1B02031B1918000100020304050607E8
:1001700008090A3935423E0C0D0E0F1011121314E6
:10018000151F1C1F1E1F1E1F1F1E1F1E1F00001FCE
:10019000003B005A0078009700B500D400F300112E
:1001A0000130014E01563A204F70656E4852323090
:1001B0002053572076657273696F6E20302E393761
:1001C000206275696C6420466562202038203230D8
:1001D00030392031373A31333A3034202452657681
:1001E0003A2031373720240A0020570020580020B9
:1001F000453A002049733A200020423A2000424FFD
:100200004F540020533A200020493A200020563A0B
:100210002000443A200012811081E782E3020901A4
:10022000E4020A011982178215820E830000000081
:1002300011241FBECFEFD4E0DEBFCDBF11E0A0E0A0
:10024000B1E0E2EDF1E302C005900D92AE30B107EE
:10025000D9F713E0AEE0B1E001C01D92AE33B107B3
:10026000E1F70E9437010C94E8180C9400001F93EA
:1002700090E89093610081E08093610090BF8FEFE0
:1002800080937E008DE08093640088E183BB9EE0D4
:100290009DB983E08EB988E080BB83EF81BB95B9BF
:1002A00081ED84B98EE280936C0080EC8DBB0E945E
:1002B0006B0783B120E090E0809590958E709070F0
:1002C0000E9709F421E0822F0E944C0C81E00E94DD
:1002D000770A0E94A3030E94C90C1EBA789483E097
:1002E00090E00E94E90B843039F063E082E10E94E3
:1002F00058040E946F05FFCF0E941E15F8948EB31C
:10030000882339F584B590E087709070892B21F4AB
:100310008091C100887111F081E007C080910F01C8
:10032000882311F083E001C087E083BF80910F0133
:10033000882339F010920F0180917A0080648093B5
:100340007A007298789488950000729A86E083BF4C
:1003500001C07894F39B04C0F3980E946F05CECF40
:10036000F29B04C0F2980E94E702C8CFF69B04C03B
:10037000F6980E941214C2CFF59B04C0F5980E9413
:10038000C80ABCCFF49B08C0F4980E94B10D0E942B
:10039000770A0E94690BB2CFF09B03C0F0980E94CD
:1003A000C90CF19B38C0F1980E94D607182F6091B4
:1003B0000E010E94881580930E01112371F0809127
:1003C0000403863051F4809109038A3031F480911E
:1003D0000203882311F40E94770A0E94B10D0E9443
:1003E000770A80910E010E9444090E94550D0E94D7
:1003F000D6028091070187FD03C0815080930701D9
:1004000080E00E942D0E8091E40088608093E400DB
:1004100081E08093120280912D0290912E02892B0F
:1004200029F480910701882309F068CF80E00E94B9
:10043000E00F182F882319F081E00E94E00F812F30
:100440000E942D0E8091E40088608093E40081E09A
:100450008093120253CFA0E0B0E0E1E3F2E00C940D
:10046000B1184B01C82EDD245601AA0CBB1CAA0CE6
:10047000BB1C28E131E0A20EB31EF5018081918101
:10048000A281B3817B010027F7FC0095102FE80EB5
:10049000F91E0A1F1B1FE082F18202831383409121
:1004A00000014F30F0F180912001C82FD0E0CE0143
:1004B0008D966CE370E00E945B182CE330E0B9018C
:1004C000C69E9001C79E300DD69E300D1124F901B5
:1004D000E80FF91FEE0FFF1FEE5DFE4F8081918147
:1004E000AA2797FDA095BA2FE81AF90A0A0B1B0B49
:1004F000F501E082F182028313834C3390F0F60120
:10050000EE0FFF1FEC5EFE4FC20FD31FCC0FDD1F9F
:10051000CE5DDE4F888199819401281B390B318390
:100520002083209120018CE390E0C89EF001C99EB9
:10053000F00DD89EF00D1124E20FF11DEE0FFF1FFC
:10054000EE5DFE4F91828082F601EE0FFF1FEE0FEF
:10055000FF1FE85EFE4F60817181828193814F3081
:1005600028F02FE030E040E050E004C0242F30E0DD
:1005700040E050E0CC0CDD1CE0E1F1E0CE0EDF1EEF
:100580000E949018F60131832083ECE0CDB7DEB7EE
:100590000C94CD189C0140E050E060E070E381E1F4
:1005A00090E00E946E18DA01C901089591E09093DD
:1005B00021018CE0809364008CE880937A00109293
:1005C0007B008EE580937C0090930F010895CF927D
:1005D000DF92EF92FF920F931F93809121018F5F23
:1005E00080932101833049F08430F9F0823009F0A2
:1005F00079C08DE880937A0014C0209178008091B2
:10060000790090E0982F882730E0822B932B0E946E
:10061000CA02BC0180E00E942B028B9A82E4809384
:100620007C0081E080930F0163C08091780020916D
:10063000790030E0722F662790E0682B792B80914B
:100640002A03482F50E040505F4FA1E0B0E02A2F2E
:10065000FD01E65DFC4F8081FA01E80FF11D6E1788
:100660007F0730F0AF012F5F1196A630B10579F703
:1006700030E0F901E65DFC4FE0808CE09EEF289FC2
:100680006001299FD00C389FD00C112480EA9FE094
:10069000C80ED91E641B750B80E090E02CE03EEF85
:1006A0004FEF5FEF0E940F18FF2400E010E0A80159
:1006B00097010E949018C20ED31EB60181E00E94DD
:1006C0002B028091200190E001966CE370E00E9483
:1006D0005B1880932001809100018C3318F48F5FA8
:1006E000809300018B988DE080937A008093640062
:1006F00080910F0190E01F910F91FF90EF90DF909C
:10070000CF9008950F9300E0F29A00930F010F919C
:100710001895833011F42FEF01C020E080E090E0C5
:10072000FC01E051FD4F2083019682319105C1F714
:1007300091E0909301018091E40088608093E4004F
:1007400090931202089580E00E9489038091120321
:100750008093E70085EA8093E50086E08093E600D9
:10076000E4EEF0E080EC808380818860808381E02B
:10077000809301010895EF92FF920F93CF93DF933F
:100780007B01082FC9E6D1E0FE018491662706951A
:10079000F794E79408F463E00E94D7032196C138E8
:1007A00099F7DF91CF910F91FF90EF900895782FF7
:1007B000769576957695877021E030E001C0220F1E
:1007C0008A95EAF7462FE72FF0E060FF05C0E05179
:1007D000FD4F8081822B06C0E051FD4F9081822F1A
:1007E000809589238083E72FF0E041FF05C0E05129
:1007F000FD4F8185282B05C0E051FD4F8185209557
:10080000282321876150623068F080910101813096
:10081000A9F020E030E0F901E051FD4F90818185A1
:10082000981721F082E08093010108952F5F3F4FD8
:100830002930310581F781E0809301010895E9E6CF
:10084000F1E0E80FF11DE4918E2F0E94D703089587
:10085000EF92FF920F931F93CF93DF93E42E6430B8
:1008600010F5883200F5E62FF0E0E25AFE4FF490E2
:10087000E82FF0E0E651FF4F0491C2E6D1E011E02D
:10088000FE019491812F802311F06E2D01C060E054
:10089000892F8F0D0E94D7032196F1E0C936DF071B
:1008A00011F0110FEDCFE6E0CDB7DEB70C94D31801
:1008B0000F931F93CF93DF93062FC82FD0E0CC0F59
:1008C000DD1FCC0FDD1FCE5EDE4F13E0FE018491F5
:1008D000402F612F0E942804115021961F3FB1F72D
:1008E00060E08BE30E94D703DF91CF911F910F91BE
:1008F0000895FF920F931F93082F162FF42E633045
:1009000090F4843680F46AE00E942E18612F892FBB
:100910000E9428041F5F802F6AE00E942E184F2D2E
:10092000612F0E9428041F910F91FF9008950F934B
:100930001F93082F162F893011F48CE007C08D33D8
:1009400011F48DE003C08E3320F08BE00E94580438
:100950001EC0462F62E086950E94790400FF02C007
:1009600085E001C080E0412F61E00E94280404314D
:1009700028F4412F63E080E20E942804412F60E0C8
:100980008CE00E942804612F8BE30E94D7031F9103
:100990000F9108951F93CF93DF93162FEC0187E2F9
:1009A000C031D80710F0CFE0D7E2CE0164E670E0A6
:1009B0000E944718CB01412F62E00E947904CE01CA
:1009C00064E670E00E944718412F60E00E947904BD
:1009D000DF91CF911F910895FF920F931F93082FDE
:1009E000162FF42E623088F4262F2E5F64E60E94C4
:1009F0002E18622F0E942804802F64E60E942E1871
:100A00004F2D612F892F0E9479041F910F91FF9024
:100A100008950F931F93CF93DF93162F27E2803112
:100A2000920714F08FE097E2EC018CEFC931D80700
:100A300014F4C9E1DCEF00E0D7FF04C001E0D09579
:100A4000C195DF4FCE016AE070E00E945B18CB01D8
:100A5000412F61E00E94EC04002321F0412F63E06C
:100A600086E106C0C85ED3402CF4412F63E080E2EB
:100A70000E942804412F60E08CE00E942804DF914E
:100A8000CF911F910F910895FF920F931F93F82E0E
:100A9000162F042F633058F48F700E9428041F5FB4
:100AA000402F612F8F2D82958F700E9428041F91F7
:100AB0000F91FF900895FF920F931F938C01F62ED4
:100AC000812F9927462F62E00E9444054F2D60E058
:100AD000802F0E9444051F910F91FF9008958091EF
:100AE00013028F5F809313028D3058F080911402AF
:100AF0008F5F8170809314021092130281E08093C3
:100B0000120280911202882351F1109212028091F8
:100B1000140290E0FC0123E0EE0FFF1F2A95E1F79D
:100B2000E80FF91FE051FD4F80818093EC00818137
:100B30008093ED0082818093EE0083818093F100A9
:100B400084818093F20085818093F3008681809375
:100B5000F60087818093F70080858093F80080916C
:100B60000101813029F48091E400877F8093E400C3
:100B70000895F39A189590E0489668E170E00E9415
:100B80005B1880930903089590E0CC966CE370E0C5
:100B90000E945B1880930203089590E0CC966CE36A
:100BA00070E00E945B1880930B03089580910C0302
:100BB000E82FF0E0E058FE4F2491823051F480910C
:100BC0000D0390E083709070892B19F48DE190E013
:100BD0000895822F90E00895809104038730B1F04A
:100BE00080910C03833039F420E030E080910A03D7
:100BF000893170F008C08A3049F420E030E08091FB
:100C00000A03883128F021E030E002C020E030E023
:100C1000C9010895F19A1895A0E0B0E0E2E1F6E08C
:100C20000C94AC18F82E5B01882319F048E0342EA0
:100C300002C032E0332E55245A946624CF2CDD2492
:100C4000860123E0000F111F2A95E1F7702E98E02E
:100C5000492E400E88249924C0E0D0E012C090E0D4
:100C60000E94860C9F7025E0803A920748F4881510
:100C7000990530F0A816B90618F05E2C500E4C01FC
:100C80002196EC2E8C2F870D841548F357FE11C04A
:100C9000FF2041F0C601059667E070E00E945B18F6
:100CA000F82EF394639480EAA82E85E0B82E63149E
:100CB00029F6852D90E0E1E1CDB7DEB70C94C81898
:100CC000FF920F931F93CF93DF93F82E9091090318
:100CD0008CE3989FE001112480910203C80FD11D7D
:100CE00080913103813011F000E002C000910403D3
:100CF000BE01802F0E940C06182F992787FD909522
:100D00000E94860CFC0117FD16C0FF2049F09F7061
:100D10008C179D0781F4159515951595101759F4A5
:100D2000EF2FFF27E295EF70E370F070ED5EFC4F60
:100D3000808190E002C080E090E0E5E0CDB7DEB7D2
:100D40000C94D418A0E0B0E0E8EAF6E00C94B518F2
:100D5000C82EC0EAD5E077E1D72EEE24FF24870124
:100D6000BE018C2D0E940C0687FF03C080E090E03E
:100D700005C0992787FD90950E94860C9C012070E4
:100D800030739F708C179D0718F0CFEFDFEF02C014
:100D9000EC0121978CE34D2D4802C001112414C0B1
:100DA00050E22030350740F041E050E060E070E074
:100DB000E42AF52A062B172B1D1424F4EE0CFF1C35
:100DC000001F111FDA94CC97C817D9074CF31C16D3
:100DD0001D0634F2C801B701E8E0CDB7DEB70C94C8
:100DE000D1180E94A2066093370370933803809352
:100DF000390390933A0308950F931F93CF93DF9392
:100E000080910C03E82FF0E0EE0FFF1FE557FE4F37
:100E1000C591D49190910A03C90FD11D833040F040
:100E200080910D0390E083709070892B09F42196D6
:100E3000E0910D03F0E08F0101501040C80164E023
:100E400070E00E945B189B012E0F3F1FC80164E6F3
:100E500070E00E945B18261B370B2B5F3F4FC901C8
:100E60008C0F9D1F67E070E00E944718282F2F5FAE
:100E70002093040380913103813009F020E0822F18
:100E80000E94F106DF91CF911F910F9108958093F9
:100E90000D030E94FC06089590E00B966CE070E054
:100EA0000E945B188F5F80930C030E94FC060895DC
:100EB0001F93182F0E94D605682F70E0CB01019771
:100EC000810F911D0E945B188F5F80930A030E941F
:100ED000FC061F910895809170008E7F80937000B2
:100EE00088E08093B6001092B2008091B0008560D7
:100EF0008093B0002091B6008091B60090E084709D
:100F0000907030E021703070822B932B892B91F7F9
:100F10008FEF87BB8091700081608093700010928A
:100F200005031092060310920703109208038CE049
:100F3000809309031092020310920B0381E08093C7
:100F40000A0380930C0389E080930D030E94FC0642
:100F500008950E94D60590910A039F5F90930A031B
:100F6000891798F491E090930A0380910C038F5FA6
:100F700080930C038D3038F090930C0380910D0317
:100F80008F5F80930D03109203038091040367E049
:100F90000E942E189F5F909304038091310381304B
:100FA00009F090E0892F0E94F10608951F93809127
:100FB000050390910603A0910703B09108030196E1
:100FC000A11DB11D8093050390930603A093070311
:100FD000B093080380910B038F5F80930B038C33D6
:100FE00018F480E090E03BC010920B038091020364
:100FF0008F5F809302038C3380F110920203809103
:1010000009038F5F80930903883120F01092090350
:101010000E94A90710910C03133059F48091090321
:101020008230D9F40E94EC058823B9F010930903AB
:1010300014C01A3091F480910903833071F48091C7
:101040000303882351F40E94EC05882331F082E0E9
:101050008093090381E08093030381E090E01F9176
:1010600008950F931F938A0190E023E0880F991F42
:101070002A95E1F7860F911D0E94860C9C01232F73
:10108000332722952F70F80120839F701F910F91B5
:101090000895362F8830F8F46830E8F42430D8F416
:1010A00095E04C3D590710F04FEF5FE0622F70E084
:1010B000762F66277295707F642B752B90E043E046
:1010C000880F991F4A95E1F7830F911D0E94AE0C7E
:1010D00081E090E0089580E090E00895409117024B
:1010E000509118024B305105ECF080910201882399
:1010F000C9F42091150230911602F90193E0EE0F28
:10110000FF1F9A95E1F7CA016AE070E00E945B1840
:10111000220F331FC9018E0F9F1F0E945B18862F5D
:1011200090E008958FEF90E00895809117029091DC
:101130001802892B19F480E090E0089590E08091E6
:101140000201811191E081E09827892F90E00895B4
:10115000482F882379F410926E0080916B008F7E67
:1011600080936B00739814BA2F9888E484BD109212
:101170002402089580912402841709F484C0809188
:1011800024028823A9F01092290210922A021092B8
:101190002B0210922C0210920F0310920E03109249
:1011A0001C0210921B0282E0809303011092240221
:1011B00040932402739A80912403282F30E0809179
:1011C0000201882319F48091230302C08091220335
:1011D00090E0BC01629FC001639F900D729F900DD3
:1011E000112464E670E00E944718E3E0660F771F61
:1011F000EA95E1F7709326026093250253E0220FEF
:10120000331F5A95E1F78091270390E0BC01269F98
:10121000C001279F900D369F900D112464E670E069
:101220000E9447187093280260932702809125023C
:1012300090912602880F991F880F991F90931E0284
:1012400080931D028091270290912802880F991F98
:10125000880F991F9093200280931F0281E085BB25
:1012600016BC80936E0080911F0387BD4F3F31F401
:1012700088E084BB2F9889E684BD089580E184BB13
:101280002F9A89E784BD0895282F80910201882331
:1012900019F080E090E00895243689F480912103CC
:1012A0002091170230911802280F311D80912003E0
:1012B000281B310930932302209322022FC08091F2
:1012C0002003222351F490E020912103821B9109F5
:1012D000909323028093220221C0E82FF0E08091B6
:1012E0001702909118028E1B9F0B8E1B9F0B9595DA
:1012F00087959595879530E0AC01429FC001439F4B
:10130000900D529F900D112469E170E00E945B18CE
:10131000E60FF71FF0932302E0932202809124024C
:101320008823B1F420911502309116028091220297
:10133000909123028217930714F48FEF04C02817AB
:10134000390734F481E00E94A80881E090E0089514
:1013500081E090E008951F920F920FB60F92112432
:101360002F933F934F938F939F934CB1242F30E053
:1013700040FD0AC08091C10080698093C1008091C6
:101380006B008E7F80936B0080916B0084FF53C055
:10139000207130708091210290E0809590952823F3
:1013A0003923232B09F447C02091150230911602EE
:1013B00080912402992787FD9095820F931F909327
:1013C00016028093150280911B0290911C0290934B
:1013D0001A028093190210921C0210921B02F49AB6
:1013E00080916B008F7E80936B002091150230916D
:1013F000160280912202909123022817390759F48E
:101400008FEF9FEF9093200280931F02809127021D
:10141000909128020CC0809127029091280290930D
:10142000200280931F0280912502909126029093C2
:101430001E0280931D02409321029F918F914F9134
:101440003F912F910F900FBE0F901F9018951F92F4
:101450000F920FB60F9211242F938F939F93809129
:101460001B0290911C02019690931C0280931B0218
:1014700080911D0290911E02892BF9F080911D022E
:1014800090911E02019790931E0280931D028091FD
:101490001F0290912002009751F02FEF8F3F92078B
:1014A000F1F001979093200280931F0218C01092D0
:1014B000210280916B00806110C080911B0290918D
:1014C0001C0290931A028093190214BA2F9888E490
:1014D00084BDF59A80916B008F7E80936B009F9105
:1014E0008F912F910F900FBE0F901F9018951F9303
:1014F000182F8823B9F480E00E94A80810921602E1
:101500001092150210921802109217028EEF80931B
:10151000020185E0809304018091E602877F809339
:10152000E60234C080910401882321F08150809329
:10153000040110C080910201813061F482E0809347
:10154000020188EE93E0909323028093220281E0CF
:101550000E94A808809102018E3FC1F4133069F403
:101560008FEF9FEF909329038093280386E10E94D9
:10157000160C87E10E94160C06C0123021F410925E
:1015800029031092280381E0809302011F9108959E
:101590001F93CF93DF931091240280E00E94A8084C
:1015A00080911F02909120028F5F9F4F31F48091B4
:1015B0000201882309F46EC025C0113009F041C032
:1015C000C0911502D091160280910201823081F5FE
:1015D000D0931802C0931702809128039091290399
:1015E000892BC9F4C436D1056CF0D0932903C0937C
:1015F000280386E10E94160C87E10E94160C1092C7
:10160000020148C08FEF809302018091E60288605A
:101610008093E6023FC08FEF0E94A808C85ED340C7
:10162000D0932302C093220283E08093020132C050
:1016300080911702909118029093160280931502E0
:1016400029C01F3F39F580910201833089F410923F
:10165000020120911502309116028091170290919B
:101660001802821B930B90931802809317020EC0EE
:101670008091150290911602853691053CF01093E9
:1016800002018091E60288608093E60210921602C1
:101690001092150280910201882379F4809117023B
:1016A000909118028436910544F48FEF80930201E3
:1016B0008091E60288608093E60247B56091190246
:1016C00070911A0280E00E944E13DF91CF911F911A
:1016D00008958091190290911A0281529E4408F057
:1016E0006EC080910301882309F066C02091190221
:1016F00030911A0240E050E08091290290912A0234
:10170000A0912B02B0912C02820F931FA41FB51F32
:101710008093290290932A02A0932B02B0932C026B
:1017200080910E0390910F03019690930F03809385
:101730000E032091190230911A022C5F3F4FB3E043
:1017400036952795BA95E1F780912403281B310936
:101750008091250390E0AC01249FC001259F900D4E
:10176000349F900D112464E670E00E945B18809114
:101770002603282F30E0261737074CF088279927B3
:10178000821B930B9B01681779070CF49C0187B5AA
:10179000A901480F511D80911F0390E08417950700
:1017A0004CF080911E03282F30E0CA0142175307E6
:1017B0000CF4C90187BD03C081508093030147B574
:1017C0006091190270911A02809124020E944E13B6
:1017D0000895F999FECF92BD81BDF89A80B590E049
:1017E0000895F999FECF90E0880F991F880F991FEF
:1017F000860F911D80549F4F92BD81BDF89A80B590
:1018000090E008959C0180E0203C380728F0C90151
:1018100083709070892B49F4F999FECF32BD21BDB8
:1018200060BDF894FA9AF99A78940895EF92FF922D
:101830000F931F93CF93DF93082F853240F5E82E47
:10184000FF24E701CE5EDC4F188160E00E94F10BBF
:101850001817E9F0188162E0802F0E94F10B181729
:1018600038F0188163E0802F0E94F10B811728F473
:1018700061E0802F0E94F10B8883EE0CFF1CEE0CC0
:10188000FF1C6881C70180549F4F0E94020CE6E054
:10189000CDB7DEB70C94D318EF92FF920F931F933E
:1018A000CF93DF93082F42E1E42E43E0F42EC0E013
:1018B000D0E00023A9F460E08C2F0E94F10B182FD8
:1018C000F701808362E08C2F0E94F10B181740F023
:1018D000F701108163E08C2F0E94F10B811730F427
:1018E00061E08C2F0E94F10BF70180838C2F0E9406
:1018F000160C2196C532D10521F00894E11CF11C8B
:10190000D8CFE6E0CDB7DEB70C94D318EF92FF92B4
:101910000F931F939C018091050190E028173907D0
:1019200099F08901000F111F0C5F1F4FC80101962C
:101930000E94E90BE82EC8010E94E90BFF243E2D0E
:101940002227280F311D04C020911003309111036C
:10195000C9011F910F91FF90EF9008950F931F936E
:10196000CF93DF93EB01880F991F8038910560F4C6
:101970008C010C5F1F4FC8010E94020C6D2F77274E
:10198000C80101960E94020CDF91CF911F910F9127
:10199000089520912F02207680913202822785FFC0
:1019A00017C0222311F0203631F480912D0290913E
:1019B0002E02826005C080912D0290912E028160DE
:1019C00090932E0280932D021092340220933202C3
:1019D00020912F022E7030913102231709F464C038
:1019E000222321F1332311F5809106018823F1F0A0
:1019F000243031F480912D0290912E0284600FC02A
:101A0000223031F480912D0290912E02886007C01F
:101A1000283061F480912D0290912E028061909384
:101A20002E0280932D0281E080933002809130025B
:101A3000882319F1343041F42223F9F080912D02EA
:101A400090912E02806213C0323041F42223A9F01B
:101A500080912D0290912E02806409C0383069F483
:101A6000222359F080912D0290912E02806890934C
:101A70002E0280932D02109230028091060188235D
:101A800069F0109206018091B2008E5C8093B300E1
:101A9000B99A809170008260809370002093310227
:101AA00010923302109234020895909131029923DA
:101AB000A1F4809134028F5F80933402882321F453
:101AC0008FEF809334020895843109F049C08091EA
:101AD0002D0290912E02906235C0809133028F5F6B
:101AE00080933302882321F48FEF8093330208958B
:101AF0008430B1F59830D1F0993028F4923079F0F3
:101B0000943071F505C09A30C1F09E3049F51FC080
:101B100080912D0290912E028062916013C080917D
:101B20002D0290912E02806492600CC080912D0253
:101B300090912E028068946005C080912D02909152
:101B40002E02986090932E0280932D02089580912A
:101B50002D0290912E02906190932E0280932D027F
:101B600008952098289A0000000083B12898209AB0
:101B7000809587702091E60280FF06C02460209344
:101B8000E60280E090E008952B7F2093E60281FF3B
:101B900003C082E090E0089582FF03C083E090E0FC
:101BA000089581E090E008951F920F920FB60F9272
:101BB00011248F9326982E9AF09A000083B1809575
:101BC0008E7680932F022E98269A8F910F900FBEBB
:101BD0000F901F9018950F930FB70F9301E000938C
:101BE0000601009170000D7F009370000F910FBFF0
:101BF0000F9118950F931F93082F162F811160E0F6
:101C00008CE20E94D703802F8150823010F4612F24
:101C100001C060E085E40E94D703023008F410E0C0
:101C2000612F8DE20E94D7031F910F9108951F939A
:101C3000182F80E00E94890363E0812F0E94D70360
:101C40001F9108950E94A206609337037093380392
:101C50008093390390933A0308951F93182F80912E
:101C60003B03E82FF0E0E731F10508F0A7C1E25DA2
:101C7000FF4F0C94E21883E00E9489039FC18BE31D
:101C80000E94170E63E087E990EF0E945B0596C102
:101C900080E00E94890380910D0390E061E0805311
:101CA000984F0E94CA048AC18BE30E94170E80914C
:101CB0003B03803111F441E001C043E060E08091DA
:101CC0000C030E94790480913B03813111F441E0BF
:101CD00001C043E062E080910A0323C0112359F060
:101CE00080E00E94890363E08BE30E94D70363E0F6
:101CF00083E20E94D70380913B03823111F441E0DB
:101D000001C043E062E0809109030E947904809160
:101D10003B03833111F441E001C043E060E0809176
:101D200002030E9479044AC1809102011816FCF452
:101D30008BE00E94170E43E063E08AE00E942804D3
:101D400080912803909129038F5F9F4F29F443E0EE
:101D500062E08DE00E942804809102016AE00E9406
:101D60003A1843E060E0892F0E94280431C0112313
:101D700019F08BE00E94170E8091E6028823A9F0EB
:101D800087FF02C061E00DC082FF03C063E080E115
:101D900009C083FF03C063E081E104C086FF18C06F
:101DA00063E08FE00E94580413C09091E502809197
:101DB0003503981718F063E08EE0F4CF112319F083
:101DC0008BE00E94170E63E08091E3020E9497046B
:101DD00080910A01882341F09091E4028091E3020E
:101DE000981711F463E001C060E088E10E94D70316
:101DF00080910A01882311F060E001C063E082E372
:101E00000E94D703609137037091380380913903A2
:101E100090913A030E94BB03D1C0112319F08BE3C8
:101E20000E94170E63E080911201909113010E94AD
:101E30000905C4C0112319F080E00E9489030E94A3
:101E40006E08853638F40E946E0843E060E00E9418
:101E5000EC04B4C063E08AE006C08AE10E94170E79
:101E600061E0809137020E945804A8C080E00E947F
:101E7000890363E08BE30E94D70363E083E20E945F
:101E8000D70363E08AE10E94D70380913702982F3D
:101E9000990F990F990F20913B02920F9093050192
:101EA00020913A0230E0322F22273295307F409144
:101EB000380250913902240F351F309311032093BB
:101EC00010030E94A2060E94BB038FEF80930501BE
:101ED00080913802909139026CE370E00E944718BB
:101EE000CB0161E00E941F04809138029091390279
:101EF00025E0803A9207B0F46CE370E00E94471846
:101F0000CB0141E062E00E94790480913802909117
:101F100039026CE370E00E94471841E060E00E94E3
:101F2000790404C061E089E00E94580461E0809176
:101F30003A0242C080E00E94890363E088E093CFC8
:101F400083E00E94890380913B038C3011F441E0CF
:101F500001C043E062E0809108010E944405809145
:101F60003B038D3011F441E001C043E0E0910801F2
:101F7000F0E0EE5EFC4F60E080810E9444051EC0F0
:101F800083E00E948903809135020E94271563E057
:101F90000E945B0561E0809135020E941F040EC023
:101FA0008BE30E94170E61E0809137020E94970434
:101FB00080913B0363E082500E94FA0D1F910895C7
:101FC000EF92FF920F931F93CF93DF9320912D02F7
:101FD00030912E0220FF02C011E005C021FF02C097
:101FE0001FEF01C010E0C12FDD27C7FDD0959091F4
:101FF0003B03E92FF0E0E731F10508F082C1EB5B2C
:10200000FF4F0C94E218882319F082E080930701B7
:1020100080910701882309F0DFC181E0CCC18823CA
:1020200019F082E08093070180910701882309F06D
:10203000D3C18FE0C0C1112329F080910D03810F1E
:102040000E94470780912D0290912E0282FFC4C109
:1020500080E10EC0112329F080910C03810F0E94B2
:102060004C0780912D0290912E0282FFB5C181E133
:1020700080933B031092E402B1C1112329F08091B7
:102080000A03810F0E94580780912D0290912E0221
:1020900082FFA2C182E1ECCF112329F080910903D4
:1020A000810F0E94BB0580912D0290912E0282FF2C
:1020B00093C183E1DDCF112341F080910203810FB1
:1020C0000E94C40580E00E94CD0580912D02909170
:1020D0002E0282FF81C187E0CBCF23FF08C0892F6A
:1020E0008F5F80933B038B3008F478C15FC1809190
:1020F0003602882351F0277F3770232B09F46CC1F7
:1021000085E0809307018BE056C1112359F096506A
:10211000923040F4812F0E943E1586E080933B036D
:1021200001E001C000E080912D0290912E0284FF19
:1021300002C08FEF03C087FF52C18EEF0E9452157D
:1021400086E039C1882351F080913103813011F04C
:1021500080E002C0809104038093370285E1809380
:102160003B03112361F08091370290E008968C0FB9
:102170009D1F68E070E00E945B188093370222FF89
:10218000BDC086E180933B0310923B021092310365
:1021900080913702882319F081E0809331038FE129
:1021A0000E94160C6FC08823A9F04AE352E06091A8
:1021B0003B02809137020E9431089093390280934C
:1021C0003802815A954030F080EA95E090933902C8
:1021D00080933802112319F18091380290913902CD
:1021E0006AE070E00E944718CB018F569F4F212F65
:1021F000332727FD3095820F931F61E970E00E941D
:1022000047189C0153E0220F331F5A95E1F7880FBE
:10221000991F280F391F309339022093380280917B
:102220002D0290912E0283FF09C080913A0290E026
:1022300005968370907080933A02CEC082FF2DC0C5
:10224000409138025091390220913A0260913B024C
:10225000809137020E94490880913B028F5F8093F2
:102260003B02883068F080913702882331F067E0C4
:102270000E942E189F5F9093370285E180933B0365
:102280001092E40280913103813011F080E002C0AD
:10229000809104030E94220EA1C084FF9DC086C0CD
:1022A000882339F0E92FF0E0EF5EFC4F80818093C6
:1022B0003702112389F080913702810F8093370212
:1022C0008E3318F08DE38093370280913702893086
:1022D00018F489E08093370222FF10C0E92FF0E064
:1022E000EF5EFC4F80913702808380913B038150E9
:1022F0000E94160C80913B038F5FBACE24FF6CC006
:1023000055C080910701882309F066C04FC024FDA5
:102310004DC023FF02C08EE04EC022FF0CC09D3096
:1023200031F4809108010E94160C8CE001C08DE010
:1023300080933B0351C09C3069F480910801C80F21
:10234000D11DCE01859665E270E00E94471880930A
:10235000080142C062E0809108010E94F10B182F31
:10236000E82EFF2463E0809108010E94F10B682FA2
:1023700070E06F5F7F4F6E197F0920910801E22F97
:10238000F0E0EE5EFC4F8081C80FD11DCE19DF0951
:10239000CE01860F971F0E945B18180F108322230F
:1023A000D9F40E94A30318C024FF02C087E003C031
:1023B00023FF04C08CE080933B0310C08091350262
:1023C00090E00D968C0F9D1F6DE070E00E945B18F1
:1023D00080933502112311F400E001C001E08091E7
:1023E0002D0290912E022091360293FF0DC085E0C0
:1023F0008093070180E0222309F481E08093360274
:10240000882391F08BE015C02223B9F494FF02C019
:102410008CE00FC092FF02C08FE00BC090FF02C0A3
:1024200084E107C095FF02C087E003C091FF05C0AB
:1024300082E080933B0301E002C0002381F0109111
:102440000801153260F460E0812F0E94F10BE12F4A
:10245000F0E0EE5EFC4F808385E2809308011092ED
:102460002E0210922D02802F90E0E6E0CDB7DEB76D
:102470000C94D318582FF89440913C02E42FF0E0CC
:102480009F012F5F3F4F2F77307080913D0290E08A
:102490002817390739F0E05CFD4F50834F5F4F77C5
:1024A00040933C027894089520913D0280913C0233
:1024B000821711F480E009C0E22FF0E0E05CFD4FEC
:1024C00080812F5F2F7720933D0290E00895282F81
:1024D0008823D1F08D3009F42AE080913E02E82F64
:1024E000F0E0E054FD4F2083982F9F5F9F71909301
:1024F0003E0280913F02981721F49F5F9F71909355
:102500003F022A3009F4F69A0895F89420913F0288
:1025100080913E02821711F480E009C0E22FF0E0C2
:10252000E054FD4F80812F5F2F7120933F027894FC
:1025300090E008951F93182F843658F064E60E94A7
:102540002E18805D0E943A12812F64E60E942E1898
:10255000192F812F6AE00E942E18805D0E943A1286
:10256000812F6AE00E942E18892F805D0E943A1206
:102570001F9108950F931F938C0164E670E00E94F1
:102580004718CB010E949A12C80164E670E00E94CD
:1025900047180E949A121F910F9108951F93182FA8
:1025A00082958F708A3010F0895A01C0805D0E9438
:1025B0003A12812F8F708A3010F0895A01C0805DE5
:1025C0000E943A121F9108950F931F938C01812F3F
:1025D00099270E94CE12802F0E94CE121F910F9138
:1025E0000895CF93DF93EC0103C00E943A12219625
:1025F000FE0184918823C9F7DF91CF91089585EA80
:1026000091E00E94F11208950F931F93082F10E09C
:102610001FC00E948512982F282F20532A3038F08F
:102620008156863010F4275202C0892F1AC0E12F3C
:10263000E69510FF06C0F0E0E052FD4F8081280FC4
:1026400005C0F0E0E052FD4F2295207F20831F5F00
:102650001017F9F60E9485128A3019F480E090E094
:1026600001C090E01F910F9108950E943A128BE5EE
:102670000E943A128091E0020E94CE128DE50E94E3
:102680003A128DE30E943A12089590913C02809193
:102690003D02981711F00E94911708951F93CF9350
:1026A000DF93EB01142F181614F48BE203C0882378
:1026B00019F08DE20E943A1280E20E943A12CE0195
:1026C0000E94E41280E20E943A12812F0E94CE12F0
:1026D0008AE00E943A120E944513DF91CF911F9128
:1026E00008951F93182F82E192E00E94F1128091C9
:1026F000040380530E94CE1280E20E943A1280911D
:102700000A030E949A128EE20E943A1280910C03F0
:102710000E949A128EE20E943A1280910D030E944A
:102720009A1280E20E943A12809109030E949A1242
:102730008AE30E943A12809102030E949A128AE36D
:102740000E943A1280910B030E949A1280E20E942A
:102750003A1280910A01882311F081E401C08DE4CE
:102760000E943A128DE092E00E94F11217FD02C021
:10277000812F02C080910E010E949A1288E092E09F
:102780000E94F11280911201909113010E94BA12DD
:1027900083E092E00E94F112909109019D3328F0AC
:1027A0008EEF91E00E94F11206C082E3989FC00173
:1027B00011240E94BA1289EF91E00E94F1128091D7
:1027C0001001909111010E94BA1283EF91E00E94D2
:1027D000F1128091E7029091E8020E94E412809148
:1027E000E602882341F08FEE91E00E94F112809181
:1027F000E6020E94CE1217FF04C08CEE91E00E9408
:10280000F1129091E50280913503981720F089EE3E
:1028100091E00E94F1128AE00E943A120E94451350
:102820001F9108951F93FDC0812F90E0FC01E1549A
:10283000F040E931F10508F0F2C0E45AFF4F0C9482
:10284000E2180E9485128A3009F0E9C00E94FF1246
:10285000E6C00E9485128A3009F0E1C09DC082E086
:102860000E940413882309F0E3C084E50E94351315
:102870008091E0020E94271567C0173439F482E086
:102880000E940413882309F0D3C014C084E00E947E
:102890000413882309F0CCC09091E002953250F4E3
:1028A000E92FF0E0EE5EFC4F8091E1028083892FFA
:1028B0000E94160C812F0E943513E091E002EF3F39
:1028C00011F484E004C0F0E0EE5EFC4F80810E94D1
:1028D000CE12AEC0123539F482E00E940413882370
:1028E00009F0A6C01EC086E00E940413882309F0E8
:1028F0009FC02091E1028091E002422F50E04F7092
:102900005070542F44279091E202490F511D682FB7
:102910006F7022952F7082958F700E9449081092D7
:10292000E402812F0E9435132091E002822F8295CC
:102930008F7090E033E0880F991F3A95E1F72F7080
:10294000820F911D0E94860C0E94E41271C086E0E5
:102950000E940413882309F06BC08091E0020E945A
:1029600047078091E1020E944C078091E2020E9499
:10297000580712C086E00E940413882309F058C04B
:102980008091E0020E94BB058091E1020E94C40593
:102990008091E2020E94CD058FEF0E9471133FC02B
:1029A00084E00E940413882309F042C08091E00271
:1029B000833109F03DC08091E1028432C9F5F89479
:1029C00088E190E028E00FB6F894A8958093600025
:1029D0000FBE20936000FFCF82E00E940413882383
:1029E00039F590E08091E002813009F491E0892F7F
:1029F0000E9452151DC082E00E9404138823C1F476
:102A00009091E0029930A0F09E3390F48AE0809398
:102A10000B019093E3028FEF0E94711309C00E9493
:102A200045130E948512182F882309F0FDCE04C09B
:102A30008AE00E943A12F3CF1F9108950E94FF127C
:102A400080E895E20E9470170E94451308958D302A
:102A500018F080E090E00895E82FF0E0EE0FFF1FFF
:102A6000EA5EFD4F85919491FC01FF7797FF03C0CB
:102A7000808191810895808190E008959091E30292
:102A8000980F9093E302993010F489E003C09E33CD
:102A900018F08DE38093E3021092E5028AE08093C0
:102AA0000B010895982F8F3F49F48091E3028093A2
:102AB000EB028091E4028093EC020AC08E3FA1F405
:102AC0008091EB028093E3028091EC028093E40218
:102AD00020E080910A01882309F421E020930A0173
:102AE0008AE080930B0104C080930A0110920B01CD
:102AF00080910A01882349F09E3F39F080E00E94CE
:102B000060068093E4028093E3021092E502089548
:102B10000F931F93CF93DF93062F882321F4809187
:102B2000E4028823E9F490E08091E402811191E0CD
:102B3000892F0E946006982F882391F08093E402E9
:102B400080910A01882361F09093E30280910B0148
:102B500087FF06C080910901981711F010920B01B0
:102B60004091E502609135034617E0F4209116018B
:102B700030911701309521953F4F8091340390E0BB
:102B8000821793078CF5842F8F5F8093E502861759
:102B900080F110920B0188E097E090933D038093C1
:102BA0003C0327C080913C0390913D03009709F1BD
:102BB000019790933D0380933C038091160190917F
:102BC000170197FD14C0892BA1F0242F2F5F2093AC
:102BD000E50230E080913603860F912D911D281774
:102BE00039073CF010920B011092E50202C060938D
:102BF000E50280910C0190910D01009729F0019759
:102C000090930D0180930C0180910B0118161CF418
:102C1000815080930B0140910C0150910D014115A1
:102C2000510529F080910B01882309F018C13091DA
:102C3000E3023A3020F08091E502861708F03AE08E
:102C400080910901381719F03093090103C0452B11
:102C500009F0FFC080911B0325E0829FC001112471
:102C600090930D0180930C013D3310F004E6F1C008
:102C7000E0911201F091130182E3389F9001112439
:102C80002E1B3F0B88EF2033380714F420E338EF76
:102C9000E901215D374014F0C0EDD7E08091E902F1
:102CA0009091EA020097B1F18E1B9F0B181619063E
:102CB00024F41C161D062CF02DC0892B59F1D7FFCA
:102CC00029C06091180370E080E092E30E945B18D5
:102CD0006C177D075CF48091E7029091E802860F03
:102CE000971F9093E8028093E70214C088279927E2
:102CF000861B970B2091E7023091E802C817D9078D
:102D00001CF4261B370B02C02C0F3D1F3093E8022A
:102D10002093E702F093EA02E093E902109119038D
:102D2000112319F460E072E306C0612F70E080E0C7
:102D300092E30E945B188091E7029091E802681785
:102D4000790734F0709561957F4F8617970724F4C3
:102D50007093E8026093E702BE01D7FF04C06627C4
:102D600077276C1B7D0B882777FD8095982F209106
:102D7000170330E040E050E00E940F189B01AC01C7
:102D80006091180370E0762F662780E090E0620F74
:102D9000731F841F951F9E01442737FD4095542FB4
:102DA0000E940F18672F782F892F992787FD9A95F2
:102DB000412F50E02091E7023091E802F9014E9F47
:102DC00090014F9F300D5E9F300D1124442737FD39
:102DD0004095542F20503E4C4F4F5F4F260F371FCA
:102DE000481F591F2130F4E63F07F0E04F07F0E09D
:102DF0005F071CF080911D032BC057FF03C080911B
:102E00001C0326C0802F992787FD9095982F88272F
:102E1000F901E81BF90BF7FF03C0F095E195FF4FAF
:102E200080911A0390E0E817F90714F4802F10C07E
:102E3000232F330F330B80911D0390E082179307EC
:102E40003CF080911C0390E0281739070CF0822F8A
:102E5000082F8FEF80930B01802F0E9471134091F8
:102E60001001509111018091330324E1829FC00130
:102E700011244817590730F48091E602806C809342
:102E8000E60210C080913203829FC001112420917C
:102E9000E6024817590718F420642F7701C02F73F2
:102EA0002093E602802F992787FD9095DF91CF919F
:102EB0001F910F9108951F920F920FB60F92112438
:102EC0008F93EF93FF93E1ECF0E08081877B808329
:102ED000FF91EF918F910F900FBE0F901F9018955B
:102EE0009C0140E050E094E0220F331F441F551F27
:102EF0009A95D1F760E079E08DE390E00E946E183A
:102F000021503040832F99278093C5002093C4001F
:102F100086E08093C200EBE6F0E0808181608083F0
:102F20000895F8948091C10085FD0FC08091C10083
:102F30008F7B8093C1008091C00080648093C0002B
:102F40008091C10088628093C100789408951F9297
:102F50000F920FB60F9211242F933F934F935F93CD
:102F60006F937F938F939F93AF93BF93EF93FF9351
:102F70000E945412882319F08093C6000FC08091DC
:102F8000C1008F7D8093C1008091C00080648093D8
:102F9000C0008091C10080648093C100FF91EF91D7
:102FA000BF91AF919F918F917F916F915F914F9161
:102FB0003F912F910F900FBE0F901F9018951F9269
:102FC0000F920FB60F9211242F933F934F935F935D
:102FD0006F937F938F939F93AF93BF93EF93FF93E1
:102FE0008091C6000E946712E1ECF0E080818F764C
:102FF0008083EBE6F0E0808181608083FF91EF9138
:10300000BF91AF919F918F917F916F915F914F9100
:103010003F912F910F900FBE0F901F901895629FB8
:10302000D001739FF001829FE00DF11D649FE00DC0
:10303000F11D929FF00D839FF00D749FF00D659F21
:10304000F00D9927729FB00DE11DF91F639FB00D20
:10305000E11DF91FBD01CF0111240895991B79E0ED
:1030600004C0991F961708F0961B881F7A95C9F718
:103070008095089587FB082E062687FD819567FDBC
:103080006195ECDF0EF4919507FC81950895AA1BDC
:10309000BB1B51E107C0AA1FBB1FA617B70710F043
:1030A000A61BB70B881F991F5A95A9F78095909575
:1030B000BC01CD01089597FB092E07260AD077FDA4
:1030C00004D0E5DF06D000201AF4709561957F4F9B
:1030D0000895F6F7909581959F4F0895A1E21A2ED5
:1030E000AA1BBB1BFD010DC0AA1FBB1FEE1FFF1FAC
:1030F000A217B307E407F50720F0A21BB30BE40BFC
:10310000F50B661F771F881F991F1A9469F7609542
:103110007095809590959B01AC01BD01CF010895FC
:1031200097FB092E05260ED057FD04D0D7DF0AD015
:10313000001C38F450954095309521953F4F4F4FE6
:103140005F4F0895F6F790958095709561957F4F44
:103150008F4F9F4F08952F923F924F925F926F92A1
:103160007F928F929F92AF92BF92CF92DF92EF9217
:10317000FF920F931F93CF93DF93CDB7DEB7CA1B98
:10318000DB0B0FB6F894DEBF0FBECDBF09942A88C3
:10319000398848885F846E847D848C849B84AA846B
:1031A000B984C884DF80EE80FD800C811B81AA81F8
:1031B000B981CE0FD11D0FB6F894DEBF0FBECDBFC3
:1031C000ED010895EE0FFF1F0590F491E02D099495
:0231D000FFCF2F
:0E31D2000101FE0205FF010225FF01101000A1
:00000001FF
