:100000000C940E010C942B010C949A090C940C0E78
:100010000C94230E0C940F060C942B010C942B01C2
:100020000C942B010C942B010C942B010C94160AAC
:100030000C942B010C9469140C9431140C94E71358
:100040000C942B010C942B010C942B010C94730336
:100050000C942B010C942B010C94BE05680E6F0EB2
:100060001010101010101010130FCB0E420F4F0F66
:10007000A50ED20FDA0FDA0FFE0F7B0E890E890E56
:10008000A50EA50E2010620F6D0F42104E108A11A2
:100090008A118A118A11A210A210A210A210A21015
:1000A000C311DB11DB113C125A1067107410811060
:1000B0008E10DA10E9100B1157172A176B177816E4
:1000C0006B176B179B1614176B176B176B176B1748
:1000D00047176B176B176B176B17C4169B168D168C
:1000E0006B175F16C4166B1701173F065B4F666DE3
:1000F0007D077F6F777C395E797163547376300842
:100100004001484109495054105C00332738583E9B
:10011000786E2001160720160116201602162016EA
:10012000031620160416201605162016061620168D
:1001300007160B011F241616161620160C16200E75
:100140001C1C000F0F20001D202000120E1D0B0A8A
:100150002626200E0220200E032028241F1B020327
:100160001B191800010002030405060708090A39D3
:1001700035423E0C0D0E0F1011121314151F1C1FCB
:100180001E1F1E1F1F1E1F1E1F00001F003B005AA8
:100190000078009700B500D400F300110130014E43
:1001A00001563A204F70656E485232302053572026
:1001B00076657273696F6E20302E383120627569F2
:1001C0006C64204E6F76203231203230303820304F
:1001D000393A34363A30362052657638365F4A44FA
:1001E0000A0020570020580020453A0020423A20BB
:1001F00000424F4F540020533A200020493A20003B
:1002000020563A2000443A2000128110813B833965
:1002100083ED020801EE02178215820011241FBE31
:10022000CFEFD4E0DEBFCDBF11E0A0E0B1E0E0EA67
:10023000F3E302C005900D92AE30B107D9F713E099
:10024000AEE0B1E001C01D92AF33B107E1F70E940B
:100250002D010C94CE190C940000DF92EF92FF92C6
:100260000F931F9390E89093610081E08093610069
:1002700090BF8FEF80937E008DE08093640088E1D3
:1002800083BB9EE09DB983E08EB988E080BB83EF9D
:1002900081BB95B981ED84B98EE280936C0080ECCE
:1002A0008DBB0E94810783B120E090E080959095FE
:1002B0008E7090700E9709F421E0822F0E94590CE5
:1002C00081E00E94660A0E947A031EBA78940E9416
:1002D000901783E00E94A4038091E40088608093DB
:1002E000E40081E08093120226E0D22E01E097E044
:1002F000E92E83E0F82EF8948EB3882329F584B58F
:1003000090E087709070892B21F48091C1008871F2
:1003100011F003BF07C080910F01882311F0F3BED5
:1003200001C0E3BE80910F01813039F410920F01BA
:1003300080917A00806480937A007298789488958E
:100340000000729AD3BE01C07894F39B04C0F39866
:100350000E947405D0CFF29B04C0F2980E941D0346
:10036000CACFF69B04C0F6980E945016C4CFF59BE6
:1003700004C0F5980E94B70ABECFF49B08C0F49859
:100380000E94ED0D0E94660A0E94730BB4CFF09B91
:1003900003C0F0980E94050DF19B37C0F1980E94B0
:1003A0000308182F60910E010E94111880930E010E
:1003B000112371F080910A03863051F480910F036C
:1003C0008A3031F480910803882311F40E94660A70
:1003D0000E94ED0D0E94660A80910E010E9439096B
:1003E0000E94910D0E940C0380910601882319F050
:1003F00081508093060180E00E945A0E8091E400B3
:1004000088608093E4000093120280912F02909103
:100410003002892B29F480910601882309F06BCFE3
:1004200080E00E942210182F882319F081E00E949A
:100430002210812F0E945A0E8091E40088608093E0
:10044000E4000093120257CFA0E0B0E0EAE2F2E04D
:100450000C9497194B01C82EDD247B010027F7FC73
:100460000095102F5601AA0CBB1CAA0CBB1C28E13E
:1004700031E0A20EB31EF50180819181A281B3818A
:10048000E80EF91E0A1F1B1FE082F182028313830C
:10049000409100014F30E8F180912001C82FD0E059
:1004A000CE018D966CE370E00E9441192CE330E0A0
:1004B000C29EB001C39E700DD29E700D1124FB012F
:1004C000E80FF91FEE0FFF1FEE5DFE4F8081918157
:1004D000AA2797FDA095BA2FE81AF90A0A0B1B0B59
:1004E000F501E082F182028313834C3390F0F60130
:1004F000EE0FFF1FEC5EFE4FC60FD71FCC0FDD1FA8
:10050000CE5DDE4F888199819401281B390B3183A0
:100510002083209120018CE390E0C89EF001C99EC9
:10052000F00DD89EF00D1124E20FF11DEE0FFF1F0C
:10053000EE5DFE4F91828082F601EE0FFF1FEE0FFF
:10054000FF1FE85EFE4F60817181828193814F3091
:1005500028F02FE030E040E050E004C0242F30E0ED
:1005600040E050E0CC0CDD1CE0E1F1E0CE0EDF1EFF
:100570000E947619F60131832083CDB7DEB7ECE017
:100580000C94B3199C0140E050E060E070E381E11D
:1005900090E00E945419C90108950F931F93BC0164
:1005A00080912803282F30E020503F4FE9E2F3E00C
:1005B00001E08081A901480F511D6417750730F0D3
:1005C0000F5F3196063019F09A01F3CFA901641B31
:1005D000750B80E090E02CE03EEF4FEF5FEF0E9464
:1005E000F51810E0F801E85DFC4F208130E040E0B4
:1005F00050E00E9476198CE09EEF089FB001099FA1
:10060000700D189F700D11246056704F620F731F8C
:10061000CB011F910F91089591E0909321018CE0FF
:10062000809364008CE880937A0010927B008EE5C2
:1006300080937C0090930F010895809121018F5F3A
:1006400080932101833049F0843021F1823009F018
:1006500041C08DE880937A0019C080917800609144
:100660007900362F20E090E0282B392B40E050E035
:1006700060E070E381E190E00E945419B90180E0EC
:100680000E9424028B9A82E480937C0081E0809314
:100690000F0126C02091780040917900942F80E0CE
:1006A00030E0822B932B0E94CD02BC0181E00E949E
:1006B00024028091200190E001966CE370E00E949A
:1006C000411980932001809100018C3318F48F5FD1
:1006D000809300018B988DE080937A008093640072
:1006E00080910F0108950F9300E0F29A00930F019B
:1006F0000F91189580E090E0FC01EA50FD4F1082C8
:100700001186019689309105B9F791E09093010126
:100710008091E40088608093E400909312028091BD
:1007200016038093E70085EA8093E50086E08093D6
:10073000E60080EC8093E4008091E4008860809380
:10074000E400909301010895833011F020E001C08E
:100750002FEF80E090E0FC01EA50FD4F20832187DD
:10076000019689309105B9F791E09093010180914C
:10077000E40088608093E400909312020895EF9261
:10078000FF920F93CF93DF937B01082FC5E6D1E053
:10079000FE01849166270695F794E79408F463E0D8
:1007A0000E94DB032196CD3799F7DF91CF910F910E
:1007B000FF90EF900895482F46954695469587708F
:1007C00021E030E001C0220F8A95EAF7362FE42FAE
:1007D000F0E060FF05C0EA50FD4F8081822B06C02B
:1007E000EA50FD4F9081822F809589238083E42FEA
:1007F000F0E031FF05C0EA50FD4F8185282B05C090
:10080000EA50FD4F818520952823218780910101A1
:10081000813021F46330D1F06623C1F06150623041
:1008200048F020E030E0F901EA50FD4F90818185E9
:10083000981721F082E08093010108952F5F3F4FC8
:100840002930310581F781E0809301010895E5E6C3
:10085000F1E0E80FF11DE4918E2F0E94DB03089573
:10086000EF92FF920F931F93CF93DF93E42E6430A8
:1008700010F5883200F5E62FF0E0E65AFE4FF490CE
:10088000E82FF0E0E651FF4F0491CEE5D1E011E012
:10089000FE019491812F802311F460E001C06E2D40
:1008A000892F8F0D0E94DB032196F1E0C536DF070B
:1008B00011F0110FEDCFCDB7DEB7E6E00C94B9190A
:1008C000FF920F931F93082F162FF42E633090F48E
:1008D000843680F46AE00E941419612F892F0E94E7
:1008E00030041F5F802F6AE00E9414194F2D612F82
:1008F0000E9430041F910F91FF9008951F93CF9392
:10090000DF93162FEC0187E2C031D80710F0CFE05B
:10091000D7E2CE0164E670E00E942D19862F412FA8
:1009200062E00E946004CE0164E670E00E942D192E
:10093000412F60E00E946004DF91CF911F910895E4
:10094000FF920F931F93082F162FF42E623088F416
:10095000262F2E5F64E60E941419622F0E94300435
:10096000802F64E60E9414194F2D612F892F0E9459
:1009700060041F910F91FF9008950F931F93CF93E1
:10098000DF93162F27E28031920714F08FE097E271
:10099000EC018CEFC931D80714F4C9E1DCEF00E0B9
:1009A000D7FF04C001E0D095C195DF4FCE016AE0CA
:1009B00070E00E944119862F412F61E00E94A0043F
:1009C000002321F0412F63E086E106C0C85ED340DA
:1009D0002CF4412F63E080E20E943004412F60E05C
:1009E0008CE00E943004DF91CF911F910F91089508
:1009F000FF920F931F93F82E162F042F633058F495
:100A00008F700E9430041F5F402F612F8F2D8295C1
:100A10008F700E9430041F910F91FF9008950F93E3
:100A20001F93082F162F462F62E0892F0E94F8048B
:100A3000412F60E0802F0E94F8041F910F910895CC
:100A40000F931F93CF93DF93062FC82FD0E0CC0FC7
:100A5000DD1FCC0FDD1FCE5EDE4F13E0FE01849163
:100A6000402F612F0E943004115021961F3FB1F793
:100A700060E08BE30E94DB03DF91CF911F910F9128
:100A800008950F931F93082F162F893011F48CE0CF
:100A900007C08D3311F48DE003C08E3320F08BE05E
:100AA0000E9420051EC0462F62E086950E946004C9
:100AB00000FD02C080E001C085E0412F61E00E949E
:100AC0003004043128F4412F63E080E20E943004B6
:100AD000412F60E08CE00E943004612F8BE30E9484
:100AE000DB031F910F910895809113028F5F809314
:100AF00013028D3058F0809114028F5F81708093C3
:100B000014021092130281E080931202809112026B
:100B1000882351F1109212028091140290E0FC019E
:100B200023E0EE0FFF1F2A95E1F7E80FF91FEA50C7
:100B3000FD4F80818093EC0081818093ED00828164
:100B40008093EE0083818093F10084818093F20092
:100B500085818093F30086818093F600878180935E
:100B6000F70080858093F80080910101813029F49D
:100B70008091E400877F8093E4000895F39A1895AC
:100B8000992787FD9095489668E170E00E94411989
:100B900080930F030895992787FD9095CC966CE379
:100BA00070E00E944119809308030895992787FDFA
:100BB0009095CC966CE370E00E94411980931103EC
:100BC000089580911203E82FF0E0E358FE4F24913E
:100BD000823049F48091130390E083709070892BE8
:100BE00011F48DE10895822F089580910A038730D2
:100BF00099F080911203833031F490E080911003DA
:100C0000893158F007C08A3039F490E080911003A0
:100C1000883118F091E001C090E0892F0895F19A91
:100C20001895A0E0B0E0E7E1F6E00C949219D82E18
:100C30003B01882319F442E0342E02C038E0332E01
:100C400099249A94CC24AD2CBB24750123E0EE0C9E
:100C5000FF1C2A95E1F75E2C98E0492E4E0C00E02F
:100C600010E0C0E0D0E012C090E00E94B00C9F7095
:100C700025E0803A920748F48017910730F0681613
:100C8000790618F0982C9E0C8C0121968C2E8C2FB6
:100C9000850D841548F397FE11C0DD2041F0C50194
:100CA000059667E070E00E944119D82ED394C39452
:100CB00080EA682E85E0782EC31428F2892DCDB7FE
:100CC000DEB7E1E10C94AE19FF920F931F93CF931F
:100CD000DF93F82E90910F038CE3989FE00111248D
:100CE00080910803C80FD11D80912F03813011F02E
:100CF00000E002C000910A03BE01802F0E9411068D
:100D0000182F992787FD90950E94B00CFC0117FDC4
:100D100015C0FF2049F09F708C179D0779F4159539
:100D200015951595101751F4EF2FFF27E295EF70E9
:100D3000E370F070E95EFC4F808101C080E0CDB7C8
:100D4000DEB7E5E00C94BA19A0E0B0E0EAEAF6E01C
:100D50000C949B19C82EC0EAD5E077E1D72EEE247B
:100D6000FF248701BE018C2D0E94110687FF03C05E
:100D700080E090E005C0992787FD90950E94B00C17
:100D80009C01207030739F708C179D0718F0CFEF77
:100D9000DFEF02C0EC0121974D2D5CE34502C0015D
:100DA000112414C060E22030360740F041E050E0EA
:100DB00060E070E0E42AF52A062B172B1D1424F4BA
:100DC000EE0CFF1C001F111FDA94CC97C817D9072F
:100DD0004CF31C161D0634F2B701C801CDB7DEB7BF
:100DE000E8E00C94B7190F931F93CF93DF93809192
:100DF000120321E030E0281B3109220F331FEE27B8
:100E0000FF27E21BF30BE757FE4FC591D49190915A
:100E10001003C90FD11D833040F08091130390E07F
:100E200083709070892B09F42196E0911303F0E010
:100E30008F0101501040C80164E070E00E94411928
:100E40009B01C8016CE97FEF0E944119260F371FF3
:100E50002E0F3F1F2B5F3F4FC9018C0F9D1F67E077
:100E600070E00E942D19982F9F5F90930A03809144
:100E70002F03813009F090E0892F0E94A40660932F
:100E80003403709335038093360390933703DF91D7
:100E9000CF911F910F910895809313030E94F30641
:100EA0000895992787FD90950B966CE070E00E945D
:100EB00041198F5F809312030E94F3060895282F33
:100EC00080911203E82FF0E0E358FE4F64918230E6
:100ED00041F48091130390E083709070892B09F4A2
:100EE0006DE170E0822F992787FD90950197860F1D
:100EF000971F0E9441198F5F809310030E94F30691
:100F00000895809170008E7F8093700088E08093B8
:100F1000B6001092B2008091B00085608093B0005E
:100F20002091B6008091B60090E08470907030E01F
:100F300021703070822B932B892B91F78FEF87BB19
:100F40008091700081608093700010920B0310926A
:100F50000C0310920D0310920E038CE080930F038C
:100F6000109208031092110381E0809310038AE02D
:100F70008093120388E0809313030E94F306089580
:100F800020911203E22FF0E0E358FE4F349122301B
:100F900041F48091130390E083709070892B09F4E1
:100FA0003DE1809110038F5F80931003381790F418
:100FB00091E090931003822F8F5F809312038D3006
:100FC00038F090931203809113038F5F8093130383
:100FD0001092090380910A0367E00E9414199F5F31
:100FE00090930A0380912F03813009F090E0892FBC
:100FF0000E94A406609334037093350380933603F4
:1010000090933703089580910B0390910C03A09166
:101010000D03B0910E030196A11DB11D80930B032A
:1010200090930C03A0930D03B0930E0380911103D2
:101030008F5F809311038C3310F480E00895109239
:101040001103809108038F5F809308038C33D0F1E4
:101050001092080380910F038F5F80930F038831F4
:1010600020F010920F030E94C0079091120393305A
:1010700081F480910F03823029F580910A03873033
:1010800009F1809110038931E8F090930F0381E01A
:1010900008959A30B9F480910F03833099F48091C8
:1010A0000903882379F480910A03873059F08091ED
:1010B0001003883138F082E080930F0381E0809341
:1010C0000903089581E008950F931F938A0190E02A
:1010D000F3E0880F991FFA95E1F7860F911D0E94A2
:1010E000B00C9C01832F82958F70F80180833F7034
:1010F000C9011F910F910895362F8830E0F46830B0
:10110000D0F42430C0F495E04C3D590710F04FEF77
:101110005FE0722F7295707F60E0642B752B90E01A
:10112000A3E0880F991FAA95E1F7830F911D0E94F4
:10113000D60C81E0089580E0089540911502509109
:1011400016024B305105DCF0809102018823B9F47E
:101150002091200230912102F90193E0EE0FFF1F50
:101160009A95E1F7CA016AE070E00E944119220FE6
:10117000331FC9018E0F9F1F0E94411901C06FEFDD
:10118000862F08958091150290911602892B19F4EB
:1011900080E090E0089590E080910201811191E05B
:1011A00081E09827892F0895282F882379F41092B9
:1011B0006E0080916B008F7E80936B00739814BAE1
:1011C0002F9888E484BD109224020895809124020F
:1011D000821709F44DC01092290210922A0210922F
:1011E0002B0210922C028BEF9FEF90932E02809394
:1011F0002D0210921A021092190280E09CE0909346
:1012000026028093250288E790E09093280280933D
:10121000270220932402739A80912502909126023E
:10122000880F991F880F991F90931C0280931B02AF
:10123000809127029091280290931E0280931D02B4
:1012400081E085BB16BC80936E002F3F49F488E097
:1012500084BB2F988091210387BD89E684BD0895C2
:1012600080E184BB2F9A8091200387BD89E784BDEC
:101270000895482F80910201882311F080E008959D
:10128000443669F4809123032091150230911602AF
:10129000280F311D80912203281B31092CC04423C3
:1012A00061F48091220390E020912303821B910935
:1012B000909323028093220222C02091220330E0E7
:1012C0008091150290911602821B930B821B930B47
:1012D000959587959595879550E0BC01649FC001D1
:1012E000659F900D749F900D112469E170E00E943C
:1012F0004119260F371F3093230220932202809139
:1013000024028823A9F420912002309121028091A7
:101310002202909123028217930714F48FEF04C0E6
:10132000281739072CF481E00E94D40881E0089541
:1013300081E008951F920F920FB60F9211242F9300
:101340003F934F938F939F934CB1242F30E040FDF8
:101350000AC08091C10080698093C10080916B00B8
:101360008E7F80936B0080916B0084FF53C020714F
:10137000307080911F0290E080959095282339234A
:10138000232B09F447C02091200230912102809143
:101390002402992787FD9095820F931F9093210235
:1013A000809320028091190290911A029093180262
:1013B0008093170210921A0210921902F49A8091E7
:1013C0006B008F7E80936B00209120023091210270
:1013D00080912202909123022817390759F48FEF48
:1013E0009FEF90931E0280931D028091270290919F
:1013F00028020CC0809127029091280290931E022F
:1014000080931D02809125029091260290931C02E8
:1014100080931B0240931F029F918F914F913F91A8
:101420002F910F900FBE0F901F9018951F920F9243
:101430000FB60F9211242F938F939F9380911902CF
:1014400090911A02019690931A028093190280914A
:101450001B0290911C02892BF9F080911B02909144
:101460001C02019790931C0280931B0280911D0225
:1014700090911E02009751F02FEF8F3F9207F1F0ED
:10148000019790931E0280931D0218C010921F02B4
:1014900080916B00806110C08091190290911A02B6
:1014A000909318028093170214BA2F9888E484BD91
:1014B000F59A80916B008F7E80936B009F918F9146
:1014C0002F910F900FBE0F901F9018951F93182FFC
:1014D0008823B9F480E00E94D4081092210210926F
:1014E000200210921602109215028EEF80930201D4
:1014F00085E0809303018091F002877F8093F00262
:1015000034C080910301882321F08150809303012E
:1015100010C080910201813061F482E08093020169
:1015200088EE93E0909323028093220281E00E9450
:10153000D408809102018E3FC1F4133069F48FEF1B
:101540009FEF909327038093260380E10E940E0C67
:1015500081E10E940E0C06C0123021F41092270384
:101560001092260381E0809302011F9108951F933A
:10157000CF93DF931091240280E00E94D4088091E1
:101580001D0290911E028F5F9F4FC9F4809102014E
:10159000833049F480912603909127031816190689
:1015A0000CF484C003C0882309F482C08FEF8093B9
:1015B00002018091F00288608093F00279C01130BE
:1015C00009F049C0C0912002D091210280912603E8
:1015D0009091270318161906A4F0D0931602C09311
:1015E0001502892BD1F4C436D105BCF0D093270362
:1015F000C093260380E10E940E0C81E10E940E0C34
:101600000CC090932102809320028091200290913F
:10161000210290931602809315028091020182307C
:1016200009F046C08FEF0E94D40880912603909164
:101630002703181619063CF0C85ED340D093230246
:10164000C093220204C0109223021092220283E06F
:10165000809302012DC01F3F59F580912603909180
:10166000270397FF0FC02091200230912102809123
:10167000150290911602821B930B90931602809391
:1016800015020CC0809120029091210285369105AF
:101690002CF08091F00288608093F0021092210279
:1016A0001092200280910201833011F41092020105
:1016B00080910201882361F48091150290911602B5
:1016C000843691052CF48091F00288608093F002BA
:1016D000609117027091180280E00E94A115DF91BD
:1016E000CF911F910895EF92FF920F931F938091D6
:1016F00017029091180281529E4408F06BC06091CD
:101700002D0270912E0277FD1AC0209117023091A0
:10171000180240E050E08091290290912A02A091A5
:101720002B02B0912C02820F931FA41FB51F809330
:10173000290290932A02A0932B02B0932C02CB0192
:10174000019690932E0280932D02853191050CF421
:1017500041C09C01442737FD4095542F60912902D8
:1017600070912A0280912B0290912C020E945419B0
:10177000122F032FF42EE52E2091240330E040E0B9
:1017800050E0612F702F8F2D9E2D0E94F51824E6BA
:1017900030E040E050E00E945419F8943093260263
:1017A0002093250278942091250330E040E050E01A
:1017B000612F702F8F2D9E2D0E94F51824E630E0AA
:1017C00040E050E00E945419F8943093280220938E
:1017D0002702789460911702709118028091240278
:1017E0000E94A1151F910F91FF90EF900895F99914
:1017F000FECF92BD81BDF89A80B50895F999FECFCC
:1018000090E0880F991F880F991F860F911D8054B3
:101810009F4F92BD81BDF89A80B508958E3108F032
:1018200047C090E0FC01EA5EFC4F6081F999FECF71
:101830009C01220F331F220F331FA90140545F4F19
:1018400052BD41BDF89A80B5681791F1F999FECF64
:10185000C9018E539F4F92BD81BDF89A80B568171C
:1018600058F0F999FECFC9018D539F4F92BD81BDAC
:10187000F89A80B5861748F4F999FECF2F533F4F59
:1018800032BD21BDF89A80B58083208180E0403C44
:10189000580728F0CA0183709070892B49F4F99990
:1018A000FECF52BD41BD20BDF894FA9AF99A7894C2
:1018B0000895FF920F931F93CF93DF93F82EC0E00C
:1018C000D0E006E113E0FF2061F0F999FECFCE01F0
:1018D000880F991F880F991F8F539F4F92BD81BD0D
:1018E0002CC0F999FECF9E01220F331F220F331F08
:1018F000C90180549F4F92BD81BDF89A40B5F8014F
:101900004083F999FECFC9018E539F4F92BD81BD8F
:10191000F89A80B5481758F0F999FECFC9018D5350
:101920009F4F92BD81BDF89A80B5841750F4F99904
:10193000FECF2F533F4F32BD21BDF89A80B5F8013D
:1019400080838C2F0E940E0C2196CE31D10519F088
:101950000F5F1F4FB8CFCDB7DEB7E5E00C94BA19D3
:101960009C018091040190E028173907C9F0220FEB
:10197000331F2C5F3F4FF999FECFC901019692BDED
:1019800081BDF89A40B5F999FECF32BD21BDF89AD4
:1019900020B5942F80E0AC01420F511D9A0104C084
:1019A0002091140330911503C9010895880F991FE0
:1019B0008038910548F59C012C5F3F4F80E0203C2A
:1019C000380728F0C90183709070892B49F4F99980
:1019D000FECF32BD21BD60BDF894FA9AF99A789491
:1019E0002F5F3F4F80E0203C380728F0C90183700B
:1019F0009070892B49F4F999FECF32BD21BD70BD9D
:101A0000F894FA9AF99A7894089520913102207600
:101A100080913402822785FF17C0222311F02036DF
:101A200031F480912F0290913002826005C0809144
:101A30002F029091300281609093300280932F02A8
:101A40001092360220933402209131022E70309190
:101A50003302231709F464C0222321F1332311F543
:101A6000809105018823F1F0243031F480912F0218
:101A70009091300284600FC0223031F480912F02A7
:101A800090913002886007C0283061F480912F0265
:101A90009091300280619093300280932F0281E018
:101AA0008093320280913202882319F1343041F45C
:101AB0002223F9F080912F0290913002806213C0AE
:101AC000323041F42223A9F080912F02909130020C
:101AD000806409C0383069F4222359F080912F02C4
:101AE0009091300280689093300280932F02109280
:101AF000320280910501882369F0109205018091DE
:101B0000B2008E5C8093B300B99A809170008260BD
:101B100080937000209333021092350210923602A7
:101B20000895909133029923A1F4809136028F5F3A
:101B300080933602882321F48FEF80933602089534
:101B40008A3009F049C080912F0290913002906252
:101B500035C0809135028F5F80933502882321F450
:101B60008FEF8093350208958430B1F59830D1F02D
:101B7000993028F4923079F0943071F505C09A309C
:101B8000C1F09E3049F51FC080912F029091300224
:101B90008062916013C080912F0290913002806426
:101BA00092600CC080912F02909130028068946006
:101BB00005C080912F02909130029860909330027E
:101BC00080932F02089580912F02909130029061AE
:101BD0009093300280932F0208952098289A000055
:101BE000000083B12898209A809587709091F00228
:101BF00080FF05C094609093F00280E008959B7F81
:101C00009093F00281FF02C082E0089582FD02C03D
:101C100081E0089583E008951F920F920FB60F920E
:101C200011248F9326982E9AF09A000083B1809504
:101C30008E76809331022E98269A8F910F900FBE48
:101C40000F901F9018950F930FB70F9301E000931B
:101C50000501009170000D7F009370000F910FBF80
:101C60000F9118951F93182F80E00E94A40363E042
:101C7000812F0E94DB031F9108950F931F93082F5C
:101C8000162F811160E08CE20E94DB03802F8150CF
:101C9000823010F060E001C0612F85E40E94DB0318
:101CA000023008F410E0612F8DE20E94DB031F91E7
:101CB0000F9108951F93182F80913803E82FF0E0BB
:101CC000E731F10508F0BCC1E25DFF4F0C94C81983
:101CD000112309F4B5C183E00E94A403B1C111230B
:101CE00009F4AEC18BE30E94320E63E081E890EF0D
:101CF0000E940F05A5C1112319F080E00E94A403E2
:101D00008091130390E061E08053984F0E947E041D
:101D100097C1112319F08BE30E94320E8091380392
:101D2000803111F043E001C041E060E08091120396
:101D30000E94600480913803813111F043E001C0BA
:101D400041E062E08091100323C0112359F080E04C
:101D50000E94A40363E08BE30E94DB0363E083E261
:101D60000E94DB0380913803823111F043E001C00F
:101D700041E062E080910F030E946004809138038B
:101D8000833111F043E001C041E060E0809108033D
:101D90000E94600455C1809102011816FCF48BE08A
:101DA0000E94320E43E063E08AE00E94300480919A
:101DB0002603909127038F5F9F4F29F443E062E051
:101DC0008DE00E943004809102016AE00E94201997
:101DD00043E060E0892F0E9430042FC0112319F0E6
:101DE0008BE00E94320E8091F0028823A9F087FFD9
:101DF00002C061E00DC082FF03C063E080E109C062
:101E000083FF03C063E081E104C086FF16C063E086
:101E10008FE00E94200511C08091EF02823018F0FF
:101E200063E08EE0F6CF112319F08BE00E94320EB2
:101E300063E08091ED020E944105809109018823B1
:101E400041F09091EE028091ED02981711F463E059
:101E500001C060E088E10E94DB03809109018823D2
:101E600011F463E001C060E082E30E94DB03609153
:101E700034037091350380913603909137030E94AB
:101E8000BF03DEC0112319F08BE30E94320E63E022
:101E900080911201909113010E94BD04D1C01123C1
:101EA00019F080E00E94A4030E949D08853638F452
:101EB0000E949D0843E060E00E94A004C1C063E06E
:101EC0008AE008C0112319F08AE10E94320E61E015
:101ED000809139020E942005B3C0112379F080E07F
:101EE0000E94A40363E08BE30E94DB0363E083E2D0
:101EF0000E94DB0363E08AE10E94DB0380913902E8
:101F0000982F990F990F990F20913D02920F90935E
:101F1000040190913C02392F3295307F20E04091AE
:101F20003A0250913B02240F351F30931503209342
:101F300014030E94A4060E94BF038FEF8093040144
:101F400080913A0290913B026CE370E00E942D195F
:101F5000862F61E00E94270480913A0290913B0213
:101F600025E0803A9207B0F46CE370E00E942D19EE
:101F7000862F41E062E00E94600480913A029091D5
:101F80003B026CE370E00E942D1941E060E00E948A
:101F9000600404C061E089E00E94200561E0809156
:101FA0003C024CC0112319F080E00E94A40363E0BE
:101FB00088E090CF112319F083E00E94A403809160
:101FC00038038C3011F043E001C041E062E08091C1
:101FD00007010E94F804809138038D3011F043E02E
:101FE00001C041E0E0910701FF27E7FDF095EA5EBF
:101FF000FC4F60E080810E94F80422C0112319F098
:1020000083E00E94A403809137020E94A11763E03D
:102010000E940F0561E0809137020E94270410C0E2
:10202000112319F08BE30E94320E61E08091390296
:102030000E9441058091380363E082500E943D0E6A
:102040001F910895EF92FF920F931F93CF93DF9309
:10205000982F40912F025091300240FF02C011E0B2
:1020600005C041FD02C010E001C01FEF2091380300
:10207000E22FF0E0E731F10508F085C1EB5BFF4F9F
:102080000C94C819992319F082E08093060180917D
:102090000601882309F012C281E08AC1992319F050
:1020A00082E08093060180910601882309F006C230
:1020B0008FE07EC1112329F080911303810F0E94CC
:1020C0004C0780912F0282FFF9C180E136C01123B5
:1020D00029F080911203810F0E94510780912F02F5
:1020E00082FFECC181E129C0112329F08091100306
:1020F000810F0E945F0780912F0282FFDFC182E182
:102100001CC0112329F080910F03810F0E94C0058C
:1021100080912F0282FFD2C183E10FC0112341F0D1
:1021200080910803810F0E94CB0580E00E94D605B4
:1021300080912F0282FFC2C187E080933803109202
:10214000EE02BAC180913802882331F05770452BD6
:1021500009F4B4C18BE02CC1112349F02650223080
:1021600030F4812F0E94BA1786E080933803909153
:102170002F0293FD02C000E00BC0809138038F5FF7
:10218000809338038B3018F087E08093380301E0A8
:1021900094FF07C08FEF0E94CE1786E0809338032C
:1021A00001E080912F0287FF8AC18EEF0E94CE1737
:1021B00086E0FEC0992351F080912F03813011F009
:1021C00080E002C080910A038093390285E1809308
:1021D0003803112361F020913902812F992787FD5F
:1021E0009095820F911D877090708093390242FF05
:1021F000AFC086E18093380310923D0210922F0306
:1022000080913902882319F081E080932F0389E1BE
:102210000E940E0C6CC09923A9F04CE352E060912F
:102220003D02809139020E94640890933B028093A2
:102230003A02815A954030F080EA95E090933B0253
:1022400080933A02112319F180913A0290913B0256
:102250006AE070E00E942D19CB018F569F4F212F0D
:10226000332727FD3095820F931F61E970E00E94AC
:102270002D199C0153E0880F991F5A95E1F7220F01
:10228000331F820F931F90933B0280933A02209159
:102290002F0223FF08C080913C0290E005968370D6
:1022A000907080933C0222FF53C040913A025091BB
:1022B0003B0220913C0260913D02809139020E94D4
:1022C0007C0880913D028F5F80933D02883068F0EA
:1022D00080913902882331F067E00E9414199F5FD2
:1022E0009093390285E1809338031092EE02809139
:1022F0002F03813011F080E002C080910A030E9418
:10230000A40660933403709335038093360390934F
:10231000370333C0992339F0E22FF0E0EB5EFC4F36
:10232000808180933902112389F080913902810FD5
:10233000809339028E3318F08DE3809339028091B7
:102340003902893018F489E08093390242FD02C0D5
:1023500000E014C0E22FF0E0EB5EFC4F8091390208
:1023600080838091380381500E940E0C8091380345
:102370008F5F809338031092EE0201E080912F026C
:1023800084FF9DC014C080913802882311F000E0C2
:1023900004C087E08093380301E0992319F085E0B9
:1023A0008093060180910601882309F088C087E0A8
:1023B0008093380381C044FD02C000E004C087E080
:1023C0008093380301E043FF04C08EE0809338031C
:1023D00001E042FF0DC0809138038D3031F48091CF
:1023E00007010E940E0C8CE001C08DE08093380341
:1023F00080913803C12FDD27C7FDD0958C3081F443
:1024000080910701992787FD9095C80FD91FCE01AC
:102410004E966EE170E00E942D19809307014FC027
:1024200062E0809107010E94FE0B182FE82EFF2426
:1024300063E0809107010E94FE0B682F70E06F5FE0
:102440007F4F6E197F0920910701E22FFF27E7FDDB
:10245000F095EA5EFC4F8081C80FD11DCE19DF09CF
:10246000CE01860F971F0E944119180F1083222357
:1024700031F50E947A0320C044FD02C000E004C090
:1024800087E08093380301E043FF04C08CE0809331
:10249000380301E08091370290E00996212F33271D
:1024A00027FD3095820F931F69E070E00E9441196B
:1024B00080933702112319F001E001C000E0809100
:1024C0002F02909130022091380293FF0EC08BE0D2
:1024D0008093380380E0222309F481E0809338025E
:1024E0001092300210922F021FC02223E1F594FFB8
:1024F0000AC08CE0809338031092300210922F02B1
:102500001092070111C092FF02C08FE00BC090FF34
:1025100002C084E107C095FF02C087E003C091FFBD
:1025200022C082E0809338031091070117FD10C08C
:102530001E3170F460E0812F0E94FE0BE12FFF2717
:10254000E7FDF095EA5EFC4F80838FEF80930701F3
:1025500001E01092300210922F02802FCDB7DEB72B
:10256000E6E00C94B9190023A1F3DECF0F931F937B
:102570001092390310923A0310923B0310923C03DD
:1025800090933F0280933E0200911B03602F70E006
:102590006F5F7F4F8FEF9FE70E9441197093410259
:1025A00060934002882777FD8095982F10E020E007
:1025B00030E0A90198010E94F51820911C0330E039
:1025C00040E050E00E94761920934202309343028B
:1025D00040934402509345021F910F910895A0E04B
:1025E000B0E0E5EFF2E10C949519EB01861B970B37
:1025F0009C01442737FD4095542FCA01B90157FF6C
:1026000007C066277727CB01621B730B840B950BE2
:102610000E94F51820911E03622E772488249924A5
:10262000A40193010E94761979018A012091400248
:1026300030914102C901AA2797FDA095BA2F8E15A6
:102640009F05A007B1073CF49FEFA92E9FE7B92E85
:10265000C12CD12C21C088279927821B930BAA2734
:1026600097FDA095BA2FE816F9060A071B074CF448
:1026700081E0A82E80E8B82E8FEFC82E8FEFD82EDD
:102680000BC020911B0330E040E050E0C801B701CF
:102690000E94F5185B016C012091390330913A03D7
:1026A00040913B0350913C032E0D3F1D401F511F95
:1026B0002093390330933A0340933B0350933C03F8
:1026C0008091420290914302A0914402B091450250
:1026D00082179307A407B5074CF4809339039093AE
:1026E0003A03A0933B03B0933C0314C0EE24FF24B1
:1026F0008701E81AF90A0A0B1B0B2E153F05400744
:10270000510744F4E0923903F0923A0300933B03FB
:1027100010933C0360911C0370E080E090E02091F6
:10272000390330913A0340913B0350913C030E949E
:10273000F5187B018C0180913E0290913F028C1B29
:102740009D0B9C01442737FD4095542FCA01B901C8
:1027500057FF07C066277727CB01621B730B840BDB
:10276000950B0E94F518A40193010E947619B901F6
:10277000CA0120911D0330E040E050E00E94F518AE
:10278000D0933F02C0933E026E0D7F1D801F911FAC
:102790006A0D7B1D8C1D9D1DA40193010E9476195D
:1027A000C901DA0183339105A105B10514F082E373
:1027B00009C08E3C2FEF92072FEFA2072FEFB20731
:1027C0000CF48EECCDB7DEB7EEE00C94B1191F928D
:1027D0000F920FB60F9211248F93EF93FF93E1ECBA
:1027E000F0E08081877B8083FF91EF918F910F9044
:1027F0000FBE0F901F9018959C0140E050E084E0C0
:10280000220F331F441F551F8A95D1F760E079E0EE
:102810008DE390E00E945419215030403093C50060
:102820002093C40086E08093C200EBE6F0E0808154
:10283000816080830895F8948091C10085FD0FC068
:102840008091C1008F7B8093C1008091C000806423
:102850008093C0008091C10088628093C100789409
:1028600008951F920F920FB60F9211242F933F934A
:102870004F935F936F937F938F939F93AF93BF9388
:10288000EF93FF930E94B314882319F08093C6003E
:102890000FC08091C1008F7D8093C1008091C000E6
:1028A00080648093C0008091C10080648093C100E7
:1028B000FF91EF91BF91AF919F918F917F916F9118
:1028C0005F914F913F912F910F900FBE0F901F90EE
:1028D00018951F920F920FB60F9211242F933F93CA
:1028E0004F935F936F937F938F939F93AF93BF9318
:1028F000EF93FF938091C6000E94C514E1ECF0E0D5
:1029000080818F768083EBE6F0E080818160808338
:10291000FF91EF91BF91AF919F918F917F916F91B7
:102920005F914F913F912F910F900FBE0F901F908D
:102930001895582FF89440914602E42FF0E09F013B
:102940002F5F3F4F2F7730708091470290E028171C
:10295000390739F0E65BFD4F50834F5F4F77409367
:102960004602789408959091470280914602891713
:1029700011F480E00895E92FF0E0E65BFD4F8081DF
:102980009F5F9F77909347020895282F8823D1F067
:102990008D3009F42AE080914802E82FF0E0E653F8
:1029A000FD4F2083982F9F5F9F71909348028091E5
:1029B0004902981721F49F5F9F71909349022A3032
:1029C00009F4F69A08951F93182F843658F064E698
:1029D0000E941419805D0E949914812F64E60E9460
:1029E0001419192F812F6AE00E941419805D0E942A
:1029F0009914812F6AE00E941419892F805D0E942A
:102A000099141F9108950F931F938C0164E670E051
:102A10000E942D19862F0E94E314C80164E670E01D
:102A20000E942D190E94E3141F910F9108951F9386
:102A3000182F82958F708A3010F0895A01C0805DFE
:102A40000E949914812F8F708A3010F0895A01C02A
:102A5000805D0E9499141F9108951F93182F892F4C
:102A60000E941715812F0E9417151F910895CF936B
:102A7000DF93EC01FC01849105C00E94991421961A
:102A8000FE0184918823C9F7DF91CF910895582FD3
:102A9000409148022091490230E02BC0F89442173F
:102AA00011F4E0E007C0E22FF0E0E653FD4FE081D3
:102AB0002F5F2F7178949E2F90539A3048F08E2F6D
:102AC0008156863018F02093490229C09E2F9755D1
:102AD000E32FE69530FF06C0F0E0E651FD4F808120
:102AE000980F05C0F0E0E651FD4F9295907F9083DE
:102AF0003F5F351798F220934902F894421711F47A
:102B0000E0E009C0E22FF0E0E653FD4FE0812F5FE7
:102B10002F71209349027894EA3009F4E0E08E2F77
:102B200008950E9499148BE50E9499148091EA02FD
:102B30000E9417158DE50E9499148DE30E94991447
:102B40000895CF93DF93EB01181614F48BE203C0C2
:102B5000882319F08DE20E94991480E20E94991452
:102B6000CE010E942D158AE00E9499149091460290
:102B700080914702981711F00E941B14DF91CF91AA
:102B800008951F93182F85E092E00E9437158091D9
:102B90000A0380530E94171580E20E9499148091C5
:102BA00010030E94E3148EE20E9499148091120394
:102BB0000E94E3148EE20E949914809113030E94F4
:102BC000E31480E20E94991480910F030E94E314A1
:102BD0008AE30E949914809108030E94E3148AE317
:102BE0000E949914809111030E94E31480E092E006
:102BF0000E94371517FD02C0812F02C080910E017F
:102C00000E94E3148BEF91E00E943715809112012E
:102C1000909113010E94031586EF91E00E943715F1
:102C2000909108019D3328F081EF91E00E943715C3
:102C300006C082E3989FC00111240E9403158CEE08
:102C400091E00E94371580911001909111010E942E
:102C500003158091F002882341F088EE91E00E94F4
:102C600037158091F0020E94171517FF04C085EEFA
:102C700091E00E9437158091EF02823020F082EEC1
:102C800091E00E9437158AE00E94991490914602C3
:102C900080914702981711F00E941B141F9108950C
:102CA0001F9321C1812F90E0FC01E154F040E931F4
:102CB000F10508F010C1E45AFF4F0C94C819F894BC
:102CC00080914902281711F4E0E009C0E82FF0E0F4
:102CD000E653FD4FE0818F5F8F71809349027894B6
:102CE000EA3009F0F8C081EA91E00E943715F3C09C
:102CF000F89480914902281711F4E0E009C0E82F08
:102D0000F0E0E653FD4FE0818F5F8F7180934902C1
:102D10007894EA3009F0DFC099C082E00E9447153C
:102D2000882309F0F7C084E50E9491158091EA029A
:102D30000E94A11763C0173439F482E00E9447153E
:102D4000882309F0E7C014C084E00E944715882357
:102D500009F0E0C09091EA029E3150F4E92FF0E0D2
:102D6000EA5EFC4F8091EB028083892F0E940E0C5B
:102D7000812F0E949115E091EA02F0E0EA5EFC4F9B
:102D800080810E941715C6C0123539F482E00E9476
:102D90004715882309F0BEC01EC086E00E94471573
:102DA000882309F0B7C02091EB028091EA02422FFC
:102DB00050E04F705070542F44279091EC02490F0F
:102DC000511D682F6F7022952F7082958F700E9411
:102DD0007C081092EE02812F0E9491152091EA0248
:102DE000822F82958F7090E033E0880F991F3A957B
:102DF000E1F72F70820F911D0E94B00C0E942D15DB
:102E000089C086E00E944715882309F083C080911D
:102E1000EA020E944C078091EB020E9451078091C8
:102E2000EC020E945F0712C086E00E9447158823CB
:102E300009F070C08091EA020E94C0058091EB0207
:102E40000E94CB058091EC020E94D6058FEF0E9474
:102E5000C11541C084E00E944715882309F05AC07B
:102E60008091EA02833109F055C08091EB028432EF
:102E700009F050C0F89428E088E190E00FB6F8948B
:102E8000A895809360000FBE20936000FFCF82E082
:102E90000E944715882309F03DC090E08091EA0226
:102EA000813009F491E0892F0E94CE1710C082E092
:102EB0000E944715882371F59091EA02993050F1EC
:102EC0009E3340F58AE080930A019093ED028FEFE4
:102ED0000E94C1151FC09091460280914702981729
:102EE00011F00E941B14F89420914802809149022D
:102EF000281711F410E009C0E82FF0E0E653FD4F69
:102F000010818F5F8F71809349027894112309F0AB
:102F1000C9CE04C08AE00E949914DDCF1F910895A4
:102F200081EA91E00E94371580E895E20E94FC1347
:102F30009091460280914702981711F00E941B144D
:102F40000895893018F020E030E012C0E82FF0E05A
:102F5000EE0FFF1FE75FFD4F85919491FC01FF7716
:102F600097FF03C02081318103C08081282F30E08A
:102F7000C90108959091ED02980F9093ED02993058
:102F800010F489E003C09E3318F08DE38093ED02C6
:102F90001092EF028AE080930A0108958F3F21F595
:102FA00020910901222331F09091ED028091EE02EF
:102FB000981749F08091ED028093F1028091EE0222
:102FC0008093F20204C01092F1021092F20280E0AB
:102FD000222309F481E0809309018823E1F08091A4
:102FE000EE028093ED0217C08E3F99F42091090103
:102FF000222331F49091F2028091EE02981721F48D
:103000008091F1028093ED0210920901222319F4BC
:1030100081E0809309011092EF028AE080930A0117
:1030200008950F931F93062F882321F48091EE02B9
:103030008823E9F490E08091EE02811191E0892FDC
:103040000E946406982F882391F08093EE0280916D
:103050000901882361F09093ED0280910A0187FFB6
:1030600006C080910801981711F010920A01409152
:10307000EF024230E0F420911601309117013095B3
:1030800021953F4F8091320390E08217930764F5BA
:10309000842F8F5F8093EF02823061F510920A01D6
:1030A00088E097E090933E0380933D0323C0809196
:1030B0003D0390913E030097E9F0019790933E0302
:1030C00080933D038091320390E02091160130916E
:1030D0001701821793075CF4842F8F5F8093EF02B0
:1030E000843040F010920A011092EF0203C082E097
:1030F0008093EF0280910B0190910C01009729F0D1
:10310000019790930C0180930B0180910A0118168E
:103110001CF4815080930A0120910B0130910C0125
:103120002115310521F080910A018823B9F510910C
:10313000ED021A3018F08091EF0281111AE08091AF
:103140000801181749F0109308018091120190911D
:1031500013010E94B61202C0232BD1F480911F03E9
:1031600025E0829FC001112490930C0180930B01F4
:103170001D3310F004E60CC0609112017091130130
:1031800082E3189FC00111240E94EF12082F0E5CE9
:103190008FEF80930A01802F0E94C115409110018A
:1031A000509111018091310324E1829FC0011124CB
:1031B0004817590730F48091F002806C8093F00238
:1031C00010C080913003829FC00111242091F00231
:1031D0004817590718F420642F7701C02F732093E4
:1031E000F002802F1F910F910895629FD001739F6D
:1031F000F001829FE00DF11D649FE00DF11D929F93
:10320000F00D839FF00D749FF00D659FF00D9927D1
:10321000729FB00DE11DF91F639FB00DE11DF91FF5
:10322000BD01CF0111240895991B79E004C0991FB5
:10323000961708F0961B881F7A95C9F78095089510
:1032400087FB082E062687FD819567FD6195ECDFDB
:103250000EF4919507FC81950895AA1BBB1B51E1C3
:1032600007C0AA1FBB1FA617B70710F0A61BB70BF6
:10327000881F991F5A95A9F780959095BC01CD019B
:10328000089597FB092E07260AD077FD04D0E5DFC5
:1032900006D000201AF4709561957F4F0895F6F7D7
:1032A000909581959F4F0895A1E21A2EAA1BBB1BF2
:1032B000FD010DC0AA1FBB1FEE1FFF1FA217B30702
:1032C000E407F50720F0A21BB30BE40BF50B661F18
:1032D000771F881F991F1A9469F7609570958095DC
:1032E00090959B01AC01BD01CF01089597FB092E7C
:1032F00005260ED057FD04D0D7DF0AD0001C38F4C5
:1033000050954095309521953F4F4F4F5F4F089511
:10331000F6F790958095709561957F4F8F4F9F4FF1
:1033200008952F923F924F925F926F927F928F9269
:103330009F92AF92BF92CF92DF92EF92FF920F9344
:103340001F93CF93DF93CDB7DEB7CA1BDB0B0FB64E
:10335000F894DEBF0FBECDBF09942A88398848880B
:103360005F846E847D848C849B84AA84B984C884A1
:10337000DF80EE80FD800C811B81AA81B981CE0F98
:10338000D11D0FB6F894DEBF0FBECDBFED0108957D
:10339000EE0FFF1F0590F491E02D0994F894FFCFF4
:0E33A0000101FE05FF0102FFFF0110100000F9
:00000001FF
