:1000000016C1000030C100000C94B10A0C94480DD8
:100010000C945F0DDAC5000026C1000024C1000069
:1000200022C1000020C100001EC100000C9467081E
:100030001AC100000C94FB160C94C4160C9479168B
:1000400012C1000010C100000EC1000050C300002A
:100050000AC1000008C100006DC50000AE0DB20D60
:100060003A0F3A0F3A0F3A0F4D0E050E7B0E870EE0
:10007000DF0D050F0B0F0B0F2B0FBA0DC60DC60DA5
:10008000DF0DDF0D460F990EA10E6B0F770FB0102D
:10009000B010B010B010D50FD50FD50FD50FD50FAC
:1000A000E010E610E6102E11830F920FA50FB40F8B
:1000B000C30F0810171037100814E1131E144A1349
:1000C0001E141E145B13CF131E141E141E141E14B4
:1000D000FB131E141E141E141E1483135B134F13E4
:1000E0001E14441383131E14BB133F065B4F666D2F
:1000F0007D077F6F777C395E797163547376300842
:100100004001484109495054105C00332738583E9B
:10011000786E2001160720160116201602162016EA
:10012000031620160416201605162016061620168D
:1001300007160B011F241616161620160C16200E75
:100140001C1C000F0F20001D202000120E1D0B0A8A
:100150002626200E0220200E03200E0E121C28241C
:100160001F1B02031B1918000100020304050607E8
:1001700008090A3935423E0C0D0E0F1011121314E6
:10018000151F1C1F1E1F1E1F1F1E1F1E1F00001FCE
:10019000003B005A0078009700B500D400F300112E
:1001A0000130014E01563A204F70656E4852323090
:1001B0002053572076657273696F6E20302E39395F
:1001C000206275696C64204D6172203234203230B7
:1001D00030392031333A30383A303820526576326F
:1001E00032354A440A0020570020580020453A0082
:1001F0002049733A200020423A2000424F4F5400D9
:1002000020533A200020493A200020563A2000444A
:100210003A200012811081E382DF020901E0020A24
:1002200001198217821582000000000000001124CD
:100230001FBECFEFD4E0DEBFCDBF11E0A0E0B1E044
:10024000E8E0F0E302C005900D92AE30B107D9F7B7
:1002500013E0AEE0B1E001C01D92A933B107E1F7B0
:1002600003D00C940318CCCE1F9390E890936100B8
:1002700081E08093610090BF8FEF80937E008DE0DE
:100280008093640088E183BB9EE09DB983E08EB9D2
:1002900088E080BB83EF81BB95B981ED84B98EE2A4
:1002A00080936C0080EC8DBBDFD583B120E090E0C3
:1002B000809590958E7090700E9709F421E0822FB2
:1002C0000E94C90B81E00E94090A32D283B1809555
:1002D0008076809331031EBA789483E090E00E9488
:1002E0006B0B863029F063E082E1D2D2D9D3FFCF05
:1002F0000E942614F8948EB3882339F584B590E0D3
:1003000087709070892B21F48091C100887111F061
:1003100081E007C080910F01882311F083E001C0C4
:1003200087E083BF80910F01882339F010920F017D
:1003300080917A00806480937A007298789488958E
:100340000000729A86E083BF01C07894F39B03C0DB
:10035000F398A6D3CFCFF29B03C0F2982ED1CACF89
:10036000F69B04C0F6980E943513C4CFF59B03C0DA
:10037000F598BBD7BFCFF49B08C0F4980E94250D19
:100380000E94090A0E94560AB5CFF09B03C0F0985C
:100390000E943D0CF19B35C0F198A2D5182F6091B9
:1003A0000E010E948C1480930E01112371F0809134
:1003B0000003863051F4809105038A3031F4809136
:1003C000FE02882311F40E94090A0E94250D0E9452
:1003D000090A80910E0140D70E94C90CDDD080919E
:1003E000070187FD03C081508093070180E00E94D0
:1003F000A00D8091E40088608093E40081E0809308
:1004000012028091290290912A02892B29F480916D
:100410000701882309F06ECF80E00E94480F182F53
:10042000882319F081E00E94480F812F0E94A00DBF
:100430008091E40088608093E40081E08093120260
:1004400059CFA0E0B0E0E7E2F2E00C94CC174B010A
:10045000C82EDD245601AA0CBB1CAA0CBB1C28E12B
:1004600031E0A20EB31EF50180819181A281B3819A
:100470007B010027F7FC0095102FE80EF91E0A1FDC
:100480001B1FE082F18202831383409100014F30F1
:10049000F0F180912001C82FD0E0CE018D966CE361
:1004A00070E00E9476172CE330E0B901C69E9001FF
:1004B000C79E300DD69E300D1124F901E80FF91FAB
:1004C000EE0FFF1FEE5DFE4F80819181AA2797FD01
:1004D000A095BA2FE81AF90A0A0B1B0BF501E08266
:1004E000F182028313834C3390F0F601EE0FFF1F6D
:1004F000EC5EFE4FC20FD31FCC0FDD1FCE5DDE4F73
:10050000888199819401281B390B318320832091A4
:1005100020018CE390E0C89EF001C99EF00DD89EAA
:10052000F00D1124E20FF11DEE0FFF1FEE5DFE4FE7
:1005300091828082F601EE0FFF1FEE0FFF1FE85E33
:10054000FE4F60817181828193814F3028F02FE0CE
:1005500030E040E050E004C0242F30E040E050E0C4
:10056000CC0CDD1CE0E1F1E0CE0EDF1E0E94AB17EB
:10057000F60131832083ECE0CDB7DEB70C94E817A9
:100580009C0140E050E060E070E381E190E00E9477
:100590008917DA01C901089591E0909321018CE057
:1005A000809364008CE880937A0010927B008EE543
:1005B00080937C0090930F010895CF92DF92EF9289
:1005C000FF920F931F93809121018F5F80932101F0
:1005D000833049F08430E9F0823009F078C08DE84A
:1005E00080937A0012C0209178008091790090E089
:1005F000982F882730E0822B932BC2DFBC0180E04C
:1006000020DF8B9A82E480937C0081E080930F014D
:1006100064C0809178002091790030E0722F6627C5
:1006200090E0682B792B80912403482F50E04050B4
:100630005F4FA1E0B0E02A2FFD01EC5DFC4F80810F
:10064000FA01E80FF11D6E177F0734F0AF012F5F3D
:100650001196A630B10579F730E0F901EC5DFC4F59
:10066000E0808CE09EEF289F6001299FD00C389F8E
:10067000D00C112480EA9FE0C80ED91E641B750BB4
:10068000882777FD8095982F2CE03EEF4FEF5FEFA6
:100690000E942A17FF2400E010E0A80197010E94A1
:1006A000AB17C20ED31EB60181E0CBDE80912001D4
:1006B00090E001966CE370E00E9476178093200131
:1006C000809100018C3318F48F5F809300018B9828
:1006D0008DE080937A008093640080910F0190E018
:1006E0001F910F91FF90EF90DF90CF9008950F939F
:1006F00000E0F29A00930F010F911895833011F4E6
:100700002FEF01C020E080E090E0FC01E451FD4FBC
:100710002083019682319105C1F791E09093010108
:100720008091E40088608093E40090931202089521
:1007300080E0E4DF80910C038093E70085EA8093FA
:10074000E50086E08093E600E4EEF0E080EC808354
:1007500080818860808381E0809301010895EF9219
:10076000FF920F93CF93DF937B01082FC9E6D1E06F
:10077000FE01849166270695F794E79408F463E0F8
:1007800009D02196C138A1F7DF91CF910F91FF9049
:10079000EF900895782F769576957695877021E07D
:1007A00030E001C0220F8A95EAF7462FE72FF0E0EC
:1007B00060FF05C0E451FD4F8081822B06C0E451EB
:1007C000FD4F9081822F809589238083E72FF0E071
:1007D00041FF05C0E451FD4F8185282B05C0E45140
:1007E000FD4F81852095282321876150623068F074
:1007F000809101018130A9F020E030E0F901E4515D
:10080000FD4F90818185981721F082E0809301014E
:1008100008952F5F3F4F2930310581F781E08093A4
:1008200001010895E9E6F1E0E80FF11DE4918E2F52
:10083000B1CFEF92FF920F931F93CF93DF93E42EEC
:10084000643008F58832F8F4E62FF0E0E25AFE4F03
:10085000F490E82FF0E0E651FF4F0491C2E6D1E0BA
:1008600011E0FE019491812F802311F06E2D01C0C3
:1008700060E0892F8F0D8EDF2196F1E0C936DF070A
:1008800011F0110FEECFE6E0CDB7DEB70C94EE1706
:100890000F931F93CF93DF93062FC82FD0E0CC0F79
:1008A000DD1FCC0FDD1FCE5EDE4F13E0FE01849115
:1008B000402F612FBEDF115021961F3FB9F760E036
:1008C0008BE368DFDF91CF911F910F910895FF9225
:1008D0000F931F93082F162FF42E633080F4843665
:1008E00070F46AE00E944917612F892FA2DF1F5F11
:1008F000802F6AE00E9449174F2D612F9ADF1F91C8
:100900000F91FF9008950F931F93082F162F893092
:1009100011F48CE007C08D3311F48DE003C08E33E9
:1009200018F08BE0B5DF19C0462F62E08695CFDF67
:1009300000FF02C085E001C080E0412F61E079DF67
:10094000043120F4412F63E080E273DF412F60E047
:100950008CE06FDF612F8BE31DDF1F910F910895F6
:100960001F93CF93DF93162FEC0187E2C031D80796
:1009700010F0CFE0D7E2CE0164E670E00E9462178B
:10098000CB01412F62E0A3DFCE0164E670E00E945C
:100990006217412F60E09BDFDF91CF911F91089597
:1009A0000F931F93CF93DF93162F042F6230D0F451
:1009B000EC0183E0C83ED80710F0C7EED3E0212F4A
:1009C0002E5FCE0164E670E00E946217CB01402FDB
:1009D000622F2FDFCE0164E670E00E946217402F85
:1009E000612F75DFDF91CF911F910F9108950F93C4
:1009F0001F93CF93DF93162FEC018CEFC931D807EB
:100A000014F4C9E1DCEF00E0D7FF04C001E0D095A9
:100A1000C195DF4FCE016AE070E00E947617CB01EE
:100A2000412F61E0BDDF002321F0412F63E086E12B
:100A300006C0C85ED34024F4412F63E080E2F9DEB3
:100A4000412F60E08CE0F5DEDF91CF911F910F9197
:100A50000895FF920F931F93F82E162F042F6330E3
:100A600048F48F70E6DE1F5F402F612F8F2D829537
:100A70008F70DFDE1F910F91FF900895FF920F930B
:100A80001F938C01F62E812F9927462F62E0E1DF1C
:100A90004F2D60E0802FDDDF1F910F91FF900895B3
:100AA000809113028F5F809313028D3058F08091F4
:100AB00014028F5F8170809314021092130281E000
:100AC0008093120280911202882351F11092120237
:100AD0008091140290E0FC0123E0EE0FFF1F2A95A5
:100AE000E1F7E80FF91FE451FD4F80818093EC009E
:100AF00081818093ED0082818093EE0083818093D9
:100B0000F10084818093F20085818093F3008681D7
:100B10008093F60087818093F70080858093F800AA
:100B200080910101813029F48091E400877F8093D6
:100B3000E4000895F39A1895885E68E10E944917C9
:100B4000909305030895845C6CE30E944917909389
:100B5000FE020895845C6CE30E944917909307039A
:100B6000089580910803E82FF0E0E058FE4F2491AB
:100B7000823051F48091090390E083709070892B4A
:100B800019F48DE190E00895822F90E0089580910E
:100B900000038730B1F480910803833039F420E0FA
:100BA00030E080910603893170F008C08A3049F442
:100BB00020E030E080910603883128F021E030E029
:100BC00002C020E030E0C9010895F19A1895A0E034
:100BD000B0E0EDEEF5E00C94C717F82E5B0188232A
:100BE00019F048E0342E02C032E0332E55245A94D6
:100BF0006624CF2CDD24860123E0000F111F2A95E7
:100C0000E1F7702E98E0492E400E88249924C0E028
:100C1000D0E011C090E0F2D59F7025E0803A9207B5
:100C200048F48815990530F0A816B90618F05E2C1E
:100C3000500E4C012196EC2E8C2F870D841550F30D
:100C400057FE11C0FF2041F0C601059667E070E035
:100C50000E947617F82EF394639480EAA82E85E01C
:100C6000B82E631431F6852D90E0E1E1CDB7DEB703
:100C70000C94E317FF920F931F93CF93DF93F82EFB
:100C8000909105038CE3989FE00111248091FE026E
:100C9000C80FD11D80912B03813011F000E002C0FC
:100CA00000910003BE01802F92DF182F992787FD46
:100CB0009095A4D5FC0117FD16C0FF2049F09F7048
:100CC0008C179D0781F4159515951595101759F4F6
:100CD000EF2FFF27E295EF70E370F070E35FFC4FBA
:100CE000808190E002C080E090E0E5E0CDB7DEB723
:100CF0000C94EF17A0E0B0E0E0E8F6E00C94D01719
:100D0000C82EC0EAD5E077E1D72EEE24FF24870174
:100D1000BE018C2D5CDF87FF03C080E090E004C043
:100D2000992787FD90956AD59C01207030739F703C
:100D30008C179D0718F0CFEFDFEF02C0EC01219771
:100D40008CE34D2D4802C001112414C050E2203024
:100D5000350740F041E050E060E070E0E42AF52A19
:100D6000062B172B1D1424F4EE0CFF1C001F111F63
:100D7000DA94CC97C817D9074CF31C161D0644F219
:100D8000C801B701E8E0CDB7DEB70C94EC17B2DFCD
:100D9000609332037093330380933403909335034D
:100DA00008950F931F93CF93DF9380910803E82F4B
:100DB000F0E0EE0FFF1FE557FE4FC591D4919091E3
:100DC0000603C90FD11D833040F08091090390E0E4
:100DD00083709070892B09F42196E0910903F0E06B
:100DE0008F0101501040C80164E070E00E94761746
:100DF0009B012E0F3F1FC80164E670E00E9476172A
:100E0000261B370B2B5F3F4FC9018C0F9D1F67E0DF
:100E100070E00E946217282F2F5F209300038091BB
:100E20002B03813009F020E0822FB1DFDF91CF91D9
:100E30001F910F91089580930903B3CF855F6CE0F4
:100E40000E9449179F5F90930803ABCF1F93182F01
:100E500088DE682F8150810F0E9449179F5F909311
:100E600006039FDF1F910895809170008E7F80930D
:100E7000700088E08093B6001092B2008091B000BC
:100E800085608093B0002091B6008091B60090E01C
:100E90008470907030E021703070822B932B892BFE
:100EA00091F78FEF87BB8091700081608093700015
:100EB0001092010310920203109203031092040394
:100EC0008CE0809305031092FE021092070381E0EC
:100ED000809306038093080389E08093090361CF20
:100EE0001F938091010390910203A0910303B0919D
:100EF00004030196A11DB11D809301039093020389
:100F0000A0930303B0930403809107038F5F809342
:100F100007038C3318F480E090E062C0109207035E
:100F20008091FE028F5F8093FE028C3308F456C0DE
:100F30001092FE02809105038F5F80930503883134
:100F400060F1109205030DDE909106039F5F909370
:100F50000603891798F491E09093060380910803A3
:100F60008F5F809308038D3038F090930803809151
:100F700009038F5F809309031092FF0280910003A1
:100F800067E00E9449179F5F9093000380912B03B5
:100F9000813009F090E0892FFADE109108031330B8
:100FA00051F4809105038230C9F4F1DD8823B1F05A
:100FB0001093050313C01A3089F480910503833020
:100FC00069F48091FF02882349F4E1DD882331F040
:100FD00082E08093050381E08093FF0281E090E04E
:100FE0001F9108950F931F938A0190E023E0880FCB
:100FF000991F2A95E1F7860F911D00D49C01232F9C
:10100000332722952F70F80120839F701F910F9135
:101010000895362F8830F0F46830E0F42430D0F4AE
:1010200095E04C3D590710F04FEF5FE0622F70E004
:10103000762F66277295707F642B752B90E043E0C6
:10104000880F991F4A95E1F7830F911DFDD381E029
:1010500090E0089580E090E008954091170250914B
:1010600018024B305105ECF0809102018823C9F43D
:101070002091150230911602F90193E0EE0FFF1F47
:101080009A95E1F7CA016AE070E00E947617220F94
:10109000331FC9018E0F9F1F0E947617862F90E085
:1010A00008958FEF90E008958091170290911802B3
:1010B000892B19F480E090E0089590E0809102017E
:1010C000811191E081E09827892F90E008951F9287
:1010D0000F920FB60F9211248F939F9380911B0252
:1010E00090911C02892B99F080911D0290911E0213
:1010F000019690931E0280931D0280911B02909195
:101100001C02019790931C0280931B0214C08091D3
:101110001D0290911E0290931A028093190214BA34
:101120002F9888E484BDF59A80916B008F7E809320
:101130006B0010926E009F918F910F900FBE0F90D9
:101140001F901895482F8823B1F410926E0080915B
:101150006B008F7E80936B007398649B02C089E55F
:1011600001C089E70E94911114BA2F9888E484BDC8
:1011700010922602089580912602841709F46BC00C
:1011800080912602882389F010921E0210921D027F
:101190001092210210922002109223021092220239
:1011A00082E0809303011092260240932602739AF4
:1011B00090911F0380910201882319F480911E03EE
:1011C00002C080911D03282F30E0892F90E0BC01E0
:1011D000269FC001279F900D369F900D112464E635
:1011E00070E00E94621733E0660F771F3A95E1F7CF
:1011F0007093280260932702809127029091280221
:10120000880F991F880F991F90931C0280931B02CF
:1012100081E085BB16BC80936E008CB180931F0269
:1012200080916B00806180936B0080911A0387BD71
:101230004F3F29F488E084BB2F9889E604C080E101
:1012400084BB2F9A89E784BD649B02C088E501C0F6
:1012500088E70C9491110895982F809102018823BA
:1012600009F042C0943649F4809117029091180217
:10127000909325028093240221C0992329F410928F
:101280002502109224021AC0892F90E020911702A3
:10129000309118023595279535952795AC01429FD9
:1012A000C001439F900D529F900D112469E170E0A1
:1012B0000E94761770932502609324028091260283
:1012C000882391F420911502309116028091240216
:1012D000909125028217930714F48FEF33CF2817CC
:1012E000390714F481E02ECF08951F93CF93DF9335
:1012F0001091260280E026DF80911B0290911C0253
:10130000892B31F080910201882309F46BC023C03E
:10131000113009F03EC0C0911502D09116028091A3
:101320000201823069F5D0931802C09317028091B0
:10133000220390912303892BB9F4C436D1055CF0C4
:10134000D0932303C093220386E1F2D187E1F0D149
:101350001092020147C08FEF809302018091E20258
:1013600088608093E2023EC08FEFECDEC85ED3401F
:10137000D0932502C093240283E08093020132C0FF
:101380008091170290911802909316028093150293
:1013900029C01F3F39F580910201833089F41092F2
:1013A000020120911502309116028091170290914E
:1013B0001802821B930B90931802809317020EC0A1
:1013C0008091150290911602853691053CF010939C
:1013D00002018091E20288608093E202109216027C
:1013E0001092150280910201882379F480911702EE
:1013F000909118028436910544F48FEF8093020196
:101400008091E20288608093E202DF91CF911F9188
:1014100008951F93182F8823B1F480E093DE109273
:1014200016021092150210921802109217028EEFF7
:101430008093020185E0809304018091E202877F1E
:101440008093E20231C080910401882321F0815011
:10145000809304010FC080910201813059F482E031
:101460008093020188EE93E09093250280932402FA
:1014700081E068DE809102018E3FB1F4133059F4AF
:101480008FEF9FEF909323038093220386E150D147
:1014900087E14ED106C0123021F41092230310923E
:1014A000220381E0809302011F9108958091190227
:1014B00090911A0281529E4408F04BC08091030122
:1014C000882309F043C02091190230911A022C5F41
:1014D0003F4F53E0369527955A95E1F780911F03CA
:1014E000281B31098091200390E0AC01249FC001AA
:1014F000259F900D349F900D112464E670E00E94AA
:10150000761780912103282F30E0261737074CF0FB
:1015100088279927821B930B9B01681779070CF486
:101520009C0187B5A901480F511D80911A0390E0D5
:10153000841795074CF080911903282F30E0CA01D9
:10154000421753070CF4C90187BD03C08150809333
:10155000030147B56091190270911A028091260229
:10156000E8C71F920F920FB60F9211241F932F936B
:101570003F934F935F936F937F938F939F93AF931B
:10158000BF93EF93FF931CB1412F10FD0AC08091D0
:10159000C10080698093C10080916B008E7F809331
:1015A0006B0080916B0084FF82C080911F028127B5
:1015B00084FF7DC020911D0230911E028091200287
:1015C00090912102281B390B80911D0290911E02DF
:1015D000909321028093200244FD5EC080911C0301
:1015E00090E0880F991F8217930708F060C0209140
:1015F00022023091230280911B0390E0880F991FF3
:101600008217930708F045C0209115023091160209
:1016100080912602992787FD9095820F931F9093C2
:1016200016028093150280911D0290911E029093E4
:101630001A02809319021092230210922202109231
:101640001E0210921D021092210210922002F49AA2
:10165000209115023091160280912402909125026A
:101660002817390769F414BA2F9888E484BDF59ACD
:1016700080916B008F7E80936B0010926E0017C07C
:10168000809127029091280290931C0280931B0264
:101690000EC08EE746D60BC08091220290912302A5
:1016A0008217930720F43093230220932202109391
:1016B0001F02FF91EF91BF91AF919F918F917F9109
:1016C0006F915F914F913F912F911F910F900FBE9E
:1016D0000F901F901895F999FECF92BD81BDF89A91
:1016E00080B590E00895F999FECF90E0880F991F9A
:1016F000880F991F860F911D80549F4F92BD81BD09
:10170000F89A80B590E008959C0180E0203C38076D
:1017100028F0C90183709070892B49F4F999FECFA4
:1017200032BD21BD60BDF894FA9AF99A7894089573
:10173000EF92FF920F931F93CF93DF93082F853281
:1017400018F5E82EFF24E701C45FDC4F188160E044
:10175000CADF1817C9F0188162E0802FC4DF18179C
:1017600030F0188163E0802FBEDF811720F461E044
:10177000802FB9DF8883EE0CFF1CEE0CFF1C688104
:10178000C70180549F4FC0DFE6E0CDB7DEB70C94B1
:10179000EE17EF92FF920F931F93CF93DF93082FD3
:1017A0004CE0E42E43E0F42EC0E0D0E0002391F4BE
:1017B00060E08C2F98DF182FF701808362E08C2F78
:1017C00092DF181738F0F701108163E08C2F8BDF60
:1017D000811728F461E08C2F86DFF70180838C2F3E
:1017E000A7DF2196C532D10521F00894E11CF11C38
:1017F000DDCFE6E0CDB7DEB70C94EE17EF92FF92A7
:101800000F931F939C018091050190E028173907E1
:1018100089F08901000F111F0C5F1F4FC80101964D
:101820005ADFE82EC80157DFFF243E2D2227280F5C
:10183000311D04C020910A0330910B03C9011F918F
:101840000F91FF90EF9008950F931F93CF93DF9325
:10185000EB01880F991F8038910550F48C010C5FC3
:101860001F4FC80151DF6D2F7727C80101964CDF4C
:10187000DF91CF911F910F91089520912B02207637
:1018800080913103822785FF17C0222311F0203673
:1018900031F48091290290912A02826005C08091E2
:1018A000290290912A02816090932A028093290252
:1018B00010922F022093310320912B022E70309131
:1018C0002D02231709F464C0222321F1332311F5DB
:1018D000809106018823F1F0243031F480912902AF
:1018E00090912A0284600FC0223031F48091290245
:1018F00090912A02886007C0283061F48091290203
:1019000090912A02806190932A028093290281E0BB
:1019100080932C0280912C02882319F1343041F4F9
:101920002223F9F08091290290912A02806213C04B
:10193000323041F42223A9F08091290290912A02A9
:10194000806409C0383069F4222359F0809129025B
:1019500090912A02806890932A0280932902109223
:101960002C0280910601882369F010920601809173
:10197000B2008E5C8093B300B99A8091700082604F
:101980008093700020932D0210922E0210922F024D
:10199000089590912D029923A1F480912F028F5FD9
:1019A00080932F02882321F48FEF80932F020895D4
:1019B000843109F049C08091290290912A029062F5
:1019C00035C080912E028F5F80932E02882321F4F0
:1019D0008FEF80932E0208958430B1F59830D1F0C6
:1019E000993028F4923079F0943071F505C09A302E
:1019F000C1F09E3049F51FC08091290290912A02C2
:101A00008062916013C08091290290912A028064C3
:101A100092600CC08091290290912A0280689460A3
:101A200005C08091290290912A02986090932A0221
:101A30008093290208958091290290912A02906151
:101A400090932A028093290208952098289A0000F2
:101A5000000083B12898209A809587702091E20237
:101A600080FF06C024602093E20280E090E00895A9
:101A70002B7F2093E20281FF03C082E090E0089573
:101A800082FF03C083E090E0089581E090E0089534
:101A90001F920F920FB60F9211248F9326982E9AB1
:101AA000F09A000083B180958E7680932B022E9859
:101AB000269A8F910F900FBE0F901F9018950F933D
:101AC0000FB70F9301E000930601009170000D7FA6
:101AD000009370000F910FBF0F9118950F931F93F4
:101AE000082F162F811160E08CE20E94CA03802F1C
:101AF0008150823010F4612F01C060E085E40E94C3
:101B0000CA03023008F410E0612F8DE20E94CA037C
:101B10001F910F9108951F93182F80E00E947E035C
:101B200063E0812F0E94CA031F910895E3D8609358
:101B300032037093330380933403909335030895F5
:101B40001F93182F80913603E82FF0E0E731F1055D
:101B500008F09CC1E25DFF4F0C94FD1783E00E94EA
:101B60007E0394C18BE3D7DF63E089E990EF0E94A5
:101B70003E058CC180E00E947E038091090390E0C5
:101B800061E08053984F0E94B00480C18BE3C3DFB3
:101B900080913603803111F441E001C043E060E000
:101BA000809108030E94670480913603813111F40B
:101BB00041E001C043E062E08091060323C01123AD
:101BC00059F080E00E947E0363E08BE30E94CA0329
:101BD00063E083E20E94CA0380913603823111F4EC
:101BE00041E001C043E062E0809105030E94670488
:101BF00080913603833111F441E001C043E060E09D
:101C00008091FE020E94670441C180910201181672
:101C1000F4F48BE080DF43E063E08AE00E94190483
:101C200080912203909123038F5F9F4F29F443E01B
:101C300062E08DE00E941904809102016AE00E9436
:101C4000551743E060E0892F0E9419042FC011232B
:101C500011F08BE060DF8091E2028823A9F087FF1A
:101C600002C061E00DC082FF03C063E080E109C0F3
:101C700083FF03C063E081E104C086FF17C063E017
:101C80008FE00E94480412C09091E10280912F03DE
:101C9000981718F063E08EE0F4CF112311F08BE079
:101CA0003ADF63E08091DF020E94830480910A01A1
:101CB000882341F09091E0028091DF02981711F49F
:101CC00063E001C060E088E10E94CA0380910A01DC
:101CD000882311F060E001C063E082E30E94CA0340
:101CE00060913203709133038091340390913503F6
:101CF0000E94AF03CBC0112311F08BE30CDF63E034
:101D000080911201909113010E94F704BFC011232A
:101D100019F080E00E947E03A0D9853638F49DD961
:101D200043E060E090E00E94D004B0C063E08AE04D
:101D300005C08AE1F0DE61E0809132020E94480431
:101D4000A5C080E00E947E0363E08BE30E94CA038B
:101D500063E083E20E94CA0363E08AE10E94CA034F
:101D600080913202982F990F990F990F2091360286
:101D7000920F909305012091350230E0322F2227F7
:101D80003295307F4091330250913402240F351F39
:101D900030930B0320930A030E947A060E94AF033C
:101DA0008FEF8093050180913302909134026CE3B0
:101DB00070E00E946217CB0161E00E9412048091E2
:101DC00033029091340225E0803A9207B0F46CE33C
:101DD00070E00E946217CB0141E062E00E9467045C
:101DE00080913302909134026CE370E00E9462179C
:101DF00041E060E00E94670404C061E089E00E9465
:101E0000480461E08091350240C080E00E947E037A
:101E100063E088E093CF83E00E947E0380913603E5
:101E20008C3011F441E001C043E062E08091080190
:101E30000E942905809136038D3011F441E001C0E4
:101E400043E0E0910801F0E0E45FFC4F60E0808156
:101E50000E9429051BC083E00E947E03809130020E
:101E6000FAD463E00E943E0561E0809130020E9456
:101E700012040CC08BE34FDE61E0809132020E94BD
:101E800083048091360363E0825028DE1F91089519
:101E9000EF92FF920F931F93CF93DF93209129022C
:101EA00030912A0220FF02C011E005C021FF02C0CC
:101EB0001FEF01C010E0C12FDD27C7FDD095909125
:101EC0003603E92FF0E0E731F10508F079C1EB5B6B
:101ED000FF4F0C94FD17882319F082E080930701CF
:101EE00080910701882309F0D0C181E0BEC1882319
:101EF00019F082E08093070180910701882309F09F
:101F0000C4C18FE0B2C1112329F080910903810F70
:101F10000E941B078091290290912A0282FFB5C17D
:101F200080E10EC0112329F080910803810F0E94E7
:101F30001E078091290290912A0282FFA6C181E1A9
:101F4000809336031092E002A2C1112329F0809100
:101F50000603810F0E9426078091290290912A0290
:101F600082FF93C182E1ECCF112329F08091050318
:101F7000810F0E949C058091290290912A0282FF84
:101F800084C183E1DDCF112341F08091FE02810FF6
:101F90000E94A30580E00E94AA05809129029091E9
:101FA0002A0282FF72C187E0CBCF23FF08C0892FAE
:101FB0008F5F809336038B3008F469C151C18091E3
:101FC0003102882351F0277F3770232B09F45DC13C
:101FD00085E0809307018BE048C1112351F09650B2
:101FE000923038F4812F4ED486E08093360301E09E
:101FF00001C000E08091290290912A0284FF02C072
:102000008FEF03C087FF44C18EEF50D486E02DC10F
:10201000882351F080912B03813011F080E002C0C1
:10202000809100038093320285E18093360311236F
:1020300059F08091320290E008968C0F9D1F68E065
:1020400070E054D78093320222FFB7C086E18093BC
:1020500036031092360210922B03809132028823AD
:1020600019F081E080932B038FE162DB6CC0882341
:10207000A9F045E352E060913602809132020E945D
:10208000F2079093340280933302815A954030F0E6
:1020900080EA95E09093340280933302112309F192
:1020A00080913302909134026AE070E00BD7CB014B
:1020B0008F569F4F212F332727FD3095820F931F77
:1020C00061E970E0FFD69C0153E0220F331F5A955F
:1020D000E1F7880F991F280F391F3093340220939E
:1020E00033028091290290912A0283FF09C08091D6
:1020F000350290E005968370907080933502C5C0DC
:1021000082FF2BC04091330250913402209135025E
:1021100060913602809132020E9409088091360255
:102120008F5F80933602883060F08091320288237E
:1021300029F067E0AED69F5F9093320285E18093ED
:1021400036031092E00280912B03813011F080E081
:1021500002C080910003EADC9AC084FF96C080C070
:10216000882339F0E92FF0E0E55FFC4F8081809310
:102170003202112389F080913202810F8093320262
:102180008E3318F08DE380933202809132028930D1
:1021900018F489E08093320222FF0FC0E92FF0E0AB
:1021A000E55FFC4F8091320280838091360381503D
:1021B000BFDA809136038F5FC3CE24FF66C050C064
:1021C00080910701882309F060C04AC024FD48C0FF
:1021D00023FF02C08EE049C022FF0BC09D3029F4CE
:1021E00080910801A5DA8CE001C08DE08093360370
:1021F0004CC09C3061F480910801C80FD11DCE0104
:10220000859665E270E05ED6809308013EC062E08C
:102210008091080168DA182FE82EFF2463E080918E
:10222000080161DA682F70E06F5F7F4F6E197F09D8
:1022300020910801E22FF0E0E45FFC4F8081C80F9D
:10224000D11DCE19DF09CE01860F971F4FD6180F6B
:1022500010832223D1F40E94980317C024FF02C0E8
:1022600087E003C023FF04C08CE0809336030FC0D7
:102270008091300290E00D968C0F9D1F6DE070E014
:1022800035D680933002112311F400E001C001E043
:102290008091290290912A022091310293FF0DC072
:1022A00085E08093070180E0222309F481E0809398
:1022B0003102882391F08BE015C02223B9F494FFFA
:1022C00002C08CE00FC092FF02C08FE00BC090FFF5
:1022D00002C084E107C095FF02C087E003C091FF00
:1022E00005C082E08093360301E002C0002379F04C
:1022F00010910801153258F460E0812FF4D9E12FD4
:10230000F0E0E45FFC4F808385E280930801109247
:102310002A0210922902802F90E0E6E0CDB7DEB7C6
:102320005DC6582FF89440913702E42FF0E09F01EA
:102330002F5F3F4F2F7730708091380290E0281741
:10234000390739F0E55CFD4F50834F5F4F7740937D
:1023500037027894089520913802809137028217CD
:1023600011F480E009C0E22FF0E0E55CFD4F8081D0
:102370002F5F2F772093380290E00895282F88232D
:10238000F9F08D3009F42AE080913902E82FF0E06D
:10239000E554FD4F2083982F9F5F9F7190933902E2
:1023A00080913A02981721F49F5F9F7190933A02AF
:1023B0002A3031F4F69A8091DB028F5F8093DB0242
:1023C0000895F89420913A0280913902821789F099
:1023D000E22FF0E0E554FD4FE0812F5F2F71209355
:1023E0003A02EA3049F48091DB0281508093DB02AB
:1023F00003C01092DB02E0E078948E2F90E0089505
:102400001F93182F843640F064E643D5805D89DF42
:10241000812F64E63ED5192F812F6AE03AD5805D81
:1024200080DF812F6AE035D5892F805D7ADF1F91AB
:1024300008950F931F938C0164E670E043D5CB01A0
:10244000DFDFC80164E670E03DD5DADF1F910F9150
:1024500008951F93182F82958F708A3010F0895A33
:1024600001C0805D5EDF812F8F708A3010F0895A45
:1024700001C0805D56DF1F9108950F931F938C015B
:10248000812F9927E6DF802FE4DF1F910F910895B8
:10249000CF93DF93EC0102C044DF2196FE018491CB
:1024A0008823D1F7DF91CF91089585EA91E0F0CFAD
:1024B0000F931F93082F10E01EC083DF982F282F43
:1024C00020532A3038F08156863010F4275202C04B
:1024D000892F19C0E12FE69510FF06C0F0E0E45205
:1024E000FD4F8081280F05C0F0E0E452FD4F22959A
:1024F000207F20831F5F101701F763DF8A3019F4F4
:1025000080E090E001C090E01F910F91089509DFF5
:102510008BE507DF8091DC029CDF8DE502DF8DE338
:1025200000CF9091370280913802981709F016C4B5
:1025300008951F93CF93DF93EB01142F181614F413
:102540008BE203C0882311F08DE2EBDE80E2E9DE4E
:10255000CE0193DF80E2E5DE812F7BDF8AE0E1DEE2
:10256000E0DFDF91CF911F9108951F93182F8FE027
:1025700092E08EDF8091000380536BDF80E2D1DE3A
:10258000809106033DDF8EE2CCDE8091080338DFC8
:102590008EE2C7DE8091090333DF80E2C2DE8091E4
:1025A00005032EDF8AE3BDDE8091FE0229DF8AE388
:1025B000B8DE8091070324DF80E2B3DE80910A0158
:1025C000882311F081E401C08DE4ABDE8AE092E063
:1025D0005FDF17FD02C0812F02C080910E0110DF66
:1025E00085E092E055DF809112019091130121DF87
:1025F00080E092E04DDF909109019D3320F08BEF58
:1026000091E046DF05C082E3989FC001112411DFED
:1026100086EF91E03DDF809110019091110109DF7B
:1026200080EF91E035DF8091E3029091E40225DFB5
:102630008091E202882331F08CEE91E029DF8091D5
:10264000E20207DF17FF03C089EE91E021DF9091DE
:10265000E10280912F03981718F086EE91E018DFC1
:102660008AE05FDE5EDF1F9108951F93E8C0A9DE58
:10267000182F90E0FC01E154F040E931F10508F039
:10268000DDC0E45AFF4FB9C49CDE8A3009F0D6C0E1
:102690000CDFD4C096DE8A3009F0D0C07DC082E065
:1026A00007DF882309F0C8C084E531DF8091DC02B0
:1026B000D2D0E3DEC1C0173431F482E0F9DE8823E2
:1026C00009F0BAC012C084E0F3DE882309F0B2C07A
:1026D0009091DC02953248F4E92FF0E0E45FFC4F82
:1026E0008091DD028083892F23D8812F10DFE09134
:1026F000DC02EF3F11F486E004C0F0E0E45FFC4F41
:102700008081A7DE97C0123531F482E0D1DE8823C4
:1027100009F092C01DC086E0CBDE882309F08AC094
:102720002091DD02422F50E04F705070542F44270B
:102730008091DE02480F511D8091DC02682F6F707E
:1027400022952F7082958F700E9409081092E002E6
:10275000812FDDDE2091DC02822F82958F7090E048
:1027600033E0880F991F3A95E1F72F70820F911D82
:1027700045D883DE5FC086E09BDE882309F05CC01D
:102780008091DC020E941B078091DD020E941E07DF
:102790008091DE020E9426078FEFE7DE4FC086E0C1
:1027A00087DE882309F048C08091DC020E949C05E6
:1027B0008091DD020E94A3058091DE020E94AA059D
:1027C000EBCF84E075DE882309F036C08091DC020F
:1027D000833191F58091DD02843271F5F89488E1BE
:1027E00090E028E00FB6F894A895809360000FBEA3
:1027F00020936000FFCF82E05BDE8823E9F490E065
:102800008091DC02813009F491E0892F4FD014C00F
:1028100082E04EDE882381F49091DC02993060F0F2
:102820009E3350F48AE080930B019093DF028FEF88
:102830009CDE02C0112311F08AE073DD72DE80910C
:10284000DB02882309F013CF1F9108952EDE80E864
:1028500095E264D266CE8D3018F080E090E0089565
:10286000E82FF0E0EE0FFF1FED5EFD4F8591949194
:10287000FC01FF7797FF03C08081918108958081DB
:1028800090E008959091DF02980F9093DF029930C5
:1028900010F489E003C09E3318F08DE38093DF02CB
:1028A0001092E1028AE080930B010895982F8F3FE8
:1028B00049F48091DF028093E7028091E0028093E7
:1028C000E8020AC08E3FA1F48091E7028093DF0204
:1028D0008091E8028093E00220E080910A01882341
:1028E00009F421E020930A018AE080930B0104C0DF
:1028F00080930A0110920B0180910A01882349F00C
:102900009E3F39F080E00E943A068093E002809377
:10291000DF021092E1020895CF92DF92EF92FF92D0
:102920000F931F93C62E882321F48091E002882301
:10293000E9F490E08091E002811191E0892F0E94FA
:102940003A06982F882391F08093E00280910A0143
:10295000882361F09093DF0280910B0187FF06C00E
:1029600080910901981711F010920B014091E1023A
:1029700060912F034617E0F4209116013091170162
:10298000309521953F4F80912E0390E08217930759
:102990008CF5842F8F5F8093E102861780F110926F
:1029A0000B0188E097E0909338038093370327C0AA
:1029B0008091370390913803009709F10197909324
:1029C000380380933703809116019091170197FD8A
:1029D00014C0892BA1F0242F2F5F2093E10230E057
:1029E00080913003860F912D911D281739073CF0F7
:1029F00010920B011092E10202C06093E1028091FB
:102A00000C0190910D01009729F0019790930D0111
:102A100080930C0180910B0118161CF48150809357
:102A20000B0140910C0150910D014115510529F008
:102A300080910B01882309F030C13091DF023A30D8
:102A400020F08091E102861708F03AE080910901B8
:102A5000381739F0309309011092E4021092E30222
:102A600003C0452B09F014C18091150325E0829F16
:102A7000C001112490930D0180930C013D3318F097
:102A8000C090180305C1E0911201F091130182E397
:102A9000389F900111242E1B3F0B48EF2033340741
:102AA00014F420E338EF8901215D374014F000ED84
:102AB00017E08091E5029091E602009709F442C088
:102AC0008E1B9F0B71F4980117FF04C02227332738
:102AD000201B310B8091140390E08217930754F070
:102AE00031C01816190624F4101611061CF02AC05D
:102AF00017FF28C06091120370E080E092E3F6D1E6
:102B0000601771075CF48091E3029091E402860FF4
:102B1000971F9093E4028093E30214C088279927BB
:102B2000861B970B2091E3023091E40208171907E6
:102B30001CF4261B370B02C0200F311F3093E40218
:102B40002093E302F093E602E093E502D0901303B2
:102B5000DD2019F460E072E305C06D2D70E080E0C7
:102B600092E3C4D18091E3029091E402681779075F
:102B700034F0709561957F4F8617970724F4709312
:102B8000E4026093E302B80117FF04C066277727C9
:102B9000601B710B882777FD8095982F209111037A
:102BA00030E040E050E056D19B01AC01609112034F
:102BB00070E0762F662780E090E0620F731F841F1D
:102BC000951F9801442737FD4095542F43D1672F17
:102BD000782F892F992787FD9A952091170330E048
:102BE000322F222779010027F7FC0095102F4D2D59
:102BF00050E02091E3023091E402F9014E9F9001F0
:102C00004F9F300D5E9F300D1124442737FD4095B6
:102C1000542FE20EF31E041F151FE60EF71E081FA9
:102C2000191FF1E0EF16F4E6FF06F0E00F07F0E001
:102C30001F071CF08091180304C017FF04C0809187
:102C40001603682F24C08C2D992787FD9095982F07
:102C50008827A701481B590BCA0181509F4F8F5FDE
:102C6000914010F46C2D13C02F2D332727FD3A957A
:102C700080911803682F70E06217730744F0809109
:102C80001603682F70E0261737070CF0622FC62E48
:102C90008FEF80930B018C2D68DC409110015091D7
:102CA000110180912D0324E1829FC0011124481756
:102CB000590730F48091E202806C8093E20210C0E8
:102CC00080912C03829FC00111242091E2024817B9
:102CD000590718F420642F7701C02F732093E20264
:102CE0008C2D90E01F910F91FF90EF90DF90CF908F
:102CF00008951F920F920FB60F9211248F93EF93A6
:102D0000FF93E1ECF0E08081877B8083FF91EF917E
:102D10008F910F900FBE0F901F9018959C0140E06F
:102D200050E094E0220F331F441F551F9A95D1F7AE
:102D300060E079E08DE390E0ECD021503040832FCB
:102D400099278093C5002093C40086E08093C20039
:102D5000EBE6F0E08081816080830895F8948091B3
:102D6000C10085FD0FC08091C1008F7B8093C100A1
:102D70008091C00080648093C0008091C10088620F
:102D80008093C100789408951F920F920FB60F920E
:102D900011242F933F934F935F936F937F938F9360
:102DA0009F93AF93BF93EF93FF93D5DA882319F0E6
:102DB0008093C6000FC08091C1008F7D8093C100B9
:102DC0008091C00080648093C0008091C1008064C5
:102DD0008093C100FF91EF91BF91AF919F918F912F
:102DE0007F916F915F914F913F912F910F900FBE07
:102DF0000F901F9018951F920F920FB60F921124EB
:102E00002F933F934F935F936F937F938F939F93F2
:102E1000AF93BF93EF93FF938091C600AFDAE1ECDD
:102E2000F0E080818F768083EBE6F0E08081816046
:102E30008083FF91EF91BF91AF919F918F917F918F
:102E40006F915F914F913F912F910F900FBE0F9017
:102E50001F901895629FD001739FF001829FE00D33
:102E6000F11D649FE00DF11D929FF00D839FF00D09
:102E7000749FF00D659FF00D9927729FB00DE11DB5
:102E8000F91F639FB00DE11DF91FBD01CF01112492
:102E90000895991B79E004C0991F961708F0961BB6
:102EA000881F7A95C9F78095089587FB082E062616
:102EB00087FD819567FD6195ECDF0EF4919507FC28
:102EC00081950895AA1BBB1B51E107C0AA1FBB1F18
:102ED000A617B70710F0A61BB70B881F991F5A95A6
:102EE000A9F780959095BC01CD01089597FB092E17
:102EF00007260AD077FD04D0E5DF06D000201AF4BB
:102F0000709561957F4F0895F6F7909581959F4F45
:102F10000895A1E21A2EAA1BBB1BFD010DC0AA1F1A
:102F2000BB1FEE1FFF1FA217B307E407F50720F032
:102F3000A21BB30BE40BF50B661F771F881F991FAD
:102F40001A9469F760957095809590959B01AC01F6
:102F5000BD01CF01089597FB092E05260ED057FD20
:102F600004D0D7DF0AD0001C38F450954095309536
:102F700021953F4F4F4F5F4F0895F6F790958095FD
:102F8000709561957F4F8F4F9F4F08952F923F927D
:102F90004F925F926F927F928F929F92AF92BF9269
:102FA000CF92DF92EF92FF920F931F93CF93DF9315
:102FB000CDB7DEB7CA1BDB0B0FB6F894DEBF0FBE72
:102FC000CDBF09942A88398848885F846E847D84BF
:102FD0008C849B84AA84B984C884DF80EE80FD80C1
:102FE0000C811B81AA81B981CE0FD11D0FB6F89437
:102FF000DEBF0FBECDBFED010895EE0FFF1F0590A0
:08300000F491E02D0994FFCFCB
:0E3008000101FE0205FF010225FF011010006C
:00000001FF
