:100000000C94F2000C940F010C9465090C94F80CFC
:100010000C940F0D0C94EB050C940F010C940F0134
:100020000C940F010C940F010C940F010C94D30944
:100030000C940F010C9414130C94DC120C94901279
:100040000C940F010C940F010C940F010C944E03AF
:100050000C940F010C940F010C9494056B0D720D10
:10006000EE0EEE0EEE0EEE0ECC0D210E2E0EA80DA7
:10007000B00EBA0EBA0EDC0E7E0D8C0D8C0DA80DD6
:10008000A80DFF0E410E4A0E340F400F7C107C105D
:100090007C107C109C0F9C0F9C0F9C0FB710CC10F9
:1000A000CC1032114F0F5E0F6D0F7C0F8B0FD20FE4
:1000B000E10F03104F113F065B4F666D7D077F6FA9
:1000C000777C395E7971635473763008400148411A
:1000D00009495054105C00332738583E786E20018F
:1000E00016072016011620160216201603162016D3
:1000F00004162016051620160616201607160B01E4
:100100001F241616161620160C16200E1C1C000F87
:100110000F20001D202000120E1D0C270C230B0A9F
:100120002626200E0220200E03200A0D202028243F
:100130001F1B02031B191800010002030405060718
:1001400008090A3935423E0C0D0E0F101112131416
:10015000151F1C1F1E1F1E1F1F1E1F1E1F00001FFE
:10016000003B005A0078009700B500D400F300115E
:100170000130014E01563A204F70656E48523230C0
:100180002053572076657273696F6E20302E32319E
:10019000206275696C64204E6F76202034203230E6
:1001A00030382032303A33383A31370A002058009C
:1001B00020453A0020423A2000424F4F540020533D
:1001C0003A200020493A200020563A2000443A20A4
:1001D00000148112812B832983E1020B01E20215B5
:1001E0008213820011241FBECFEFD4E0DEBFCDBF4B
:1001F00011E0A0E0B1E0EEE8FFE202C005900D9250
:10020000A031B107D9F713E0A0E1B1E001C01D9220
:10021000AD32B107E1F70E9411010C94C6170C949E
:1002200000001F9390E89093610081E0809361004B
:1002300090BF8FEF80937E008DE08093640088E113
:1002400083BB9EE09DB983E08EB988E080BB83EFDD
:1002500081BB95B981ED84B98EE280936C0080EC0E
:100260008DBB0E947B0760E081E00E94980A83B109
:1002700020E090E0809590958E7090700E9709F434
:1002800021E0822F0E946E0B0E9470031EBA7894A8
:100290000E94181683E00E9455038091E400886054
:1002A0008093E40081E080931002F8948EB3882359
:1002B00039F584B590E087709070892B21F4809196
:1002C000C100887111F081E007C08091110188237D
:1002D00011F083E001C087E083BF8091110181307C
:1002E00039F41092110180917A00806480937A0031
:1002F0007298789488950000729A86E083BF01C056
:100300007894F39B04C0F3980E944A05CECFF29BE9
:1003100004C0F2980E94FC02C8CFF69B04C0F69875
:100320000E94F314C2CFF59B04C0F5980E94FB090C
:10033000BCCFF49B0BC0F498109110010E94D50C17
:10034000612F0E94980A0E94000BAFCFF09B03C060
:10035000F0980E94ED0BF19B2AC0F19810911001CA
:100360000E94E907612F0E948B16182F80931001BD
:100370000E94D50C612F0E94980A809110010E9462
:10038000FE080E94790C0E94EB0280910A018823EA
:1003900019F0815080930A0180E00E945A0D8091EB
:1003A000E40088608093E40081E0809310028091F3
:1003B000220290912302892B29F480910A0188233B
:1003C00009F073CF80E00E940C0F182F882319F0DA
:1003D00081E00E940C0F812F0E945A0D5ECF8F92F8
:1003E0009F92AF92BF92CF92DF92EF92FF920F93C4
:1003F0001F93CF93DF934B01C82EDD245601AA0C27
:10040000BB1CAA0CBB1C26E131E0A20EB31EF501F9
:1004100080819181A281B3817B010027F7FC009547
:10042000102FE80EF91E0A1F1B1FE082F1820283C3
:100430001383409104014F30F0F180911E01C82FC9
:10044000D0E0CE018D966CE370E00E9476172CE32D
:1004500030E0B901C69E9001C79E300DD69E300D8A
:100460001124F901E80FF91FEE0FFF1FE05EFE4FA8
:1004700080819181AA2797FDA095BA2FE81AF90AE1
:100480000A0B1B0BF501E082F182028313834C33CC
:1004900090F0F601EE0FFF1FE050FF4FC20FD31F89
:1004A000CC0FDD1FC05EDE4F888199819401281B2F
:1004B000390B3183208320911E018CE390E0C89E8C
:1004C000F001C99EF00DD89EF00D1124E20FF11D30
:1004D000EE0FFF1FE05EFE4F91828082F601EE0F6D
:1004E000FF1FEE0FFF1FEA5EFE4F60817181828168
:1004F00093814F3028F02FE030E040E050E004C01E
:10050000242F30E040E050E0CC0CDD1CE2E1F1E0D3
:10051000CE0EDF1E0E94AB17F60131832083DF91E0
:10052000CF911F910F91FF90EF90DF90CF90BF90F0
:10053000AF909F908F9008959C0140E050E060E064
:1005400070E381E190E00E948917DA01C901089502
:100550000F931F93BC0180911A03482F50E0405025
:100560005F4FA1E0B0E00A2FFD01E65EFC4F808105
:100570009A01280F311D6217730738F00F5F11962B
:10058000A630B10519F0A901EECF9A01621B730BD9
:1005900080E090E02CE03EEF4FEF5FEF0E943717D6
:1005A00010E0F801E65EFC4F208130E040E050E0D2
:1005B0000E94AB178CE09EEFAC01049FC001059F29
:1005C000900D149F900D11248056904F820F931F11
:1005D0001F910F91089591E090931F018CE08093FB
:1005E00064008CE880937A0010927B008EE5809303
:1005F0007C0090931101089580911F018F5F80937B
:100600001F01833041F08430F1F08230E9F58DE84C
:1006100080937A0014C0209178008091790090E056
:10062000982F882730E0822B932B0E949C02BC01DC
:1006300080E00E94EF018B9A82E480937C0081E04D
:100640008093110127C0209178008091790090E07B
:10065000982F882730E0822B932B0E94A802BC01A0
:1006600081E00E94EF0180911E0190E001966CE311
:1006700070E00E94761780931E01809104018C33F4
:1006800018F48F5F809304018B988DE080937A003B
:10069000809364008091110190E008950F9300E031
:1006A000F29A009311010F911895833011F42FEFF6
:1006B00001C020E080E090E0FC01E751FD4F208385
:1006C0002187019689309105B9F791E09093050152
:1006D0008091E40088608093E40090931002089574
:1006E00080E00E945503809109038093E70085EA2A
:1006F0008093E50086E08093E600E4EEF0E080EC95
:10070000808380818860808381E0809305010895E3
:10071000782F769576957695877021E030E001C048
:10072000220F8A95EAF7462FE72FF0E060FF05C019
:10073000E751FD4F8081822B06C0E751FD4F90812C
:10074000822F809589238083E72FF0E041FF05C049
:10075000E751FD4F8185282B05C0E751FD4F81856D
:1007600020952823218780910501813021F4633071
:10077000D1F06623C1F06150623048F020E030E0F3
:10078000F901E751FD4F90818185981721F082E0B2
:100790008093050108952F5F3F4F2930310581F780
:1007A00081E0809305010895EF92FF920F931F93CC
:1007B000CF93DF937B018C01C9E3D1E0FE018491EB
:1007C000E0FE02C063E001C060E00E948803219661
:1007D000F1E0C135DF0729F016950795F794E79406
:1007E000EDCFDF91CF911F910F91FF90EF90089582
:1007F000E9E3F1E0E80FF11DE4918E2F0E948803F8
:100800000895EF92FF920F931F93CF93DF93E42EFF
:10081000643010F5883200F5E62FF0E0E25DFE4F1F
:10082000F490E82FF0E0EA54FF4F0491C2E3D1E0E6
:1008300011E0FE019491812F802311F06E2D01C0F3
:1008400060E0892F8F0D0E9488032196F1E0C93363
:10085000DF0711F0110FEDCFDF91CF911F910F91B5
:10086000FF90EF9008950F931F93CF93DF93062F80
:10087000C82FD0E0CC0FDD1FCC0FDD1FC252DF4FE1
:1008800013E0FE018491402F612F0E94010411505A
:1008900021961F3FB1F760E08BE30E948803DF9150
:1008A000CF911F910F910895FF920F931F93082FDF
:1008B000162FF42E633090F4843680F46AE00E94A0
:1008C0005617612F892F0E9401041F5F802F6AE055
:1008D0000E9456174F2D612F0E9401041F910F9106
:1008E000FF9008950F931F93082F162F893011F44E
:1008F0008CE007C08D3311F48DE003C08E3320F0FF
:100900008BE00E9433041EC0462F62E086950E9451
:10091000540400FF02C085E001C080E0412F61E087
:100920000E940104043128F4412F63E080E20E9418
:100930000104412F60E08CE00E940104612F8BE3F1
:100940000E9488031F910F9108951F93CF93DF9307
:10095000162FEC0187E2C031D80710F0CFE0D7E2C4
:10096000CE0164E670E00E946217CB01412F62E085
:100970000E945404CE0164E670E00E946217412F89
:1009800060E00E945404DF91CF911F910895FF927F
:100990000F931F93082F162FF42E623088F4262F02
:1009A0002E5F64E60E945617622F0E940104802F7A
:1009B00064E60E9456174F2D612F892F0E94540420
:1009C0001F910F91FF9008950F931F93CF93DF9383
:1009D000162F27E28031920714F08FE097E2EC01A6
:1009E0008CEFC931D80714F4C9E1DCEF00E0D7FF80
:1009F00004C001E0D095C195DF4FCE016AE070E000
:100A00000E947617CB01412F61E00E94C7040023AA
:100A100021F0412F63E086E106C0C85ED3402CF48C
:100A2000412F63E080E20E940104412F60E08CE0EE
:100A30000E940104DF91CF911F910F910895FF92C1
:100A40000F931F93F82E162F042F633058F48F70D6
:100A50000E9401041F5F402F612F8F2D82958F70A0
:100A60000E9401041F910F91FF900895FF920F9330
:100A70001F938C01F62E892F9927462F62E00E9442
:100A80001F054F2D60E0802F0E941F051F910F91C1
:100A9000FF900895809111028F5F809311028D3035
:100AA00058F0809112028F5F817080931202109231
:100AB000110281E08093100280911002882351F18D
:100AC000109210028091120290E0FC0133E0EE0FD0
:100AD000FF1F3A95E1F7E80FF91FE751FD4F8081BD
:100AE0008093EC0081818093ED0082818093EE0001
:100AF00083818093F10084818093F20085818093CB
:100B0000F30086818093F60087818093F7008085CB
:100B10008093F80080910501813029F48091E400F0
:100B2000877F8093E4000895F39A1895992787FDAD
:100B30009095489668E170E00E94761780930203D2
:100B40000895992787FD9095CC966CE370E00E94FC
:100B500076178093FB020895992787FD9095CC9690
:100B60006CE370E00E9476178093040308958091EF
:100B70000503E82FF0E0EF5AFE4F2491823051F444
:100B80008091060390E083709070892B19F48DE1B9
:100B900090E00895822F90E008958091FD028730C3
:100BA000B1F080910503833039F420E030E080918A
:100BB0000303893170F008C08A3049F420E030E046
:100BC00080910303883128F021E030E002C020E06A
:100BD00030E0C90108951F920F920FB60F921124B1
:100BE000F19A0F900FBE0F901F9018953F924F9261
:100BF0005F926F927F928F929F92AF92BF92CF92AD
:100C0000DF92EF92FF920F931F93CF93DF93F82E13
:100C10005B01882319F048E0342E02C032E0332E05
:100C200055245A946624CF2CDD24860123E0000F3E
:100C3000111F2A95E1F7702E98E0492E400E882466
:100C40009924C0E0D0E012C090E00E94AA0B9F70EF
:100C500025E0803A920748F48815990530F0A816E7
:100C6000B90618F05E2C500E4C012196EC2E8C2FFC
:100C7000870D841548F357FE11C0FF2041F0C601CF
:100C8000059667E070E00E947617F82EF39463945F
:100C900080EAA82E85E0B82E631429F6852D90E011
:100CA000DF91CF911F910F91FF90EF90DF90CF9048
:100CB000BF90AF909F908F907F906F905F904F907C
:100CC0003F900895FF920F931F93CF93DF93F82ED9
:100CD000909102038CE3989FE00111248091FB0224
:100CE000C80FD11D80912103813011F000E002C0B6
:100CF0000091FD02BE01802F0E94F605182F992752
:100D000087FD90950E94AA0BFC0117FD16C0FF20DD
:100D100049F09F708C179D0781F4159515951595D1
:100D2000101759F4EF2FFF27E295EF70E370F07082
:100D3000E65FFC4F808190E002C080E090E0DF91B0
:100D4000CF911F910F91FF900895CF92DF92EF9274
:100D5000FF920F931F93CF93DF93C82EC0EAD5E085
:100D600077E1D72EEE24FF248701BE018C2D0E944F
:100D7000F60587FF03C080E090E005C0992787FD56
:100D800090950E94AA0B9C01207030739F708C1765
:100D90009D0718F0CFEFDFEF02C0EC0121978CE345
:100DA0004D2D4802C001112414C050E220303507F7
:100DB00040F041E050E060E070E0E42AF52A062BC4
:100DC000172B1D1424F4EE0CFF1C001F111FDA94C6
:100DD000CC97C817D9074CF31C161D0634F2C8016E
:100DE000B701DF91CF911F910F91FF90EF90DF90AE
:100DF000CF9008950E94A506609324037093250365
:100E0000809326039093270308950F931F93CF9306
:100E1000DF9380910503E82FF0E0EE0FFF1FE55A06
:100E2000FE4FC591D49190910303C90FD11D83301A
:100E300040F08091060390E083709070892B09F454
:100E40002196E0910603F0E08F0101501040C801A7
:100E500064E070E00E9476179B012E0F3F1FC801CF
:100E600064E670E00E947617261B370B2B5F3F4F1E
:100E7000C9018C0F9D1F67E070E00E946217282F48
:100E80002F5F2093FD0280912103813009F020E043
:100E9000822F0E94FA06DF91CF911F910F91089542
:100EA000809306030E9405070895992787FD909572
:100EB0000B966CE070E00E9476178F5F80930503BD
:100EC0000E94050708950F931F93082F0E94B705EE
:100ED000682F70E0CB010197112707FD1095800F57
:100EE000911F0E9476178F5F809303030E9405076E
:100EF0001F910F910895809170008E7F80937000F4
:100F000088E08093B6001092B2008091B0008560B6
:100F10008093B0002091B6008091B60090E084707C
:100F2000907030E021703070822B932B892B91F7D9
:100F30008FEF87BB8091700081608093700010926A
:100F4000FE021092FF0210920003109201038CE047
:100F5000809302031092FB021092040381E08093BD
:100F600003038AE08093050388E0809306030E94D0
:100F7000050708950E94B705909103039F5F909322
:100F800003038917D8F491E090930303809105033C
:100F90008F5F809305038D3038F090930503809127
:100FA00006038F5F809306031092FC028091FD027E
:100FB0008F5F67E00E9456179093FD028091210396
:100FC000813011F080E002C08091FD020E94FA069B
:100FD00008951F938091FE029091FF02A09100035B
:100FE000B09101030196A11DB11D8093FE02909363
:100FF000FF02A0930003B0930103809104038F5F6D
:10100000809304038C3318F480E090E03BC010928E
:1010100004038091FB028F5F8093FB028C3380F18D
:101020001092FB02809102038F5F8093020388314C
:1010300020F0109202030E94BA07109105031330AA
:1010400059F4809102038230D9F40E94CD0588239F
:10105000B9F01093020314C01A3091F48091020386
:10106000833071F48091FC02882351F40E94CD05F5
:10107000882331F082E08093020381E08093FC02B8
:1010800081E090E01F9108950F931F938A0190E0F3
:1010900023E0880F991F2A95E1F7860F911D0E9482
:1010A000AA0B9C01232F332722952F70F801208350
:1010B0009F701F910F910895362F8830F8F4683093
:1010C000E8F42430D8F495E04C3D590710F04FEF88
:1010D0005FE0622F70E0762F66277295707F642B39
:1010E000752B90E043E0880F991F4A95E1F7830F35
:1010F000911D0E94D20B81E090E0089580E090E085
:10110000089540911302509114024B305105ECF0B8
:10111000809106018823C9F420911B0230911C02A2
:10112000F90193E0EE0FFF1F9A95E1F7CA016AE01B
:1011300070E00E947617220F331FC9018E0F9F1F88
:101140000E947617862F90E008958FEF90E0089523
:101150008091130290911402892B19F480E090E0A1
:10116000089590E080910601811191E081E0982737
:10117000892F90E00895282F882361F410926E0043
:1011800080916B008F7E80936B00739814BA2F98B8
:1011900088E430C080911F02821769F1739A8091B0
:1011A0001503992787FD9095982F88279093210202
:1011B00080932002909318028093170285E0809319
:1011C000190281E080936E0080916B0080618093B2
:1011D0006B002F3F41F488E084BB2F98809114036B
:1011E00087BD89E607C080E184BB2F9A80911303F5
:1011F00087BD89E784BD20931F020895282F809121
:101200000601882319F080E090E00895243689F4DF
:10121000809117032091130230911402280F311D81
:1012200080911603281B310930931E0220931D0262
:101230002FC080911603222351F490E020911703D0
:10124000821B910990931E0280931D0221C0E82FFA
:10125000F0E080911302909114028E1B9F0B8E1B65
:101260009F0B959587959595879530E0AC01429FAA
:10127000C001439F900D529F900D112469E170E0D1
:101280000E947617E60FF71FF0931E02E0931D02EF
:1012900080911F028823B1F420911B0230911C021F
:1012A00080911D0290911E028217930714F48FEF14
:1012B00004C02817390734F481E00E94BB0881E09C
:1012C00090E0089581E090E008951F920F920FB68C
:1012D0000F9211242F933F934F938F939F934CB171
:1012E000242F30E040FD0AC08091C10080698093C6
:1012F000C10080916B008E7F80936B0020713070F5
:1013000080911A0290E08095909528233923232B11
:10131000F1F1809119028823D1F520911B023091BF
:101320001C0280911F02992787FD9095820F931FC1
:1013300090931C0280931B028091200290912102C5
:101340002091170230911802821B930B9093160282
:1013500080931502F49A20911B0230911C02809117
:101360001D0290911E022817390731F48FEF8093E8
:10137000190280E093E007C085E080931902809114
:1013800020029091210290931802809317024093BB
:101390001A029F918F914F913F912F910F900FBE05
:1013A0000F901F9018951F920F920FB60F92112455
:1013B0008F939F938091170290911802892B51F07F
:1013C00080911702909118020197909318028093D0
:1013D000170203C014BA2F98F59A80911902815010
:1013E0008E3F10F4809319029F918F910F900FBE42
:1013F0000F901F9018951F93CF93DF9310911F02AA
:1014000080E00E94BB08909119029F3F41F48091B7
:101410000601882309F46DC0909306016AC011305B
:10142000C9F5C0911B02D0911C02809118039091C4
:10143000190318161906A4F0D0931402C0931302CE
:10144000892BD1F4C436D105BCF0D0931903C093D5
:1014500018038FE00E94360B80E10E94360B0CC00F
:1014600090931C0280931B0280911B0290911C029E
:101470009093140280931302809106018330A9F5A2
:101480008FEF0E94BB08C85ED340D0931E02C0936A
:101490001D0227C01F3F69F520911B0230911C02DD
:1014A000809118039091190397FF0AC0809113024D
:1014B00090911402821B930B909314028093130259
:1014C00010921C0210921B0280910601833069F475
:1014D00028513C4F30931E0220931D0281E00E9450
:1014E000BB0884E08093060104C0843011F410929C
:1014F000060180910601882391F480911B0290914E
:101500001C028A5E93403CF4809113029091140275
:101510008436910524F48091E302886003C08091B1
:10152000E302877F8093E302DF91CF911F910895BB
:101530001F93182F882391F480E00E94BB0810921B
:101540001C0210921B0210921402109213028EEFD2
:101550008093060185E08093070150C080910701C8
:10156000882321F081508093070123C090910601C8
:10157000892F81508230E8F49E5F9093060180911C
:101580001803909119038F5F9F4F51F4633340F01C
:1015900088E19CEF90931E0280931D028FEF07C09D
:1015A00088EE93E090931E0280931D0281E00E94DA
:1015B000BB08809106018E3F09F5133069F48FEF67
:1015C0009FEF90931903809318038FE00E94360BCE
:1015D00080E10E94360B06C0123021F410921903EC
:1015E0001092180381E08093060180911803909176
:1015F000190397FD03C082E0809306011F910895AF
:10160000609115027091160280911F020E94581479
:101610000895F999FECF92BD81BDF89A80B590E00A
:101620000895F999FECF90E0880F991F880F991FB0
:10163000860F911D80549F4F92BD81BDF89A80B551
:1016400090E008959C0180E0203C380728F0C90113
:1016500083709070892B49F4F999FECF32BD21BD7A
:1016600060BDF894FA9AF99A78940895EF92FF92EF
:101670000F931F93CF93DF93082F8B3140F5E82E04
:10168000FF24E701C75FDC4F188160E00E94110B67
:101690001817E9F0188162E0802F0E94110B1817CB
:1016A00038F0188163E0802F0E94110B811728F415
:1016B00061E0802F0E94110B8883EE0CFF1CEE0C62
:1016C000FF1C6881C70180549F4F0E94220BDF914D
:1016D000CF911F910F91FF90EF900895EF92FF929D
:1016E0000F931F93CF93DF93082F49E0E42E43E03D
:1016F000F42EC0E0D0E00023A9F460E08C2F0E941B
:10170000110B182FF701808362E08C2F0E94110BC0
:10171000181740F0F701108163E08C2F0E94110B25
:10172000811730F461E08C2F0E94110BF701808348
:101730008C2F0E94360B2196CB31D10521F00894D5
:10174000E11CF11CD8CFDF91CF911F910F91FF9039
:10175000EF900895EF92FF920F931F939C01809159
:10176000080190E02817390799F08901000F111F2F
:101770000C5F1F4FC80101960E94090BE82EC8019B
:101780000E94090BFF243E2D2227280F311D04C083
:101790002091070330910803C9011F910F91FF9019
:1017A000EF9008950F931F93CF93DF93EB01880F72
:1017B000991F8038910560F48C010C5F1F4FC801A0
:1017C0000E94220B6D2F7727C80101960E94220BE1
:1017D000DF91CF911F910F910895209124022076DF
:1017E00080912702822785FF17C0222311F020361F
:1017F00031F48091220290912302826005C0809191
:10180000220290912302816090932302809322020E
:101810001092290220932702209124022E703091E9
:101820002602231709F464C0222321F1332311F582
:10183000809109018823F1F0243031F48091220253
:101840009091230284600FC0223031F480912202F3
:1018500090912302886007C0283061F480912202B1
:10186000909123028061909323028093220281E071
:101870008093250280912502882319F1343041F4A8
:101880002223F9F08091220290912302806213C0FA
:10189000323041F42223A9F0809122029091230258
:1018A000806409C0383069F4222359F08091220203
:1018B00090912302806890932302809322021092D9
:1018C000250280910901882369F010920901809115
:1018D000B2008E5C8093B300B99A809170008260F0
:1018E0008093700020932602109228021092290201
:1018F0000895909126029923A1F4809129028F5F87
:1019000080932902882321F48FEF80932902089580
:101910008A3009F049C0809122029091230290629E
:1019200035C0809128028F5F80932802882321F49C
:101930008FEF8093280208958430B1F59830D1F06C
:10194000993028F4923079F0943071F505C09A30CE
:10195000C1F09E3049F51FC0809122029091230270
:101960008062916013C08091220290912302806472
:1019700092600CC080912202909123028068946052
:1019800005C08091220290912302986090932302D7
:101990008093220208958091220290912302906107
:1019A000909323028093220208952098289A0000A1
:1019B000000083B12898209A809587702091E302D7
:1019C00080FF06C024602093E30280E090E0089549
:1019D0002B7F2093E30281FF03C082E090E0089513
:1019E00082FF03C083E090E0089581E090E00895D5
:1019F0001F920F920FB60F9211248F9326982E9A52
:101A0000F09A000083B180958E76809324022E9800
:101A1000269A8F910F900FBE0F901F9018951F92CE
:101A20000F920FB60F9211248F93EF93FF9381E0E3
:101A300080930901E0E7F0E080818D7F8083FF9152
:101A4000EF918F910F900FBE0F901F9018950F93ED
:101A50001F93082F162F811160E08CE20E948803EB
:101A6000802F8150823010F4612F01C060E085E446
:101A70000E948803023008F410E0612F8DE20E947A
:101A800088031F910F9108951F93182F80E00E94E3
:101A9000550363E0812F0E9488031F9108950E94DF
:101AA000A5066093240370932503809326039093E7
:101AB00027030895982F80912803E82FF0E0E6315E
:101AC000F10508F09CC1E25DFF4FEE0FFF1F05908E
:101AD000F491E02D0994992309F49DC183E00E94BB
:101AE00055030895992309F496C18BE30E94440D90
:101AF00063E081E290EF0E9436050895992319F082
:101B000080E00E9455038091060390E061E08053DD
:101B1000984F0E94A5040895992319F08BE30E9421
:101B2000440D809128038F3011F441E001C043E05F
:101B300060E0809105030E94540480912803803165
:101B400011F441E001C043E062E08091030359C019
:101B5000992359F080E00E94550363E08BE30E94D3
:101B6000880363E083E20E94880380912803813127
:101B700011F441E001C043E062E0809102030E9461
:101B8000540480912803823111F441E001C043E004
:101B900060E08091FB0235C0992319F08BE00E9430
:101BA000440D80910C01882341F09091E2028091D4
:101BB000E102981711F463E001C060E088E10E943F
:101BC000880380910C01882311F060E001C063E07C
:101BD00082E30E9488036091240370912503809121
:101BE0002603909127030E94D403809106011816C2
:101BF0005CF463E083E10E94330443E060E08091A1
:101C000006010E94540408958091E302882331F470
:101C100063E08091E1020E947204089587FF02C090
:101C200061E00DC082FF03C063E081E1A0C083FFDB
:101C300003C063E082E19BC086FFEDC063E080E10A
:101C400096C0992319F08BE30E94440D63E08091C4
:101C50001401909115010E94E4040895992319F04C
:101C600080E00E9455030E948108853638F40E9466
:101C7000810843E060E00E94C704089563E08AE0C1
:101C800076C0992319F08AE10E94440D61E08091A9
:101C90002D026DC0992379F080E00E94550363E026
:101CA0008BE30E94880363E083E20E94880363E081
:101CB0008AE10E94880380912D02982F990F990F35
:101CC000990F20913102920F9093080120913002D8
:101CD00030E0322F22273295307F40912E025091F2
:101CE0002F02240F351F30930803209307030E940F
:101CF000A5060E94D4038FEF8093080180912E02E5
:101D000090912F026CE370E00E946217CB0161E0BA
:101D10000E94F80380912E0290912F0225E0803AD4
:101D20009207B0F46CE370E00E946217CB0141E0CF
:101D300062E00E94540480912E0290912F026CE385
:101D400070E00E94621741E060E00E94540404C009
:101D500061E089E00E94330461E0809130024CC070
:101D6000992319F080E00E94550363E088E00E9407
:101D700033040895992319F083E00E94550380915C
:101D800028038B3011F441E001C043E062E0809110
:101D90002C020E941F05809128038C3011F441E031
:101DA00001C043E0E0912C02F0E0E75FFC4F60E00F
:101DB00080810E941F050895992319F083E00E94F5
:101DC000550380912A020E94211663E00E94360585
:101DD00061E080912A020E94F8030895992319F086
:101DE0008BE30E94440D61E080912D020E947204F9
:101DF0008091280363E082500E94270D0895992363
:101E000019F08BE30E94440D63E0809114019091DE
:101E100015010E94E4040895EF92FF920F931F931F
:101E2000CF93DF93982F209122023091230220FF3D
:101E300002C011E005C021FF02C01FEF01C010E089
:101E4000C12FDD27C7FDD09540912803E42FF0E096
:101E5000E731F10508F08BC1EC5BFF4FEE0FFF1F80
:101E60000590F491E02D0994992319F082E0809374
:101E70000A0180910A01882309F016C281E00BC093
:101E8000992319F082E080930A0180910A01882346
:101E900009F00AC28EE08093280301E006C21123F4
:101EA00029F080910603810F0E9450078091220241
:101EB0009091230282FFF8C18FE0EDCF112329F02A
:101EC00080910503810F0E94550780912202909115
:101ED000230282FFE9C180E1DECF112329F0809146
:101EE0000303810F0E9463078091220290912302D5
:101EF00082FFDAC181E1CFCF112329F08091020363
:101F0000810F0E949605809122029091230282FF08
:101F1000CBC182E1C0CF112341F08091FB02810F40
:101F20000E94A10580E00E94AC0580912202909160
:101F3000230282FFB9C134C080912B02882331F083
:101F40003770232B09F4B0C18AE0A5CF112329F003
:101F5000463019F4812F0E943816209122023091C8
:101F6000230223FD02C000E00BC0809128038F5F95
:101F7000809328038A3018F086E08093280301E0DC
:101F800024FF07C08FEF0E944A1686E08093280343
:101F900001E08091220287FF88C18EEF0E944A16DD
:101FA00086E079CF992351F080912103813011F09F
:101FB00080E002C08091FD0280932D0284E1809335
:101FC0002803112361F080912D0290E008968C0F78
:101FD0009D1F68E070E00E94761780932D0222FF1B
:101FE000A9C085E180932803109231021092210349
:101FF00080912D02882319F081E08093210388E1EC
:102000000E94360B6EC09923A9F040E352E0609124
:10201000310280912D020E94440890932F028093F8
:102020002E02815A954030F080EA95E090932F027D
:1020300080932E02112319F180912E0290912F028C
:102040006AE070E00E946217CB018F569F4F212FEC
:10205000332727FD3095820F931F61E970E00E94BE
:1020600062179C0153E0220F331F5A95E1F7880F46
:10207000991F280F391F30932F0220932E02209191
:1020800022023091230223FF08C08091300290E0A9
:102090000596837090708093300222FF4BC0409170
:1020A0002E0250912F0220913002609131028091D6
:1020B0002D020E945C08809131028F5F8093310273
:1020C000883068F080912D02882331F067E00E940B
:1020D00056179F5F90932D0284E1809328031092FE
:1020E000E20280912103813011F080E002C08091F2
:1020F000FD020E944F0D33C0992339F0E42FF0E028
:10210000E85FFC4F808180932D02112389F080913C
:102110002D02810F80932D028E3318F08DE3809372
:102120002D0280912D02893018F489E080932D02D0
:1021300022FD02C000E014C0E42FF0E0E85FFC4F95
:1021400080912D0280838091280381500E94360B5C
:10215000809128038F5F809328031092E20201E0B0
:10216000809122029091230284FF9FC019CF809119
:102170002B02882311F000E004C086E0809328033E
:1021800001E0992319F085E080930A0180910A010A
:10219000882309F08AC004CF24FD02C000E007C0F4
:1021A00086E08093280380E00E946E0B01E080911E
:1021B00022029091230283FF07C08DE080932803C1
:1021C00080E00E946E0B01E0809122029091230238
:1021D00082FF0DC0809128038C3031F480912C0255
:1021E0000E94360B8BE001C08CE080932803809125
:1021F00028038B3069F480912C02C80FD11DCE01C9
:102200004B966BE170E00E94621780932C024DC0E8
:1022100062E080912C020E94110B182FE82EFF24FF
:1022200063E080912C020E94110B682F70E06F5FB9
:102230007F4F6E197F0920912C02E22FF0E0E75FBB
:10224000FC4F8081C80FD11DCE19DF09CE01860F4A
:10225000971F0E947617180F1083222331F50E94D2
:1022600070031BCE24FD02C000E004C086E0809312
:10227000280301E023FF04C08BE08093280301E0E2
:1022800080912A0290E009968C0F9D1F69E070E012
:102290000E94761780932A02112339F0FECD9923EC
:1022A00019F081E080930A0100E080912202909170
:1022B000230220912B0293FF0EC08AE08093280313
:1022C00080E0222309F481E080932B021092230204
:1022D000109222021FC02223F1F494FF0AC08BE067
:1022E00080932803109223021092220210922C0253
:1022F00011C092FF02C08EE00BC090FF02C083E1CC
:1023000007C095FF02C086E003C091FF04C082E0D1
:102310008093280301E01092230210922202802F62
:1023200090E0DF91CF911F910F91FF90EF90089572
:102330000F931F931092290310922A0310922B03DC
:1023400010922C03909333028093320200910E037B
:10235000602F70E06F5F7F4F8FEF9FE70E947617CF
:102360007093350260933402882777FD8095982F0B
:1023700010E020E030E0A90198010E943717209179
:102380000F0330E040E050E00E94AB17209336028C
:102390003093370240933802509339021F910F91C6
:1023A0000895CF92DF92EF92FF920F931F93CF93F6
:1023B000DF93EB019C01261B370B80913402909137
:1023C0003502821793072CF49FEFC92E9FE7D92E71
:1023D00015C0909581959F4F281739072CF481E0FF
:1023E000C82E80E8D82E0AC080910E0390E0289F66
:1023F0006001299FD00C389FD00C1124442737FD51
:102400004095542F8091290390912A03A0912B038A
:10241000B0912C03280F391F4A1F5B1F20932903FB
:1024200030932A0340932B0350932C038091360260
:1024300090913702A0913802B09139028217930728
:10244000A407B50764F0B095A095909581959F4F2E
:10245000AF4FBF4F281739074A075B0744F48093F3
:10246000290390932A03A0932B03B0932C0360912C
:102470000F0370E080E090E02091290330912A035F
:1024800040912B0350912C030E9437177B018C0144
:1024900020913202309133022C1B3D0B80911003AE
:1024A00090E0289FB001299F700D389F700D112476
:1024B000D0933302C0933202882777FD8095982FFE
:1024C0006E0D7F1D801F911F9601442737FD40959B
:1024D000542F620F731F841F951F2091110330E04A
:1024E00040E050E00E94AB1757FF04C020E030E00E
:1024F00040E050E0253631054105510524F024E641
:1025000030E040E050E0822F992787FD9095DF91E1
:10251000CF911F910F91FF90EF90DF90CF90089592
:102520001F920F920FB60F9211248F93EF93FF9388
:10253000E1ECF0E08081877B8083FF91EF918F91C8
:102540000F900FBE0F901F9018959C0140E050E037
:1025500094E0220F331F441F551F9A95D1F760E076
:1025600079E08DE390E00E94891721503040832F5D
:1025700099278093C5002093C40086E08093C20011
:10258000EBE6F0E08081816080830895F89480918B
:10259000C10085FD0FC08091C1008F7B8093C10079
:1025A0008091C00080648093C0008091C1008862E7
:1025B0008093C100789408951F920F920FB60F92E6
:1025C00011242F933F934F935F936F937F938F9338
:1025D0009F93AF93BF93EF93FF930E945E13882363
:1025E00019F08093C6000FC08091C1008F7D809349
:1025F000C1008091C00080648093C0008091C100C0
:1026000080648093C100FF91EF91BF91AF919F9142
:102610008F917F916F915F914F913F912F910F908B
:102620000FBE0F901F9018951F920F920FB60F922A
:1026300011242F933F934F935F936F937F938F93C7
:102640009F93AF93BF93EF93FF938091C6000E9437
:102650007113E1ECF0E080818F768083EBE6F0E0AF
:10266000808181608083FF91EF91BF91AF919F91B5
:102670008F917F916F915F914F913F912F910F902B
:102680000FBE0F901F901895582FF89440913A0262
:10269000E42FF0E09F012F5F3F4F2F773070809144
:1026A0003B0290E02817390739F0E25CFD4F508378
:1026B0004F5F4F7740933A027894089520913B0200
:1026C00080913A02821711F480E009C0E22FF0E015
:1026D000E25CFD4F80812F5F2F7720933B0290E0DB
:1026E0000895282F8823D1F08D3009F42AE08091B5
:1026F0003C02E82FF0E0E254FD4F2083982F9F5FCB
:102700009F7190933C0280913D02981721F49F5F46
:102710009F7190933D022A3009F4F69A0895F89437
:1027200020913D0280913C02821711F480E009C0A3
:10273000E22FF0E0E254FD4F80812F5F2F71209354
:102740003D02789490E008951F93182F843658F036
:1027500064E60E945617805D0E944413812F64E650
:102760000E945617192F812F6AE00E945617805D2C
:102770000E944413812F6AE00E945617892F805DC2
:102780000E9444131F9108950F931F938C0164E6D8
:1027900070E00E946217CB010E94A413C80164E696
:1027A00070E00E9462170E94A4131F910F91089578
:1027B0001F93182F82958F708A3010F0895A01C0AC
:1027C000805D0E944413812F8F708A3010F0895AE7
:1027D00001C0805D0E9444131F9108950F931F93C1
:1027E0008C01812F99270E94D813802F0E94D81323
:1027F0001F910F910895CF93DF93EC0103C00E94C6
:1028000044132196FE0184918823C9F7DF91CF916B
:10281000089585E791E00E94FB1308950F931F939D
:10282000082F10E01FC00E948F13982F282F2053CD
:102830002A3038F08156863010F4275202C0892F92
:102840001AC0E12FE69510FF06C0F0E0E252FD4FFE
:102850008081280F05C0F0E0E252FD4F2295207FD5
:1028600020831F5F1017F9F60E948F138A3019F426
:1028700080E090E001C090E01F910F9108950E94C8
:1028800044138BE50E9444138091DE020E94D8130A
:102890008DE50E9444138DE30E94441308959091A6
:1028A0003A0280913B02981711F00E94C6120895D7
:1028B000CF93DF93EB01181614F48BE203C0882347
:1028C00019F08DE20E94441380E20E944413CE016D
:1028D0000E94EE138AE00E9444130E944F14DF917D
:1028E000CF9108951F93182F8DEC91E00E94FB1358
:1028F0008091FD0280530E94D81380E20E9444130D
:10290000809103030E94A4138EE20E9444138091DD
:1029100005030E94A4138EE20E94441380910603D3
:102920000E94A41380E20E944413809102030E943B
:10293000A4138AE30E9444138091FB020E94A41313
:102940008AE30E944413809104030E94A41388EC3C
:1029500091E00E94FB1317FD02C0812F02C08091FD
:1029600010010E94A41383EC91E00E94FB1380915C
:102970001401909115010E94C4138EEB91E00E9406
:10298000FB1390910B019D3328F089EB91E00E949D
:10299000FB1306C082E3989FC00111240E94C41358
:1029A00084EB91E00E94FB1380911201909113013E
:1029B0000E94C4138091E302882341F080EB91E0F0
:1029C0000E94FB138091E3020E94D81317FF04C0FA
:1029D0008DEA91E00E94FB138AE00E9444130E945A
:1029E0004F141F9108951F9316C11D3409F4EEC0B2
:1029F0001E3488F4143459F1153438F4113409F4C0
:102A0000F4C0123409F005C1C5C01734A1F118345F
:102A100009F0FFC0A9C0143501F1153538F412359D
:102A200009F452C0133509F0F4C025C0173509F474
:102A30004BC0193509F485C0163509F0EAC00E946B
:102A40008F138A3009F0E5C00E940914E2C00E9489
:102A50008F138A3009F0DDC099C082E00E940E1405
:102A6000882309F0DFC084E50E943F148091DE02D4
:102A70000E94211663C0173439F482E00E940E14BC
:102A8000882309F0CFC014C084E00E940E1488236C
:102A900009F0C8C09091DE029B3150F4E92FF0E0BC
:102AA000E75FFC4F8091DF028083892F0E94360B05
:102AB000812F0E943F14E091DE02F0E0E75FFC4FBF
:102AC00080810E94D813AEC0123539F482E00E9492
:102AD0000E14882309F0A6C01EC086E00E940E14C2
:102AE000882309F09FC02091DF028091DE02422FEF
:102AF00050E04F705070542F44279091E002490FDE
:102B0000511D682F6F7022952F7082958F700E94D3
:102B10005C081092E202812F0E943F142091DE0295
:102B2000822F82958F7090E033E0880F991F3A953D
:102B3000E1F72F70820F911D0E94AA0B0E94EE13E5
:102B400071C086E00E940E14882309F06BC080914A
:102B5000DE020E9450078091DF020E94550780919B
:102B6000E0020E94630712C086E00E940E148823D0
:102B700009F058C08091DE020E9496058091DF0224
:102B80000E94A1058091E0020E94AC058FEF0E9497
:102B900072143FC084E00E940E14882309F042C0E2
:102BA0008091DE02833109F03DC08091DF028432E2
:102BB000C9F5F89488E190E028E00FB6F894A8955C
:102BC000809360000FBE20936000FFCF82E00E94E0
:102BD0000E14882339F590E08091DE02813009F4EB
:102BE00091E0892F0E944A1610C082E00E940E14C4
:102BF0008823C1F49091DE029930A0F09E3390F4C6
:102C00008AE080930D019093E1028FEF0E9472148D
:102C100009C00E944F140E948F13182F882309F0B7
:102C2000E4CE04C08AE00E944413F3CF1F910895BC
:102C30000E94091480E895E20E94A5120E944F1498
:102C40000895893018F080E090E00895E82FF0E0D2
:102C5000EE0FFF1FEF52FE4F85919491FC01FF771D
:102C600097FF03C0808191810895808190E008954D
:102C70009091E102980F9093E102993010F489E06D
:102C800003C09E3318F08DE38093E1028AE08093C5
:102C90000D0108958F3F21F520910C01222331F081
:102CA0009091E1028091E202981749F08091E1024F
:102CB0008093E4028091E2028093E50204C01092C6
:102CC000E4021092E50280E0222309F481E080937F
:102CD0000C018823E1F08091E2028093E10217C0A9
:102CE0008E3F99F420910C01222331F49091E5025A
:102CF0008091E202981721F48091E4028093E1022E
:102D000010920C01222319F481E080930C018AE0D7
:102D100080930D0108951F93162F882321F480912D
:102D2000E2028823E9F490E08091E202811191E0CF
:102D3000892F0E946206982F882391F08093E202E7
:102D400080910C01882361F09093E10280910D0144
:102D500087FF06C080910B01981711F010920D01AA
:102D600080910E0190910F01009729F001979093A7
:102D70000F0180930E0180910D0118161CF48150F3
:102D800080930D0180910E0190910F01892B29F004
:102D900080910D01882309F042C09091E102809159
:102DA0000B01981761F090930B01809114019091A1
:102DB00015010E94981110920F0110920E0180913E
:102DC0000E0190910F01892B21F58091120325E0CE
:102DD000829FC001112490930F0180930E01909166
:102DE000E1029A3038F4609114017091150184EF7A
:102DF00091E00CC09D3310F014E60BC060911401FB
:102E00007091150182E3989FC00111240E94D11195
:102E1000182F8FEF80930D01812F0E947214409123
:102E20001201509113018091220324E1829FC0017D
:102E300011242091E3024817590710F4206401C0BF
:102E40002F7B2093E3028091230324E1829FC00122
:102E500011242091E3024817590710F4206801C09B
:102E60002F772093E302812F90E01F910895629FB6
:102E7000D001739FF001829FE00DF11D649FE00D72
:102E8000F11D929FF00D839FF00D749FF00D659FD3
:102E9000F00D9927729FB00DE11DF91F639FB00DD2
:102EA000E11DF91FBD01CF0111240895991B79E09F
:102EB00004C0991F961708F0961B881F7A95C9F7CA
:102EC00080950895AA1BBB1B51E107C0AA1FBB1F19
:102ED000A617B70710F0A61BB70B881F991F5A95A6
:102EE000A9F780959095BC01CD01089597FB092E17
:102EF00007260AD077FD04D0E5DF06D000201AF4BB
:102F0000709561957F4F0895F6F7909581959F4F45
:102F10000895A1E21A2EAA1BBB1BFD010DC0AA1F1A
:102F2000BB1FEE1FFF1FA217B307E407F50720F032
:102F3000A21BB30BE40BF50B661F771F881F991FAD
:102F40001A9469F760957095809590959B01AC01F6
:102F5000BD01CF01089597FB092E05260ED057FD20
:102F600004D0D7DF0AD0001C38F450954095309536
:102F700021953F4F4F4F5F4F0895F6F790958095FD
:0E2F8000709561957F4F8F4F9F4F0895FFCF43
:102F8E00FF7FFF7F0101FE05FF0102FF0110100010
:00000001FF
