:1000000014C100002FC100000C942D090C94F30BB7
:100010000C940A0CF6C6000025C1000023C10000A4
:1000200021C100001FC100001DC100000C94E409A3
:1000300019C100000C94CE140C94FD140C943415CA
:1000400011C100000FC100000DC1000041C200003D
:1000500009C1000007C1000050C40000610C6C0C15
:10006000940D940D940D940DB90CB90CB90CB90CF8
:10007000B90CC20DC70DC70D160E770C830C8F0C73
:100080009B0CA70CE90CF80C180D8B0E8F0E0D10A5
:100090000D100D100D10260FE20E540F600FBC0E48
:1000A000D80FDE0FDE0FFE0F970EA30EA30EBC0EB1
:1000B000BC0E1910720F7A0F5D1237126F12AB114E
:1000C0006F126F12BA1124126F126F126F126F1229
:1000D00051126F126F126F126F12DF11BA11B0113D
:1000E0006F12A311DF116F12131200020304050631
:1000F0000708090A3935423E0C0D0E0F1011121374
:10010000141502031B1918000128241F1B200116B7
:1001100007201601162016021620160316201604B4
:10012000162016051620160616201607160B011F98
:10013000241616161620160C16200E1C1C000F0F67
:1001400020001D202000120E1D0B0A2626200E0264
:1001500020200E03200E0E121C3F065B4F666D7DA5
:10016000077F6F777C395E7971635473763008400E
:1001700001484109495054105C00332738583E78F3
:100180006E1F1C1F1E1F1E1F1F1E1F1E1F00001F75
:10019000003B005A0078009700B500D400F300112E
:1001A0000130014E01563A204F70656E4852323090
:1001B0002053572076657273696F6E20302E39395F
:1001C000206275696C6420446563203237203230C8
:1001D00031322031373A35373A3231202452657680
:1001E000240A00443A200020563A200020493A20B0
:1001F0000020533A2000424F4F540020423A200042
:100200002049733A200020453A002058002057002A
:1002100011810F8128822D020B012C020A016981B4
:100220006D816F8100000000000011241FBECFEF20
:10023000D4E0DEBFCDBF11E0A0E0B1E0E4EBFEE230
:1002400002C005900D92AE30B107D9F712E0AEE0D2
:10025000B1E001C01D92A63CB107E1F70E947D15F7
:100260000C945817CDCEEF92FF920F931F93CF931C
:10027000DF93EB0190E07C01EE0CFF1CEE0CFF1C09
:10028000D701A95EBE4FAB01662757FD6095762F5B
:100290000D911D912D913C911397400F511F621F9D
:1002A000731F4D935D936D937C9313972091000181
:1002B0002F30E8F020911F013FE0389FF001399F77
:1002C000F00D1124E20FF11DEE0FFF1FE05EFE4F57
:1002D00000811181222717FD2095322F401B510BE1
:1002E000620B730B4D935D936D937C9313972091E9
:1002F0001F013FE0389FF001399FF00D1124E20FFC
:10030000F11DEE0FFF1FE05EFE4FD183C083EC01B5
:10031000CC0FDD1FC15FDE4FF701E95EFE4F60814C
:100320007181828193812FE030E040E050E00E94B3
:10033000F61639832883CDB7DEB7E6E00C9439177B
:1003400081E0809314019CE0909364009CE890937A
:100350007A0010927B009EE590937C0080931301BD
:100360000895CF93DF93809114018F5F80931401E0
:10037000833079F020F4823009F09FC006C08430C9
:10038000F9F0853009F099C024C08DE880937A0097
:1003900013C0209178003091790040E050E060E097
:1003A00070E381E190E00E94D416B90180E05BDF48
:1003B0008B9A82E480937C0081E08093130183C058
:1003C00080917800909179009093160180931501A7
:1003D000F3CF2091780030917900809115019091B0
:1003E0001601AC014F5F5F4F4217530724F001978E
:1003F0002817390744F4309316012093150184E03F
:100400008093140160C04091AF0250E05395E0EB3F
:10041000F2E0C1E08191BA01680F711DCB0126178E
:1004200037072CF0CF5FAB01C630A1F701C0CA017E
:10043000281B390BACE0BEEF0E947616D0E0FE011F
:10044000E155FD4F208130E040E050E00E94F6167B
:100450008CE09EEFC89FB001C99F700DD89F700DB2
:1004600011246056704F620F731F81E0FCDE809193
:100470001F0190E001966FE070E00E94C11680932A
:100480001F01892B99F48091350290E0FC01EE0F59
:10049000FF1FEA5CFD4F2091110130911201318361
:1004A000208301968F7199278093350280910001F6
:1004B0008F3018F48F5F809300018B988DE08093CC
:1004C0007A008093640080911301DF91CF910895A9
:1004D000F29A1895833011F48FEF01C080E0E6E7BF
:1004E000F2E0819392E0E838F907D9F791E0909330
:1004F00001018091E40088608093E40090935C01A6
:10050000089580E0E7DF809197028093E70085EA15
:100510008093E50086E08093E600E4EEF0E080EC76
:10052000808380818860808381E0809301010895C9
:10053000EF92FF920F93CF93DF937B01082FCAEEC8
:10054000D0E0FE01849166270695F794E79408F4BD
:1005500063E009D02196C230A1F7DF91CF910F91CE
:10056000FF90EF900895E82FE695E695E695877061
:1005700021E030E0082E01C0220F0A94EAF7922F02
:10058000AE2FB0E0AA58BD4F60FF03C08C91822B04
:1005900004C04C91822F809584238C93F0E0EA581C
:1005A000FD4F818561FF03C0892B818703C02095A2
:1005B000282321876150623008F40DC08091010129
:1005C000813091F080E090E0FC01EA58FD4F3081ED
:1005D0002185321711F082E005C00196893091051E
:1005E00099F781E0809301010895E82FF0E0E6514A
:1005F000FF4F8491B8CFCF92DF92FF920F931F935A
:10060000CF93DF931F92CDB7DEB7E62FF0E0E75F21
:10061000FE4F0491E82FF0E0E75AFE4FF490C12C12
:10062000D12C11E0F601EE5FFE4F8491800F912FE7
:100630009F2111F0642F01C060E0498394DF110F06
:100640008FEFC81AD80A4981E7E0CE16D10451F7D6
:100650000F90DF91CF911F910F91FF90DF90CF907E
:100660000895643018F4883208F4C5CF08951F93B4
:10067000CF93DF93C62FD42F633070F4843660F4A9
:100680006AE00E949416182F892F6C2FEADF6C2FD6
:100690006F5F4D2F812FE5DFDF91CF911F9108957F
:1006A000CF93DF93C62F9C01203187E2380710F0EB
:1006B0002FE037E2C90164E670E00E94AD16262FF4
:1006C000D82F4C2F62E0822FD2DF4C2F60E08D2F8D
:1006D000CEDFDF91CF9108951F93CF93DF93C62F85
:1006E000D42F6230B0F4883E23E0920710F087EEFA
:1006F00093E02C2F2E5F64E670E00E94AD16362F3B
:10070000182F4D2F622F832FACDF4D2F6C2F812F91
:10071000AEDFDF91CF911F9108951F93CF93DF93A9
:10072000C82F162FD42F8F709CDF612F6F5F4D2F36
:100730008C2F82958F7095DFDF91CF911F91089557
:10074000633008F4EACF0895CF93DF93D82FC62FF4
:10075000462F62E0892FE1DF4C2F60E08D2FDDDF37
:10076000DF91CF9108950F931F93CF93DF93162FAF
:10077000EC01C9318CEFD80714F4C9E1DCEF0D2F7F
:10078000001F0027001F19F0D195C195D109CE0196
:100790006AE070E00E94C116CB01412F61E09CDF4E
:1007A000002321F0412F63E086E106C0C83ED3401C
:1007B00024F4412F63E080E21EDF412F60E08CE0F3
:1007C0001ADFDF91CF911F910F910895EF92FF9261
:1007D0000F931F93CF93DF93F62EC0E0D0E094E009
:1007E000899F8001112483E0E82EFE01E00FF11FB4
:1007F000E35FFE4F84916E2D6C1B4F2D32DF2196EF
:10080000C430D10591F760E08BE3ADDECDB7DEB744
:10081000E6E00C943917CF93DF93D82FC62F893099
:1008200011F48CE007C08D3311F48DE003C08E33DA
:1008300018F08BE0CBDF19C0462F62E0869517DFFA
:10084000D0FF02C085E001C080E04C2F61E009DFED
:10085000D43120F44C2F63E080E2CDDE4C2F60E0F9
:100860008CE0C9DE6C2F8BE37EDEDF91CF910895A3
:1008700080915D018F5F80935D018D3058F0809194
:100880005E018F5F817080935E0110925D0181E057
:1008900080935C0180915C01882329F110925C01B6
:1008A000E0915E0189E0E89FF0011124EA58FD4FD4
:1008B00080818093EC0081818093ED008281809320
:1008C000EE0083818093F10084818093F200858122
:1008D0008093F30086818093F60087818093F700F0
:1008E00080858093F80080910101813029F4809106
:1008F000E400877F8093E4000895F39A189590911F
:100900009202E92FF0E0E058FE4F8491923029F4F2
:1009100090919302937009F48DE108956F927F9204
:100920009F92AF92BF92CF92DF92EF92FF920F937E
:100930001F93CF93DF931F92CDB7DEB7C82E3B0135
:10094000882311F048E001C042E0A12CBB24BA94F6
:1009500027E0E22EF12CDC2CDD0CDD0CDD0C98E028
:10096000992E9D0C00E010E013C08D2D90E049837E
:1009700001D69F704981803A25E0920740F48017A4
:10098000910728F06816790610F0BD2C8C01D394DD
:10099000D91458F3B7FE12C0CC2049F02C2D30E00A
:1009A000C9010596B7010E94C116C82EC394A3942D
:1009B00080EA682E85E0782EA41668F28B2D0F90C1
:1009C000DF91CF911F910F91FF90EF90DF90CF902B
:1009D000BF90AF909F907F906F90089580918A0212
:1009E000873089F480919202833031F481E09091D4
:1009F0009002993148F407C08A3029F481E090913F
:100A00009002983108F480E00895885E68E10E94C1
:100A1000941690938F020895845C6CE30E94941660
:100A2000909388020895845C6CE30E9494169093DE
:100A3000910208958830E8F46830D8F42430C8F47E
:100A40004C3D95E0590710F04FEF5FE0F22FF29523
:100A5000F07FE0E04E2B5F2B262F30E0BA01A9019A
:100A6000E8E08E9F400D511D1124CA01A5D581E0FB
:100A7000089580E00895CF93DF93EA0170E09B0131
:100A800048E0849F200D311D1124C90173D5292F01
:100A900022952F7028839C013F70C901DF91CF916F
:100AA0000895A0E0B0E0E7E5F5E00C941B17082FEF
:100AB000C12CD12C760117E1C0EAD5E0BE01802F10
:100AC0002DDF87FD06C0992787FD909553D59C01A2
:100AD00002C020E030E0A9014427507391E04115A5
:100AE000504208F490E03F702C173D0718F4E901DC
:100AF000219702C0CFEFDFEF8CE31802B001112481
:100B000020E030E00DC0992311F06894C0F8111670
:100B100024F4CC0CDD1CEE1CFF1C11502C533109AD
:100B2000A901460F571FC417D5076CF31C161D06E5
:100B30002CF2B601C701CDB7DEB7E8E00C94371749
:100B400080919202E82FF0E0EE0FFF1FE557FE4F75
:100B50002591349190919002290F311D833030F00E
:100B600080919302837011F42F5F3F4F4091930265
:100B700050E0CA010197FC0197FF02C0FA013296CA
:100B8000F595E795F595E795E40FF51F6CE97FEF8F
:100B90000E94C116E60FF71FCF010596820F931F23
:100BA00067E070E00E94AD168F5F80938A0290919B
:100BB000B602913009F080E074DF6093BF02709359
:100BC000C0028093C1029093C20208958093930261
:100BD000B7CF855F6CE00E9494169F5F909392025E
:100BE000AFCFCF93C82F8BDE682F8C2F8150860F0D
:100BF0000E9494169F5F90939002A2DFCF91089578
:100C0000809170008E7F8093700088E08093B600A2
:100C10001092B2008091B00085608093B0009091F6
:100C2000B6008091B60084709170892BC1F78FEF68
:100C300087BB8091700081608093700010928B025E
:100C400010928C0210928D0210928E028CE0809392
:100C50008F02109288021092910281E0809390029C
:100C60008093920289E0809393026ACFFF920F9360
:100C70001F93CF93DF93F82E80918F02C09188024B
:100C8000D0E09CE3899FC00DD11D11248091B60254
:100C9000813019F410918A0201C010E0BE01812F49
:100CA0003DDE082F992787FD909564D407FD17C076
:100CB000FF2051F09C013F702C173D0781F40595F2
:100CC0000595059501130BC0FC01EF2FFF27E29559
:100CD000EF70E370FF27E856FD4F808101C080E090
:100CE000CDB7DEB7E5E00C943A17CF9380918B0235
:100CF00090918C02A0918D02B0918E020196A11D5F
:100D0000B11D80938B0290938C02A0938D02B093BF
:100D10008E02809191028F5F8C3320F48093910238
:100D200080E06DC010929102809188028F5F809365
:100D300088028C3308F462C01092880280918F027E
:100D40008F5F883118F480938F0236C010928F0223
:100D5000D6DD909190029F5F891718F090939002D2
:100D600014C091E090939002809192028F5F8D3039
:100D700018F48093920207C090939202809193029C
:100D80008F5F809393021092890280918A0267E0BC
:100D90000E949416892F8F5F80938A029091B602E9
:100DA000913009F080E07DDE6093BF027093C00255
:100DB0008093C1029093C202C0919202C33051F459
:100DC00080918F028230D1F409DE8823B9F0C0937C
:100DD0008F0214C0CA3091F480918F02833071F475
:100DE0008091890281110AC0F9DD882339F082E0FF
:100DF00080938F0281E08093890201C081E0CF91CE
:100E00000895F19A189514BA2F980895E82F811132
:100E100015C010926E0080916B008F7E80936B00E6
:100E20007398649B02C089E501C089E70E9466103F
:100E3000EADF88E484BD10929402089580919402C0
:100E40008E1709F468C080919402882389F010926B
:100E50006801109267011092620110926101109274
:100E6000600110925F0182E080930401109294026D
:100E7000E0939402739A4091AA0250E0809102019B
:100E8000811103C02091A90202C02091A80230E084
:100E9000249FC001259F900D349F900D112464E67E
:100EA00070E00E94AD1683E0660F771F8A95E1F728
:100EB0007093660160936501209165013091660130
:100EC000220F331F220F331F3093640120936301DD
:100ED00081E085BB16BC80936E008CB1809371015C
:100EE00080916B00806180936B008091A50287BD2B
:100EF000EF3F29F488E084BB2F9889E604C080E1A5
:100F000084BB2F9A89E784BD649B02C088E501C039
:100F100088E70C9466100895CF93C82F811116C0EE
:100F200080E074DF1092700110926F0110926E01D8
:100F300010926D018EEF8093020185E08093030192
:100F400080912A02877F80932A0231C08091030119
:100F5000882321F08150809303010FC0809102010A
:100F6000813059F482E08093020128EE33E030931F
:100F70006C0120936B0181E049DF809102018E3F7B
:100F8000B1F4C33059F48FEF9FEF9093AE0280938A
:100F9000AD0286E190D287E18ED206C0C23021F444
:100FA0001092AE021092AD0281E080930201CF91C7
:100FB000089580916D0190916E018B309105BCF088
:100FC00020910201211113C040916F0150917001D5
:100FD0006AE0649F9001659F300D11246AE070E023
:100FE0000E94C116C9010E94C116862F08958FEF75
:100FF000089580916D0190916E01892B31F081E00F
:1010000090E020910201222311F080E090E0089509
:10101000482F8091020181113DC0443649F48091EE
:101020006D0190916E0190936C0180936B011CC0D7
:10103000411105C010926C0110926B0115C02091F6
:101040006D0130916E013595279535952795429F15
:10105000C001439F900D112469E170E00E94C11608
:1010600070936C0160936B0180919402811112C0A6
:1010700020916F013091700180916B0190916C0112
:101080008217930714F48FEF04C02817390714F45C
:1010900081E0BCCE08958091690190916A0181320E
:1010A0009E4408F043C08091040181113CC020910E
:1010B000690130916A012C5F3F4F63E036952795B7
:1010C0006A95E1F78091AA02281B31094091AB0291
:1010D000429FC001439F900D112464E670E00E947E
:1010E000C1168091AC0290E0861797074CF022273A
:1010F0003327281B390BCB01621773070CF4C90186
:1011000027B5820F911D2091A50230E028173907DD
:1011100044F04091A40250E09C01841795070CF420
:101120009A0127BD03C081508093040147B56091A7
:10113000690170916A01809194020C947C12CF93A2
:10114000DF93C091940280E061DE80916301909111
:10115000640120910201892B21F0222309F467C048
:1011600021C0C13009F03CC0C0916F01D091700125
:10117000223069F5D0936E01C0936D018091AD026C
:101180009091AE02892BB9F4C436D1055CF0D093AE
:10119000AE02C093AD0286E18ED187E18CD1109270
:1011A000020145C08FEF8093020180912A0288607E
:1011B00080932A023CC08FEF29DEC85ED340D093D3
:1011C0006C01C0936B0183E08093020130C0809179
:1011D0006D0190916E019093700180936F0127C013
:1011E000CF3F29F5233089F41092020120916F013D
:1011F0003091700180916D0190916E01821B930B73
:1012000090936E0180936D010EC080916F0190915B
:101210007001853691053CF0C093020180912A024D
:10122000886080932A021092700110926F01809161
:10123000020181110FC080916D0190916E01843681
:10124000910544F48FEF8093020180912A02886017
:1012500080932A02DF91CF9108951F920F920FB6CB
:101260000F9211242F933F934F935F936F937F932C
:101270008F939F93AF93BF93CF93EF93FF93CCB193
:10128000C0FD0AC08091C10080698093C100809137
:101290006B008E7F80936B0080916B0084FF80C019
:1012A000809171018C2784FF7BC0809167019091B0
:1012B00068012091610130916201821B930B2091A2
:1012C0006701309168013093620120936101C4FD90
:1012D0005CC02091A70230E0220F331F2817390786
:1012E00008F05EC020915F01309160018091A602FC
:1012F00090E0880F991F8217930708F043C08091F0
:101300006F019091700120919402820F911D27FD31
:101310009A959093700180936F01809167019091ED
:10132000680190936A0180936901109260011092A4
:101330005F01109268011092670110926201109291
:101340006101F49A20916F013091700180916B01DD
:1013500090916C012817390761F455DD88E484BD4C
:10136000F59A80916B008F7E80936B0010926E00D7
:1013700017C08091650190916601909364018093FC
:1013800063010EC08EE7A2D60BC020915F013091A1
:1013900060012817390720F49093600180935F0162
:1013A000C0937101FF91EF91CF91BF91AF919F9148
:1013B0008F917F916F915F914F913F912F910F90FE
:1013C0000FBE0F901F9018951F920F920FB60F929D
:1013D00011242F933F934F935F936F937F938F933A
:1013E0009F93AF93BF93EF93FF938091630190918D
:1013F0006401892B99F080916701909168010196B1
:1014000090936801809367018091630190916401DA
:101410000197909364018093630113C080916701E9
:101420009091680190936A0180936901ECDC88E4F3
:1014300084BDF59A80916B008F7E80936B00109233
:101440006E00FF91EF91BF91AF919F918F917F912E
:101450006F915F914F913F912F910F900FBE0F9021
:101460001F90189520E08030920728F09C0123708F
:101470003327232B49F4F999FECF92BD81BD60BD7E
:10148000F894FA9AF99A78940895F999FECF92BD52
:1014900081BDF89A80B50895F999FECF70E094E087
:1014A000899F600D711D11246050704072BD61BD37
:1014B000F89A80B50895EF92FF920F931F93CF9300
:1014C000DF93F82E86E28F1528F10F2D10E0E8014A
:1014D000C956DD4FE88060E08F2DDEDFE816D1F0E1
:1014E000E88062E08F2DD8DFE81628F461E08F2DC8
:1014F000D3DF888306C0E88063E08F2DCDDF8E15B3
:10150000A8F3C801880F991F880F991F6881805020
:101510009040A8DFCDB7DEB7E6E00C943917FF9214
:101520000F931F93CF93DF93F82E10E0C7E9D2E01B
:10153000F1100AC060E0812FAFDF082F888362E0DE
:10154000812FAADF081728F461E0812FA5DF8883A7
:1015500006C0088163E0812F9FDF8017A8F3812FE9
:10156000AADF21961F5F173219F7CDB7DEB7E5E086
:101570000C943A171F93CF93DF932091050130E02D
:101580008217930781F0EC01CC0FDD1FC852DF4FAB
:10159000CE0101967ADF182FCE0177DF312F20E0C0
:1015A000280F311D04C02091950230919602C90187
:1015B000DF91CF911F910895A1E0B0E0E2EEFAE053
:1015C0000C941F17880F991F8038910558F48C01CF
:1015D00008521F4FC801798345DF7981672FC80101
:1015E000019640DF2196E4E00C943B1720917401B2
:1015F00020768091BE02822785FF13C08091720100
:1016000090917301222311F0203611F4826001C001
:101610008160909373018093720110927501209301
:10162000BE02209174012E7030917601231709F4C7
:1016300064C0222321F1311122C080910601882348
:10164000F1F0243031F48091720190917301846043
:101650000FC0223031F48091720190917301886043
:1016600007C0283061F4809172019091730180610C
:10167000909373018093720181E080937701809150
:101680007701882319F1343041F42223F9F0809155
:10169000720190917301806213C0323041F42223B1
:1016A000A9F08091720190917301806409C0383073
:1016B00069F4222359F0809172019091730180683E
:1016C00090937301809372011092770180910601CB
:1016D000882369F0109206018091B2008E5C80939D
:1016E000B300B99A8091700082608093700020935B
:1016F000760110927801109275010895809176011B
:10170000811114C090917501892F8F5F80937501AD
:10171000811103C0909375010895843109F044C08C
:10172000809172019091730190623AC0209178018A
:10173000922F9F5F90937801911103C020937801BD
:101740000895943089F58830C9F028F4823079F012
:10175000843051F505C08A30C1F08E3029F51BC0A8
:1017600080917201909173018062916019C08091A3
:101770007201909173018064926012C08091720135
:1017800090917301806894600BC080917201909178
:101790007301986005C0809172019091730190610E
:1017A000909373018093720108952098289A000005
:1017B000000083B180952898209A90912A0280FF9A
:1017C00005C0946090932A0280E008959B7F9093D7
:1017D0002A0281FD04C082FF04C083E0089582E0F4
:1017E000089581E008951F920F920FB60F92112471
:1017F0008F9326982E9AF09A000083B180958E766A
:10180000809374012E98269A8F910F900FBE0F909F
:101810001F9018950F930FB70F9301E000930601E7
:10182000009170000D7F009370000F910FBF0F911A
:101830001895CF93C82F80E00E946A0263E08C2F36
:101840000E94B302CF910895CF93DF93D82FC62F74
:10185000882311F060E000C08CE20E94B3028D2F5B
:101860008150823010F060E001C06C2F85E40E944E
:10187000B302D23008F4C0E06C2F8DE20E94B302B4
:10188000DF91CF910895FF920F931F93CF93DF9332
:10189000209172013091730120FD04C021FF04C02A
:1018A0000FEF03C001E001C000E09091C302E92FF7
:1018B000F0E0E731F10508F065C1E25DFF4F0C94FF
:1018C0004817882319F082E080930701809107016F
:1018D0008111CAC181E0B1C1882319F082E08093EF
:1018E0000701809107018111BFC18FE0A6C10023CC
:1018F00021F080919302800F69D98091720182FF5B
:10190000B3C180E131C0002321F080919202800FA9
:1019100060D98091720182FFA7C181E125C00023B7
:1019200021F080919002800F5CD98091720182FF3A
:101930009BC182E119C0002321F080918F02800FAA
:1019400064D88091720182FF8FC183E10DC00023B2
:1019500031F080918802800F5FD880E064D8809158
:10196000720182FF81C187E08093C30210922C0232
:1019700066C123FF07C09F5F9B3009F459C1909354
:10198000C3025DC180917901882351F0277F3770B0
:10199000232B09F469C185E0809307018BE04DC1D9
:1019A000002351F09650923038F4802FAED786E065
:1019B0008093C30291E001C090E08091720184FFA6
:1019C00002C08FEF03C087FF50C18EEFB3D786E010
:1019D00034C1882351F08091B602813019F480918E
:1019E0008A0201C080E080937A0185E18093C3027E
:1019F000002361F040917A01802F992787FD90950F
:101A0000840F911D8770992780937A0122FFB7C0B8
:101A100086E18093C30210927B0181E090917A016C
:101A2000911101C080E08093B6028FE144DD66C071
:101A30008823A1F04CE751E060917B0180917A010D
:101A40001AD890937E0180937D01813A954030F0C1
:101A500040EA55E050937E0140937D010023E9F078
:101A600080917D0190917E016AE070E00E94AD1648
:101A7000CB018F569F4F800F911D07FD9A9561E90D
:101A800070E00E94AD164AE0489F9001499F300DDA
:101A9000112430937E0120937D018091720183FF98
:101AA00009C080917C0190E005968370992780930E
:101AB0007C01DAC082FF35C040917D0150917E01EA
:101AC00020917C0160917B0180917A010E941A052E
:101AD00080917B018F5F80937B01883068F08091DB
:101AE0007A01882331F067E00E9494169F5F9093FB
:101AF0007A0185E18093C30210922C028091B60294
:101B0000813019F480918A0201C080E00E94510561
:101B10006093BF027093C0028093C1029093C2028F
:101B20008EC084FFA1C084C0882339F0E92FF0E083
:101B3000EA56FD4F808180937A01002381F08091E5
:101B40007A01800F8E3308F401C08DE380937A010F
:101B500080917A01893018F489E080937A0122FF1C
:101B60000EC0E92FF0E0EA56FD4F80917A018083A4
:101B7000892F8150A0DC8091C3028F5FF5CE24FFB6
:101B800073C056C08091070181116EC051C024FD01
:101B90004FC023FF02C08EE050C022FF0BC09D301B
:101BA00029F48091080187DC8CE001C08DE08093EE
:101BB000C3025AC0112707FD10959C3071F4809123
:101BC00008019801280F311DC901879667E270E06E
:101BD0000E94AD168093080147C062E08091080121
:101BE0005BDCF82EC82FD0E063E08091080154DC64
:101BF000682F70E06C1B7D0B6F5F7F4F4091080179
:101C0000E42FF0E0E956FD4F80819801280F311D47
:101C1000C9018C1B9D0B860F971F0E94C116F80EE1
:101C2000F082411121C00E9481021EC024FF02C027
:101C300087E003C023FF05C08CE08093C30291E0DE
:101C400014C080917F01402F552747FD5095480FC4
:101C5000511DCA010D966DE070E00E94C11680937F
:101C60007F0191E0011101C090E02091720130915B
:101C700073014091790133FF0CC085E08093070127
:101C800081E0411180E080937901882391F08BE01D
:101C900015C0411116C034FF02C08CE00FC032FFE6
:101CA00002C08FE00BC030FF02C084E107C035FFE7
:101CB00002C087E003C031FF04C082E08093C3020A
:101CC00002C0992381F0C0910801C73258F460E046
:101CD0008C2FE2DBEC2FF0E0E956FD4F808387E2AA
:101CE0008093080191E01092730110927201892F84
:101CF000CDB7DEB7E5E00C943A17CF93DF93C82F4A
:101D0000E091C302F0E0E731F10508F092C1EB5B2E
:101D1000FF4F0C94481783E00E946A028AC18BE34C
:101D200088DD63E089E990EF0E94A40382C180E02E
:101D30000E946A028091930290E061E08053984F84
:101D40000E94500376C18BE374DD8091C302803121
:101D500011F441E001C043E060E0809192020E94F2
:101D600037038091C302813111F441E001C043E0A7
:101D700062E08091900223C0882359F080E00E94A5
:101D80006A0263E08BE30E94B30263E083E20E9495
:101D9000B3028091C302823111F441E001C043E0FB
:101DA00062E080918F020E9437038091C3028331E9
:101DB00011F441E001C043E060E0809188020E949C
:101DC000370337C1809102011816E4F48BE031DD4E
:101DD00043E063E08AE00E9431038091AD0290917C
:101DE000AE02019629F443E062E08DE00E943103E7
:101DF000809102016AE0A4D7892F43E060E00E944D
:101E000031032DC0CC2311F08BE013DD80912A0229
:101E10008823A9F087FF02C061E00DC082FF03C0E4
:101E200063E080E109C083FF03C063E081E104C097
:101E300086FF15C063E08FE00E94E60310C080912A
:101E40002B02882319F063E08EE0F6CFCC2311F04B
:101E50008BE0EFDC63E080912D020E940B04809107
:101E60000A01882341F090912C0280912D02981351
:101E700002C063E001C060E088E10E94B30280918B
:101E80000A01882311F060E001C063E082E30E9450
:101E9000B3026091BF027091C0028091C102909123
:101EA000C2020E949802C5C0882311F08BE3C1DCF6
:101EB00063E080911101909112010E94B303B9C0B7
:101EC000882319F080E00E946A0273D8853638F4BE
:101ED00070D843E060E090E00E946C03AAC063E029
:101EE0008AE005C08AE1A5DC61E080917A010E9468
:101EF000E6039FC080E00E946A0263E08BE30E94D9
:101F0000B30263E083E20E94B30263E08AE10E94CD
:101F1000B30280917A0190917B0128E0829F900D1D
:101F200011249093050190917C01592F5295507F77
:101F300040E020917D0130917E01240F351F3093C8
:101F40009602209395020E9451050E9498028FEFFD
:101F50008093050180917D0190917E01CCE3D0E0DA
:101F6000BE01FBD6862F61E00E94F50280917D01C3
:101F700090917E01803A25E0920790F4BE01EDD663
:101F8000862F41E062E00E94370380917D019091AD
:101F90007E01BE01E2D641E060E00E94370304C04A
:101FA00061E089E00E94E60361E080917C0140C02D
:101FB00080E00E946A0263E088E099CF83E00E949B
:101FC0006A028091C3028C3011F441E001C043E009
:101FD00062E0809108010E94A0038091C3028D30CD
:101FE00011F441E001C043E0E0910801F0E0E9565E
:101FF000FD4F60E080810E94A0031BC083E00E942F
:102000006A0280917F0194D263E00E94A40361E0A0
:1020100080917F010E94F5020CC08BE30ADC61E035
:1020200080917A010E940B048091C30263E0825088
:102030000BDCDF91CF910895F89490912402809168
:102040000302891789F0E92FF0E0EC5FFD4F8081F2
:102050009F5F9F71909324028A3049F49091800190
:1020600091509093800103C01092800180E0789499
:1020700008959091810180918201981328C5089557
:10208000CF93DF93D82FC0E018C0D6DF982F90539E
:102090009A3020F091539630B0F4965FEC2FE6958D
:1020A000F0E0EB5DFD4FC0FF04C02081290F2083CD
:1020B00003C09295907F9083CF5FCD13E6CFBCDFB6
:1020C0008A3009F480E0DF91CF910895F8949091DF
:1020D0008101492F50E09A012F5F3F4F2F7733271F
:1020E0006091820170E02617370749F0FA01ED5739
:1020F000FE4F8083892F8F5F8F7780938101789443
:102100000895CF93C82F82958F708A3010F0895A26
:1021100001C0805DDBDF8C2F8F708A3010F0895A10
:1021200001C0805DD3DFCF910895CF93C82F892F51
:10213000E8DF8C2FE6DFCF910895CF93DF93EC019A
:1021400002C0C4DF2196FE0184918111FACFDF9194
:10215000CF910895BBDF8BE5B9DF80912502D1DFF8
:102160008DE5B4DF8DE3B2CFA1E0B0E0E9EBF0E1C3
:1021700068C6843638F064E6D7D5805D9983A6DFDB
:102180009981892F6AE0D0D5805D99839FDF9981FD
:10219000892F805D9BDF2196E2E06FC6CF9364E6D6
:1021A00070E0DBD5C82F862FDFDF8C2FDDDFCF91EE
:1021B00008959091820180918101891751F0E92F52
:1021C000F0E0ED57FE4F80819F5F9F7790938201F3
:1021D000089580E008958823F1F08D3009F48AE0B5
:1021E00090910302E92FF0E0EC5FFD4F80839F5F49
:1021F0009F719093030220912402921304C09F5F69
:102200009F71909324028A3031F4F69A8091800174
:102210008F5F80938001089585EA91E08EDF80E8EA
:1022200095E237D426CFCF93C82F83EE91E085DF98
:1022300080918A02805365DF80E248DF80919002BE
:1022400093DF8EE243DF809192028EDF8EE23EDFEB
:102250008091930289DF80E239DF80918F0284DFF1
:102260008AE334DF809188027FDF8AE32FDF809169
:1022700091027ADF80E22ADF80910A01882311F03F
:1022800081E401C08DE422DF87EE91E056DFC7FDD7
:1022900002C08C2F02C080910E0166DF8CEE91E0AF
:1022A0004CDF809111019091120178DF81EF91E074
:1022B00044DF80910B018D3320F086EF91E03DDF0C
:1022C00005C022E3829FC001112468DF8BEF91E0FB
:1022D00034DF80910F019091100160DF80E092E087
:1022E0002CDF80912802909129021FDF80912A0221
:1022F000882331F086E092E020DF80912A0201DF1E
:10230000C7FF03C08AE092E018DF80912B02882388
:1023100019F08DE092E011DF8AE0D8DEAADECF91DD
:1023200008951F93CF93DF93DBC086DE182F482FCD
:1023300050E0FA01E154F109E931F10508F0CFC0AC
:10234000E45AFF4FA5C578DE8A3009F0C8C085EA97
:1023500091E0F3DEC4C070DE8A3009F0C0C084C0F2
:1023600082E08EDE8111C1C084E5F4DE8091250219
:10237000DFD057C0873429F482E082DE8111B5C0F6
:1023800010C084E07DDE8111B0C0809125028732CB
:1023900040F4E82FF0E0E956FD4F9091260290833B
:1023A0008AD8812FD7DEE0912502EF3F11F488E033
:1023B00004C0F0E0E956FD4F8081A3DE96C082356F
:1023C00029F482E05DDE811190C01CC086E058DEF9
:1023D00081118BC09091260280912502292F229590
:1023E0002F70D92FDF7030E0C32F90912702AE01FC
:1023F000490F511D682F6F7082958F700E941A05CA
:1024000010922C02812FA6DE80912502282F229582
:102410002F708F7090E038E0239F800D911D112464
:10242000A9D883DE62C086E02BDE81115EC0809178
:1024300025020E94E605809126020E94E90580910E
:1024400027020E94F10510C086E01ADE81114DC0FE
:10245000809125020E940505809126020E940C05AC
:10246000809127020E9413058FEFDDDE38C084E0E3
:1024700007DE81113AC080912502833109F035C011
:1024800080912602843289F5F89428E088E190E072
:102490000FB6F894A895809360000FBE209360005B
:1024A000FFCF82E0EDDD811120C081E09091250217
:1024B000913009F080E03ED218C082E0E1DD811168
:1024C00014C080912502893080F08E3370F49AE038
:1024D0009093090180932D028FEFA5DE06C0C9DD20
:1024E00080918001811121CF03C08AE0EFDDF7CF19
:1024F000DF91CF911F9108951F93CF93DF93EB014D
:10250000142F181614F48BE203C0882311F08DE207
:10251000DDDD80E2DBDDCE0108DE80E2D7DD812F6C
:10252000F0DD8AE0D3DDA5DDDF91CF911F91089525
:102530008D3090F4E82FF0E0EE0FFF1FE05FFD4FCD
:1025400085919491FC01FF7797FF03C02081318131
:1025500005C0208130E002C020E030E0C9010895CC
:10256000A0E0B0E0E5EBF2E167C4C62F811104C042
:1025700080912C0281111BC081E090912C0291115D
:1025800001C080E00E943606882389F080932C02E7
:1025900090910A01992359F080932D02909109019D
:1025A00097FF05C090910B01891310920901D090FB
:1025B00035028D2D90E08096D0912B02DD2319F00D
:1025C0002091BC0202C02091BB0230E0821B930B21
:1025D00060E270E0D6D3E0E0F0E000E117E240E234
:1025E000E42EF12C482F50E0DA01AA0FBB1FAA5CA1
:1025F000BD4F2D913C912115310541F02017310738
:102600000CF48901E217F3070CF4F9018D1529F098
:10261000CA010196B701B5D3E5CF209111013091E0
:102620001201A901401B510B8091BA0290E084175E
:1026300095072CF4DD2391F010922B020DC0D111DF
:102640000DC0E21BF30B8091B90290E08E179F073B
:102650002CF481E080932B021092090180910C01EF
:1026600090910D01009729F0019790930D018093AF
:102670000C018091090118161CF481508093090106
:1026800040910C0150910D014115510521F08091AF
:102690000901811110C1E0912D02EA3010F4EAE045
:1026A00004C080912B028111FACF80910B01E817B1
:1026B00039F0E0930B01109229021092280203C016
:1026C000452B09F0F3C08091A00245E0849FC00132
:1026D000112490930D0180930C01ED3308F0BEC0DE
:1026E00082E3E89FF0011124E21BF30BE03348EF93
:1026F000F40714F4E0E3F8EFE13D87E0F80714F0A5
:10270000E0EDF7E040912E0250912F024115510566
:1027100009F43FC0421B530B71F4AF01F7FF04C033
:10272000442755274E1B5F0B80919F0290E0841732
:10273000950754F02EC01416150624F41E161F0615
:102740001CF027C0F7FF25C060919D0280E092E356
:1027500070E017D3A0912802B09129026E177F076D
:1027600044F4AD01460F571F5093290240932802AD
:1027700010C088279927861B970BE817F9071CF4C8
:10278000A61BB70B02C0AE0FBF1FB0932902A093C8
:10279000280230932F0220932E02F0909E02FF20F9
:1027A00031F06F2D80E092E370E0EBD202C060E088
:1027B00072E34091280250912902641775072CF4A6
:1027C00070932902609328020BC022273327261B0F
:1027D000370B4217530724F4309329022093280221
:1027E00020919C02DF01F7FF04C0AA27BB27AE1B84
:1027F000BF0B30E08DD29B01AC01B0919D02A0E0F7
:102800002A0F3B1F411D511DDF0188D2472F582F32
:10281000692F772767FD7A95809128029091290288
:10282000F89E8001F99E100D1124222717FD209596
:10283000322F400F511F621F731F1091A20200E040
:10284000222717FD2095322F400F511F621F731F43
:10285000413024E65207610571051CF0C091A302C6
:1028600025C077FF03C0C091A10220C03C2F20E00B
:102870003203F001F31B1124E40FF51FE150FF4F69
:10288000EF3FF14098F0252F332727FD3A95C0916F
:10289000A3028C2F90E08217930744F0C091A1020D
:1028A0008C2F90E0281739070CF0C22F8FEF809300
:1028B00009018C2FB8DC20910F013091100180911B
:1028C000B80244E1849FC00111242817390720F47D
:1028D00080912A02806C0EC08091B70244E1849FEF
:1028E000C001112440912A022817390730F4842F9F
:1028F0008F77806480932A0203C04F7340932A022B
:102900008C2FCDB7DEB7E7E0B3C290912D02980FC0
:10291000993010F489E006C09E3318F490932D028C
:1029200003C08DE380932D0210922B028AE08093E6
:10293000090108958F3F49F490912D029093300240
:1029400090912C02909331020AC08E3F99F490919D
:10295000300290932D029091310290932C0291E0DD
:1029600020910A01211190E090930A019AE090933E
:10297000090104C080930A011092090190910A0193
:10298000992349F08E3F39F080E00E94360680930B
:102990002C0280932D0210922B0208951F920F9209
:1029A0000FB60F9211242F933F934F935F936F9322
:1029B0007F938F939F93AF93BF93EF93FF938091F8
:1029C000C60009DCE1ECF0E080818F768083EBE6E5
:1029D000F0E0808181608083FF91EF91BF91AF91A2
:1029E0009F918F917F916F915F914F913F912F9127
:1029F0000F900FBE0F901F9018951F920F920FB659
:102A00000F9211242F933F934F935F936F937F9374
:102A10008F939F93AF93BF93EF93FF93CADB88236A
:102A200019F08093C6000FC08091C1008F7D809304
:102A3000C1008091C00080648093C0008091C1007B
:102A400080648093C100FF91EF91BF91AF919F91FE
:102A50008F917F916F915F914F913F912F910F9047
:102A60000FBE0F901F9018951F920F920FB60F92E6
:102A700011248F93EF93FF93E1ECF0E08081877B4B
:102A80008083FF91EF918F910F900FBE0F901F9059
:102A900018959C0140E050E084E0220F331F441F52
:102AA000551F8A95D1F760E079E08DE390E07CD105
:102AB000215031093093C5002093C40086E08093F3
:102AC000C200EBE6F0E08081816080830895F89495
:102AD0008091C10085FD0FC08091C1008F7B8093E4
:102AE000C1008091C00080648093C0008091C100CB
:102AF00088628093C1007894089580E88093610093
:102B000091E09093610080BF8FEF80937E008DE015
:102B10008093640088E183BB8EE08DB993E09EB919
:102B200098E090BB93EF91BB85B981ED84B98EE2BB
:102B300080936C0080EC8DBB0E94000623B130E0D6
:102B4000209530952E70332781E02E30310509F025
:102B500080E00E948F0A81E00E948C070E9481021F
:102B600083B1809580768093BE021EBA789488E502
:102B700091E00E94450A883039F063E082E10E94CA
:102B8000E6030E943804FFCF47DB16E0C1E007E010
:102B900083E0F82EF8948EB3811126C08091B600A0
:102BA000877011F584B5877021F48091C100887118
:102BB00011F0C3BF07C080911301882311F0F3BE49
:102BC00001C003BF80911301882339F010921301D3
:102BD00080917A00806480937A00729878948895C6
:102BE0000000729A13BF01C07894F39B04C0F3985D
:102BF0000E943804CFCFF29B04C0F2980E94B1012A
:102C0000C9CFF69B03C0F6988CDBC4CFF59B04C0FC
:102C1000F5980E949F08BECFF49B08C0F4980E94CC
:102C2000D50B0E948C070E944B08B4CFF09B03C0C9
:102C3000F0980E94F60AF19B3CC0F1980E9475063C
:102C4000D82F60910E018CDC80930E01DD2371F092
:102C500080918A02863051F480918F028A3031F45B
:102C600080918802811102C00E948C070E94D50BBE
:102C70000E948C0780910E010E9408080E947E0B22
:102C800080919402882319F08091BD0281110E94E5
:102C9000A0018091070187FD03C081508093070147
:102CA00080E02BD88091E40088608093E400C0939A
:102CB0005C018091720190917301892B21F48091C4
:102CC0000701811167CF80E00E94430CD82F882331
:102CD00019F081E00E94430C8D2F0FD88091E40001
:102CE00088608093E400C0935C0154CF05D0332307
:102CF00012F48A1B9B0B0DC0A29FB001B39FC001B1
:102D0000A39F01D0B29F700D811D1124911D0895C4
:102D1000F3DFB7FF0895821B930B0895B7FFBEC082
:102D2000BDD0821B930B0895991B79E004C0991FB5
:102D3000961708F0961B881F7A95C9F78095089515
:102D400087FB082E062687FD819567FD6195ECDFE0
:102D50000EF4919507FC81950895AA1BBB1B51E1C8
:102D600007C0AA1FBB1FA617B70710F0A61BB70BFB
:102D7000881F991F5A95A9F780959095BC01CD01A0
:102D8000089597FB072E16F4009406D077FD08D01F
:102D9000E4DF07FC05D03EF4909581959F4F0895A0
:102DA000709561957F4F0895A1E21A2EAA1BBB1B57
:102DB000FD010DC0AA1FBB1FEE1FFF1FA217B30707
:102DC000E407F50720F0A21BB30BE40BF50B661F1D
:102DD000771F881F991F1A9469F7609570958095E1
:102DE00090959B01AC01BD01CF010895052E97FB85
:102DF00016F4009406D057FD0CD0D6DF07FC09D09E
:102E00007EF490958095709561957F4F8F4F9F4F81
:102E1000089550954095309521953F4F4F4F5F4F06
:102E200008952F923F924F925F926F927F928F926E
:102E30009F92AF92BF92CF92DF92EF92FF920F9349
:102E40001F93CF93DF93CDB7DEB7CA1BDB0B0FB653
:102E5000F894DEBF0FBECDBF09942A883988488810
:102E60005F846E847D848C849B84AA84B984C884A6
:102E7000DF80EE80FD800C811B81AA81B981CE0F9D
:102E8000D11D0FB6F894DEBF0FBECDBFED01089582
:102E9000EE0FFF1F0590F491E02D09942DDFA59F03
:102EA000900DB49F900DA49F800D911D1124089545
:042EB000F894FFCFC4
:0E2EB4000101FE0502FF0102271001FF1000C0
:00000001FF
