:100000000C9466000C9483000C9482090C94850077
:100010000C9483000C943A080C9483000C94830095
:100020000C9483000C9483000C9483000C94830044
:100030000C9483000C9483000C9483000C94830034
:100040000C9483000C9483000C9483000C94830024
:100050000C9483000C9483000C9485043F065B4F42
:10006000666D7D077F6F777C395E79716354737637
:1000700030084001484111495054105C0033273882
:1000800021221F20200D1E2021221E20200D1F2096
:10009000200F1C2020050A2020051F2028241F1BBC
:1000A00002031B19180001000203040506070809D2
:1000B0000A3935423E0C0D0E0F1011121314151F84
:1000C0001C1F1E1F1E1F1F1E1F1E1F0011241FBED0
:1000D000CFEFD4E0DEBFCDBF11E0A0E0B1E0E6E0BD
:1000E000F6E102C005900D92A030B107D9F711E0FA
:1000F000A0E0B1E001C01D92A435B107E1F70E9474
:100100007C010C94020B0C9400001F920F920FB60E
:100110000F9211248F939F9383B180958F76809354
:1001200007019091030180910701981779F180915F
:10013000070180930301809107018076809302017B
:1001400090910201809106019817E9F080910201D7
:100150008093060180910201803221F0809102019A
:10016000803421F480910A018F5F0BC080910201DD
:10017000882321F080910201803629F480910A01C0
:10018000815080930A0181E0809301019F918F91BA
:100190000F900FBE0F901F9018950FC020E0000029
:1001A0002F5F2F3FE1F720E000002F5F2F3FE1F7A7
:1001B00020E000002F5F2F3FE1F701972FEF8F3FE7
:1001C000920761F708951F93182F882389F00E94E2
:1001D0000706E82FF0E0E170F070E85FFE4F8081E5
:1001E0008093000163E088E10E94BA0260E005C0EC
:1001F00060E088E10E94BA0263E082E30E94BA02F2
:10020000109305011F9108951F93182F63E08CE24E
:100210000E94BA0280910501882349F0E12FF0E0A5
:10022000E170F070E85FFE4F8081809300011F91C4
:100230000895CF93DF9387E00E94F00782E00E9449
:10024000E70788E00E94E20786E10E947D058DE1D4
:100250000E94820580E00E9487058BEA8093080156
:100260008FE680930901C0E0D0E04DED60E08C2F77
:100270000E948C054EED61E08C2F0E948C054FEDA5
:1002800062E08C2F0E948C0540EE63E08C2F0E9470
:100290008C052196C730D10541F7109204011092C8
:1002A00001011092070110920301109202011092B5
:1002B0000601DF91CF910895E1E6F0E090E89083A8
:1002C00081E0808390BF8FEF80937E0080E984B9C6
:1002D00088E183BB88E08DB98FE685B98FE2809392
:1002E0006C0080EC8DBB0E94A20284E091E00E9431
:1002F000F9070E9458090895DF92EF92FF920F9339
:100300001F930E945C010E941901789483E00E946F
:10031000740288EE93E00E94CD0080E00E94740297
:1003200043E061E083E00E94DE0343E060E081E0BF
:100330000E94DE030E94810488EE93E00E94CD00BB
:1003400080E00E94740281E08093010183E6E82E40
:100350000AE0FF2410E0DD24D3948091010188237A
:1003600009F471C0109201011091070110951170EC
:100370008091070183FF08C063E088E10E94BA0210
:1003800008E2DD24D39404C060E088E10E94BA0250
:100390008091070181FF08C063E082E30E94BA02F6
:1003A00002E3DD24D39404C060E082E30E94BA0239
:1003B0008091070182FF08C063E08AE10E94BA02CF
:1003C0000CE3DD24D39404C060E08AE10E94BA0209
:1003D000F116F1F0812F0E9451091123C9F00E94FA
:1003E000960343E063E08CE00E94640343E062E034
:1003F0008AE00E94640343E061E083E20E946403B8
:100400000E94810460E0802F0E94D7090E94960319
:10041000DD2049F00E94A008882329F060E0802FA9
:100420000E94DF08DD240E949608882349F00E947C
:100430007005E81629F00E9469090E947005E82EEF
:1004400080910701F12E0E94A008882311F063E03B
:1004500001C060E08BE00E94BA02112311F063E05A
:1004600001C060E080E00E94BA02FF2011F063E06A
:1004700001C060E082E00E94BA020E94A0088823C6
:1004800059F443E063E08EE00E94640343E062E0DD
:1004900082E00E9464030BC043E061E0802F0E9471
:1004A000DE030E94710843E060E00E94DE030E94C8
:1004B000810453CF9091E700882311F49EE00CC093
:1004C0009F70813021F49F3061F09F5F05C08F3FA6
:1004D00019F4992331F091509093E70081E090E076
:1004E000089580E090E0089540E050E0682F70E0CB
:1004F000CB01042E02C0959587950A94E2F780FF00
:1005000002C0AFEF01C0A0E020E030E0CA01E3E0AC
:10051000880F991FEA95E1F7840F951FFC01E20F00
:10052000F31FE25FFE4FA0832F5F3F4F293031055D
:10053000A9F74F5F5F4F42305105D1F681E08093BC
:100540000D01089580E00E94740280E00E945A022A
:1005500085EA8093E50086E08093E600E4EEF0E033
:1005600080EC8083808188608083089580E00E9491
:1005700074020895A82FA695A695A695382F3770D2
:10058000EA2FF0E060FD0FC0E25FFE4F208181E0C6
:1005900090E0032E02C0880F991F0A94E2F780951D
:1005A000822380830DC0E25FFE4F208181E090E0D6
:1005B000032E02C0880F991F0A94E2F7282B20838C
:1005C000EA2FF0E061FF0DC0E25FFE4F218581E080
:1005D00090E002C0880F991F3A95E2F7282B2187F7
:1005E0000895E25FFE4F218581E090E002C0880F10
:1005F000991F3A95E2F7809582238187089560E0FC
:1006000088E10E94BA0260E082E30E94BA0260E0E0
:100610008AE10E94BA0260E08DE20E94BA0260E0C4
:1006200085E40E94BA0260E08CE20E94BA0281E096
:1006300080930D010895E7EAF0E0E80FF11DE491E1
:100640008E2F0E94BA0208950F931F93CF93DF93CA
:10065000062F182F883108F017E1C0E0D0E01C17F2
:1006600011F4602F01C060E08C2F0E941B032196C3
:10067000C831D105A1F7DF91CF911F910F91089556
:1006800060E087E10E94240381E080930D010895DA
:100690000F931F93CF93DF93062F182F883108F005
:1006A00017E1C0E0D0E01C1710F460E001C0602F3B
:1006B0008C2F0E941B032196C831D105A1F7DF9131
:1006C000CF911F910F910895EF92FF920F931F9377
:1006D000CF93DF93E42E643010F5853200F5E62FDA
:1006E000F0E0E456FF4FF490E82FF0E0E45AFF4FBB
:1006F0000491C0EAD0E011E0FE0194919F0D812F9A
:10070000802311F06E2D01C060E0892F0E94BA0293
:100710002196F0E0C73ADF0711F0110FEDCFDF911E
:10072000CF911F910F91FF90EF90089540E063E00B
:1007300080E20E94640340E062E080E20E94640381
:1007400040E061E080E20E94640340E060E080E21B
:100750000E94640360E08BE30E94BA0260E083E2DF
:100760000E94BA0281E080930D0108950F931F93B8
:10077000CF93DF93062F67E00E94CF0AC92FD0E006
:10078000CC0FDD1FCC0FDD1FC058DF4F13E0FE0183
:100790008491402F612F0E946403115021961F3FC6
:1007A000B1F760E08BE30E94BA0260E083E20E944E
:1007B000BA02DF91CF911F910F910895FF920F938D
:1007C0001F93082FF42E6230B8F48436A8F4262F35
:1007D00030E0220F331F122F6AE00E94CF0A622FEF
:1007E000892F0E9464031F5F802F6AE00E94CF0A56
:1007F0004F2D612F0E9464031F910F91FF90089568
:10080000FF920F931F93CF93DF93182FF62E60E084
:1008100083E20E94BA02112371F44F2D63E080E05D
:100820000E9464034F2D62E08FE00E9464034F2D0D
:1008300061E08FE00FC01F3FB1F44F2D63E080E017
:100840000E9464034F2D62E081E10E9464034F2DFA
:1008500061E080E20E9464034F2D60E080E20E942C
:10086000640360E02BC0012F10E00F5C1F4FC80134
:100870006AE070E00E94DB0AEB016A3058F44F2D09
:1008800063E080E20E9464034F2D62E08C2F0E949F
:10089000640305C04F2D61E08C2F0E94DE03C80168
:1008A0006AE070E00E94DB0A4F2D61E00E94640361
:1008B0004F2D60E08CE00E9464036F2D8BE30E945B
:1008C000BA02DF91CF911F910F91FF900895FF928F
:1008D0000F931F93F82E042F623078F470E0660FA8
:1008E000771F162F8F700E9464031F5F402F612FA8
:1008F0008F2D82958F700E9464031F910F91FF903E
:10090000089581E080930D0108951F920F920FB614
:100910000F9211248F939F93EF93FF9380910B017C
:10092000882329F410920C0181E080930D018091BD
:100930000B01883129F481E080930C0180930D0133
:1009400080910D01882309F499C080910C0190E0F9
:10095000FC01EE0FFF1FEE0FFF1FEE0FFF1FE80F52
:10096000F91FE25FFE4F80818093EC0080910C01C3
:1009700090E0FC01EE0FFF1FEE0FFF1FEE0FFF1FB9
:10098000E80FF91FE25FFE4F81818093ED008091B7
:100990000C0190E0FC01EE0FFF1FEE0FFF1FEE0FAA
:1009A000FF1FE80FF91FE25FFE4F82818093EE0088
:1009B00080910C0190E0FC01EE0FFF1FEE0FFF1F76
:1009C000EE0FFF1FE80FF91FE25FFE4F8381809358
:1009D000F10080910C0190E0FC01EE0FFF1FEE0F83
:1009E000FF1FEE0FFF1FE80FF91FE25FFE4F84812C
:1009F0008093F20080910C0190E0FC01EE0FFF1F4C
:100A0000EE0FFF1FEE0FFF1FE80FF91FE25FFE4F13
:100A100085818093F30080910C0190E0FC01EE0F42
:100A2000FF1FEE0FFF1FEE0FFF1FE80FF91FE25F22
:100A3000FE4F86818093F60080910C0190E0FC01CE
:100A4000EE0FFF1FEE0FFF1FEE0FFF1FE80FF91F46
:100A5000E25FFE4F87818093F70080910C0190E068
:100A6000FC01EE0FFF1FEE0FFF1FEE0FFF1FE80F41
:100A7000F91FE25FFE4F80858093F80080910B01A3
:100A80008F5F80930B0180910B01813310F01092E6
:100A90000B01FF91EF919F918F910F900FBE0F90DF
:100AA0001F9018958091280190E008958091480149
:100AB00090E008958091490190E008958091490166
:100AC00090E08053984F08958091220190E008951E
:100AD0008091270190E008958091200190E0089591
:100AE0008091470190E00895609123017091240165
:100AF00080912501909126010895883110F480930A
:100B0000270108958C3310F48093200108958C33CD
:100B100010F4809347010895E82FF0E0EE0FFF1FD7
:100B2000EE0FFF1FE60FF11DE75DFE4F40830895B6
:100B3000E82FF0E0EE0FFF1FEE0FFF1FE60FF11D95
:100B4000E75DFE4F808190E008951F9310E040E044
:100B50008091220190E0069667E070E00E94EF0A23
:100B6000282F30E0F901EE0FFF1FEE0FFF1FE75DAA
:100B7000FE4F8181481778F48181803F60F4E091D5
:100B80002201F0E0EE0FFF1FEE0FFF1FE75DFE4FAB
:100B9000418191E001C09FEFF901EE0FFF1FEE0FC1
:100BA000FF1FE75DFE4F8281481770F48281803F0E
:100BB00058F4E0912201F0E0EE0FFF1FEE0FFF1F4F
:100BC000E75DFE4F428192E0F901EE0FFF1FEE0F4D
:100BD000FF1FE75DFE4F8381481778F48381803FD4
:100BE00060F4E0912201F0E0EE0FFF1FEE0FFF1F17
:100BF000E75DFE4F438193E006C09F3F21F41F5FF6
:100C0000173009F0A5CF892F90E01F9108951F9309
:100C100020912701809120019AE0299F90011124C1
:100C20006AE00E94CF0A182F120F0E94A505982F84
:100C3000E0912201F0E0EE0FFF1FEE0FFF1FE75DD6
:100C4000FE4F81818823C1F0E0912201F0E0EE0F98
:100C5000FF1FEE0FFF1FE75DFE4F8181181760F049
:100C6000E0912201F0E0EE0FFF1FEE0FFF1FE75DA6
:100C7000FE4F218191E001C020E0E0912201F0E0EF
:100C8000EE0FFF1FEE0FFF1FE75DFE4F828128175B
:100C9000B8F4E0912201F0E0EE0FFF1FEE0FFF1F0E
:100CA000E75DFE4F8281181758F0E0912201F0E0D5
:100CB000EE0FFF1FEE0FFF1FE75DFE4F228192E058
:100CC000E0912201F0E0EE0FFF1FEE0FFF1FE75D46
:100CD000FE4F83812817B8F4E0912201F0E0EE0F77
:100CE000FF1FEE0FFF1FE75DFE4F8381181758F0BF
:100CF000E0912201F0E0EE0FFF1FEE0FFF1FE75D16
:100D0000FE4F838193E0892F90E01F910895809199
:100D1000490164E60E94CF0A992319F480E090E02B
:100D200008958091490190E08370907008958091BA
:100D30004801823049F0E0914801F0E0E154FF4F72
:100D4000E4918E2F90E008950E948706882319F081
:100D50008CE190E008958DE190E008950E9497065F
:100D6000909128019F5F909328012091280130E005
:100D700090E001962817390729F591E09093280112
:100D8000809148018F5F80934801809148018D30A8
:100D900039F490934801809149018F5F8093490114
:100DA000809148018B3011F4109221018091220131
:100DB0008F5F809322018091220167E00E94CF0A19
:100DC00090932201089580914801833019F42FE116
:100DD00030E006C0809148018A30C1F42EE130E055
:100DE0008091280190E02750304002C0880F991F61
:100DF0002A95E2F7892B51F48091220120E030E01E
:100E0000873011F421E030E0C901089580E090E0DE
:100E10000895CF93DF93809147018F5F80934701BF
:100E2000809147018C3309F073C010924701809183
:100E300020018F5F80932001809120018C33C1F5C8
:100E400010922001809127018F5F8093270180916C
:100E50002701883121F4109227010E94AE0680916B
:100E60004801833069F480912701823049F40E945F
:100E7000E306882329F0809127018F5F8093270163
:100E8000809148018A30A1F480912701833081F458
:100E900080912101882361F40E94E306882341F0B8
:100EA0008091270181508093270181E08093210167
:100EB000809120016AE00E94CF0A992349F5C0E0A1
:100EC000D0E0E0912201F0E0EE0FFF1FEE0FFF1FD8
:100ED000EC0FFD1FE75DFE4F4081209127018091BF
:100EE000200150E06AE00E94CF0A9AE0299F900119
:100EF0001124280F311D4217530731F4E0914501A9
:100F0000F09146018C2F09952196C430D105C9F680
:100F1000DF91CF910895CF93DF9380914801209185
:100F20002801C22FD0E06F972FE1829FC0011124CA
:100F3000C80FD91F80914801833038F00E9487067E
:100F4000882311F0239701C02297809148018530B2
:100F500008F0219780914801873008F0219780910F
:100F600048018A3008F02197809148018C3008F0C0
:100F7000219740914901809149012091490190E0D8
:100F8000019764E070E00E94EF0AFB01E40FF11D9D
:100F900030E0C901019764E670E00E94EF0AE61BA9
:100FA000F70BEC0FFD1F8091490181113196CF01A4
:100FB000049667E070E00E94DB0A80932201DF91D3
:100FC000CF910895809349010E948B070895982F2F
:100FD00081508C3010F4909348010E948B07089543
:100FE000982F81508F3110F4909328010E948B0725
:100FF00008959093460180934501809170008E7F03
:101000008093700088E08093B6001092B2008091C7
:10101000B00085608093B0002091B6008091B6004A
:1010200090E08470907030E021703070822B932BB0
:10103000892B91F78FEF87BB80917000816080933F
:101040007000109223011092240110922501109239
:10105000260110922701109220011092470181E091
:10106000809328018093480188E0809349010E9481
:101070008B0708951F920F920FB60F9211242F9392
:101080003F934F935F936F937F938F939F93AF9310
:10109000BF93EF93FF938091230190912401A0913E
:1010A0002501B09126010196A11DB11D8093230158
:1010B00090932401A0932501B09326010E94090773
:1010C000FF91EF91BF91AF919F918F917F916F9120
:1010D0005F914F913F912F910F900FBE0F901F90F6
:1010E000189580914B0190914C010B9718F48FEF5C
:1010F00090E0089520914D0130914E0180914B0177
:1011000090914C01F90143E0EE0FFF1F4A95E1F782
:101110006AE070E00E94DB0A220F331FC9018E0FC4
:101120009F1F0E94DB0A862F90E0089580914F0157
:1011300020E030E0882311F021E030E0C90108957B
:1011400080914B0190914C01009711F081E090E06B
:101150000895282F882359F480916B008F7E809307
:101160006B007398A398A4982F9888E41FC080916F
:101170004F018217E1F0739A80E180936B00662340
:1011800011F482EF01C082EB87BD8FEF9FEF909348
:10119000530180935201223029F4A39AA4982F98E6
:1011A00089E604C0A398A49A2F9A89E784BD209366
:1011B0004F01089560E080E00E94A9080895282F5B
:1011C000462F80914B0190914C01892B19F480E0BE
:1011D00090E00895243651F480914B0190914C0198
:1011E000C296909351018093500125C0222371F43F
:1011F000109251011092500180914D0190914E0139
:10120000C29690934E0180934D0115C080914B0181
:1012100090914C0130E0BC01269FC001279F900DAA
:10122000369F900D112464E670E00E94DB0A7093F3
:1012300051016093500120914D0130914E018091F8
:101240005001909151018217930728F4642F82E096
:101250000E94A9080BC020914D0130914E01809150
:101260005001909151012817390718F081E090E062
:101270000895642F81E00E94A90881E090E008951C
:1012800010924E0110924D0110924C0110924B01A0
:10129000109251011092500160E080E00E94A90874
:1012A000089580934A01882311F40E94400908950B
:1012B00010924E0110924D0110924C0110924B0170
:1012C000109251011092500160E080E00E94A90844
:1012D000089520914D0130914E01809152019091DD
:1012E00053012817390729F460E080E00E94A9081B
:1012F000089580914D0190914E01909353018093F8
:10130000520108951F920F920FB60F9211242F933E
:101310003F934F935F936F937F938F939F93AF937D
:10132000BF93EF93FF93649B31C080914F01813055
:10133000A9F480914D0190914E01019690934E0138
:1013400080934D0120914D0130914E0180915001CB
:101350009091510128173907C8F014C080914D01B0
:1013600090914E01019790934E0180934D012091F1
:101370004D0130914E0180915001909151018217A1
:10138000930720F060E080E00E94A908FF91EF91B0
:10139000BF91AF919F918F917F916F915F914F918D
:1013A0003F912F910F900FBE0F901F9018950F93A4
:1013B0001F93CF93DF93082F162F833308F46EC04B
:1013C00088EE93E090934E0180934D01109251016D
:1013D0001092500182E00E94A908C0914D01D09165
:1013E0004E0188EC90E00E94CD0080914F0188234F
:1013F00059F080914D0190914E01C817D90721F005
:1014000080914A01882349F780914F01882309F48C
:10141000BFC080914A01882309F4BAC0612F80E0DF
:101420000E94A90810924E0110924D0188EE93E09F
:101430009093510180935001612F81E00E94A9088F
:10144000C0914D01D0914E0188EC90E00E94CD00FA
:1014500080914F01882359F080914D0190914E0168
:10146000C817D90721F080914A01882349F7809154
:101470004F01882309F48CC080914A01882309F424
:1014800087C0612F80E00E94A90880914D01909152
:101490004E0190934C0180934B0173C010924E010A
:1014A00010924D0188EE93E090935101809350018A
:1014B00081E00E94A908C0914D01D0914E0188ECB5
:1014C00090E00E94CD0080914F01882359F08091D7
:1014D0004D0190914E01C817D90721F080914A0122
:1014E000882349F780914F01882309F451C08091E6
:1014F0004A01882309F44CC0612F80E00E94A908AA
:1015000088EE93E090934E0180934D01109251012B
:1015100010925001612F82E00E94A908C0914D01F4
:10152000D0914E0188EC90E00E94CD0080914F0157
:10153000882359F080914D0190914E01C817D90729
:1015400021F080914A01882349F780914F01882337
:10155000F9F080914A018823D9F0612F80E00E9440
:10156000A90820914D0130914E0188EE93E0821B35
:10157000930B90934C0180934B0110924E0110926B
:101580004D01612F802F0E94DF0881E090E002C0B2
:1015900080E090E0DF91CF911F910F910895991B0A
:1015A00079E004C0991F961708F0961B881F7A955A
:1015B000C9F780950895AA1BBB1B51E107C0AA1F5C
:1015C000BB1FA617B70710F0A61BB70B881F991FE4
:1015D0005A95A9F780959095BC01CD01089597FB88
:1015E000092E07260AD077FD04D0E5DF06D00020BB
:1015F0001AF4709561957F4F0895F6F7909581954F
:061600009F4F0895FFCF8B
:00000001FF
