:100000000C9466000C9483000C944F090C948500AA
:100010000C9483000C9422080C9483000C948300AD
:100020000C9483000C9483000C9483000C94830044
:100030000C9483000C9483000C9483000C94830034
:100040000C9483000C9483000C9483000C94830024
:100050000C9483000C9483000C947E043F065B4F49
:10006000666D7D077F6F777C395E79716354737637
:1000700030084001484111495054105C0033273882
:1000800021221F20200D1E2021221E20200D1F2096
:10009000200F1C2020050A2020051F2028241F1BBC
:1000A00002031B19180001000203040506070809D2
:1000B0000A3935423E0C0D0E0F1011121314151F84
:1000C0001C1F1E1F1E1F1F1E1F1E1F0011241FBED0
:1000D000CFEFD4E0DEBFCDBF11E0A0E0B1E0ECE4B3
:1000E000F5E102C005900D92A030B107D9F711E0FB
:1000F000A0E0B1E001C01D92AF34B107E1F70E946A
:100100007C010C94A50A0C9400001F920F920FB66C
:100110000F9211248F939F9383B180958F76809354
:1001200007019091030180910701981779F180915F
:10013000070180930301809107018076809302017B
:1001400090910201809106019817E9F080910201D7
:100150008093060180910201803221F0809102019A
:10016000803421F480910A018F5F0BC080910201DD
:10017000882321F080910201803629F480910A01C0
:10018000815080930A0181E0809301019F918F91BA
:100190000F900FBE0F901F9018950FC020E0000029
:1001A0002F5F2F3FE1F720E000002F5F2F3FE1F7A7
:1001B00020E000002F5F2F3FE1F701972FEF8F3FE7
:1001C000920761F708951F93182F882389F00E94E2
:1001D000F705E82FF0E0E170F070E85FFE4F8081F6
:1001E0008093000163E088E10E94B30260E005C0F3
:1001F00060E088E10E94B30263E082E30E94B30200
:10020000109305011F9108951F93182F63E08CE24E
:100210000E94B30280910501882349F0E12FF0E0AC
:10022000E170F070E85FFE4F8081809300011F91C4
:100230000895CF93DF9387E00E94E00782E00E9459
:10024000D70788E00E94D20786E10E946D058DE104
:100250000E94720580E00E9477058BEA8093080176
:100260008FE680930901C0E0D0E04DED60E08C2F77
:100270000E947C054EED61E08C2F0E947C054FEDC5
:1002800062E08C2F0E947C0540EE63E08C2F0E9480
:100290007C052196C730D10541F7109204011092D8
:1002A00001011092070110920301109202011092B5
:1002B0000601DF91CF910895E1E6F0E090E89083A8
:1002C00081E0808390BF8FEF80937E0080E984B9C6
:1002D00088E183BB88E08DB98FE685B98FE2809392
:1002E0006C0080EC8DBB0E949B0284E091E00E9438
:1002F000E9070E9425090895EF92FF920F931F933B
:100300000E945C010E941901789483E00E946D02B2
:1003100088EE93E00E94CD0080E00E946D0243E0F1
:1003200061E083E00E94D70343E060E081E00E9447
:10033000D7030E947A0488EE93E00E94CD0080E00B
:100340000E946D020AE5FF2480910101882309F4CF
:1003500073C01092010110910701109511708091E6
:10036000070183FF06C063E088E10E94B3020AE050
:1003700004C060E088E10E94B3028091070181FF20
:1003800006C063E082E30E94B30202E304C060E0BF
:1003900082E30E94B3028091070182FF06C063E0FE
:1003A0008AE10E94B3020AE504C060E08AE10E948B
:1003B000B302F11609F11123C1F043E063E08CE0D0
:1003C0000E945D0343E062E08AE00E945D0343E037
:1003D00061E083E20E945D030E947A0460E08AE5A6
:1003E0000E94A4090E948F0307C00E94140943E0E1
:1003F00060E085E00E945D030E946E08882361F43E
:100400000E947808882341F00E944608081721F0CE
:1004100060E0802F0E94B3080E946E08882349F094
:100420000E946905E81629F00E9436090E946905B4
:10043000E82E80910701F12E0E947808882311F0A0
:1004400063E001C060E08BE00E94B302112311F071
:1004500063E001C060E080E00E94B302FF2011F081
:1004600063E001C060E082E00E94B3020E9478086D
:10047000882359F443E063E08EE00E945D0343E08B
:1004800062E082E00E945D030BC043E061E0802FE8
:100490000E94D7030E94460843E060E00E94D70311
:1004A0000E947A0451CF9091E700882311F49EE0D6
:1004B0000CC09F70813021F49F3061F09F5F05C0B8
:1004C0008F3F19F4992331F091509093E70081E028
:1004D00090E0089580E090E0089540E050E0682FBB
:1004E00070E0CB01042E02C0959587950A94E2F73F
:1004F00080FF02C0AFEF01C0A0E020E030E0CA0101
:10050000E3E0880F991FEA95E1F7840F951FFC013E
:10051000E20FF31FE25FFE4FA0832F5F3F4F2930B2
:100520003105A9F74F5F5F4F42305105D1F681E0A9
:1005300080930D01089580E00E946D0280E00E948A
:10054000530285EA8093E50086E08093E600E4EEBE
:10055000F0E080EC8083808188608083089580E073
:100560000E946D020895A82FA695A695A695382FEE
:100570003770EA2FF0E060FD0FC0E25FFE4F208190
:1005800081E090E0032E02C0880F991F0A94E2F7E1
:100590008095822380830DC0E25FFE4F208181E041
:1005A00090E0032E02C0880F991F0A94E2F7282BCF
:1005B0002083EA2FF0E061FF0DC0E25FFE4F21854E
:1005C00081E090E002C0880F991F3A95E2F7282B4E
:1005D00021870895E25FFE4F218581E090E002C00F
:1005E000880F991F3A95E2F78095822381870895B5
:1005F00060E088E10E94B30260E082E30E94B302FF
:1006000060E08AE10E94B30260E08DE20E94B302E2
:1006100060E085E40E94B30260E08CE20E94B302D5
:1006200081E080930D010895E7EAF0E0E80FF11D05
:10063000E4918E2F0E94B30208950F931F93CF93DE
:10064000DF93062F182F883108F017E1C0E0D0E0C3
:100650001C1711F4602F01C060E08C2F0E9414035E
:100660002196C831D105A1F7DF91CF911F910F914C
:10067000089560E087E10E941D0381E080930D01F1
:1006800008950F931F93CF93DF93062F182F883170
:1006900008F017E1C0E0D0E01C1710F460E001C0E2
:1006A000602F8C2F0E9414032196C831D105A1F729
:1006B000DF91CF911F910F910895EF92FF920F93C9
:1006C0001F93CF93DF93E42E643010F5853200F54D
:1006D000E62FF0E0E456FF4FF490E82FF0E0E45A04
:1006E000FF4F0491C0EAD0E011E0FE0194919F0D0C
:1006F000812F802311F06E2D01C060E0892F0E94B0
:10070000B3022196F0E0C73ADF0711F0110FEDCFE9
:10071000DF91CF911F910F91FF90EF90089540E0EE
:1007200063E080E20E945D0340E062E080E20E94BC
:100730005D0340E061E080E20E945D0340E060E034
:1007400080E20E945D0360E08BE30E94B30260E000
:1007500083E20E94B30281E080930D0108950F931C
:100760001F93CF93DF93062F67E00E94720AC92F71
:10077000D0E0CC0FDD1FCC0FDD1FC058DF4F13E0E2
:10078000FE018491402F612F0E945D03115021963C
:100790001F3FB1F760E08BE30E94B30260E083E2A9
:1007A0000E94B302DF91CF911F910F910895FF92A4
:1007B0000F931F93082FF42E6230B8F48436A8F4F8
:1007C000262F30E0220F331F122F6AE00E94720A98
:1007D000622F892F0E945D031F5F802F6AE00E94B5
:1007E000720A4F2D612F0E945D031F910F91FF90A0
:1007F0000895FF920F931F93CF93DF93182FF62E38
:1008000060E083E20E94B302112371F44F2D63E094
:1008100080E00E945D034F2D62E08FE00E945D0347
:100820004F2D61E08FE00FC01F3FB1F44F2D63E00B
:1008300080E00E945D034F2D62E081E10E945D0334
:100840004F2D61E080E20E945D034F2D60E080E269
:100850000E945D0360E02BC0012F10E00F5C1F4F72
:10086000C8016AE070E00E947E0AEB016A3058F429
:100870004F2D63E080E20E945D034F2D62E08C2FDC
:100880000E945D0305C04F2D61E08C2F0E94D703AD
:10089000C8016AE070E00E947E0A4F2D61E00E946C
:1008A0005D034F2D60E08CE00E945D036F2D8BE3B4
:1008B0000E94B302DF91CF911F910F91FF90089595
:1008C000FF920F931F93F82E042F623078F470E09C
:1008D000660F771F162F8F700E945D031F5F402FDA
:1008E000612F8F2D82958F700E945D031F910F9154
:1008F000FF90089581E080930D0108951F920F925B
:100900000FB60F9211248F939F93EF93FF938091D3
:100910000B01882329F410920C0181E080930D01D2
:1009200080910B01883129F481E080930C01809340
:100930000D0180910D01882309F499C080910C016B
:1009400090E0FC01EE0FFF1FEE0FFF1FEE0FFF1FE9
:10095000E80FF91FE25FFE4F80818093EC008091E9
:100960000C0190E0FC01EE0FFF1FEE0FFF1FEE0FDA
:10097000FF1FE80FF91FE25FFE4F81818093ED00BA
:1009800080910C0190E0FC01EE0FFF1FEE0FFF1FA6
:10099000EE0FFF1FE80FF91FE25FFE4F8281809389
:1009A000EE0080910C0190E0FC01EE0FFF1FEE0FB6
:1009B000FF1FEE0FFF1FE80FF91FE25FFE4F83815D
:1009C0008093F10080910C0190E0FC01EE0FFF1F7D
:1009D000EE0FFF1FEE0FFF1FE80FF91FE25FFE4F44
:1009E00084818093F20080910C0190E0FC01EE0F75
:1009F000FF1FEE0FFF1FEE0FFF1FE80FF91FE25F53
:100A0000FE4F85818093F30080910C0190E0FC0102
:100A1000EE0FFF1FEE0FFF1FEE0FFF1FE80FF91F76
:100A2000E25FFE4F86818093F60080910C0190E09A
:100A3000FC01EE0FFF1FEE0FFF1FEE0FFF1FE80F71
:100A4000F91FE25FFE4F87818093F70080910C01D0
:100A500090E0FC01EE0FFF1FEE0FFF1FEE0FFF1FD8
:100A6000E80FF91FE25FFE4F80858093F8008091C8
:100A70000B018F5F80930B0180910B01813310F08C
:100A800010920B01FF91EF919F918F910F900FBEEC
:100A90000F901F9018958091240190E00895809107
:100AA000440190E008958091450190E0089580917F
:100AB000450190E08053984F08958091220190E085
:100AC00008958091230190E008958091200190E0A5
:100AD00008958091430190E00895883110F4809347
:100AE000230108958C3310F48093200108958C33F2
:100AF00010F4809343010895E82FF0E0EE0FFF1FFC
:100B0000EE0FFF1FE60FF11DEB5DFE4F40830895D2
:100B1000E82FF0E0EE0FFF1FEE0FFF1FE60FF11DB5
:100B2000EB5DFE4F808190E008951F9310E040E060
:100B30008091220190E0069667E070E00E94920AA0
:100B4000282F30E0F901EE0FFF1FEE0FFF1FEB5DC6
:100B5000FE4F8181481778F48181803F60F4E091F5
:100B60002201F0E0EE0FFF1FEE0FFF1FEB5DFE4FC7
:100B7000418191E001C09FEFF901EE0FFF1FEE0FE1
:100B8000FF1FEB5DFE4F8281481770F48281803F2A
:100B900058F4E0912201F0E0EE0FFF1FEE0FFF1F6F
:100BA000EB5DFE4F428192E0F901EE0FFF1FEE0F69
:100BB000FF1FEB5DFE4F8381481778F48381803FF0
:100BC00060F4E0912201F0E0EE0FFF1FEE0FFF1F37
:100BD000EB5DFE4F438193E006C09F3F21F41F5F12
:100BE000173009F0A5CF892F90E01F9108951F932A
:100BF00020912301809120019AE0299F90011124E6
:100C00006AE00E94720A182F120F0E949505982F11
:100C1000E0912201F0E0EE0FFF1FEE0FFF1FEB5DF2
:100C2000FE4F81818823C1F0E0912201F0E0EE0FB8
:100C3000FF1FEE0FFF1FEB5DFE4F8181181760F065
:100C4000E0912201F0E0EE0FFF1FEE0FFF1FEB5DC2
:100C5000FE4F218191E001C020E0E0912201F0E00F
:100C6000EE0FFF1FEE0FFF1FEB5DFE4F8281281777
:100C7000B8F4E0912201F0E0EE0FFF1FEE0FFF1F2E
:100C8000EB5DFE4F8281181758F0E0912201F0E0F1
:100C9000EE0FFF1FEE0FFF1FEB5DFE4F228192E074
:100CA000E0912201F0E0EE0FFF1FEE0FFF1FEB5D62
:100CB000FE4F83812817B8F4E0912201F0E0EE0F97
:100CC000FF1FEE0FFF1FEB5DFE4F8381181758F0DB
:100CD000E0912201F0E0EE0FFF1FEE0FFF1FEB5D32
:100CE000FE4F838193E0892F90E01F9108958091BA
:100CF000450164E60E94720A992319F480E090E0AD
:100D000008958091450190E08370907008958091DE
:100D10004401823049F0E0914401F0E0E154FF4F9A
:100D2000E4918E2F90E008950E947706882319F0B1
:100D30008CE190E008958DE190E008950E9487068F
:100D4000909124019F5F909324012091240130E031
:100D500090E001962817390729F591E09093240136
:100D6000809144018F5F80934401809144018D30D4
:100D700039F490934401809145018F5F8093450140
:100D8000809144018B3011F4109221018091220155
:100D90008F5F809322018091220167E00E94720A96
:100DA00090932201089580914401833019F42FE13A
:100DB00030E006C0809144018A30C1F42EE130E079
:100DC0008091240190E02750304002C0880F991F85
:100DD0002A95E2F7892B51F48091220120E030E03E
:100DE000873011F421E030E0C901089580E090E0FF
:100DF0000895CF93DF93809143018F5F80934301E8
:100E0000809143018C3309F073C0109243018091AB
:100E100020018F5F80932001809120018C33C1F5E8
:100E200010922001809123018F5F80932301809194
:100E30002301883121F4109223010E949E068091A3
:100E40004401833069F480912301823049F40E9487
:100E5000D306882329F0809123018F5F809323019B
:100E6000809144018A30A1F480912301833081F480
:100E700080912101882361F40E94D306882341F0E8
:100E80008091230181508093230181E0809321018F
:100E9000809120016AE00E94720A992349F5C0E01E
:100EA000D0E0E0912201F0E0EE0FFF1FEE0FFF1FF8
:100EB000EC0FFD1FEB5DFE4F4081209123018091DF
:100EC000200150E06AE00E94720A9AE0299F900196
:100ED0001124280F311D4217530731F4E0914101CD
:100EE000F09142018C2F09952196C430D105C9F6A5
:100EF000DF91CF910895CF93DF93809144012091AA
:100F00002401C22FD0E06F972FE1829FC0011124EE
:100F1000C80FD91F80914401833038F00E947706B2
:100F2000882311F0239701C02297809144018530D6
:100F300008F0219780914401873008F02197809133
:100F400044018A3008F02197809144018C3008F0E8
:100F5000219740914501809145012091450190E004
:100F6000019764E070E00E94920AFB01E40FF11D1A
:100F700030E0C901019764E670E00E94920AE61B26
:100F8000F70BEC0FFD1F8091450181113196CF01C8
:100F9000049667E070E00E947E0A80932201DF9150
:100FA000CF910895809345010E947B070895982F63
:100FB00081508C3010F4909344010E947B07089577
:100FC000982F81508F3110F4909324010E947B0759
:100FD00008959093420180934101809170008E7F2B
:100FE0008093700088E08093B6001092B2008091E8
:100FF000B00085608093B0002091B6008091B6006B
:1010000090E08470907030E021703070822B932BD0
:10101000892B91F78FEF87BB80917000816080935F
:10102000700010922301109220011092430181E080
:10103000809324018093440188E0809345010E94BD
:101040007B0708951F920F920FB60F9211242F93D2
:101050003F934F935F936F937F938F939F93AF9340
:10106000BF93EF93FF930E94F906FF91EF91BF9119
:10107000AF919F918F917F916F915F914F913F9130
:101080002F910F900FBE0F901F90189580914601E1
:10109000909147010B9708F40895209148013091F1
:1010A00049018091460190914701F90143E0EE0F1B
:1010B000FF1F4A95E1F76AE070E00E947E0A220F66
:1010C000331FC9018E0F9F1F0E947E0ACB0190E043
:1010D00008958091480190914901089580914A01B5
:1010E00020E030E0882311F021E030E0C9010895CC
:1010F0008091460190914701009711F081E090E0C6
:101100000895282F882359F480916B008F7E809357
:101110006B007398A398A4982F9888E41BC0739AC7
:1011200080E180936B00662311F482EF01C082EBB3
:1011300087BD8FEF9FEF90934E0180934D0122303A
:1011400029F4A39AA4982F9889E604C0A398A49A96
:101150002F9A89E784BD20934A01089560E080E0DA
:101160000E9481080895282F462F80914601909172
:101170004701892B19F480E090E00895243651F45A
:101180008091460190914701C29690934C018093C3
:101190004B0125C0222371F410924C0110924B0197
:1011A0008091480190914901C296909349018093A2
:1011B000480115C0809146019091470130E0BC0183
:1011C000269FC001279F900D369F900D112464E645
:1011D00070E00E947E0A70934C0160934B01209155
:1011E00048013091490180914B0190914C01821747
:1011F000930728F4642F82E00E9481080BC020919D
:1012000048013091490180914B0190914C01281780
:10121000390718F081E090E00895642F81E00E9482
:10122000810881E090E008951092490110924801F0
:10123000109247011092460110924C0110924B01FE
:1012400060E080E00E9481080895109249011092A8
:101250004801109247011092460110924C011092E1
:101260004B0160E080E00E948108089520914801D0
:101270003091490180914D0190914E012817390715
:1012800029F460E080E00E9481080895809148017F
:101290009091490190934E0180934D0108951F92C2
:1012A0000F920FB60F9211242F933F934F935F939A
:1012B0006F937F938F939F93AF93BF93EF93FF931E
:1012C000649B31C080914A018130A9F4809148012A
:1012D0009091490101969093490180934801209192
:1012E00048013091490180914B0190914C012817A0
:1012F0003907C8F014C080914801909149010197C5
:10130000909349018093480120914801309149010F
:1013100080914B0190914C018217930720F060E07F
:1013200080E00E948108FF91EF91BF91AF919F9162
:101330008F917F916F915F914F913F912F910F907E
:101340000FBE0F901F9018951F93CF93DF93162F0A
:10135000833308F45CC088EE93E090934901809356
:10136000480110924C0110924B0182E00E948108CA
:10137000C0914801D091490188EC90E00E94CD00D5
:1013800080914A01882339F0809148019091490168
:10139000C817D90769F780914A01882309F49CC0CE
:1013A000612F80E00E94810810924901109248014B
:1013B00088EE93E090934C0180934B01612F81E084
:1013C0000E948108C0914801D091490188EC90E0C9
:1013D0000E94CD0080914A01882339F08091480114
:1013E00090914901C817D90769F780914A0188236C
:1013F00009F472C0612F80E00E9481088091480149
:1014000090914901909347018093460162C01092E8
:1014100049011092480188EE93E090934C0180932B
:101420004B0181E00E948108C0914801D09149019F
:1014300088EC90E00E94CD0080914A01882339F029
:101440008091480190914901C817D90769F78091A7
:101450004A01882309F440C0612F80E00E9481087E
:1014600088EE93E0909349018093480110924C01DB
:1014700010924B01612F82E00E948108C0914801C7
:10148000D091490188EC90E00E94CD0080914A0102
:10149000882339F08091480190914901C817D907F4
:1014A00069F780914A018823B9F0612F80E00E949A
:1014B0008108209148013091490188EE93E0821B18
:1014C000930B90934701809346011092490110922B
:1014D000480181E090E002C080E090E0DF91CF9190
:1014E0001F910895991B79E004C0991F961708F081
:1014F000961B881F7A95C9F780950895AA1BBB1B78
:1015000051E107C0AA1FBB1FA617B70710F0A61B03
:10151000B70B881F991F5A95A9F780959095BC0124
:10152000CD01089597FB092E07260AD077FD04D038
:10153000E5DF06D000201AF4709561957F4F08957D
:0C154000F6F7909581959F4F0895FFCF1E
:00000001FF
