:100000000C9466000C9483000C9485000C94AB0057
:100010000C9483000C94C7070C9483000C94830009
:100020000C9483000C9483000C9483000C94830044
:100030000C9483000C9483000C9483000C94830034
:100040000C9483000C9483000C9483000C94830024
:100050000C9483000C9483000C9423043F065B4FA4
:10006000666D7D077F6F777C395E79716354737637
:1000700030084001484111495054105C00332700BA
:1000800021221F20200D1E2021221E20200D1F2096
:10009000200F1C2020050A2020051F2028241F1BBC
:1000A00002031B19180001000203040506070809D2
:1000B0000A3935423E0C0D0E0F1011121314151F84
:1000C0001C1F1E1F1E1F1F1E1F1E1F0011241FBED0
:1000D000CFEFD4E0DEBFCDBF11E0A0E0B1E0E6ECB1
:1000E000F0E102C005900D92A030B107D9F711E000
:1000F000A0E0B1E001C01D92A035B107E1F70E9478
:10010000A7010C9462080C9400001F920F920FB686
:100110000F9211248F939F938CB190E092958295CA
:100120008F7089279F708927817080930A01909131
:10013000010180910A01981739F080910A0180939A
:10014000010181E0809309019F918F910F900FBE73
:100150000F901F9018951F920F920FB60F921124B7
:100160008F939F9383B18F768093070190910801BD
:1001700080910701981779F1809107018093080118
:10018000809107018076809306019091060180910D
:100190000B019817E9F08091060180930B01809183
:1001A0000601803221F080910601803421F4809193
:1001B00000018F5F0BC080910601882321F08091A0
:1001C0000601803629F4809100018150809300015E
:1001D00081E080930C019F918F910F900FBE0F9043
:1001E0001F9018950FC020E000002F5F2F3FE1F710
:1001F00020E000002F5F2F3FE1F720E000002F5F9D
:100200002F3FE1F701972FEF8F3F920761F7089596
:100210001F93182F882389F00E949C05E82FF0E097
:10022000E170F070EC5FFE4F80818093030163E02A
:1002300088E10E94580260E005C060E088E10E9409
:10024000580263E082E30E945802109302011F915A
:1002500008951F93182F63E08CE20E94580280914A
:100260000201882349F0E12FF0E0E170F070EC5FCB
:10027000FE4F8081809303011F910895CF93DF93F8
:1002800087E00E94850782E00E947C0788E00E9448
:10029000770786E10E9412058DE10E94170580E034
:1002A0000E941C058BEA809304018FE68093050170
:1002B000C0E0D0E04DED60E08C2F0E9421054EEDB6
:1002C00061E08C2F0E9421054FED62E08C2F0E948F
:1002D000210540EE63E08C2F0E9421052196C73056
:1002E000D10541F710920C011092090110920A01F8
:1002F00010920701109208011092060110920B0152
:10030000DF91CF910895E1E6F0E090E8908381E0FD
:10031000808390BF8FEF80937E0080E984B988E16D
:1003200083BB88E08DB98FE685B990E19EB980ECFA
:100330008DBB8FE280936C0090936B000E94400213
:1003400089E291E00E948E070E941A0808950E9497
:1003500083010E943E01789483E00E94120280EDA6
:1003600097E00E94F20080E00E94120263E08BE0BE
:100370000E94580261E08BE30E94580261E083E230
:100380000E94580288E18093000180910C0188232B
:1003900061F110920C018091070183FF02C060E0BF
:1003A00001C063E088E10E9458028091070181FF4B
:1003B00002C060E001C063E082E30E9458028091C5
:1003C000070182FF02C060E001C063E08AE10E9491
:1003D00058028091070143E061E00E94050480918A
:1003E000000143E060E00E947C030E941F04CDCF27
:1003F0009091E700882311F49EE00CC09F7081303B
:1004000021F49F3061F09F5F05C08F3F19F499235D
:1004100031F091509093E70081E090E0089580E002
:1004200090E0089540E050E0682F70E0CB01042E8A
:1004300002C0959587950A94E2F780FF02C0AFEF5E
:1004400001C0A0E020E030E0CA01E3E0880F991F7E
:10045000EA95E1F7840F951FFC01E20FF31FE05FBF
:10046000FE4FA0832F5F3F4F29303105A9F74F5F23
:100470005F4F42305105D1F681E080930F0108951E
:1004800080E00E94120280E00E94F80185EA8093D9
:10049000E50086E08093E600E4EEF0E080EC808307
:1004A000808188608083089580E00E941202089510
:1004B000A82FA695A695A695382F3770EA2FF0E0BD
:1004C00060FD0FC0E05FFE4F208181E090E0032ED1
:1004D00002C0880F991F0A94E2F7809582238083D7
:1004E0000DC0E05FFE4F208181E090E0032E02C04E
:1004F000880F991F0A94E2F7282B2083EA2FF0E057
:1005000061FF0DC0E05FFE4F218581E090E002C0F9
:10051000880F991F3A95E2F7282B21870895E05F0D
:10052000FE4F218581E090E002C0880F991F3A9527
:10053000E2F7809582238187089560E088E10E9438
:10054000580260E082E30E94580260E08AE10E9463
:10055000580260E08DE20E94580260E085E40E944B
:10056000580260E08CE20E94580281E080930F0103
:100570000895E7EAF0E0E80FF11DE4918E2F0E9464
:10058000580208950F931F93CF93DF93062F182FD0
:10059000883108F017E1C0E0D0E01C1711F4602F9B
:1005A00001C060E08C2F0E94B9022196C831D105AC
:1005B000A1F7DF91CF911F910F91089560E087E13E
:1005C0000E94C20281E080930F0108950F931F9350
:1005D000CF93DF93062F182F883108F017E1C0E082
:1005E000D0E01C1710F460E001C0602F8C2F0E9437
:1005F000B9022196C831D105A1F7DF91CF911F91A2
:100600000F910895EF92FF920F931F93CF93DF9373
:10061000E42E643010F5853200F5E62FF0E0E45664
:10062000FF4FF490E82FF0E0E45AFF4F0491C0EA46
:10063000D0E011E0FE0194919F0D812F802311F0F5
:100640006E2D01C060E0892F0E9458022196F0E0D3
:10065000C73ADF0711F0110FEDCFDF91CF911F9156
:100660000F91FF90EF90089540E063E080E20E94D8
:10067000020340E062E080E20E94020340E061E0A9
:1006800080E20E94020340E060E080E20E940203F8
:1006900060E08BE30E94580260E083E20E9458020F
:1006A00081E080930F0108950F931F93CF93DF9301
:1006B000062F67E00E942F08C92FD0E0CC0FDD1F66
:1006C000CC0FDD1FC058DF4F13E0FE018491402F97
:1006D000612F0E940203115021961F3FB1F760E085
:1006E0008BE30E94580260E083E20E945802DF918F
:1006F000CF911F910F910895FF920F931F93082F91
:10070000F42E6230B8F48436A8F4262F30E0220F9D
:10071000331F122F6AE00E942F08622F892F0E9438
:1007200002031F5F802F6AE00E942F084F2D612F68
:100730000E9402031F910F91FF900895FF920F9363
:100740001F93CF93DF93182FF62E60E083E20E9471
:100750005802112371F44F2D63E080E00E940203E0
:100760004F2D62E08FE00E9402034F2D61E08FE089
:100770000FC01F3FB1F44F2D63E080E00E940203E1
:100780004F2D62E081E10E9402034F2D61E080E283
:100790000E9402034F2D60E080E20E94020360E0AD
:1007A0002BC0012F10E00F5C1F4FC8016AE070E002
:1007B0000E943B08EB016A3058F44F2D63E080E261
:1007C0000E9402034F2D62E08C2F0E94020305C09D
:1007D0004F2D61E08C2F0E947C03C8016AE070E01D
:1007E0000E943B084F2D61E00E9402034F2D60E004
:1007F0008CE00E9402036F2D8BE30E945802DF9170
:10080000CF911F910F91FF900895FF920F931F9327
:10081000F82E042F623078F470E0660F771F162FE1
:100820008F700E9402031F5F402F612F8F2D8295D2
:100830008F700E9402031F910F91FF90089581E035
:1008400080930F0108951F920F920FB60F921124FB
:100850008F939F93EF93FF9380910D01882329F449
:1008600010920E0181E080930F0180910D0188317B
:1008700029F481E080930E0180930F0180910F0194
:10088000882309F499C080910E0190E0FC01EE0FDD
:10089000FF1FEE0FFF1FEE0FFF1FE80FF91FE05FB6
:1008A000FE4F80818093EC0080910E0190E0FC016E
:1008B000EE0FFF1FEE0FFF1FEE0FFF1FE80FF91FD8
:1008C000E05FFE4F81818093ED0080910E0190E00A
:1008D000FC01EE0FFF1FEE0FFF1FEE0FFF1FE80FD3
:1008E000F91FE05FFE4F82818093EE0080910E0140
:1008F00090E0FC01EE0FFF1FEE0FFF1FEE0FFF1F3A
:10090000E80FF91FE05FFE4F83818093F100809133
:100910000E0190E0FC01EE0FFF1FEE0FFF1FEE0F28
:10092000FF1FE80FF91FE05FFE4F84818093F20004
:1009300080910E0190E0FC01EE0FFF1FEE0FFF1FF4
:10094000EE0FFF1FE80FF91FE05FFE4F85818093D8
:10095000F30080910E0190E0FC01EE0FFF1FEE0FFF
:10096000FF1FEE0FFF1FE80FF91FE05FFE4F8681AC
:100970008093F60080910E0190E0FC01EE0FFF1FC6
:10098000EE0FFF1FEE0FFF1FE80FF91FE05FFE4F96
:1009900087818093F70080910E0190E0FC01EE0FBB
:1009A000FF1FEE0FFF1FEE0FFF1FE80FF91FE05FA5
:1009B000FE4F80858093F80080910D018F5F8093BA
:1009C0000D0180910D01813310F010920D01FF9106
:1009D000EF919F918F910F900FBE0F901F901895E0
:1009E0008091260190E008958091460190E008955D
:1009F0008091470190E008958091470190E08053F5
:100A0000984F08958091240190E0089580912501E8
:100A100090E008958091220190E008958091450131
:100A200090E00895883110F48093250108958C3367
:100A300010F48093220108958C3310F480934501C3
:100A40000895E82FF0E0EE0FFF1FEE0FFF1FE60FF7
:100A5000F11DE95DFE4F40830895E82FF0E0EE0FB1
:100A6000FF1FEE0FFF1FE60FF11DE95DFE4F8081B6
:100A700090E008951F9310E040E08091240190E001
:100A8000069667E070E00E944F08282F30E0F901D9
:100A9000EE0FFF1FEE0FFF1FE95DFE4F818148172C
:100AA00078F48181803F60F4E0912401F0E0EE0F62
:100AB000FF1FEE0FFF1FE95DFE4F418191E001C076
:100AC0009FEFF901EE0FFF1FEE0FFF1FE95DFE4FD5
:100AD0008281481770F48281803F58F4E0912401AC
:100AE000F0E0EE0FFF1FEE0FFF1FE95DFE4F4281AA
:100AF00092E0F901EE0FFF1FEE0FFF1FE95DFE4FC1
:100B00008381481778F48381803F60F4E091240169
:100B1000F0E0EE0FFF1FEE0FFF1FE95DFE4F438178
:100B200093E006C09F3F21F41F5F173009F0A5CF67
:100B3000892F90E01F9108951F93209125018091A6
:100B400022019AE0299F900111246AE00E942F0857
:100B5000182F120F0E943A05982FE0912401F0E01F
:100B6000EE0FFF1FEE0FFF1FE95DFE4F818188230F
:100B7000C1F0E0912401F0E0EE0FFF1FEE0FFF1F28
:100B8000E95DFE4F8181181760F0E0912401F0E0EB
:100B9000EE0FFF1FEE0FFF1FE95DFE4F218191E079
:100BA00001C020E0E0912401F0E0EE0FFF1FEE0F06
:100BB000FF1FE95DFE4F82812817B8F4E091240100
:100BC000F0E0EE0FFF1FEE0FFF1FE95DFE4F828189
:100BD000181758F0E0912401F0E0EE0FFF1FEE0F20
:100BE000FF1FE95DFE4F228192E0E0912401F0E0D9
:100BF000EE0FFF1FEE0FFF1FE95DFE4F83812817E9
:100C0000B8F4E0912401F0E0EE0FFF1FEE0FFF1F9C
:100C1000E95DFE4F8381181758F0E0912401F0E060
:100C2000EE0FFF1FEE0FFF1FE95DFE4F838193E084
:100C3000892F90E01F9108958091470164E60E94FA
:100C40002F08992319F480E090E0089580914701DE
:100C500090E083709070089580914601823049F051
:100C6000E0914601F0E0E154FF4FE4918E2F90E0D7
:100C700008950E941C06882319F08CE190E00895E5
:100C80008DE190E008950E942C06909126019F5FCF
:100C9000909326012091260130E090E001962817DC
:100CA000390729F591E090932601809146018F5FE5
:100CB00080934601809146018D3039F4909346012E
:100CC000809147018F5F80934701809146018B306F
:100CD00011F410922301809124018F5F80932401ED
:100CE0008091240167E00E942F08909324010895C9
:100CF00080914601833019F42FE130E006C08091E5
:100D000046018A30C1F42EE130E08091260190E066
:100D10002750304002C0880F991F2A95E2F7892B8F
:100D200051F48091240120E030E0873011F421E07B
:100D300030E0C901089580E090E00895CF93DF93FB
:100D4000809145018F5F80934501809145018C33EF
:100D500009F073C010924501809122018F5F80934A
:100D60002201809122018C33C1F5109222018091E1
:100D700025018F5F8093250180912501883121F421
:100D8000109225010E94430680914601833069F448
:100D900080912501823049F40E947806882329F049
:100DA000809125018F5F80932501809146018A30D3
:100DB000A1F480912501833081F48091230188235F
:100DC00061F40E947806882341F0809125018150CA
:100DD0008093250181E080932301809122016AE0C4
:100DE0000E942F08992349F5C0E0D0E0E09124014A
:100DF000F0E0EE0FFF1FEE0FFF1FEC0FFD1FE95D90
:100E0000FE4F4081209125018091220150E06AE04F
:100E10000E942F089AE0299F90011124280F311D6C
:100E20004217530731F4E0914301F09144018C2FB4
:100E300009952196C430D105C9F6DF91CF91089567
:100E4000CF93DF938091460120912601C22FD0E0FD
:100E50006F972FE1829FC0011124C80FD91F809185
:100E60004601833038F00E941C06882311F0239736
:100E700001C0229780914601853008F0219780912A
:100E80004601873008F02197809146018A3008F0AA
:100E90002197809146018C3008F0219740914701BD
:100EA000809147012091470190E0019764E070E054
:100EB0000E944F08FB01E40FF11D30E0C9010197CA
:100EC00064E670E00E944F08E61BF70BEC0FFD1F75
:100ED0008091470181113196CF01049667E070E05F
:100EE0000E943B0880932401DF91CF910895809365
:100EF00047010E9420070895982F81508C3010F4EC
:100F0000909346010E9420070895982F81508F31B9
:100F100010F4909326010E942007089590934401B5
:100F200080934301809170008E7F8093700088E0F1
:100F30008093B6001092B2008091B00085608093DB
:100F4000B0002091B6008091B60090E0847090705F
:100F500030E021703070822B932B892B91F78FEF2B
:100F600087BB809170008160809370001092250192
:100F7000109222011092450181E080932601809316
:100F8000460188E0809347010E94200708951F9240
:100F90000F920FB60F9211242F933F934F935F93AD
:100FA0006F937F938F939F93AF93BF93EF93FF9331
:100FB0000E949E06FF91EF91BF91AF919F918F91FB
:100FC0007F916F915F914F913F912F910F900FBE45
:100FD0000F901F90189580914D0190E00895982FE3
:100FE000882339F4A398A4982F9888E484BD739833
:100FF0001AC0739A8350823010F482EB01C082EFE2
:1010000087BD913011F0933029F4A39AA4982F98BA
:1010100089E608C0923011F0943029F4A398A49A7C
:101020002F9A89E784BD90934A01089580E00E9439
:10103000EF0708958FEF80934D01109249011092B0
:10104000480110924A0110924F0110924E011092E5
:101050004C0110924B0180E00E94EF070895991B0C
:1010600079E004C0991F961708F0961B881F7A959F
:10107000C9F780950895AA1BBB1B51E107C0AA1FA1
:10108000BB1FA617B70710F0A61BB70B881F991F29
:101090005A95A9F780959095BC01CD01089597FBCD
:1010A000092E07260AD077FD04D0E5DF06D0002000
:1010B0001AF4709561957F4F0895F6F79095819594
:0610C0009F4F0895FFCFD1
:00000001FF
